nohup: ignoring input
2026-01-09 08:29:39.359 INFO Python: 3.12.3 (main, Nov  6 2025, 13:44:16) [GCC 13.3.0]
2026-01-09 08:29:39.359 INFO Executable: /home/renierdejager/Documents/.venv/bin/python3
2026-01-09 08:29:39.359 INFO CWD: /home/renierdejager/Documents/ctrader_trading_bot
2026-01-09 08:29:39.360 INFO PY_LOGDIR: /home/renierdejager/Documents/ctrader_trading_bot/ctrader_py_logs
2026-01-09 08:29:39.360 INFO Logfile: ctrader_py_logs/ctrader_20260109_062939.log
2026-01-09 08:29:39.360 INFO symbol_id=10028 qty=0.1 timeframe=M1
2026-01-09 08:29:39.360 INFO cfg_quote=config/ctrader_quote.cfg
2026-01-09 08:29:39.360 INFO cfg_trade=config/ctrader_trade.cfg
2026-01-09 08:29:39.360 INFO CTRADER_USERNAME=5179095
2026-01-09 08:29:39.381 INFO [CREATE] FIX.4.4:demo.pepperstone.5179095->cServer:QUOTE qual=QUOTE
2026-01-09 08:29:39.401 INFO [CREATE] FIX.4.4:demo.pepperstone.5179095->cServer:TRADE qual=TRADE
2026-01-09 08:29:39.590 INFO [ADMIN][LOGON OUT] qual=QUOTE 8=FIX.4.4|9=127|35=A|34=18|49=demo.pepperstone.5179095|52=20260109-06:29:39.589|56=cServer|57=QUOTE|98=0|108=30|141=Y|553=5179095|554=REDACTEDJ@3ger69|10=125|
2026-01-09 08:29:39.590 INFO [ADMIN][LOGON OUT] qual=TRADE 8=FIX.4.4|9=127|35=A|34=19|49=demo.pepperstone.5179095|52=20260109-06:29:39.589|56=cServer|57=TRADE|98=0|108=30|141=Y|553=5179095|554=REDACTEDJ@3ger69|10=096|
2026-01-09 08:29:40.152 INFO [ADMIN][IN] qual=QUOTE 8=FIX.4.4|9=101|35=A|34=1|49=cServer|50=QUOTE|52=20260109-06:29:40.023|56=demo.pepperstone.5179095|98=0|108=30|141=Y|10=136|
2026-01-09 08:29:40.152 INFO [LOGON] FIX.4.4:demo.pepperstone.5179095->cServer:QUOTE qual=QUOTE
2026-01-09 08:29:40.153 INFO [APP][OUT] qual=QUOTE 8=FIX.4.4|9=141|35=V|34=2|49=demo.pepperstone.5179095|52=20260109-06:29:40.153|56=cServer|146=1|55=10028|262=BTCUSD_SPOT|263=1|264=1|265=1|267=2|269=0|269=1|10=109|
2026-01-09 08:29:40.153 INFO [QUOTE] Subscribed spot for symbolId=10028
2026-01-09 08:29:40.153 INFO [ADMIN][IN] qual=TRADE 8=FIX.4.4|9=101|35=A|34=1|49=cServer|50=TRADE|52=20260109-06:29:40.024|56=demo.pepperstone.5179095|98=0|108=30|141=Y|10=107|
2026-01-09 08:29:40.154 INFO [LOGON] FIX.4.4:demo.pepperstone.5179095->cServer:TRADE qual=TRADE
2026-01-09 08:29:40.154 INFO [APP][OUT] qual=TRADE 8=FIX.4.4|9=94|35=AN|34=2|49=demo.pepperstone.5179095|52=20260109-06:29:40.154|56=cServer|710=pos_80b80e53e6|10=097|
2026-01-09 08:29:40.154 INFO [TRADE] Requested positions
2026-01-09 08:29:40.412 INFO [APP][IN] qual=QUOTE 8=FIX.4.4|9=136|35=W|34=2|49=cServer|50=QUOTE|52=20260109-06:29:40.283|56=demo.pepperstone.5179095|55=10028|268=2|269=0|270=90879.15|269=1|270=90894.15|10=048|
2026-01-09 08:29:40.563 INFO [APP][IN] qual=QUOTE 8=FIX.4.4|9=136|35=W|34=3|49=cServer|50=QUOTE|52=20260109-06:29:40.434|56=demo.pepperstone.5179095|55=10028|268=2|269=0|270=90879.96|269=1|270=90894.96|10=065|
2026-01-09 08:29:40.968 INFO [APP][IN] qual=QUOTE 8=FIX.4.4|9=136|35=W|34=4|49=cServer|50=QUOTE|52=20260109-06:29:40.839|56=demo.pepperstone.5179095|55=10028|268=2|269=0|270=90879.23|269=1|270=90894.23|10=055|
2026-01-09 08:29:41.370 INFO [APP][IN] qual=QUOTE 8=FIX.4.4|9=130|35=W|34=5|49=cServer|50=QUOTE|52=20260109-06:29:41.241|56=demo.pepperstone.5179095|55=10028|268=2|269=0|270=90874|269=1|270=90889|10=255|
2026-01-09 08:29:41.799 INFO [APP][IN] qual=QUOTE 8=FIX.4.4|9=136|35=W|34=6|49=cServer|50=QUOTE|52=20260109-06:29:41.670|56=demo.pepperstone.5179095|55=10028|268=2|269=0|270=90873.69|269=1|270=90888.69|10=068|
2026-01-09 08:29:42.222 INFO [APP][IN] qual=QUOTE 8=FIX.4.4|9=136|35=W|34=7|49=cServer|50=QUOTE|52=20260109-06:29:42.093|56=demo.pepperstone.5179095|55=10028|268=2|269=0|270=90873.08|269=1|270=90888.08|10=055|
2026-01-09 08:29:42.624 INFO [APP][IN] qual=QUOTE 8=FIX.4.4|9=136|35=W|34=8|49=cServer|50=QUOTE|52=20260109-06:29:42.495|56=demo.pepperstone.5179095|55=10028|268=2|269=0|270=90873.26|269=1|270=90888.26|10=062|
2026-01-09 08:29:43.025 INFO [APP][IN] qual=QUOTE 8=FIX.4.4|9=136|35=W|34=9|49=cServer|50=QUOTE|52=20260109-06:29:42.895|56=demo.pepperstone.5179095|55=10028|268=2|269=0|270=90872.19|269=1|270=90887.19|10=069|
2026-01-09 08:29:43.427 INFO [APP][IN] qual=QUOTE 8=FIX.4.4|9=137|35=W|34=10|49=cServer|50=QUOTE|52=20260109-06:29:43.298|56=demo.pepperstone.5179095|55=10028|268=2|269=0|270=90873.78|269=1|270=90888.78|10=120|
2026-01-09 08:29:43.833 INFO [APP][IN] qual=QUOTE 8=FIX.4.4|9=137|35=W|34=11|49=cServer|50=QUOTE|52=20260109-06:29:43.704|56=demo.pepperstone.5179095|55=10028|268=2|269=0|270=90873.55|269=1|270=90888.55|10=103|
2026-01-09 08:29:44.271 INFO [APP][IN] qual=QUOTE 8=FIX.4.4|9=135|35=W|34=12|49=cServer|50=QUOTE|52=20260109-06:29:44.142|56=demo.pepperstone.5179095|55=10028|268=2|269=0|270=90873.3|269=1|270=90888.3|10=245|
2026-01-09 08:29:44.681 INFO [APP][IN] qual=QUOTE 8=FIX.4.4|9=137|35=W|34=13|49=cServer|50=QUOTE|52=20260109-06:29:44.552|56=demo.pepperstone.5179095|55=10028|268=2|269=0|270=90872.31|269=1|270=90887.31|10=093|
2026-01-09 08:29:45.090 INFO [APP][IN] qual=QUOTE 8=FIX.4.4|9=137|35=W|34=14|49=cServer|50=QUOTE|52=20260109-06:29:44.961|56=demo.pepperstone.5179095|55=10028|268=2|269=0|270=90872.73|269=1|270=90887.73|10=110|
2026-01-09 08:29:45.524 INFO [APP][IN] qual=QUOTE 8=FIX.4.4|9=137|35=W|34=15|49=cServer|50=QUOTE|52=20260109-06:29:45.395|56=demo.pepperstone.5179095|55=10028|268=2|269=0|270=90872.54|269=1|270=90887.54|10=111|
2026-01-09 08:29:45.935 INFO [APP][IN] qual=QUOTE 8=FIX.4.4|9=137|35=W|34=16|49=cServer|50=QUOTE|52=20260109-06:29:45.805|56=demo.pepperstone.5179095|55=10028|268=2|269=0|270=90873.06|269=1|270=90888.06|10=104|
2026-01-09 08:29:46.337 INFO [APP][IN] qual=QUOTE 8=FIX.4.4|9=137|35=W|34=17|49=cServer|50=QUOTE|52=20260109-06:29:46.208|56=demo.pepperstone.5179095|55=10028|268=2|269=0|270=90872.75|269=1|270=90887.75|10=113|
2026-01-09 08:29:46.786 INFO [APP][IN] qual=QUOTE 8=FIX.4.4|9=137|35=W|34=18|49=cServer|50=QUOTE|52=20260109-06:29:46.656|56=demo.pepperstone.5179095|55=10028|268=2|269=0|270=90877.77|269=1|270=90892.77|10=126|
2026-01-09 08:29:47.188 INFO [APP][IN] qual=QUOTE 8=FIX.4.4|9=137|35=W|34=19|49=cServer|50=QUOTE|52=20260109-06:29:47.059|56=demo.pepperstone.5179095|55=10028|268=2|269=0|270=90880.48|269=1|270=90895.48|10=118|
2026-01-09 08:29:47.590 INFO [APP][IN] qual=QUOTE 8=FIX.4.4|9=137|35=W|34=20|49=cServer|50=QUOTE|52=20260109-06:29:47.461|56=demo.pepperstone.5179095|55=10028|268=2|269=0|270=90881.56|269=1|270=90896.56|10=107|
2026-01-09 08:29:47.994 INFO [APP][IN] qual=QUOTE 8=FIX.4.4|9=137|35=W|34=21|49=cServer|50=QUOTE|52=20260109-06:29:47.865|56=demo.pepperstone.5179095|55=10028|268=2|269=0|270=90881.32|269=1|270=90896.32|10=104|
2026-01-09 08:29:48.402 INFO [APP][IN] qual=QUOTE 8=FIX.4.4|9=137|35=W|34=22|49=cServer|50=QUOTE|52=20260109-06:29:48.273|56=demo.pepperstone.5179095|55=10028|268=2|269=0|270=90886.99|269=1|270=90901.99|10=117|
2026-01-09 08:29:48.846 INFO [APP][IN] qual=QUOTE 8=FIX.4.4|9=137|35=W|34=23|49=cServer|50=QUOTE|52=20260109-06:29:48.717|56=demo.pepperstone.5179095|55=10028|268=2|269=0|270=90881.41|269=1|270=90896.41|10=103|
2026-01-09 08:29:49.261 INFO [APP][IN] qual=QUOTE 8=FIX.4.4|9=137|35=W|34=24|49=cServer|50=QUOTE|52=20260109-06:29:49.132|56=demo.pepperstone.5179095|55=10028|268=2|269=0|270=90881.34|269=1|270=90896.34|10=100|
2026-01-09 08:29:49.713 INFO [APP][IN] qual=QUOTE 8=FIX.4.4|9=137|35=W|34=25|49=cServer|50=QUOTE|52=20260109-06:29:49.584|56=demo.pepperstone.5179095|55=10028|268=2|269=0|270=90881.67|269=1|270=90896.67|10=124|
2026-01-09 08:29:50.114 INFO [APP][IN] qual=QUOTE 8=FIX.4.4|9=137|35=W|34=26|49=cServer|50=QUOTE|52=20260109-06:29:49.985|56=demo.pepperstone.5179095|55=10028|268=2|269=0|270=90881.83|269=1|270=90896.83|10=126|
2026-01-09 08:29:50.529 INFO [APP][IN] qual=QUOTE 8=FIX.4.4|9=137|35=W|34=27|49=cServer|50=QUOTE|52=20260109-06:29:50.400|56=demo.pepperstone.5179095|55=10028|268=2|269=0|270=90881.56|269=1|270=90896.56|10=101|
2026-01-09 08:29:50.967 INFO [APP][IN] qual=QUOTE 8=FIX.4.4|9=137|35=W|34=28|49=cServer|50=QUOTE|52=20260109-06:29:50.838|56=demo.pepperstone.5179095|55=10028|268=2|269=0|270=90882.02|269=1|270=90897.02|10=101|
2026-01-09 08:29:51.369 INFO [APP][IN] qual=QUOTE 8=FIX.4.4|9=137|35=W|34=29|49=cServer|50=QUOTE|52=20260109-06:29:51.239|56=demo.pepperstone.5179095|55=10028|268=2|269=0|270=90881.96|269=1|270=90896.96|10=122|
2026-01-09 08:29:51.770 INFO [APP][IN] qual=QUOTE 8=FIX.4.4|9=135|35=W|34=30|49=cServer|50=QUOTE|52=20260109-06:29:51.641|56=demo.pepperstone.5179095|55=10028|268=2|269=0|270=90881.7|269=1|270=90896.7|10=253|
2026-01-09 08:29:52.218 INFO [APP][IN] qual=QUOTE 8=FIX.4.4|9=137|35=W|34=31|49=cServer|50=QUOTE|52=20260109-06:29:52.088|56=demo.pepperstone.5179095|55=10028|268=2|269=0|270=90881.44|269=1|270=90896.44|10=104|
2026-01-09 08:29:52.627 INFO [APP][IN] qual=QUOTE 8=FIX.4.4|9=137|35=W|34=32|49=cServer|50=QUOTE|52=20260109-06:29:52.498|56=demo.pepperstone.5179095|55=10028|268=2|269=0|270=90881.63|269=1|270=90896.63|10=112|
2026-01-09 08:29:53.033 INFO [APP][IN] qual=QUOTE 8=FIX.4.4|9=137|35=W|34=33|49=cServer|50=QUOTE|52=20260109-06:29:52.901|56=demo.pepperstone.5179095|55=10028|268=2|269=0|270=90882.06|269=1|270=90897.06|10=098|
2026-01-09 08:29:53.474 INFO [APP][IN] qual=QUOTE 8=FIX.4.4|9=137|35=W|34=34|49=cServer|50=QUOTE|52=20260109-06:29:53.345|56=demo.pepperstone.5179095|55=10028|268=2|269=0|270=90882.17|269=1|270=90897.17|10=106|
2026-01-09 08:29:53.925 INFO [APP][IN] qual=QUOTE 8=FIX.4.4|9=137|35=W|34=35|49=cServer|50=QUOTE|52=20260109-06:29:53.796|56=demo.pepperstone.5179095|55=10028|268=2|269=0|270=90883.15|269=1|270=90898.15|10=115|
2026-01-09 08:29:54.327 INFO [APP][IN] qual=QUOTE 8=FIX.4.4|9=137|35=W|34=36|49=cServer|50=QUOTE|52=20260109-06:29:54.198|56=demo.pepperstone.5179095|55=10028|268=2|269=0|270=90882.87|269=1|270=90897.87|10=129|
2026-01-09 08:29:54.728 INFO [APP][IN] qual=QUOTE 8=FIX.4.4|9=137|35=W|34=37|49=cServer|50=QUOTE|52=20260109-06:29:54.599|56=demo.pepperstone.5179095|55=10028|268=2|269=0|270=90882.52|269=1|270=90897.52|10=119|
2026-01-09 08:29:55.182 INFO [APP][IN] qual=QUOTE 8=FIX.4.4|9=137|35=W|34=38|49=cServer|50=QUOTE|52=20260109-06:29:55.052|56=demo.pepperstone.5179095|55=10028|268=2|269=0|270=90882.73|269=1|270=90897.73|10=111|
2026-01-09 08:29:55.594 INFO [APP][IN] qual=QUOTE 8=FIX.4.4|9=137|35=W|34=39|49=cServer|50=QUOTE|52=20260109-06:29:55.464|56=demo.pepperstone.5179095|55=10028|268=2|269=0|270=90877.69|269=1|270=90892.69|10=128|
2026-01-09 08:29:56.017 INFO [APP][IN] qual=QUOTE 8=FIX.4.4|9=137|35=W|34=40|49=cServer|50=QUOTE|52=20260109-06:29:55.888|56=demo.pepperstone.5179095|55=10028|268=2|269=0|270=90878.33|269=1|270=90893.33|10=114|
2026-01-09 08:29:56.537 INFO [APP][IN] qual=QUOTE 8=FIX.4.4|9=137|35=W|34=41|49=cServer|50=QUOTE|52=20260109-06:29:56.408|56=demo.pepperstone.5179095|55=10028|268=2|269=0|270=90879.33|269=1|270=90894.33|10=106|
2026-01-09 08:29:56.987 INFO [APP][IN] qual=QUOTE 8=FIX.4.4|9=137|35=W|34=42|49=cServer|50=QUOTE|52=20260109-06:29:56.858|56=demo.pepperstone.5179095|55=10028|268=2|269=0|270=90878.45|269=1|270=90893.45|10=120|
2026-01-09 08:29:57.434 INFO [APP][IN] qual=QUOTE 8=FIX.4.4|9=137|35=W|34=43|49=cServer|50=QUOTE|52=20260109-06:29:57.305|56=demo.pepperstone.5179095|55=10028|268=2|269=0|270=90884.43|269=1|270=90899.43|10=108|
2026-01-09 08:29:57.839 INFO [APP][IN] qual=QUOTE 8=FIX.4.4|9=137|35=W|34=44|49=cServer|50=QUOTE|52=20260109-06:29:57.709|56=demo.pepperstone.5179095|55=10028|268=2|269=0|270=90884.33|269=1|270=90899.33|10=115|
2026-01-09 08:29:58.241 INFO [APP][IN] qual=QUOTE 8=FIX.4.4|9=137|35=W|34=45|49=cServer|50=QUOTE|52=20260109-06:29:58.112|56=demo.pepperstone.5179095|55=10028|268=2|269=0|270=90884.46|269=1|270=90899.46|10=113|
2026-01-09 08:29:58.642 INFO [APP][IN] qual=QUOTE 8=FIX.4.4|9=137|35=W|34=46|49=cServer|50=QUOTE|52=20260109-06:29:58.513|56=demo.pepperstone.5179095|55=10028|268=2|269=0|270=90885.72|269=1|270=90900.72|10=101|
2026-01-09 08:29:59.046 INFO [APP][IN] qual=QUOTE 8=FIX.4.4|9=137|35=W|34=47|49=cServer|50=QUOTE|52=20260109-06:29:58.917|56=demo.pepperstone.5179095|55=10028|268=2|269=0|270=90889.03|269=1|270=90904.03|10=106|
2026-01-09 08:29:59.453 INFO [APP][IN] qual=QUOTE 8=FIX.4.4|9=137|35=W|34=48|49=cServer|50=QUOTE|52=20260109-06:29:59.323|56=demo.pepperstone.5179095|55=10028|268=2|269=0|270=90879.49|269=1|270=90894.49|10=126|
2026-01-09 08:29:59.861 INFO [APP][IN] qual=QUOTE 8=FIX.4.4|9=137|35=W|34=49|49=cServer|50=QUOTE|52=20260109-06:29:59.732|56=demo.pepperstone.5179095|55=10028|268=2|269=0|270=90878.18|269=1|270=90893.18|10=121|
2026-01-09 08:30:00.263 INFO [APP][IN] qual=QUOTE 8=FIX.4.4|9=137|35=W|34=50|49=cServer|50=QUOTE|52=20260109-06:30:00.134|56=demo.pepperstone.5179095|55=10028|268=2|269=0|270=90866.66|269=1|270=90881.66|10=087|
2026-01-09 08:30:00.264 INFO [BAR M1] 2026-01-09T06:29:00+00:00 O=90886.65 H=90896.53 L=90879.69 C=90885.68 | desired=0 cur=0
2026-01-09 08:30:00.673 INFO [APP][IN] qual=QUOTE 8=FIX.4.4|9=137|35=W|34=51|49=cServer|50=QUOTE|52=20260109-06:30:00.544|56=demo.pepperstone.5179095|55=10028|268=2|269=0|270=90857.14|269=1|270=90872.14|10=079|
2026-01-09 08:30:01.076 INFO [APP][IN] qual=QUOTE 8=FIX.4.4|9=137|35=W|34=52|49=cServer|50=QUOTE|52=20260109-06:30:00.947|56=demo.pepperstone.5179095|55=10028|268=2|269=0|270=90864.84|269=1|270=90879.84|10=106|
2026-01-09 08:30:01.478 INFO [APP][IN] qual=QUOTE 8=FIX.4.4|9=135|35=W|34=53|49=cServer|50=QUOTE|52=20260109-06:30:01.348|56=demo.pepperstone.5179095|55=10028|268=2|269=0|270=90864.4|269=1|270=90879.4|10=245|
2026-01-09 08:30:01.906 INFO [APP][IN] qual=QUOTE 8=FIX.4.4|9=137|35=W|34=54|49=cServer|50=QUOTE|52=20260109-06:30:01.777|56=demo.pepperstone.5179095|55=10028|268=2|269=0|270=90864.76|269=1|270=90879.76|10=112|
2026-01-09 08:30:02.319 INFO [APP][IN] qual=QUOTE 8=FIX.4.4|9=137|35=W|34=55|49=cServer|50=QUOTE|52=20260109-06:30:02.190|56=demo.pepperstone.5179095|55=10028|268=2|269=0|270=90864.91|269=1|270=90879.91|10=097|
2026-01-09 08:30:02.721 INFO [APP][IN] qual=QUOTE 8=FIX.4.4|9=137|35=W|34=56|49=cServer|50=QUOTE|52=20260109-06:30:02.592|56=demo.pepperstone.5179095|55=10028|268=2|269=0|270=90881.59|269=1|270=90896.59|10=110|
2026-01-09 08:30:03.124 INFO [APP][IN] qual=QUOTE 8=FIX.4.4|9=137|35=W|34=57|49=cServer|50=QUOTE|52=20260109-06:30:02.995|56=demo.pepperstone.5179095|55=10028|268=2|269=0|270=90890.98|269=1|270=90905.98|10=115|
2026-01-09 08:30:03.530 INFO [APP][IN] qual=QUOTE 8=FIX.4.4|9=137|35=W|34=58|49=cServer|50=QUOTE|52=20260109-06:30:03.400|56=demo.pepperstone.5179095|55=10028|268=2|269=0|270=90894.98|269=1|270=90909.98|10=106|
2026-01-09 08:30:03.931 INFO [APP][IN] qual=QUOTE 8=FIX.4.4|9=131|35=W|34=59|49=cServer|50=QUOTE|52=20260109-06:30:03.802|56=demo.pepperstone.5179095|55=10028|268=2|269=0|270=90894|269=1|270=90909|10=045|
2026-01-09 08:30:04.777 INFO [APP][IN] qual=QUOTE 8=FIX.4.4|9=137|35=W|34=60|49=cServer|50=QUOTE|52=20260109-06:30:04.648|56=demo.pepperstone.5179095|55=10028|268=2|269=0|270=90894.25|269=1|270=90909.25|10=094|
2026-01-09 08:30:05.182 INFO [APP][IN] qual=QUOTE 8=FIX.4.4|9=137|35=W|34=61|49=cServer|50=QUOTE|52=20260109-06:30:05.053|56=demo.pepperstone.5179095|55=10028|268=2|269=0|270=90895.66|269=1|270=90910.66|10=089|
2026-01-09 08:30:05.633 INFO [APP][IN] qual=QUOTE 8=FIX.4.4|9=137|35=W|34=62|49=cServer|50=QUOTE|52=20260109-06:30:05.504|56=demo.pepperstone.5179095|55=10028|268=2|269=0|270=90894.34|269=1|270=90909.34|10=088|
2026-01-09 08:30:06.044 INFO [APP][IN] qual=QUOTE 8=FIX.4.4|9=137|35=W|34=63|49=cServer|50=QUOTE|52=20260109-06:30:05.914|56=demo.pepperstone.5179095|55=10028|268=2|269=0|270=90894.64|269=1|270=90909.64|10=100|
2026-01-09 08:30:06.487 INFO [APP][IN] qual=QUOTE 8=FIX.4.4|9=135|35=W|34=64|49=cServer|50=QUOTE|52=20260109-06:30:06.357|56=demo.pepperstone.5179095|55=10028|268=2|269=0|270=90894.1|269=1|270=90909.1|10=243|
2026-01-09 08:30:06.891 INFO [APP][IN] qual=QUOTE 8=FIX.4.4|9=137|35=W|34=65|49=cServer|50=QUOTE|52=20260109-06:30:06.762|56=demo.pepperstone.5179095|55=10028|268=2|269=0|270=90892.04|269=1|270=90907.04|10=088|
2026-01-09 08:30:07.341 INFO [APP][IN] qual=QUOTE 8=FIX.4.4|9=137|35=W|34=66|49=cServer|50=QUOTE|52=20260109-06:30:07.212|56=demo.pepperstone.5179095|55=10028|268=2|269=0|270=90890.63|269=1|270=90905.63|10=086|
2026-01-09 08:30:07.780 INFO [APP][IN] qual=QUOTE 8=FIX.4.4|9=137|35=W|34=67|49=cServer|50=QUOTE|52=20260109-06:30:07.651|56=demo.pepperstone.5179095|55=10028|268=2|269=0|270=90885.11|269=1|270=90900.11|10=079|
2026-01-09 08:30:08.190 INFO [APP][IN] qual=QUOTE 8=FIX.4.4|9=137|35=W|34=68|49=cServer|50=QUOTE|52=20260109-06:30:08.061|56=demo.pepperstone.5179095|55=10028|268=2|269=0|270=90894.08|269=1|270=90909.08|10=097|
2026-01-09 08:30:08.593 INFO [APP][IN] qual=QUOTE 8=FIX.4.4|9=137|35=W|34=69|49=cServer|50=QUOTE|52=20260109-06:30:08.464|56=demo.pepperstone.5179095|55=10028|268=2|269=0|270=90891.19|269=1|270=90906.19|10=103|
2026-01-09 08:30:08.998 INFO [APP][IN] qual=QUOTE 8=FIX.4.4|9=137|35=W|34=70|49=cServer|50=QUOTE|52=20260109-06:30:08.869|56=demo.pepperstone.5179095|55=10028|268=2|269=0|270=90891.75|269=1|270=90906.75|10=108|
2026-01-09 08:30:09.410 INFO [APP][IN] qual=QUOTE 8=FIX.4.4|9=137|35=W|34=71|49=cServer|50=QUOTE|52=20260109-06:30:09.281|56=demo.pepperstone.5179095|55=10028|268=2|269=0|270=90892.14|269=1|270=90907.14|10=086|
2026-01-09 08:30:09.811 INFO [APP][IN] qual=QUOTE 8=FIX.4.4|9=137|35=W|34=72|49=cServer|50=QUOTE|52=20260109-06:30:09.682|56=demo.pepperstone.5179095|55=10028|268=2|269=0|270=90892.11|269=1|270=90907.11|10=086|
2026-01-09 08:30:10.214 INFO [APP][IN] qual=QUOTE 8=FIX.4.4|9=137|35=W|34=73|49=cServer|50=QUOTE|52=20260109-06:30:10.085|56=demo.pepperstone.5179095|55=10028|268=2|269=0|270=90889.76|269=1|270=90904.76|10=101|
2026-01-09 08:30:10.621 INFO [ADMIN][IN] qual=TRADE 8=FIX.4.4|9=83|35=0|34=3|49=cServer|50=TRADE|52=20260109-06:30:10.492|56=demo.pepperstone.5179095|10=237|
2026-01-09 08:30:10.663 INFO [APP][IN] qual=QUOTE 8=FIX.4.4|9=135|35=W|34=74|49=cServer|50=QUOTE|52=20260109-06:30:10.534|56=demo.pepperstone.5179095|55=10028|268=2|269=0|270=90888.2|269=1|270=90903.2|10=235|
2026-01-09 08:30:11.065 INFO [APP][IN] qual=QUOTE 8=FIX.4.4|9=137|35=W|34=75|49=cServer|50=QUOTE|52=20260109-06:30:10.936|56=demo.pepperstone.5179095|55=10028|268=2|269=0|270=90884.32|269=1|270=90899.32|10=100|
2026-01-09 08:30:11.467 INFO [APP][IN] qual=QUOTE 8=FIX.4.4|9=137|35=W|34=76|49=cServer|50=QUOTE|52=20260109-06:30:11.338|56=demo.pepperstone.5179095|55=10028|268=2|269=0|270=90879.33|269=1|270=90894.33|10=099|
2026-01-09 08:30:11.873 INFO [APP][IN] qual=QUOTE 8=FIX.4.4|9=137|35=W|34=77|49=cServer|50=QUOTE|52=20260109-06:30:11.743|56=demo.pepperstone.5179095|55=10028|268=2|269=0|270=90879.26|269=1|270=90894.26|10=104|
2026-01-09 08:30:12.311 INFO [APP][IN] qual=QUOTE 8=FIX.4.4|9=137|35=W|34=78|49=cServer|50=QUOTE|52=20260109-06:30:12.182|56=demo.pepperstone.5179095|55=10028|268=2|269=0|270=90879.13|269=1|270=90894.13|10=095|
2026-01-09 08:30:12.720 INFO [APP][IN] qual=QUOTE 8=FIX.4.4|9=137|35=W|34=79|49=cServer|50=QUOTE|52=20260109-06:30:12.591|56=demo.pepperstone.5179095|55=10028|268=2|269=0|270=90878.08|269=1|270=90893.08|10=106|
2026-01-09 08:30:13.121 INFO [APP][IN] qual=QUOTE 8=FIX.4.4|9=137|35=W|34=80|49=cServer|50=QUOTE|52=20260109-06:30:12.992|56=demo.pepperstone.5179095|55=10028|268=2|269=0|270=90878.59|269=1|270=90893.59|10=115|
2026-01-09 08:30:13.523 INFO [APP][IN] qual=QUOTE 8=FIX.4.4|9=137|35=W|34=81|49=cServer|50=QUOTE|52=20260109-06:30:13.394|56=demo.pepperstone.5179095|55=10028|268=2|269=0|270=90878.63|269=1|270=90893.63|10=103|
2026-01-09 08:30:13.929 INFO [APP][IN] qual=QUOTE 8=FIX.4.4|9=137|35=W|34=82|49=cServer|50=QUOTE|52=20260109-06:30:13.800|56=demo.pepperstone.5179095|55=10028|268=2|269=0|270=90879.84|269=1|270=90894.84|10=104|
2026-01-09 08:30:14.336 INFO [APP][IN] qual=QUOTE 8=FIX.4.4|9=137|35=W|34=83|49=cServer|50=QUOTE|52=20260109-06:30:14.207|56=demo.pepperstone.5179095|55=10028|268=2|269=0|270=90880.47|269=1|270=90895.47|10=098|
2026-01-09 08:30:14.780 INFO [APP][IN] qual=QUOTE 8=FIX.4.4|9=137|35=W|34=84|49=cServer|50=QUOTE|52=20260109-06:30:14.651|56=demo.pepperstone.5179095|55=10028|268=2|269=0|270=90880.51|269=1|270=90895.51|10=092|
2026-01-09 08:30:15.281 INFO [APP][IN] qual=QUOTE 8=FIX.4.4|9=137|35=W|34=85|49=cServer|50=QUOTE|52=20260109-06:30:15.152|56=demo.pepperstone.5179095|55=10028|268=2|269=0|270=90881.12|269=1|270=90896.12|10=086|
2026-01-09 08:30:15.731 INFO [APP][IN] qual=QUOTE 8=FIX.4.4|9=137|35=W|34=86|49=cServer|50=QUOTE|52=20260109-06:30:15.602|56=demo.pepperstone.5179095|55=10028|268=2|269=0|270=90883.47|269=1|270=90898.47|10=107|
2026-01-09 08:30:16.143 INFO [APP][IN] qual=QUOTE 8=FIX.4.4|9=137|35=W|34=87|49=cServer|50=QUOTE|52=20260109-06:30:16.014|56=demo.pepperstone.5179095|55=10028|268=2|269=0|270=90880.84|269=1|270=90895.84|10=102|
2026-01-09 08:30:16.548 INFO [APP][IN] qual=QUOTE 8=FIX.4.4|9=137|35=W|34=88|49=cServer|50=QUOTE|52=20260109-06:30:16.419|56=demo.pepperstone.5179095|55=10028|268=2|269=0|270=90880.99|269=1|270=90895.99|10=124|
2026-01-09 08:30:16.968 INFO [APP][IN] qual=QUOTE 8=FIX.4.4|9=137|35=W|34=89|49=cServer|50=QUOTE|52=20260109-06:30:16.839|56=demo.pepperstone.5179095|55=10028|268=2|269=0|270=90881.71|269=1|270=90896.71|10=113|
2026-01-09 08:30:17.386 INFO [APP][IN] qual=QUOTE 8=FIX.4.4|9=137|35=W|34=90|49=cServer|50=QUOTE|52=20260109-06:30:17.257|56=demo.pepperstone.5179095|55=10028|268=2|269=0|270=90881.73|269=1|270=90896.73|10=104|
2026-01-09 08:30:17.788 INFO [APP][IN] qual=QUOTE 8=FIX.4.4|9=137|35=W|34=91|49=cServer|50=QUOTE|52=20260109-06:30:17.659|56=demo.pepperstone.5179095|55=10028|268=2|269=0|270=90882.85|269=1|270=90897.85|10=119|
2026-01-09 08:30:18.193 INFO [APP][IN] qual=QUOTE 8=FIX.4.4|9=137|35=W|34=92|49=cServer|50=QUOTE|52=20260109-06:30:18.063|56=demo.pepperstone.5179095|55=10028|268=2|269=0|270=90882.17|269=1|270=90897.17|10=100|
2026-01-09 08:30:18.643 INFO [APP][IN] qual=QUOTE 8=FIX.4.4|9=137|35=W|34=93|49=cServer|50=QUOTE|52=20260109-06:30:18.513|56=demo.pepperstone.5179095|55=10028|268=2|269=0|270=90883.26|269=1|270=90898.26|10=103|
2026-01-09 08:30:19.044 INFO [APP][IN] qual=QUOTE 8=FIX.4.4|9=135|35=W|34=94|49=cServer|50=QUOTE|52=20260109-06:30:18.915|56=demo.pepperstone.5179095|55=10028|268=2|269=0|270=90882.8|269=1|270=90897.8|10=010|
2026-01-09 08:30:19.468 INFO [APP][IN] qual=QUOTE 8=FIX.4.4|9=137|35=W|34=95|49=cServer|50=QUOTE|52=20260109-06:30:19.338|56=demo.pepperstone.5179095|55=10028|268=2|269=0|270=90882.76|269=1|270=90897.76|10=119|
2026-01-09 08:30:19.904 INFO [APP][IN] qual=QUOTE 8=FIX.4.4|9=137|35=W|34=96|49=cServer|50=QUOTE|52=20260109-06:30:19.775|56=demo.pepperstone.5179095|55=10028|268=2|269=0|270=90878.57|269=1|270=90893.57|10=124|
2026-01-09 08:30:20.309 INFO [APP][IN] qual=QUOTE 8=FIX.4.4|9=137|35=W|34=97|49=cServer|50=QUOTE|52=20260109-06:30:20.180|56=demo.pepperstone.5179095|55=10028|268=2|269=0|270=90878.81|269=1|270=90893.81|10=101|
2026-01-09 08:30:20.711 INFO [APP][IN] qual=QUOTE 8=FIX.4.4|9=137|35=W|34=98|49=cServer|50=QUOTE|52=20260109-06:30:20.582|56=demo.pepperstone.5179095|55=10028|268=2|269=0|270=90876.21|269=1|270=90891.21|10=092|
2026-01-09 08:30:21.121 INFO [APP][IN] qual=QUOTE 8=FIX.4.4|9=135|35=W|34=99|49=cServer|50=QUOTE|52=20260109-06:30:20.991|56=demo.pepperstone.5179095|55=10028|268=2|269=0|270=90876.6|269=1|270=90891.6|10=005|
2026-01-09 08:30:21.523 INFO [APP][IN] qual=QUOTE 8=FIX.4.4|9=138|35=W|34=100|49=cServer|50=QUOTE|52=20260109-06:30:21.394|56=demo.pepperstone.5179095|55=10028|268=2|269=0|270=90876.15|269=1|270=90891.15|10=133|
2026-01-09 08:30:21.986 INFO [APP][IN] qual=QUOTE 8=FIX.4.4|9=138|35=W|34=101|49=cServer|50=QUOTE|52=20260109-06:30:21.857|56=demo.pepperstone.5179095|55=10028|268=2|269=0|270=90876.16|269=1|270=90891.16|10=140|
2026-01-09 08:30:22.398 INFO [APP][IN] qual=QUOTE 8=FIX.4.4|9=138|35=W|34=102|49=cServer|50=QUOTE|52=20260109-06:30:22.269|56=demo.pepperstone.5179095|55=10028|268=2|269=0|270=90875.76|269=1|270=90890.76|10=149|
2026-01-09 08:30:22.826 INFO [APP][IN] qual=QUOTE 8=FIX.4.4|9=138|35=W|34=103|49=cServer|50=QUOTE|52=20260109-06:30:22.697|56=demo.pepperstone.5179095|55=10028|268=2|269=0|270=90876.24|269=1|270=90891.24|10=143|
2026-01-09 08:30:23.278 INFO [APP][IN] qual=QUOTE 8=FIX.4.4|9=138|35=W|34=104|49=cServer|50=QUOTE|52=20260109-06:30:23.149|56=demo.pepperstone.5179095|55=10028|268=2|269=0|270=90876.11|269=1|270=90891.11|10=129|
2026-01-09 08:30:23.684 INFO [APP][IN] qual=QUOTE 8=FIX.4.4|9=138|35=W|34=105|49=cServer|50=QUOTE|52=20260109-06:30:23.555|56=demo.pepperstone.5179095|55=10028|268=2|269=0|270=90876.17|269=1|270=90891.17|10=143|
2026-01-09 08:30:24.131 INFO [APP][IN] qual=QUOTE 8=FIX.4.4|9=138|35=W|34=106|49=cServer|50=QUOTE|52=20260109-06:30:24.002|56=demo.pepperstone.5179095|55=10028|268=2|269=0|270=90875.49|269=1|270=90890.49|10=140|
2026-01-09 08:30:24.580 INFO [APP][IN] qual=QUOTE 8=FIX.4.4|9=138|35=W|34=107|49=cServer|50=QUOTE|52=20260109-06:30:24.451|56=demo.pepperstone.5179095|55=10028|268=2|269=0|270=90876.12|269=1|270=90891.12|10=131|
2026-01-09 08:30:24.983 INFO [APP][IN] qual=QUOTE 8=FIX.4.4|9=138|35=W|34=108|49=cServer|50=QUOTE|52=20260109-06:30:24.853|56=demo.pepperstone.5179095|55=10028|268=2|269=0|270=90877.06|269=1|270=90892.06|10=146|
2026-01-09 08:30:25.433 INFO [APP][IN] qual=QUOTE 8=FIX.4.4|9=138|35=W|34=109|49=cServer|50=QUOTE|52=20260109-06:30:25.304|56=demo.pepperstone.5179095|55=10028|268=2|269=0|270=90876.77|269=1|270=90891.77|10=153|
2026-01-09 08:30:25.885 INFO [APP][IN] qual=QUOTE 8=FIX.4.4|9=138|35=W|34=110|49=cServer|50=QUOTE|52=20260109-06:30:25.756|56=demo.pepperstone.5179095|55=10028|268=2|269=0|270=90875.58|269=1|270=90890.58|10=152|
2026-01-09 08:30:26.304 INFO [APP][IN] qual=QUOTE 8=FIX.4.4|9=138|35=W|34=111|49=cServer|50=QUOTE|52=20260109-06:30:26.175|56=demo.pepperstone.5179095|55=10028|268=2|269=0|270=90869.38|269=1|270=90884.38|10=151|
2026-01-09 08:30:26.735 INFO [APP][IN] qual=QUOTE 8=FIX.4.4|9=138|35=W|34=112|49=cServer|50=QUOTE|52=20260109-06:30:26.606|56=demo.pepperstone.5179095|55=10028|268=2|269=0|270=90869.24|269=1|270=90884.24|10=141|
2026-01-09 08:30:27.137 INFO [APP][IN] qual=QUOTE 8=FIX.4.4|9=138|35=W|34=113|49=cServer|50=QUOTE|52=20260109-06:30:27.008|56=demo.pepperstone.5179095|55=10028|268=2|269=0|270=90869.37|269=1|270=90884.37|10=147|
2026-01-09 08:30:27.539 INFO [APP][IN] qual=QUOTE 8=FIX.4.4|9=138|35=W|34=114|49=cServer|50=QUOTE|52=20260109-06:30:27.410|56=demo.pepperstone.5179095|55=10028|268=2|269=0|270=90870.02|269=1|270=90885.02|10=122|
2026-01-09 08:30:27.947 INFO [APP][IN] qual=QUOTE 8=FIX.4.4|9=138|35=W|34=115|49=cServer|50=QUOTE|52=20260109-06:30:27.818|56=demo.pepperstone.5179095|55=10028|268=2|269=0|270=90872.66|269=1|270=90887.66|10=159|
2026-01-09 08:30:28.400 INFO [APP][IN] qual=QUOTE 8=FIX.4.4|9=138|35=W|34=116|49=cServer|50=QUOTE|52=20260109-06:30:28.271|56=demo.pepperstone.5179095|55=10028|268=2|269=0|270=90871.46|269=1|270=90886.46|10=148|
2026-01-09 08:30:28.803 INFO [APP][IN] qual=QUOTE 8=FIX.4.4|9=138|35=W|34=117|49=cServer|50=QUOTE|52=20260109-06:30:28.674|56=demo.pepperstone.5179095|55=10028|268=2|269=0|270=90872.95|269=1|270=90887.95|10=166|
2026-01-09 08:30:29.210 INFO [APP][IN] qual=QUOTE 8=FIX.4.4|9=138|35=W|34=118|49=cServer|50=QUOTE|52=20260109-06:30:29.081|56=demo.pepperstone.5179095|55=10028|268=2|269=0|270=90871.92|269=1|270=90886.92|10=152|
2026-01-09 08:30:29.634 INFO [APP][IN] qual=QUOTE 8=FIX.4.4|9=138|35=W|34=119|49=cServer|50=QUOTE|52=20260109-06:30:29.505|56=demo.pepperstone.5179095|55=10028|268=2|269=0|270=90872.93|269=1|270=90887.93|10=158|
2026-01-09 08:30:30.048 INFO [APP][IN] qual=QUOTE 8=FIX.4.4|9=138|35=W|34=120|49=cServer|50=QUOTE|52=20260109-06:30:29.919|56=demo.pepperstone.5179095|55=10028|268=2|269=0|270=90883.38|269=1|270=90898.38|10=161|
2026-01-09 08:30:30.464 INFO [APP][IN] qual=QUOTE 8=FIX.4.4|9=138|35=W|34=121|49=cServer|50=QUOTE|52=20260109-06:30:30.335|56=demo.pepperstone.5179095|55=10028|268=2|269=0|270=90882.47|269=1|270=90897.47|10=144|
2026-01-09 08:30:30.865 INFO [APP][IN] qual=QUOTE 8=FIX.4.4|9=138|35=W|34=122|49=cServer|50=QUOTE|52=20260109-06:30:30.736|56=demo.pepperstone.5179095|55=10028|268=2|269=0|270=90882.14|269=1|270=90897.14|10=138|
2026-01-09 08:30:31.265 INFO [APP][IN] qual=QUOTE 8=FIX.4.4|9=138|35=W|34=123|49=cServer|50=QUOTE|52=20260109-06:30:31.136|56=demo.pepperstone.5179095|55=10028|268=2|269=0|270=90880.22|269=1|270=90895.22|10=128|
2026-01-09 08:30:31.678 INFO [APP][IN] qual=QUOTE 8=FIX.4.4|9=138|35=W|34=124|49=cServer|50=QUOTE|52=20260109-06:30:31.549|56=demo.pepperstone.5179095|55=10028|268=2|269=0|270=90869.36|269=1|270=90884.36|10=152|
2026-01-09 08:30:32.091 INFO [APP][IN] qual=QUOTE 8=FIX.4.4|9=138|35=W|34=125|49=cServer|50=QUOTE|52=20260109-06:30:31.962|56=demo.pepperstone.5179095|55=10028|268=2|269=0|270=90885.77|269=1|270=90900.77|10=149|
2026-01-09 08:30:32.494 INFO [APP][IN] qual=QUOTE 8=FIX.4.4|9=138|35=W|34=126|49=cServer|50=QUOTE|52=20260109-06:30:32.365|56=demo.pepperstone.5179095|55=10028|268=2|269=0|270=90883.74|269=1|270=90898.74|10=156|
2026-01-09 08:30:32.895 INFO [APP][IN] qual=QUOTE 8=FIX.4.4|9=138|35=W|34=127|49=cServer|50=QUOTE|52=20260109-06:30:32.766|56=demo.pepperstone.5179095|55=10028|268=2|269=0|270=90881.06|269=1|270=90896.06|10=148|
2026-01-09 08:30:33.299 INFO [APP][IN] qual=QUOTE 8=FIX.4.4|9=138|35=W|34=128|49=cServer|50=QUOTE|52=20260109-06:30:33.170|56=demo.pepperstone.5179095|55=10028|268=2|269=0|270=90879.64|269=1|270=90894.64|10=152|
2026-01-09 08:30:33.699 INFO [APP][IN] qual=QUOTE 8=FIX.4.4|9=138|35=W|34=129|49=cServer|50=QUOTE|52=20260109-06:30:33.570|56=demo.pepperstone.5179095|55=10028|268=2|269=0|270=90875.96|269=1|270=90890.96|10=159|
2026-01-09 08:30:34.124 INFO [APP][IN] qual=QUOTE 8=FIX.4.4|9=138|35=W|34=130|49=cServer|50=QUOTE|52=20260109-06:30:33.995|56=demo.pepperstone.5179095|55=10028|268=2|269=0|270=90878.69|269=1|270=90893.69|10=168|
2026-01-09 08:30:34.528 INFO [APP][IN] qual=QUOTE 8=FIX.4.4|9=136|35=W|34=131|49=cServer|50=QUOTE|52=20260109-06:30:34.399|56=demo.pepperstone.5179095|55=10028|268=2|269=0|270=90878.7|269=1|270=90893.7|10=054|
2026-01-09 08:30:34.982 INFO [APP][IN] qual=QUOTE 8=FIX.4.4|9=138|35=W|34=132|49=cServer|50=QUOTE|52=20260109-06:30:34.852|56=demo.pepperstone.5179095|55=10028|268=2|269=0|270=90879.24|269=1|270=90894.24|10=147|
2026-01-09 08:30:35.414 INFO [APP][IN] qual=QUOTE 8=FIX.4.4|9=138|35=W|34=133|49=cServer|50=QUOTE|52=20260109-06:30:35.285|56=demo.pepperstone.5179095|55=10028|268=2|269=0|270=90878.83|269=1|270=90893.83|10=157|
2026-01-09 08:30:35.833 INFO [APP][IN] qual=QUOTE 8=FIX.4.4|9=138|35=W|34=134|49=cServer|50=QUOTE|52=20260109-06:30:35.704|56=demo.pepperstone.5179095|55=10028|268=2|269=0|270=90878.93|269=1|270=90893.93|10=156|
2026-01-09 08:30:36.234 INFO [APP][IN] qual=QUOTE 8=FIX.4.4|9=138|35=W|34=135|49=cServer|50=QUOTE|52=20260109-06:30:36.105|56=demo.pepperstone.5179095|55=10028|268=2|269=0|270=90880.09|269=1|270=90895.09|10=142|
2026-01-09 08:30:36.635 INFO [APP][IN] qual=QUOTE 8=FIX.4.4|9=138|35=W|34=136|49=cServer|50=QUOTE|52=20260109-06:30:36.506|56=demo.pepperstone.5179095|55=10028|268=2|269=0|270=90878.48|269=1|270=90893.48|10=159|
2026-01-09 08:30:37.087 INFO [APP][IN] qual=QUOTE 8=FIX.4.4|9=138|35=W|34=137|49=cServer|50=QUOTE|52=20260109-06:30:36.958|56=demo.pepperstone.5179095|55=10028|268=2|269=0|270=90878.14|269=1|270=90893.14|10=157|
2026-01-09 08:30:37.488 INFO [APP][IN] qual=QUOTE 8=FIX.4.4|9=138|35=W|34=138|49=cServer|50=QUOTE|52=20260109-06:30:37.359|56=demo.pepperstone.5179095|55=10028|268=2|269=0|270=90877.03|269=1|270=90892.03|10=148|
2026-01-09 08:30:37.891 INFO [APP][IN] qual=QUOTE 8=FIX.4.4|9=136|35=W|34=139|49=cServer|50=QUOTE|52=20260109-06:30:37.762|56=demo.pepperstone.5179095|55=10028|268=2|269=0|270=90873.7|269=1|270=90888.7|10=058|
2026-01-09 08:30:38.295 INFO [APP][IN] qual=QUOTE 8=FIX.4.4|9=138|35=W|34=140|49=cServer|50=QUOTE|52=20260109-06:30:38.166|56=demo.pepperstone.5179095|55=10028|268=2|269=0|270=90874.36|269=1|270=90889.36|10=153|
2026-01-09 08:30:38.738 INFO [APP][IN] qual=QUOTE 8=FIX.4.4|9=138|35=W|34=141|49=cServer|50=QUOTE|52=20260109-06:30:38.609|56=demo.pepperstone.5179095|55=10028|268=2|269=0|270=90870.19|269=1|270=90885.19|10=150|
2026-01-09 08:30:39.163 INFO [APP][IN] qual=QUOTE 8=FIX.4.4|9=138|35=W|34=142|49=cServer|50=QUOTE|52=20260109-06:30:39.034|56=demo.pepperstone.5179095|55=10028|268=2|269=0|270=90868.26|269=1|270=90883.26|10=145|
2026-01-09 08:30:39.568 INFO [APP][IN] qual=QUOTE 8=FIX.4.4|9=138|35=W|34=143|49=cServer|50=QUOTE|52=20260109-06:30:39.439|56=demo.pepperstone.5179095|55=10028|268=2|269=0|270=90870.29|269=1|270=90885.29|10=156|
2026-01-09 08:30:40.013 INFO [APP][IN] qual=QUOTE 8=FIX.4.4|9=138|35=W|34=144|49=cServer|50=QUOTE|52=20260109-06:30:39.884|56=demo.pepperstone.5179095|55=10028|268=2|269=0|270=90870.19|269=1|270=90885.19|10=159|
2026-01-09 08:30:40.415 INFO [APP][IN] qual=QUOTE 8=FIX.4.4|9=138|35=W|34=145|49=cServer|50=QUOTE|52=20260109-06:30:40.286|56=demo.pepperstone.5179095|55=10028|268=2|269=0|270=90873.09|269=1|270=90888.09|10=152|
2026-01-09 08:30:40.819 INFO [ADMIN][IN] qual=TRADE 8=FIX.4.4|9=83|35=0|34=4|49=cServer|50=TRADE|52=20260109-06:30:40.690|56=demo.pepperstone.5179095|10=241|
2026-01-09 08:30:40.820 INFO [APP][IN] qual=QUOTE 8=FIX.4.4|9=138|35=W|34=146|49=cServer|50=QUOTE|52=20260109-06:30:40.691|56=demo.pepperstone.5179095|55=10028|268=2|269=0|270=90872.92|269=1|270=90887.92|10=155|
2026-01-09 08:30:41.270 INFO [APP][IN] qual=QUOTE 8=FIX.4.4|9=138|35=W|34=147|49=cServer|50=QUOTE|52=20260109-06:30:41.140|56=demo.pepperstone.5179095|55=10028|268=2|269=0|270=90872.84|269=1|270=90887.84|10=148|
2026-01-09 08:30:41.671 INFO [APP][IN] qual=QUOTE 8=FIX.4.4|9=138|35=W|34=148|49=cServer|50=QUOTE|52=20260109-06:30:41.542|56=demo.pepperstone.5179095|55=10028|268=2|269=0|270=90873.92|269=1|270=90888.92|10=155|
2026-01-09 08:30:42.073 INFO [APP][IN] qual=QUOTE 8=FIX.4.4|9=138|35=W|34=149|49=cServer|50=QUOTE|52=20260109-06:30:41.944|56=demo.pepperstone.5179095|55=10028|268=2|269=0|270=90873.65|269=1|270=90888.65|10=162|
2026-01-09 08:30:42.520 INFO [APP][IN] qual=QUOTE 8=FIX.4.4|9=138|35=W|34=150|49=cServer|50=QUOTE|52=20260109-06:30:42.391|56=demo.pepperstone.5179095|55=10028|268=2|269=0|270=90873.72|269=1|270=90888.72|10=147|
2026-01-09 08:30:42.924 INFO [APP][IN] qual=QUOTE 8=FIX.4.4|9=138|35=W|34=151|49=cServer|50=QUOTE|52=20260109-06:30:42.795|56=demo.pepperstone.5179095|55=10028|268=2|269=0|270=90873.68|269=1|270=90888.68|10=166|
2026-01-09 08:30:43.327 INFO [APP][IN] qual=QUOTE 8=FIX.4.4|9=138|35=W|34=152|49=cServer|50=QUOTE|52=20260109-06:30:43.198|56=demo.pepperstone.5179095|55=10028|268=2|269=0|270=90873.88|269=1|270=90888.88|10=169|
2026-01-09 08:30:43.776 INFO [APP][IN] qual=QUOTE 8=FIX.4.4|9=138|35=W|34=153|49=cServer|50=QUOTE|52=20260109-06:30:43.647|56=demo.pepperstone.5179095|55=10028|268=2|269=0|270=90874.03|269=1|270=90889.03|10=145|
2026-01-09 08:30:44.179 INFO [APP][IN] qual=QUOTE 8=FIX.4.4|9=138|35=W|34=154|49=cServer|50=QUOTE|52=20260109-06:30:44.047|56=demo.pepperstone.5179095|55=10028|268=2|269=0|270=90873.36|269=1|270=90888.36|10=151|
2026-01-09 08:30:44.581 INFO [APP][IN] qual=QUOTE 8=FIX.4.4|9=138|35=W|34=155|49=cServer|50=QUOTE|52=20260109-06:30:44.452|56=demo.pepperstone.5179095|55=10028|268=2|269=0|270=90873.85|269=1|270=90888.85|10=160|
2026-01-09 08:30:45.032 INFO [APP][IN] qual=QUOTE 8=FIX.4.4|9=138|35=W|34=156|49=cServer|50=QUOTE|52=20260109-06:30:44.903|56=demo.pepperstone.5179095|55=10028|268=2|269=0|270=90879.99|269=1|270=90894.99|10=175|
2026-01-09 08:30:45.479 INFO [APP][IN] qual=QUOTE 8=FIX.4.4|9=138|35=W|34=157|49=cServer|50=QUOTE|52=20260109-06:30:45.350|56=demo.pepperstone.5179095|55=10028|268=2|269=0|270=90880.01|269=1|270=90895.01|10=132|
2026-01-09 08:30:45.884 INFO [APP][IN] qual=QUOTE 8=FIX.4.4|9=138|35=W|34=158|49=cServer|50=QUOTE|52=20260109-06:30:45.755|56=demo.pepperstone.5179095|55=10028|268=2|269=0|270=90882.51|269=1|270=90897.51|10=156|
2026-01-09 08:30:46.336 INFO [APP][IN] qual=QUOTE 8=FIX.4.4|9=138|35=W|34=159|49=cServer|50=QUOTE|52=20260109-06:30:46.206|56=demo.pepperstone.5179095|55=10028|268=2|269=0|270=90882.31|269=1|270=90897.31|10=145|
2026-01-09 08:30:46.736 INFO [APP][IN] qual=QUOTE 8=FIX.4.4|9=138|35=W|34=160|49=cServer|50=QUOTE|52=20260109-06:30:46.607|56=demo.pepperstone.5179095|55=10028|268=2|269=0|270=90876.18|269=1|270=90891.18|10=149|
2026-01-09 08:30:47.138 INFO [APP][IN] qual=QUOTE 8=FIX.4.4|9=138|35=W|34=161|49=cServer|50=QUOTE|52=20260109-06:30:47.009|56=demo.pepperstone.5179095|55=10028|268=2|269=0|270=90875.82|269=1|270=90890.82|10=147|
2026-01-09 08:30:47.539 INFO [APP][IN] qual=QUOTE 8=FIX.4.4|9=138|35=W|34=162|49=cServer|50=QUOTE|52=20260109-06:30:47.410|56=demo.pepperstone.5179095|55=10028|268=2|269=0|270=90875.86|269=1|270=90890.86|10=152|
2026-01-09 08:30:47.940 INFO [APP][IN] qual=QUOTE 8=FIX.4.4|9=138|35=W|34=163|49=cServer|50=QUOTE|52=20260109-06:30:47.811|56=demo.pepperstone.5179095|55=10028|268=2|269=0|270=90875.83|269=1|270=90890.83|10=152|
2026-01-09 08:30:48.340 INFO [APP][IN] qual=QUOTE 8=FIX.4.4|9=138|35=W|34=164|49=cServer|50=QUOTE|52=20260109-06:30:48.211|56=demo.pepperstone.5179095|55=10028|268=2|269=0|270=90874.72|269=1|270=90889.72|10=151|
2026-01-09 08:30:48.746 INFO [APP][IN] qual=QUOTE 8=FIX.4.4|9=138|35=W|34=165|49=cServer|50=QUOTE|52=20260109-06:30:48.617|56=demo.pepperstone.5179095|55=10028|268=2|269=0|270=90875.43|269=1|270=90890.43|10=151|
2026-01-09 08:30:49.159 INFO [APP][IN] qual=QUOTE 8=FIX.4.4|9=138|35=W|34=166|49=cServer|50=QUOTE|52=20260109-06:30:49.030|56=demo.pepperstone.5179095|55=10028|268=2|269=0|270=90875.81|269=1|270=90890.81|10=146|
2026-01-09 08:30:49.606 INFO [APP][IN] qual=QUOTE 8=FIX.4.4|9=138|35=W|34=167|49=cServer|50=QUOTE|52=20260109-06:30:49.477|56=demo.pepperstone.5179095|55=10028|268=2|269=0|270=90875.33|269=1|270=90890.33|10=156|
2026-01-09 08:30:50.013 INFO [APP][IN] qual=QUOTE 8=FIX.4.4|9=138|35=W|34=168|49=cServer|50=QUOTE|52=20260109-06:30:49.884|56=demo.pepperstone.5179095|55=10028|268=2|269=0|270=90873.05|269=1|270=90888.05|10=162|
2026-01-09 08:30:50.467 INFO [APP][IN] qual=QUOTE 8=FIX.4.4|9=138|35=W|34=169|49=cServer|50=QUOTE|52=20260109-06:30:50.338|56=demo.pepperstone.5179095|55=10028|268=2|269=0|270=90872.24|269=1|270=90887.24|10=149|
2026-01-09 08:30:50.869 INFO [APP][IN] qual=QUOTE 8=FIX.4.4|9=138|35=W|34=170|49=cServer|50=QUOTE|52=20260109-06:30:50.740|56=demo.pepperstone.5179095|55=10028|268=2|269=0|270=90872.57|269=1|270=90887.57|10=150|
2026-01-09 08:30:51.278 INFO [APP][IN] qual=QUOTE 8=FIX.4.4|9=138|35=W|34=171|49=cServer|50=QUOTE|52=20260109-06:30:51.149|56=demo.pepperstone.5179095|55=10028|268=2|269=0|270=90871.71|269=1|270=90886.71|10=145|
2026-01-09 08:30:51.710 INFO [APP][IN] qual=QUOTE 8=FIX.4.4|9=138|35=W|34=172|49=cServer|50=QUOTE|52=20260109-06:30:51.581|56=demo.pepperstone.5179095|55=10028|268=2|269=0|270=90871.28|269=1|270=90886.28|10=150|
2026-01-09 08:30:52.121 INFO [APP][IN] qual=QUOTE 8=FIX.4.4|9=138|35=W|34=173|49=cServer|50=QUOTE|52=20260109-06:30:51.992|56=demo.pepperstone.5179095|55=10028|268=2|269=0|270=90871.61|269=1|270=90886.61|10=151|
2026-01-09 08:30:52.568 INFO [APP][IN] qual=QUOTE 8=FIX.4.4|9=138|35=W|34=174|49=cServer|50=QUOTE|52=20260109-06:30:52.439|56=demo.pepperstone.5179095|55=10028|268=2|269=0|270=90871.24|269=1|270=90886.24|10=147|
2026-01-09 08:30:52.968 INFO [APP][IN] qual=QUOTE 8=FIX.4.4|9=138|35=W|34=175|49=cServer|50=QUOTE|52=20260109-06:30:52.839|56=demo.pepperstone.5179095|55=10028|268=2|269=0|270=90873.35|269=1|270=90888.35|10=160|
2026-01-09 08:30:53.372 INFO [APP][IN] qual=QUOTE 8=FIX.4.4|9=136|35=W|34=176|49=cServer|50=QUOTE|52=20260109-06:30:53.243|56=demo.pepperstone.5179095|55=10028|268=2|269=0|270=90873.1|269=1|270=90888.1|10=039|
2026-01-09 08:30:54.225 INFO [APP][IN] qual=QUOTE 8=FIX.4.4|9=138|35=W|34=177|49=cServer|50=QUOTE|52=20260109-06:30:54.096|56=demo.pepperstone.5179095|55=10028|268=2|269=0|270=90873.16|269=1|270=90888.16|10=157|
2026-01-09 08:30:54.626 INFO [APP][IN] qual=QUOTE 8=FIX.4.4|9=138|35=W|34=178|49=cServer|50=QUOTE|52=20260109-06:30:54.497|56=demo.pepperstone.5179095|55=10028|268=2|269=0|270=90872.63|269=1|270=90887.63|10=165|
2026-01-09 08:30:55.029 INFO [APP][IN] qual=QUOTE 8=FIX.4.4|9=138|35=W|34=179|49=cServer|50=QUOTE|52=20260109-06:30:54.900|56=demo.pepperstone.5179095|55=10028|268=2|269=0|270=90875.27|269=1|270=90890.27|10=152|
2026-01-09 08:30:55.441 INFO [APP][IN] qual=QUOTE 8=FIX.4.4|9=138|35=W|34=180|49=cServer|50=QUOTE|52=20260109-06:30:55.311|56=demo.pepperstone.5179095|55=10028|268=2|269=0|270=90874.85|269=1|270=90889.85|10=156|
2026-01-09 08:30:55.879 INFO [APP][IN] qual=QUOTE 8=FIX.4.4|9=138|35=W|34=181|49=cServer|50=QUOTE|52=20260109-06:30:55.751|56=demo.pepperstone.5179095|55=10028|268=2|269=0|270=90874.65|269=1|270=90889.65|10=161|
2026-01-09 08:30:56.280 INFO [APP][IN] qual=QUOTE 8=FIX.4.4|9=138|35=W|34=182|49=cServer|50=QUOTE|52=20260109-06:30:56.151|56=demo.pepperstone.5179095|55=10028|268=2|269=0|270=90875.52|269=1|270=90890.52|10=142|
2026-01-09 08:30:56.682 INFO [APP][IN] qual=QUOTE 8=FIX.4.4|9=138|35=W|34=183|49=cServer|50=QUOTE|52=20260109-06:30:56.553|56=demo.pepperstone.5179095|55=10028|268=2|269=0|270=90876.19|269=1|270=90891.19|10=157|
2026-01-09 08:30:57.086 INFO [APP][IN] qual=QUOTE 8=FIX.4.4|9=138|35=W|34=184|49=cServer|50=QUOTE|52=20260109-06:30:56.957|56=demo.pepperstone.5179095|55=10028|268=2|269=0|270=90879.59|269=1|270=90894.59|10=180|
2026-01-09 08:30:57.535 INFO [APP][IN] qual=QUOTE 8=FIX.4.4|9=138|35=W|34=185|49=cServer|50=QUOTE|52=20260109-06:30:57.406|56=demo.pepperstone.5179095|55=10028|268=2|269=0|270=90879.15|269=1|270=90894.15|10=155|
2026-01-09 08:30:57.941 INFO [APP][IN] qual=QUOTE 8=FIX.4.4|9=138|35=W|34=186|49=cServer|50=QUOTE|52=20260109-06:30:57.812|56=demo.pepperstone.5179095|55=10028|268=2|269=0|270=90875.13|269=1|270=90890.13|10=145|
2026-01-09 08:30:58.384 INFO [APP][IN] qual=QUOTE 8=FIX.4.4|9=138|35=W|34=187|49=cServer|50=QUOTE|52=20260109-06:30:58.255|56=demo.pepperstone.5179095|55=10028|268=2|269=0|270=90874.72|269=1|270=90889.72|10=165|
2026-01-09 08:30:58.787 INFO [APP][IN] qual=QUOTE 8=FIX.4.4|9=138|35=W|34=188|49=cServer|50=QUOTE|52=20260109-06:30:58.658|56=demo.pepperstone.5179095|55=10028|268=2|269=0|270=90875.02|269=1|270=90890.02|10=152|
2026-01-09 08:30:59.201 INFO [APP][IN] qual=QUOTE 8=FIX.4.4|9=138|35=W|34=189|49=cServer|50=QUOTE|52=20260109-06:30:59.072|56=demo.pepperstone.5179095|55=10028|268=2|269=0|270=90876.97|269=1|270=90891.97|10=174|
2026-01-09 08:30:59.612 INFO [APP][IN] qual=QUOTE 8=FIX.4.4|9=138|35=W|34=190|49=cServer|50=QUOTE|52=20260109-06:30:59.483|56=demo.pepperstone.5179095|55=10028|268=2|269=0|270=90877.04|269=1|270=90892.04|10=150|
2026-01-09 08:31:00.027 INFO [APP][IN] qual=QUOTE 8=FIX.4.4|9=138|35=W|34=191|49=cServer|50=QUOTE|52=20260109-06:30:59.898|56=demo.pepperstone.5179095|55=10028|268=2|269=0|270=90876.23|269=1|270=90891.23|10=161|
2026-01-09 08:31:00.028 INFO [BAR M1] 2026-01-09T06:30:00+00:00 O=90874.16 H=90903.16 L=90864.64 C=90884.54 | desired=0 cur=0
2026-01-09 08:31:00.431 INFO [APP][IN] qual=QUOTE 8=FIX.4.4|9=138|35=W|34=192|49=cServer|50=QUOTE|52=20260109-06:31:00.302|56=demo.pepperstone.5179095|55=10028|268=2|269=0|270=90875.76|269=1|270=90890.76|10=143|
2026-01-09 08:31:00.865 INFO [APP][IN] qual=QUOTE 8=FIX.4.4|9=136|35=W|34=193|49=cServer|50=QUOTE|52=20260109-06:31:00.736|56=demo.pepperstone.5179095|55=10028|268=2|269=0|270=90878.6|269=1|270=90893.6|10=049|
2026-01-09 08:31:01.268 INFO [APP][IN] qual=QUOTE 8=FIX.4.4|9=138|35=W|34=194|49=cServer|50=QUOTE|52=20260109-06:31:01.139|56=demo.pepperstone.5179095|55=10028|268=2|269=0|270=90878.22|269=1|270=90893.22|10=142|
2026-01-09 08:31:01.669 INFO [APP][IN] qual=QUOTE 8=FIX.4.4|9=138|35=W|34=195|49=cServer|50=QUOTE|52=20260109-06:31:01.540|56=demo.pepperstone.5179095|55=10028|268=2|269=0|270=90877.75|269=1|270=90892.75|10=153|
2026-01-09 08:31:02.120 INFO [APP][IN] qual=QUOTE 8=FIX.4.4|9=136|35=W|34=196|49=cServer|50=QUOTE|52=20260109-06:31:01.992|56=demo.pepperstone.5179095|55=10028|268=2|269=0|270=90877.4|269=1|270=90892.4|10=051|
2026-01-09 08:31:02.571 INFO [APP][IN] qual=QUOTE 8=FIX.4.4|9=138|35=W|34=197|49=cServer|50=QUOTE|52=20260109-06:31:02.442|56=demo.pepperstone.5179095|55=10028|268=2|269=0|270=90877.64|269=1|270=90892.64|10=153|
2026-01-09 08:31:02.975 INFO [APP][IN] qual=QUOTE 8=FIX.4.4|9=138|35=W|34=198|49=cServer|50=QUOTE|52=20260109-06:31:02.846|56=demo.pepperstone.5179095|55=10028|268=2|269=0|270=90876.97|269=1|270=90891.97|10=172|
2026-01-09 08:31:03.375 INFO [APP][IN] qual=QUOTE 8=FIX.4.4|9=138|35=W|34=199|49=cServer|50=QUOTE|52=20260109-06:31:03.247|56=demo.pepperstone.5179095|55=10028|268=2|269=0|270=90875.27|269=1|270=90890.27|10=153|
2026-01-09 08:31:03.780 INFO [APP][IN] qual=QUOTE 8=FIX.4.4|9=138|35=W|34=200|49=cServer|50=QUOTE|52=20260109-06:31:03.651|56=demo.pepperstone.5179095|55=10028|268=2|269=0|270=90875.08|269=1|270=90890.08|10=133|
2026-01-09 08:31:04.183 INFO [APP][IN] qual=QUOTE 8=FIX.4.4|9=138|35=W|34=201|49=cServer|50=QUOTE|52=20260109-06:31:04.054|56=demo.pepperstone.5179095|55=10028|268=2|269=0|270=90877.88|269=1|270=90892.88|10=152|
2026-01-09 08:31:04.621 INFO [APP][IN] qual=QUOTE 8=FIX.4.4|9=138|35=W|34=202|49=cServer|50=QUOTE|52=20260109-06:31:04.492|56=demo.pepperstone.5179095|55=10028|268=2|269=0|270=90874.56|269=1|270=90889.56|10=152|
2026-01-09 08:31:05.027 INFO [APP][IN] qual=QUOTE 8=FIX.4.4|9=138|35=W|34=203|49=cServer|50=QUOTE|52=20260109-06:31:04.898|56=demo.pepperstone.5179095|55=10028|268=2|269=0|270=90875.24|269=1|270=90890.24|10=146|
2026-01-09 08:31:05.429 INFO [APP][IN] qual=QUOTE 8=FIX.4.4|9=138|35=W|34=204|49=cServer|50=QUOTE|52=20260109-06:31:05.300|56=demo.pepperstone.5179095|55=10028|268=2|269=0|270=90877.07|269=1|270=90892.07|10=132|
2026-01-09 08:31:05.831 INFO [APP][IN] qual=QUOTE 8=FIX.4.4|9=138|35=W|34=205|49=cServer|50=QUOTE|52=20260109-06:31:05.702|56=demo.pepperstone.5179095|55=10028|268=2|269=0|270=90876.73|269=1|270=90891.73|10=143|
2026-01-09 08:31:06.233 INFO [APP][IN] qual=QUOTE 8=FIX.4.4|9=138|35=W|34=206|49=cServer|50=QUOTE|52=20260109-06:31:06.104|56=demo.pepperstone.5179095|55=10028|268=2|269=0|270=90876.62|269=1|270=90891.62|10=137|
2026-01-09 08:31:06.636 INFO [APP][IN] qual=QUOTE 8=FIX.4.4|9=138|35=W|34=207|49=cServer|50=QUOTE|52=20260109-06:31:06.507|56=demo.pepperstone.5179095|55=10028|268=2|269=0|270=90876.38|269=1|270=90891.38|10=151|
2026-01-09 08:31:07.036 INFO [APP][IN] qual=QUOTE 8=FIX.4.4|9=138|35=W|34=208|49=cServer|50=QUOTE|52=20260109-06:31:06.907|56=demo.pepperstone.5179095|55=10028|268=2|269=0|270=90876.64|269=1|270=90891.64|10=154|
2026-01-09 08:31:07.488 INFO [APP][IN] qual=QUOTE 8=FIX.4.4|9=138|35=W|34=209|49=cServer|50=QUOTE|52=20260109-06:31:07.359|56=demo.pepperstone.5179095|55=10028|268=2|269=0|270=90876.65|269=1|270=90891.65|10=159|
2026-01-09 08:31:07.889 INFO [APP][IN] qual=QUOTE 8=FIX.4.4|9=138|35=W|34=210|49=cServer|50=QUOTE|52=20260109-06:31:07.760|56=demo.pepperstone.5179095|55=10028|268=2|269=0|270=90876.69|269=1|270=90891.69|10=155|
2026-01-09 08:31:08.331 INFO [APP][IN] qual=QUOTE 8=FIX.4.4|9=138|35=W|34=211|49=cServer|50=QUOTE|52=20260109-06:31:08.202|56=demo.pepperstone.5179095|55=10028|268=2|269=0|270=90875.95|269=1|270=90890.95|10=144|
2026-01-09 08:31:08.740 INFO [APP][IN] qual=QUOTE 8=FIX.4.4|9=138|35=W|34=212|49=cServer|50=QUOTE|52=20260109-06:31:08.611|56=demo.pepperstone.5179095|55=10028|268=2|269=0|270=90876.56|269=1|270=90891.56|10=145|
2026-01-09 08:31:09.157 INFO [APP][IN] qual=QUOTE 8=FIX.4.4|9=138|35=W|34=213|49=cServer|50=QUOTE|52=20260109-06:31:09.028|56=demo.pepperstone.5179095|55=10028|268=2|269=0|270=90876.44|269=1|270=90891.44|10=143|
2026-01-09 08:31:09.600 INFO [APP][IN] qual=QUOTE 8=FIX.4.4|9=138|35=W|34=214|49=cServer|50=QUOTE|52=20260109-06:31:09.471|56=demo.pepperstone.5179095|55=10028|268=2|269=0|270=90876.39|269=1|270=90891.39|10=154|
2026-01-09 08:31:10.009 INFO [APP][IN] qual=QUOTE 8=FIX.4.4|9=138|35=W|34=215|49=cServer|50=QUOTE|52=20260109-06:31:09.880|56=demo.pepperstone.5179095|55=10028|268=2|269=0|270=90892.74|269=1|270=90907.74|10=153|
2026-01-09 08:31:10.416 INFO [APP][IN] qual=QUOTE 8=FIX.4.4|9=138|35=W|34=216|49=cServer|50=QUOTE|52=20260109-06:31:10.287|56=demo.pepperstone.5179095|55=10028|268=2|269=0|270=90903.34|269=1|270=90918.34|10=134|
2026-01-09 08:31:10.818 INFO [APP][IN] qual=QUOTE 8=FIX.4.4|9=136|35=W|34=217|49=cServer|50=QUOTE|52=20260109-06:31:10.689|56=demo.pepperstone.5179095|55=10028|268=2|269=0|270=90906.2|269=1|270=90921.2|10=030|
2026-01-09 08:31:10.819 INFO [ADMIN][IN] qual=TRADE 8=FIX.4.4|9=83|35=0|34=5|49=cServer|50=TRADE|52=20260109-06:31:10.690|56=demo.pepperstone.5179095|10=240|
2026-01-09 08:31:11.219 INFO [APP][IN] qual=QUOTE 8=FIX.4.4|9=138|35=W|34=218|49=cServer|50=QUOTE|52=20260109-06:31:11.090|56=demo.pepperstone.5179095|55=10028|268=2|269=0|270=90905.53|269=1|270=90920.53|10=126|
2026-01-09 08:31:11.669 INFO [APP][IN] qual=QUOTE 8=FIX.4.4|9=138|35=W|34=219|49=cServer|50=QUOTE|52=20260109-06:31:11.540|56=demo.pepperstone.5179095|55=10028|268=2|269=0|270=90902.33|269=1|270=90917.33|10=126|
2026-01-09 08:31:12.071 INFO [APP][IN] qual=QUOTE 8=FIX.4.4|9=138|35=W|34=220|49=cServer|50=QUOTE|52=20260109-06:31:11.942|56=demo.pepperstone.5179095|55=10028|268=2|269=0|270=90902.46|269=1|270=90917.46|10=132|
2026-01-09 08:31:12.480 INFO [APP][IN] qual=QUOTE 8=FIX.4.4|9=138|35=W|34=221|49=cServer|50=QUOTE|52=20260109-06:31:12.351|56=demo.pepperstone.5179095|55=10028|268=2|269=0|270=90902.25|269=1|270=90917.25|10=122|
2026-01-09 08:31:12.917 INFO [APP][IN] qual=QUOTE 8=FIX.4.4|9=138|35=W|34=222|49=cServer|50=QUOTE|52=20260109-06:31:12.788|56=demo.pepperstone.5179095|55=10028|268=2|269=0|270=90902.79|269=1|270=90917.79|10=155|
2026-01-09 08:31:13.322 INFO [APP][IN] qual=QUOTE 8=FIX.4.4|9=138|35=W|34=223|49=cServer|50=QUOTE|52=20260109-06:31:13.193|56=demo.pepperstone.5179095|55=10028|268=2|269=0|270=90903.65|269=1|270=90918.65|10=139|
2026-01-09 08:31:13.725 INFO [APP][IN] qual=QUOTE 8=FIX.4.4|9=136|35=W|34=224|49=cServer|50=QUOTE|52=20260109-06:31:13.596|56=demo.pepperstone.5179095|55=10028|268=2|269=0|270=90903.4|269=1|270=90918.4|10=035|
2026-01-09 08:31:14.128 INFO [APP][IN] qual=QUOTE 8=FIX.4.4|9=138|35=W|34=225|49=cServer|50=QUOTE|52=20260109-06:31:13.999|56=demo.pepperstone.5179095|55=10028|268=2|269=0|270=90904.95|269=1|270=90919.95|10=163|
2026-01-09 08:31:14.529 INFO [APP][IN] qual=QUOTE 8=FIX.4.4|9=138|35=W|34=226|49=cServer|50=QUOTE|52=20260109-06:31:14.400|56=demo.pepperstone.5179095|55=10028|268=2|269=0|270=90904.96|269=1|270=90919.96|10=144|
2026-01-09 08:31:14.931 INFO [APP][IN] qual=QUOTE 8=FIX.4.4|9=138|35=W|34=227|49=cServer|50=QUOTE|52=20260109-06:31:14.802|56=demo.pepperstone.5179095|55=10028|268=2|269=0|270=90904.99|269=1|270=90919.99|10=157|
2026-01-09 08:31:15.341 INFO [APP][IN] qual=QUOTE 8=FIX.4.4|9=138|35=W|34=228|49=cServer|50=QUOTE|52=20260109-06:31:15.212|56=demo.pepperstone.5179095|55=10028|268=2|269=0|270=90905.41|269=1|270=90920.41|10=121|
2026-01-09 08:31:15.783 INFO [APP][IN] qual=QUOTE 8=FIX.4.4|9=138|35=W|34=229|49=cServer|50=QUOTE|52=20260109-06:31:15.654|56=demo.pepperstone.5179095|55=10028|268=2|269=0|270=90900.08|269=1|270=90915.08|10=137|
2026-01-09 08:31:16.234 INFO [APP][IN] qual=QUOTE 8=FIX.4.4|9=138|35=W|34=230|49=cServer|50=QUOTE|52=20260109-06:31:16.104|56=demo.pepperstone.5179095|55=10028|268=2|269=0|270=90904.19|269=1|270=90919.19|10=132|
2026-01-09 08:31:16.675 INFO [APP][IN] qual=QUOTE 8=FIX.4.4|9=138|35=W|34=231|49=cServer|50=QUOTE|52=20260109-06:31:16.546|56=demo.pepperstone.5179095|55=10028|268=2|269=0|270=90904.18|269=1|270=90919.18|10=141|
2026-01-09 08:31:17.075 INFO [APP][IN] qual=QUOTE 8=FIX.4.4|9=138|35=W|34=232|49=cServer|50=QUOTE|52=20260109-06:31:16.946|56=demo.pepperstone.5179095|55=10028|268=2|269=0|270=90899.57|269=1|270=90914.57|10=160|
2026-01-09 08:31:17.487 INFO [APP][IN] qual=QUOTE 8=FIX.4.4|9=138|35=W|34=233|49=cServer|50=QUOTE|52=20260109-06:31:17.358|56=demo.pepperstone.5179095|55=10028|268=2|269=0|270=90898.15|269=1|270=90913.15|10=145|
2026-01-09 08:31:17.889 INFO [APP][IN] qual=QUOTE 8=FIX.4.4|9=138|35=W|34=234|49=cServer|50=QUOTE|52=20260109-06:31:17.760|56=demo.pepperstone.5179095|55=10028|268=2|269=0|270=90903.24|269=1|270=90918.24|10=135|
2026-01-09 08:31:18.293 INFO [APP][IN] qual=QUOTE 8=FIX.4.4|9=138|35=W|34=235|49=cServer|50=QUOTE|52=20260109-06:31:18.164|56=demo.pepperstone.5179095|55=10028|268=2|269=0|270=90904.34|269=1|270=90919.34|10=139|
2026-01-09 08:31:18.740 INFO [APP][IN] qual=QUOTE 8=FIX.4.4|9=136|35=W|34=236|49=cServer|50=QUOTE|52=20260109-06:31:18.611|56=demo.pepperstone.5179095|55=10028|268=2|269=0|270=90905.1|269=1|270=90920.1|10=020|
2026-01-09 08:31:19.151 INFO [APP][IN] qual=QUOTE 8=FIX.4.4|9=138|35=W|34=237|49=cServer|50=QUOTE|52=20260109-06:31:19.022|56=demo.pepperstone.5179095|55=10028|268=2|269=0|270=90903.33|269=1|270=90918.33|10=131|
2026-01-09 08:31:19.552 INFO [APP][IN] qual=QUOTE 8=FIX.4.4|9=138|35=W|34=238|49=cServer|50=QUOTE|52=20260109-06:31:19.422|56=demo.pepperstone.5179095|55=10028|268=2|269=0|270=90903.76|269=1|270=90918.76|10=150|
2026-01-09 08:31:19.961 INFO [APP][IN] qual=QUOTE 8=FIX.4.4|9=138|35=W|34=239|49=cServer|50=QUOTE|52=20260109-06:31:19.832|56=demo.pepperstone.5179095|55=10028|268=2|269=0|270=90903.72|269=1|270=90918.72|10=148|
2026-01-09 08:31:20.361 INFO [APP][IN] qual=QUOTE 8=FIX.4.4|9=138|35=W|34=240|49=cServer|50=QUOTE|52=20260109-06:31:20.232|56=demo.pepperstone.5179095|55=10028|268=2|269=0|270=90893.79|269=1|270=90908.79|10=147|
2026-01-09 08:31:21.261 INFO [APP][IN] qual=QUOTE 8=FIX.4.4|9=138|35=W|34=241|49=cServer|50=QUOTE|52=20260109-06:31:21.132|56=demo.pepperstone.5179095|55=10028|268=2|269=0|270=90893.76|269=1|270=90908.76|10=142|
2026-01-09 08:31:21.694 INFO [APP][IN] qual=QUOTE 8=FIX.4.4|9=138|35=W|34=242|49=cServer|50=QUOTE|52=20260109-06:31:21.565|56=demo.pepperstone.5179095|55=10028|268=2|269=0|270=90892.92|269=1|270=90907.92|10=147|
2026-01-09 08:31:22.118 INFO [APP][IN] qual=QUOTE 8=FIX.4.4|9=138|35=W|34=243|49=cServer|50=QUOTE|52=20260109-06:31:21.989|56=demo.pepperstone.5179095|55=10028|268=2|269=0|270=90892.48|269=1|270=90907.48|10=160|
2026-01-09 08:31:22.540 INFO [APP][IN] qual=QUOTE 8=FIX.4.4|9=138|35=W|34=244|49=cServer|50=QUOTE|52=20260109-06:31:22.411|56=demo.pepperstone.5179095|55=10028|268=2|269=0|270=90898.76|269=1|270=90913.76|10=147|
2026-01-09 08:31:22.942 INFO [APP][IN] qual=QUOTE 8=FIX.4.4|9=138|35=W|34=245|49=cServer|50=QUOTE|52=20260109-06:31:22.813|56=demo.pepperstone.5179095|55=10028|268=2|269=0|270=90898.96|269=1|270=90913.96|10=158|
2026-01-09 08:31:23.351 INFO [APP][IN] qual=QUOTE 8=FIX.4.4|9=138|35=W|34=246|49=cServer|50=QUOTE|52=20260109-06:31:23.222|56=demo.pepperstone.5179095|55=10028|268=2|269=0|270=90900.39|269=1|270=90915.39|10=134|
2026-01-09 08:31:23.772 INFO [APP][IN] qual=QUOTE 8=FIX.4.4|9=138|35=W|34=247|49=cServer|50=QUOTE|52=20260109-06:31:23.643|56=demo.pepperstone.5179095|55=10028|268=2|269=0|270=90901.42|269=1|270=90916.42|10=132|
2026-01-09 08:31:24.176 INFO [APP][IN] qual=QUOTE 8=FIX.4.4|9=138|35=W|34=248|49=cServer|50=QUOTE|52=20260109-06:31:24.047|56=demo.pepperstone.5179095|55=10028|268=2|269=0|270=90900.16|269=1|270=90915.16|10=132|
2026-01-09 08:31:24.626 INFO [APP][IN] qual=QUOTE 8=FIX.4.4|9=138|35=W|34=249|49=cServer|50=QUOTE|52=20260109-06:31:24.497|56=demo.pepperstone.5179095|55=10028|268=2|269=0|270=90908.77|269=1|270=90923.77|10=163|
2026-01-09 08:31:25.036 INFO [APP][IN] qual=QUOTE 8=FIX.4.4|9=136|35=W|34=250|49=cServer|50=QUOTE|52=20260109-06:31:24.907|56=demo.pepperstone.5179095|55=10028|268=2|269=0|270=90917.8|269=1|270=90932.8|10=041|
2026-01-09 08:31:25.480 INFO [APP][IN] qual=QUOTE 8=FIX.4.4|9=138|35=W|34=251|49=cServer|50=QUOTE|52=20260109-06:31:25.351|56=demo.pepperstone.5179095|55=10028|268=2|269=0|270=90912.38|269=1|270=90927.38|10=139|
2026-01-09 08:31:25.881 INFO [APP][IN] qual=QUOTE 8=FIX.4.4|9=138|35=W|34=252|49=cServer|50=QUOTE|52=20260109-06:31:25.752|56=demo.pepperstone.5179095|55=10028|268=2|269=0|270=90914.53|269=1|270=90929.53|10=143|
2026-01-09 08:31:26.281 INFO [APP][IN] qual=QUOTE 8=FIX.4.4|9=138|35=W|34=253|49=cServer|50=QUOTE|52=20260109-06:31:26.152|56=demo.pepperstone.5179095|55=10028|268=2|269=0|270=90914.82|269=1|270=90929.82|10=143|
2026-01-09 08:31:26.688 INFO [APP][IN] qual=QUOTE 8=FIX.4.4|9=138|35=W|34=254|49=cServer|50=QUOTE|52=20260109-06:31:26.559|56=demo.pepperstone.5179095|55=10028|268=2|269=0|270=90915.56|269=1|270=90930.56|10=150|
2026-01-09 08:31:27.135 INFO [APP][IN] qual=QUOTE 8=FIX.4.4|9=138|35=W|34=255|49=cServer|50=QUOTE|52=20260109-06:31:27.007|56=demo.pepperstone.5179095|55=10028|268=2|269=0|270=90915.79|269=1|270=90930.79|10=150|
2026-01-09 08:31:27.536 INFO [APP][IN] qual=QUOTE 8=FIX.4.4|9=138|35=W|34=256|49=cServer|50=QUOTE|52=20260109-06:31:27.407|56=demo.pepperstone.5179095|55=10028|268=2|269=0|270=90921.49|269=1|270=90936.49|10=152|
2026-01-09 08:31:27.943 INFO [APP][IN] qual=QUOTE 8=FIX.4.4|9=138|35=W|34=257|49=cServer|50=QUOTE|52=20260109-06:31:27.814|56=demo.pepperstone.5179095|55=10028|268=2|269=0|270=90921.61|269=1|270=90936.61|10=143|
2026-01-09 08:31:28.347 INFO [APP][IN] qual=QUOTE 8=FIX.4.4|9=138|35=W|34=258|49=cServer|50=QUOTE|52=20260109-06:31:28.219|56=demo.pepperstone.5179095|55=10028|268=2|269=0|270=90916.06|269=1|270=90931.06|10=141|
2026-01-09 08:31:28.748 INFO [APP][IN] qual=QUOTE 8=FIX.4.4|9=138|35=W|34=259|49=cServer|50=QUOTE|52=20260109-06:31:28.619|56=demo.pepperstone.5179095|55=10028|268=2|269=0|270=90916.14|269=1|270=90931.14|10=144|
2026-01-09 08:31:29.161 INFO [APP][IN] qual=QUOTE 8=FIX.4.4|9=138|35=W|34=260|49=cServer|50=QUOTE|52=20260109-06:31:29.032|56=demo.pepperstone.5179095|55=10028|268=2|269=0|270=90914.24|269=1|270=90929.24|10=133|
2026-01-09 08:31:29.608 INFO [APP][IN] qual=QUOTE 8=FIX.4.4|9=138|35=W|34=261|49=cServer|50=QUOTE|52=20260109-06:31:29.479|56=demo.pepperstone.5179095|55=10028|268=2|269=0|270=90907.86|269=1|270=90922.86|10=160|
2026-01-09 08:31:30.017 INFO [APP][IN] qual=QUOTE 8=FIX.4.4|9=138|35=W|34=262|49=cServer|50=QUOTE|52=20260109-06:31:29.888|56=demo.pepperstone.5179095|55=10028|268=2|269=0|270=90906.53|269=1|270=90921.53|10=151|
2026-01-09 08:31:30.465 INFO [APP][IN] qual=QUOTE 8=FIX.4.4|9=138|35=W|34=263|49=cServer|50=QUOTE|52=20260109-06:31:30.336|56=demo.pepperstone.5179095|55=10028|268=2|269=0|270=90911.28|269=1|270=90926.28|10=137|
2026-01-09 08:31:30.872 INFO [APP][IN] qual=QUOTE 8=FIX.4.4|9=136|35=W|34=264|49=cServer|50=QUOTE|52=20260109-06:31:30.744|56=demo.pepperstone.5179095|55=10028|268=2|269=0|270=90911.1|269=1|270=90926.1|10=025|
2026-01-09 08:31:31.313 INFO [APP][IN] qual=QUOTE 8=FIX.4.4|9=138|35=W|34=265|49=cServer|50=QUOTE|52=20260109-06:31:31.184|56=demo.pepperstone.5179095|55=10028|268=2|269=0|270=90909.23|269=1|270=90924.23|10=136|
2026-01-09 08:31:31.720 INFO [APP][IN] qual=QUOTE 8=FIX.4.4|9=136|35=W|34=266|49=cServer|50=QUOTE|52=20260109-06:31:31.591|56=demo.pepperstone.5179095|55=10028|268=2|269=0|270=90908.9|269=1|270=90923.9|10=047|
2026-01-09 08:31:32.121 INFO [APP][IN] qual=QUOTE 8=FIX.4.4|9=138|35=W|34=267|49=cServer|50=QUOTE|52=20260109-06:31:31.992|56=demo.pepperstone.5179095|55=10028|268=2|269=0|270=90909.21|269=1|270=90924.21|10=141|
2026-01-09 08:31:32.522 INFO [APP][IN] qual=QUOTE 8=FIX.4.4|9=138|35=W|34=268|49=cServer|50=QUOTE|52=20260109-06:31:32.393|56=demo.pepperstone.5179095|55=10028|268=2|269=0|270=90909.32|269=1|270=90924.32|10=142|
2026-01-09 08:31:32.927 INFO [APP][IN] qual=QUOTE 8=FIX.4.4|9=138|35=W|34=269|49=cServer|50=QUOTE|52=20260109-06:31:32.798|56=demo.pepperstone.5179095|55=10028|268=2|269=0|270=90909.68|269=1|270=90924.68|10=170|
2026-01-09 08:31:33.378 INFO [APP][IN] qual=QUOTE 8=FIX.4.4|9=138|35=W|34=270|49=cServer|50=QUOTE|52=20260109-06:31:33.249|56=demo.pepperstone.5179095|55=10028|268=2|269=0|270=90909.59|269=1|270=90924.59|10=154|
2026-01-09 08:31:33.778 INFO [APP][IN] qual=QUOTE 8=FIX.4.4|9=136|35=W|34=271|49=cServer|50=QUOTE|52=20260109-06:31:33.649|56=demo.pepperstone.5179095|55=10028|268=2|269=0|270=90910.2|269=1|270=90925.2|10=030|
2026-01-09 08:31:34.182 INFO [APP][IN] qual=QUOTE 8=FIX.4.4|9=138|35=W|34=272|49=cServer|50=QUOTE|52=20260109-06:31:34.051|56=demo.pepperstone.5179095|55=10028|268=2|269=0|270=90910.41|269=1|270=90925.41|10=123|
2026-01-09 08:31:34.580 INFO [APP][IN] qual=QUOTE 8=FIX.4.4|9=138|35=W|34=273|49=cServer|50=QUOTE|52=20260109-06:31:34.452|56=demo.pepperstone.5179095|55=10028|268=2|269=0|270=90909.97|269=1|270=90924.97|10=158|
2026-01-09 08:31:34.982 INFO [APP][IN] qual=QUOTE 8=FIX.4.4|9=138|35=W|34=274|49=cServer|50=QUOTE|52=20260109-06:31:34.853|56=demo.pepperstone.5179095|55=10028|268=2|269=0|270=90910.01|269=1|270=90925.01|10=127|
2026-01-09 08:31:35.382 INFO [APP][IN] qual=QUOTE 8=FIX.4.4|9=136|35=W|34=275|49=cServer|50=QUOTE|52=20260109-06:31:35.253|56=demo.pepperstone.5179095|55=10028|268=2|269=0|270=90910.4|269=1|270=90925.4|10=031|
2026-01-09 08:31:35.784 INFO [APP][IN] qual=QUOTE 8=FIX.4.4|9=138|35=W|34=276|49=cServer|50=QUOTE|52=20260109-06:31:35.655|56=demo.pepperstone.5179095|55=10028|268=2|269=0|270=90910.99|269=1|270=90925.99|10=164|
2026-01-09 08:31:36.186 INFO [APP][IN] qual=QUOTE 8=FIX.4.4|9=138|35=W|34=277|49=cServer|50=QUOTE|52=20260109-06:31:36.057|56=demo.pepperstone.5179095|55=10028|268=2|269=0|270=90909.73|269=1|270=90924.73|10=153|
2026-01-09 08:31:36.591 INFO [APP][IN] qual=QUOTE 8=FIX.4.4|9=138|35=W|34=278|49=cServer|50=QUOTE|52=20260109-06:31:36.462|56=demo.pepperstone.5179095|55=10028|268=2|269=0|270=90909.57|269=1|270=90924.57|10=158|
2026-01-09 08:31:37.036 INFO [APP][IN] qual=QUOTE 8=FIX.4.4|9=138|35=W|34=279|49=cServer|50=QUOTE|52=20260109-06:31:36.907|56=demo.pepperstone.5179095|55=10028|268=2|269=0|270=90915.28|269=1|270=90930.28|10=153|
2026-01-09 08:31:37.443 INFO [APP][IN] qual=QUOTE 8=FIX.4.4|9=138|35=W|34=280|49=cServer|50=QUOTE|52=20260109-06:31:37.314|56=demo.pepperstone.5179095|55=10028|268=2|269=0|270=90915.38|269=1|270=90930.38|10=140|
2026-01-09 08:31:37.885 INFO [APP][IN] qual=QUOTE 8=FIX.4.4|9=138|35=W|34=281|49=cServer|50=QUOTE|52=20260109-06:31:37.756|56=demo.pepperstone.5179095|55=10028|268=2|269=0|270=90911.32|269=1|270=90926.32|10=140|
2026-01-09 08:31:38.285 INFO [APP][IN] qual=QUOTE 8=FIX.4.4|9=138|35=W|34=282|49=cServer|50=QUOTE|52=20260109-06:31:38.156|56=demo.pepperstone.5179095|55=10028|268=2|269=0|270=90913.05|269=1|270=90928.05|10=140|
2026-01-09 08:31:38.688 INFO [APP][IN] qual=QUOTE 8=FIX.4.4|9=138|35=W|34=283|49=cServer|50=QUOTE|52=20260109-06:31:38.560|56=demo.pepperstone.5179095|55=10028|268=2|269=0|270=90913.89|269=1|270=90928.89|10=164|
2026-01-09 08:31:39.109 INFO [APP][IN] qual=QUOTE 8=FIX.4.4|9=138|35=W|34=284|49=cServer|50=QUOTE|52=20260109-06:31:38.980|56=demo.pepperstone.5179095|55=10028|268=2|269=0|270=90907.64|269=1|270=90922.64|10=154|
2026-01-09 08:31:39.511 INFO [APP][IN] qual=QUOTE 8=FIX.4.4|9=138|35=W|34=285|49=cServer|50=QUOTE|52=20260109-06:31:39.382|56=demo.pepperstone.5179095|55=10028|268=2|269=0|270=90907.72|269=1|270=90922.72|10=150|
2026-01-09 08:31:39.912 INFO [APP][IN] qual=QUOTE 8=FIX.4.4|9=138|35=W|34=286|49=cServer|50=QUOTE|52=20260109-06:31:39.783|56=demo.pepperstone.5179095|55=10028|268=2|269=0|270=90908.08|269=1|270=90923.08|10=156|
2026-01-09 08:31:40.365 INFO [APP][IN] qual=QUOTE 8=FIX.4.4|9=138|35=W|34=287|49=cServer|50=QUOTE|52=20260109-06:31:40.236|56=demo.pepperstone.5179095|55=10028|268=2|269=0|270=90908.67|269=1|270=90923.67|10=152|
2026-01-09 08:31:40.805 INFO [APP][IN] qual=QUOTE 8=FIX.4.4|9=136|35=W|34=288|49=cServer|50=QUOTE|52=20260109-06:31:40.676|56=demo.pepperstone.5179095|55=10028|268=2|269=0|270=90908.3|269=1|270=90923.3|10=043|
2026-01-09 08:31:40.819 INFO [ADMIN][IN] qual=TRADE 8=FIX.4.4|9=83|35=0|34=6|49=cServer|50=TRADE|52=20260109-06:31:40.690|56=demo.pepperstone.5179095|10=244|
2026-01-09 08:31:41.217 INFO [APP][IN] qual=QUOTE 8=FIX.4.4|9=138|35=W|34=289|49=cServer|50=QUOTE|52=20260109-06:31:41.087|56=demo.pepperstone.5179095|55=10028|268=2|269=0|270=90908.01|269=1|270=90923.01|10=135|
2026-01-09 08:31:41.617 INFO [APP][IN] qual=QUOTE 8=FIX.4.4|9=138|35=W|34=290|49=cServer|50=QUOTE|52=20260109-06:31:41.488|56=demo.pepperstone.5179095|55=10028|268=2|269=0|270=90908.79|269=1|270=90923.79|10=162|
2026-01-09 08:31:42.020 INFO [APP][IN] qual=QUOTE 8=FIX.4.4|9=138|35=W|34=291|49=cServer|50=QUOTE|52=20260109-06:31:41.890|56=demo.pepperstone.5179095|55=10028|268=2|269=0|270=90908.19|269=1|270=90923.19|10=148|
2026-01-09 08:31:42.431 INFO [APP][IN] qual=QUOTE 8=FIX.4.4|9=138|35=W|34=292|49=cServer|50=QUOTE|52=20260109-06:31:42.302|56=demo.pepperstone.5179095|55=10028|268=2|269=0|270=90910.96|269=1|270=90925.96|10=143|
2026-01-09 08:31:42.867 INFO [APP][IN] qual=QUOTE 8=FIX.4.4|9=138|35=W|34=293|49=cServer|50=QUOTE|52=20260109-06:31:42.737|56=demo.pepperstone.5179095|55=10028|268=2|269=0|270=90912.05|269=1|270=90927.05|10=140|
2026-01-09 08:31:43.274 INFO [APP][IN] qual=QUOTE 8=FIX.4.4|9=138|35=W|34=294|49=cServer|50=QUOTE|52=20260109-06:31:43.145|56=demo.pepperstone.5179095|55=10028|268=2|269=0|270=90911.69|269=1|270=90926.69|10=153|
2026-01-09 08:31:43.726 INFO [APP][IN] qual=QUOTE 8=FIX.4.4|9=138|35=W|34=295|49=cServer|50=QUOTE|52=20260109-06:31:43.597|56=demo.pepperstone.5179095|55=10028|268=2|269=0|270=90911.95|269=1|270=90926.95|10=163|
2026-01-09 08:31:44.131 INFO [APP][IN] qual=QUOTE 8=FIX.4.4|9=138|35=W|34=296|49=cServer|50=QUOTE|52=20260109-06:31:44.002|56=demo.pepperstone.5179095|55=10028|268=2|269=0|270=90911.98|269=1|270=90926.98|10=152|
2026-01-09 08:31:44.578 INFO [APP][IN] qual=QUOTE 8=FIX.4.4|9=138|35=W|34=297|49=cServer|50=QUOTE|52=20260109-06:31:44.448|56=demo.pepperstone.5179095|55=10028|268=2|269=0|270=90912.12|269=1|270=90927.12|10=141|
2026-01-09 08:31:44.985 INFO [APP][IN] qual=QUOTE 8=FIX.4.4|9=138|35=W|34=298|49=cServer|50=QUOTE|52=20260109-06:31:44.856|56=demo.pepperstone.5179095|55=10028|268=2|269=0|270=90912.89|269=1|270=90927.89|10=173|
2026-01-09 08:31:45.386 INFO [APP][IN] qual=QUOTE 8=FIX.4.4|9=138|35=W|34=299|49=cServer|50=QUOTE|52=20260109-06:31:45.256|56=demo.pepperstone.5179095|55=10028|268=2|269=0|270=90912.77|269=1|270=90927.77|10=163|
2026-01-09 08:31:45.829 INFO [APP][IN] qual=QUOTE 8=FIX.4.4|9=138|35=W|34=300|49=cServer|50=QUOTE|52=20260109-06:31:45.699|56=demo.pepperstone.5179095|55=10028|268=2|269=0|270=90912.46|269=1|270=90927.46|10=149|
2026-01-09 08:31:46.234 INFO [APP][IN] qual=QUOTE 8=FIX.4.4|9=138|35=W|34=301|49=cServer|50=QUOTE|52=20260109-06:31:46.105|56=demo.pepperstone.5179095|55=10028|268=2|269=0|270=90912.03|269=1|270=90927.03|10=119|
2026-01-09 08:31:46.684 INFO [APP][IN] qual=QUOTE 8=FIX.4.4|9=138|35=W|34=302|49=cServer|50=QUOTE|52=20260109-06:31:46.554|56=demo.pepperstone.5179095|55=10028|268=2|269=0|270=90911.56|269=1|270=90926.56|10=142|
2026-01-09 08:31:47.087 INFO [APP][IN] qual=QUOTE 8=FIX.4.4|9=138|35=W|34=303|49=cServer|50=QUOTE|52=20260109-06:31:46.957|56=demo.pepperstone.5179095|55=10028|268=2|269=0|270=90917.71|269=1|270=90932.71|10=147|
2026-01-09 08:31:47.490 INFO [APP][IN] qual=QUOTE 8=FIX.4.4|9=138|35=W|34=304|49=cServer|50=QUOTE|52=20260109-06:31:47.361|56=demo.pepperstone.5179095|55=10028|268=2|269=0|270=90916.56|269=1|270=90931.56|10=142|
2026-01-09 08:31:47.911 INFO [APP][IN] qual=QUOTE 8=FIX.4.4|9=138|35=W|34=305|49=cServer|50=QUOTE|52=20260109-06:31:47.781|56=demo.pepperstone.5179095|55=10028|268=2|269=0|270=90915.25|269=1|270=90930.25|10=139|
2026-01-09 08:31:48.341 INFO [APP][IN] qual=QUOTE 8=FIX.4.4|9=138|35=W|34=306|49=cServer|50=QUOTE|52=20260109-06:31:48.212|56=demo.pepperstone.5179095|55=10028|268=2|269=0|270=90914.88|269=1|270=90929.88|10=155|
2026-01-09 08:31:48.789 INFO [APP][IN] qual=QUOTE 8=FIX.4.4|9=138|35=W|34=307|49=cServer|50=QUOTE|52=20260109-06:31:48.660|56=demo.pepperstone.5179095|55=10028|268=2|269=0|270=90908.82|269=1|270=90923.82|10=148|
2026-01-09 08:31:49.207 INFO [APP][IN] qual=QUOTE 8=FIX.4.4|9=138|35=W|34=308|49=cServer|50=QUOTE|52=20260109-06:31:49.078|56=demo.pepperstone.5179095|55=10028|268=2|269=0|270=90907.11|269=1|270=90922.11|10=135|
2026-01-09 08:31:49.614 INFO [APP][IN] qual=QUOTE 8=FIX.4.4|9=138|35=W|34=309|49=cServer|50=QUOTE|52=20260109-06:31:49.485|56=demo.pepperstone.5179095|55=10028|268=2|269=0|270=90907.48|269=1|270=90922.48|10=158|
2026-01-09 08:31:50.063 INFO [APP][IN] qual=QUOTE 8=FIX.4.4|9=138|35=W|34=310|49=cServer|50=QUOTE|52=20260109-06:31:49.934|56=demo.pepperstone.5179095|55=10028|268=2|269=0|270=90908.36|269=1|270=90923.36|10=145|
2026-01-09 08:31:50.466 INFO [APP][IN] qual=QUOTE 8=FIX.4.4|9=136|35=W|34=311|49=cServer|50=QUOTE|52=20260109-06:31:50.337|56=demo.pepperstone.5179095|55=10028|268=2|269=0|270=90914.2|269=1|270=90929.2|10=026|
2026-01-09 08:31:50.922 INFO [APP][IN] qual=QUOTE 8=FIX.4.4|9=138|35=W|34=312|49=cServer|50=QUOTE|52=20260109-06:31:50.793|56=demo.pepperstone.5179095|55=10028|268=2|269=0|270=90913.78|269=1|270=90928.78|10=155|
2026-01-09 08:31:51.329 INFO [APP][IN] qual=QUOTE 8=FIX.4.4|9=136|35=W|34=313|49=cServer|50=QUOTE|52=20260109-06:31:51.200|56=demo.pepperstone.5179095|55=10028|268=2|269=0|270=90913.1|269=1|270=90928.1|10=014|
2026-01-09 08:31:51.771 INFO [APP][IN] qual=QUOTE 8=FIX.4.4|9=138|35=W|34=314|49=cServer|50=QUOTE|52=20260109-06:31:51.641|56=demo.pepperstone.5179095|55=10028|268=2|269=0|270=90913.03|269=1|270=90928.03|10=126|
2026-01-09 08:31:52.221 INFO [APP][IN] qual=QUOTE 8=FIX.4.4|9=138|35=W|34=315|49=cServer|50=QUOTE|52=20260109-06:31:52.092|56=demo.pepperstone.5179095|55=10028|268=2|269=0|270=90906.95|269=1|270=90921.95|10=145|
2026-01-09 08:31:52.630 INFO [APP][IN] qual=QUOTE 8=FIX.4.4|9=138|35=W|34=316|49=cServer|50=QUOTE|52=20260109-06:31:52.501|56=demo.pepperstone.5179095|55=10028|268=2|269=0|270=90906.06|269=1|270=90921.06|10=125|
2026-01-09 08:31:53.041 INFO [APP][IN] qual=QUOTE 8=FIX.4.4|9=138|35=W|34=317|49=cServer|50=QUOTE|52=20260109-06:31:52.911|56=demo.pepperstone.5179095|55=10028|268=2|269=0|270=90906.15|269=1|270=90921.15|10=131|
2026-01-09 08:31:53.470 INFO [APP][IN] qual=QUOTE 8=FIX.4.4|9=138|35=W|34=318|49=cServer|50=QUOTE|52=20260109-06:31:53.342|56=demo.pepperstone.5179095|55=10028|268=2|269=0|270=90906.03|269=1|270=90921.03|10=125|
2026-01-09 08:31:53.876 INFO [APP][IN] qual=QUOTE 8=FIX.4.4|9=138|35=W|34=319|49=cServer|50=QUOTE|52=20260109-06:31:53.747|56=demo.pepperstone.5179095|55=10028|268=2|269=0|270=90907.04|269=1|270=90922.04|10=139|
2026-01-09 08:31:54.279 INFO [APP][IN] qual=QUOTE 8=FIX.4.4|9=138|35=W|34=320|49=cServer|50=QUOTE|52=20260109-06:31:54.150|56=demo.pepperstone.5179095|55=10028|268=2|269=0|270=90906.84|269=1|270=90921.84|10=134|
2026-01-09 08:31:54.731 INFO [APP][IN] qual=QUOTE 8=FIX.4.4|9=138|35=W|34=321|49=cServer|50=QUOTE|52=20260109-06:31:54.602|56=demo.pepperstone.5179095|55=10028|268=2|269=0|270=90905.67|269=1|270=90920.67|10=137|
2026-01-09 08:31:55.181 INFO [APP][IN] qual=QUOTE 8=FIX.4.4|9=138|35=W|34=322|49=cServer|50=QUOTE|52=20260109-06:31:55.052|56=demo.pepperstone.5179095|55=10028|268=2|269=0|270=90906.33|269=1|270=90921.33|10=126|
2026-01-09 08:31:55.630 INFO [APP][IN] qual=QUOTE 8=FIX.4.4|9=136|35=W|34=323|49=cServer|50=QUOTE|52=20260109-06:31:55.501|56=demo.pepperstone.5179095|55=10028|268=2|269=0|270=90906.9|269=1|270=90921.9|10=034|
2026-01-09 08:31:56.034 INFO [APP][IN] qual=QUOTE 8=FIX.4.4|9=138|35=W|34=324|49=cServer|50=QUOTE|52=20260109-06:31:55.905|56=demo.pepperstone.5179095|55=10028|268=2|269=0|270=90907.39|269=1|270=90922.39|10=149|
2026-01-09 08:31:56.483 INFO [APP][IN] qual=QUOTE 8=FIX.4.4|9=138|35=W|34=325|49=cServer|50=QUOTE|52=20260109-06:31:56.353|56=demo.pepperstone.5179095|55=10028|268=2|269=0|270=90907.22|269=1|270=90922.22|10=132|
2026-01-09 08:31:56.886 INFO [APP][IN] qual=QUOTE 8=FIX.4.4|9=138|35=W|34=326|49=cServer|50=QUOTE|52=20260109-06:31:56.757|56=demo.pepperstone.5179095|55=10028|268=2|269=0|270=90907.37|269=1|270=90922.37|10=153|
2026-01-09 08:31:57.336 INFO [APP][IN] qual=QUOTE 8=FIX.4.4|9=138|35=W|34=327|49=cServer|50=QUOTE|52=20260109-06:31:57.207|56=demo.pepperstone.5179095|55=10028|268=2|269=0|270=90907.42|269=1|270=90922.42|10=137|
2026-01-09 08:31:57.739 INFO [APP][IN] qual=QUOTE 8=FIX.4.4|9=138|35=W|34=328|49=cServer|50=QUOTE|52=20260109-06:31:57.610|56=demo.pepperstone.5179095|55=10028|268=2|269=0|270=90907.59|269=1|270=90922.59|10=152|
2026-01-09 08:31:58.176 INFO [APP][IN] qual=QUOTE 8=FIX.4.4|9=138|35=W|34=329|49=cServer|50=QUOTE|52=20260109-06:31:58.047|56=demo.pepperstone.5179095|55=10028|268=2|269=0|270=90907.93|269=1|270=90922.93|10=154|
2026-01-09 08:31:58.590 INFO [APP][IN] qual=QUOTE 8=FIX.4.4|9=138|35=W|34=330|49=cServer|50=QUOTE|52=20260109-06:31:58.460|56=demo.pepperstone.5179095|55=10028|268=2|269=0|270=90906.81|269=1|270=90921.81|10=137|
2026-01-09 08:31:58.993 INFO [APP][IN] qual=QUOTE 8=FIX.4.4|9=138|35=W|34=331|49=cServer|50=QUOTE|52=20260109-06:31:58.864|56=demo.pepperstone.5179095|55=10028|268=2|269=0|270=90906.86|269=1|270=90921.86|10=156|
2026-01-09 08:31:59.397 INFO [APP][IN] qual=QUOTE 8=FIX.4.4|9=138|35=W|34=332|49=cServer|50=QUOTE|52=20260109-06:31:59.268|56=demo.pepperstone.5179095|55=10028|268=2|269=0|270=90907.74|269=1|270=90922.74|10=152|
2026-01-09 08:31:59.812 INFO [APP][IN] qual=QUOTE 8=FIX.4.4|9=138|35=W|34=333|49=cServer|50=QUOTE|52=20260109-06:31:59.683|56=demo.pepperstone.5179095|55=10028|268=2|269=0|270=90908.11|269=1|270=90923.11|10=138|
2026-01-09 08:32:00.215 INFO [APP][IN] qual=QUOTE 8=FIX.4.4|9=138|35=W|34=334|49=cServer|50=QUOTE|52=20260109-06:32:00.086|56=demo.pepperstone.5179095|55=10028|268=2|269=0|270=90907.86|269=1|270=90922.86|10=145|
2026-01-09 08:32:00.216 INFO [BAR M1] 2026-01-09T06:31:00+00:00 O=90883.73 H=90929.11 L=90882.06 C=90915.61 | desired=0 cur=0
2026-01-09 08:32:00.715 INFO [APP][IN] qual=QUOTE 8=FIX.4.4|9=138|35=W|34=335|49=cServer|50=QUOTE|52=20260109-06:32:00.585|56=demo.pepperstone.5179095|55=10028|268=2|269=0|270=90907.79|269=1|270=90922.79|10=154|
2026-01-09 08:32:01.119 INFO [APP][IN] qual=QUOTE 8=FIX.4.4|9=138|35=W|34=336|49=cServer|50=QUOTE|52=20260109-06:32:00.990|56=demo.pepperstone.5179095|55=10028|268=2|269=0|270=90907.81|269=1|270=90922.81|10=141|
2026-01-09 08:32:01.545 INFO [APP][IN] qual=QUOTE 8=FIX.4.4|9=138|35=W|34=337|49=cServer|50=QUOTE|52=20260109-06:32:01.416|56=demo.pepperstone.5179095|55=10028|268=2|269=0|270=90900.11|269=1|270=90915.11|10=117|
2026-01-09 08:32:01.969 INFO [APP][IN] qual=QUOTE 8=FIX.4.4|9=138|35=W|34=338|49=cServer|50=QUOTE|52=20260109-06:32:01.840|56=demo.pepperstone.5179095|55=10028|268=2|269=0|270=90896.18|269=1|270=90911.18|10=143|
2026-01-09 08:32:02.375 INFO [APP][IN] qual=QUOTE 8=FIX.4.4|9=138|35=W|34=339|49=cServer|50=QUOTE|52=20260109-06:32:02.246|56=demo.pepperstone.5179095|55=10028|268=2|269=0|270=90894.03|269=1|270=90909.03|10=138|
2026-01-09 08:32:02.777 INFO [APP][IN] qual=QUOTE 8=FIX.4.4|9=138|35=W|34=340|49=cServer|50=QUOTE|52=20260109-06:32:02.648|56=demo.pepperstone.5179095|55=10028|268=2|269=0|270=90885.63|269=1|270=90900.63|10=139|
2026-01-09 08:32:03.200 INFO [APP][IN] qual=QUOTE 8=FIX.4.4|9=136|35=W|34=341|49=cServer|50=QUOTE|52=20260109-06:32:03.071|56=demo.pepperstone.5179095|55=10028|268=2|269=0|270=90882.2|269=1|270=90897.2|10=031|
2026-01-09 08:32:03.600 INFO [APP][IN] qual=QUOTE 8=FIX.4.4|9=138|35=W|34=342|49=cServer|50=QUOTE|52=20260109-06:32:03.471|56=demo.pepperstone.5179095|55=10028|268=2|269=0|270=90881.13|269=1|270=90896.13|10=136|
2026-01-09 08:32:04.025 INFO [APP][IN] qual=QUOTE 8=FIX.4.4|9=138|35=W|34=343|49=cServer|50=QUOTE|52=20260109-06:32:03.896|56=demo.pepperstone.5179095|55=10028|268=2|269=0|270=90876.34|269=1|270=90891.34|10=153|
2026-01-09 08:32:04.426 INFO [APP][IN] qual=QUOTE 8=FIX.4.4|9=138|35=W|34=344|49=cServer|50=QUOTE|52=20260109-06:32:04.297|56=demo.pepperstone.5179095|55=10028|268=2|269=0|270=90875.57|269=1|270=90890.57|10=158|
2026-01-09 08:32:04.830 INFO [APP][IN] qual=QUOTE 8=FIX.4.4|9=138|35=W|34=345|49=cServer|50=QUOTE|52=20260109-06:32:04.701|56=demo.pepperstone.5179095|55=10028|268=2|269=0|270=90875.33|269=1|270=90890.33|10=137|
2026-01-09 08:32:05.235 INFO [APP][IN] qual=QUOTE 8=FIX.4.4|9=136|35=W|34=346|49=cServer|50=QUOTE|52=20260109-06:32:05.105|56=demo.pepperstone.5179095|55=10028|268=2|269=0|270=90874.9|269=1|270=90889.9|10=052|
2026-01-09 08:32:05.682 INFO [APP][IN] qual=QUOTE 8=FIX.4.4|9=138|35=W|34=347|49=cServer|50=QUOTE|52=20260109-06:32:05.553|56=demo.pepperstone.5179095|55=10028|268=2|269=0|270=90881.09|269=1|270=90896.09|10=154|
2026-01-09 08:32:06.085 INFO [APP][IN] qual=QUOTE 8=FIX.4.4|9=138|35=W|34=348|49=cServer|50=QUOTE|52=20260109-06:32:05.955|56=demo.pepperstone.5179095|55=10028|268=2|269=0|270=90881.11|269=1|270=90896.11|10=147|
2026-01-09 08:32:06.535 INFO [APP][IN] qual=QUOTE 8=FIX.4.4|9=138|35=W|34=349|49=cServer|50=QUOTE|52=20260109-06:32:06.406|56=demo.pepperstone.5179095|55=10028|268=2|269=0|270=90882.05|269=1|270=90897.05|10=148|
2026-01-09 08:32:06.971 INFO [APP][IN] qual=QUOTE 8=FIX.4.4|9=136|35=W|34=350|49=cServer|50=QUOTE|52=20260109-06:32:06.842|56=demo.pepperstone.5179095|55=10028|268=2|269=0|270=90882.2|269=1|270=90897.2|10=040|
2026-01-09 08:32:07.387 INFO [APP][IN] qual=QUOTE 8=FIX.4.4|9=138|35=W|34=351|49=cServer|50=QUOTE|52=20260109-06:32:07.258|56=demo.pepperstone.5179095|55=10028|268=2|269=0|270=90881.98|269=1|270=90896.98|10=169|
2026-01-09 08:32:07.840 INFO [APP][IN] qual=QUOTE 8=FIX.4.4|9=138|35=W|34=352|49=cServer|50=QUOTE|52=20260109-06:32:07.711|56=demo.pepperstone.5179095|55=10028|268=2|269=0|270=90883.01|269=1|270=90898.01|10=136|
2026-01-09 08:32:08.241 INFO [APP][IN] qual=QUOTE 8=FIX.4.4|9=138|35=W|34=353|49=cServer|50=QUOTE|52=20260109-06:32:08.112|56=demo.pepperstone.5179095|55=10028|268=2|269=0|270=90892.17|269=1|270=90907.17|10=138|
2026-01-09 08:32:08.684 INFO [APP][IN] qual=QUOTE 8=FIX.4.4|9=138|35=W|34=354|49=cServer|50=QUOTE|52=20260109-06:32:08.555|56=demo.pepperstone.5179095|55=10028|268=2|269=0|270=90891.64|269=1|270=90906.64|10=152|
2026-01-09 08:32:09.107 INFO [APP][IN] qual=QUOTE 8=FIX.4.4|9=138|35=W|34=355|49=cServer|50=QUOTE|52=20260109-06:32:08.978|56=demo.pepperstone.5179095|55=10028|268=2|269=0|270=90891.32|269=1|270=90906.32|10=152|
2026-01-09 08:32:09.556 INFO [APP][IN] qual=QUOTE 8=FIX.4.4|9=138|35=W|34=356|49=cServer|50=QUOTE|52=20260109-06:32:09.426|56=demo.pepperstone.5179095|55=10028|268=2|269=0|270=90891.18|269=1|270=90906.18|10=150|
2026-01-09 08:32:09.961 INFO [APP][IN] qual=QUOTE 8=FIX.4.4|9=138|35=W|34=357|49=cServer|50=QUOTE|52=20260109-06:32:09.832|56=demo.pepperstone.5179095|55=10028|268=2|269=0|270=90889.33|269=1|270=90904.33|10=151|
2026-01-09 08:32:10.412 INFO [APP][IN] qual=QUOTE 8=FIX.4.4|9=138|35=W|34=358|49=cServer|50=QUOTE|52=20260109-06:32:10.282|56=demo.pepperstone.5179095|55=10028|268=2|269=0|270=90889.51|269=1|270=90904.51|10=143|
2026-01-09 08:32:10.814 INFO [APP][IN] qual=QUOTE 8=FIX.4.4|9=138|35=W|34=359|49=cServer|50=QUOTE|52=20260109-06:32:10.685|56=demo.pepperstone.5179095|55=10028|268=2|269=0|270=90889.57|269=1|270=90904.57|10=163|
2026-01-09 08:32:10.819 INFO [ADMIN][IN] qual=TRADE 8=FIX.4.4|9=83|35=0|34=7|49=cServer|50=TRADE|52=20260109-06:32:10.690|56=demo.pepperstone.5179095|10=243|
2026-01-09 08:32:11.217 INFO [APP][IN] qual=QUOTE 8=FIX.4.4|9=138|35=W|34=360|49=cServer|50=QUOTE|52=20260109-06:32:11.088|56=demo.pepperstone.5179095|55=10028|268=2|269=0|270=90890.18|269=1|270=90905.18|10=140|
2026-01-09 08:32:11.667 INFO [APP][IN] qual=QUOTE 8=FIX.4.4|9=138|35=W|34=361|49=cServer|50=QUOTE|52=20260109-06:32:11.538|56=demo.pepperstone.5179095|55=10028|268=2|269=0|270=90895.18|269=1|270=90910.18|10=142|
2026-01-09 08:32:12.118 INFO [APP][IN] qual=QUOTE 8=FIX.4.4|9=138|35=W|34=362|49=cServer|50=QUOTE|52=20260109-06:32:11.988|56=demo.pepperstone.5179095|55=10028|268=2|269=0|270=90895.12|269=1|270=90910.12|10=140|
2026-01-09 08:32:12.568 INFO [APP][IN] qual=QUOTE 8=FIX.4.4|9=138|35=W|34=363|49=cServer|50=QUOTE|52=20260109-06:32:12.439|56=demo.pepperstone.5179095|55=10028|268=2|269=0|270=90894.84|269=1|270=90909.84|10=158|
2026-01-09 08:32:12.971 INFO [APP][IN] qual=QUOTE 8=FIX.4.4|9=138|35=W|34=364|49=cServer|50=QUOTE|52=20260109-06:32:12.842|56=demo.pepperstone.5179095|55=10028|268=2|269=0|270=90894.83|269=1|270=90909.83|10=155|
2026-01-09 08:32:13.421 INFO [APP][IN] qual=QUOTE 8=FIX.4.4|9=136|35=W|34=365|49=cServer|50=QUOTE|52=20260109-06:32:13.292|56=demo.pepperstone.5179095|55=10028|268=2|269=0|270=90894.7|269=1|270=90909.7|10=050|
2026-01-09 08:32:14.275 INFO [APP][IN] qual=QUOTE 8=FIX.4.4|9=138|35=W|34=366|49=cServer|50=QUOTE|52=20260109-06:32:14.146|56=demo.pepperstone.5179095|55=10028|268=2|269=0|270=90894.63|269=1|270=90909.63|10=152|
2026-01-09 08:32:14.684 INFO [APP][IN] qual=QUOTE 8=FIX.4.4|9=138|35=W|34=367|49=cServer|50=QUOTE|52=20260109-06:32:14.555|56=demo.pepperstone.5179095|55=10028|268=2|269=0|270=90894.67|269=1|270=90909.67|10=165|
2026-01-09 08:32:15.126 INFO [APP][IN] qual=QUOTE 8=FIX.4.4|9=138|35=W|34=368|49=cServer|50=QUOTE|52=20260109-06:32:14.997|56=demo.pepperstone.5179095|55=10028|268=2|269=0|270=90894.39|269=1|270=90909.39|10=174|
2026-01-09 08:32:15.526 INFO [APP][IN] qual=QUOTE 8=FIX.4.4|9=138|35=W|34=369|49=cServer|50=QUOTE|52=20260109-06:32:15.397|56=demo.pepperstone.5179095|55=10028|268=2|269=0|270=90894.37|269=1|270=90909.37|10=166|
2026-01-09 08:32:15.929 INFO [APP][IN] qual=QUOTE 8=FIX.4.4|9=138|35=W|34=370|49=cServer|50=QUOTE|52=20260109-06:32:15.800|56=demo.pepperstone.5179095|55=10028|268=2|269=0|270=90894.34|269=1|270=90909.34|10=141|
2026-01-09 08:32:16.381 INFO [APP][IN] qual=QUOTE 8=FIX.4.4|9=138|35=W|34=371|49=cServer|50=QUOTE|52=20260109-06:32:16.250|56=demo.pepperstone.5179095|55=10028|268=2|269=0|270=90894.46|269=1|270=90909.46|10=148|
2026-01-09 08:32:16.783 INFO [APP][IN] qual=QUOTE 8=FIX.4.4|9=138|35=W|34=372|49=cServer|50=QUOTE|52=20260109-06:32:16.653|56=demo.pepperstone.5179095|55=10028|268=2|269=0|270=90894.35|269=1|270=90909.35|10=152|
2026-01-09 08:32:17.228 INFO [APP][IN] qual=QUOTE 8=FIX.4.4|9=138|35=W|34=373|49=cServer|50=QUOTE|52=20260109-06:32:17.099|56=demo.pepperstone.5179095|55=10028|268=2|269=0|270=90894.34|269=1|270=90909.34|10=156|
2026-01-09 08:32:17.635 INFO [APP][IN] qual=QUOTE 8=FIX.4.4|9=138|35=W|34=374|49=cServer|50=QUOTE|52=20260109-06:32:17.506|56=demo.pepperstone.5179095|55=10028|268=2|269=0|270=90894.27|269=1|270=90909.27|10=154|
2026-01-09 08:32:18.036 INFO [APP][IN] qual=QUOTE 8=FIX.4.4|9=138|35=W|34=375|49=cServer|50=QUOTE|52=20260109-06:32:17.907|56=demo.pepperstone.5179095|55=10028|268=2|269=0|270=90894.24|269=1|270=90909.24|10=154|
2026-01-09 08:32:18.441 INFO [APP][IN] qual=QUOTE 8=FIX.4.4|9=138|35=W|34=376|49=cServer|50=QUOTE|52=20260109-06:32:18.311|56=demo.pepperstone.5179095|55=10028|268=2|269=0|270=90894.17|269=1|270=90909.17|10=149|
2026-01-09 08:32:18.860 INFO [APP][IN] qual=QUOTE 8=FIX.4.4|9=138|35=W|34=377|49=cServer|50=QUOTE|52=20260109-06:32:18.731|56=demo.pepperstone.5179095|55=10028|268=2|269=0|270=90894.22|269=1|270=90909.22|10=148|
2026-01-09 08:32:19.322 INFO [APP][IN] qual=QUOTE 8=FIX.4.4|9=138|35=W|34=378|49=cServer|50=QUOTE|52=20260109-06:32:19.193|56=demo.pepperstone.5179095|55=10028|268=2|269=0|270=90895.38|269=1|270=90910.38|10=159|
2026-01-09 08:32:19.772 INFO [APP][IN] qual=QUOTE 8=FIX.4.4|9=138|35=W|34=379|49=cServer|50=QUOTE|52=20260109-06:32:19.643|56=demo.pepperstone.5179095|55=10028|268=2|269=0|270=90895.22|269=1|270=90910.22|10=146|
2026-01-09 08:32:20.226 INFO [APP][IN] qual=QUOTE 8=FIX.4.4|9=138|35=W|34=380|49=cServer|50=QUOTE|52=20260109-06:32:20.096|56=demo.pepperstone.5179095|55=10028|268=2|269=0|270=90890.94|269=1|270=90905.94|10=149|
2026-01-09 08:32:21.071 INFO [APP][IN] qual=QUOTE 8=FIX.4.4|9=138|35=W|34=381|49=cServer|50=QUOTE|52=20260109-06:32:20.942|56=demo.pepperstone.5179095|55=10028|268=2|269=0|270=90890.89|269=1|270=90905.89|10=158|
2026-01-09 08:32:21.474 INFO [APP][IN] qual=QUOTE 8=FIX.4.4|9=138|35=W|34=382|49=cServer|50=QUOTE|52=20260109-06:32:21.345|56=demo.pepperstone.5179095|55=10028|268=2|269=0|270=90890.65|269=1|270=90905.65|10=145|
2026-01-09 08:32:21.880 INFO [APP][IN] qual=QUOTE 8=FIX.4.4|9=138|35=W|34=383|49=cServer|50=QUOTE|52=20260109-06:32:21.750|56=demo.pepperstone.5179095|55=10028|268=2|269=0|270=90890.91|269=1|270=90905.91|10=144|
2026-01-09 08:32:22.282 INFO [APP][IN] qual=QUOTE 8=FIX.4.4|9=138|35=W|34=384|49=cServer|50=QUOTE|52=20260109-06:32:22.152|56=demo.pepperstone.5179095|55=10028|268=2|269=0|270=90890.29|269=1|270=90905.29|10=144|
2026-01-09 08:32:22.781 INFO [APP][IN] qual=QUOTE 8=FIX.4.4|9=138|35=W|34=385|49=cServer|50=QUOTE|52=20260109-06:32:22.652|56=demo.pepperstone.5179095|55=10028|268=2|269=0|270=90897.96|269=1|270=90912.96|10=163|
2026-01-09 08:32:23.184 INFO [APP][IN] qual=QUOTE 8=FIX.4.4|9=136|35=W|34=386|49=cServer|50=QUOTE|52=20260109-06:32:23.054|56=demo.pepperstone.5179095|55=10028|268=2|269=0|270=90895.9|269=1|270=90910.9|10=047|
2026-01-09 08:32:23.586 INFO [APP][IN] qual=QUOTE 8=FIX.4.4|9=138|35=W|34=387|49=cServer|50=QUOTE|52=20260109-06:32:23.457|56=demo.pepperstone.5179095|55=10028|268=2|269=0|270=90895.06|269=1|270=90910.06|10=147|
2026-01-09 08:32:23.990 INFO [APP][IN] qual=QUOTE 8=FIX.4.4|9=138|35=W|34=388|49=cServer|50=QUOTE|52=20260109-06:32:23.861|56=demo.pepperstone.5179095|55=10028|268=2|269=0|270=90890.14|269=1|270=90905.14|10=144|
2026-01-09 08:32:24.429 INFO [APP][IN] qual=QUOTE 8=FIX.4.4|9=136|35=W|34=389|49=cServer|50=QUOTE|52=20260109-06:32:24.300|56=demo.pepperstone.5179095|55=10028|268=2|269=0|270=90893.1|269=1|270=90908.1|10=034|
2026-01-09 08:32:24.831 INFO [APP][IN] qual=QUOTE 8=FIX.4.4|9=138|35=W|34=390|49=cServer|50=QUOTE|52=20260109-06:32:24.702|56=demo.pepperstone.5179095|55=10028|268=2|269=0|270=90893.62|269=1|270=90908.62|10=144|
2026-01-09 08:32:25.289 INFO [APP][IN] qual=QUOTE 8=FIX.4.4|9=138|35=W|34=391|49=cServer|50=QUOTE|52=20260109-06:32:25.160|56=demo.pepperstone.5179095|55=10028|268=2|269=0|270=90894.24|269=1|270=90909.24|10=142|
2026-01-09 08:32:25.693 INFO [APP][IN] qual=QUOTE 8=FIX.4.4|9=138|35=W|34=392|49=cServer|50=QUOTE|52=20260109-06:32:25.564|56=demo.pepperstone.5179095|55=10028|268=2|269=0|270=90893.32|269=1|270=90908.32|10=147|
2026-01-09 08:32:26.094 INFO [APP][IN] qual=QUOTE 8=FIX.4.4|9=138|35=W|34=393|49=cServer|50=QUOTE|52=20260109-06:32:25.965|56=demo.pepperstone.5179095|55=10028|268=2|269=0|270=90882.47|269=1|270=90897.47|10=170|
2026-01-09 08:32:26.495 INFO [APP][IN] qual=QUOTE 8=FIX.4.4|9=138|35=W|34=394|49=cServer|50=QUOTE|52=20260109-06:32:26.366|56=demo.pepperstone.5179095|55=10028|268=2|269=0|270=90881.06|269=1|270=90896.06|10=155|
2026-01-09 08:32:26.907 INFO [APP][IN] qual=QUOTE 8=FIX.4.4|9=138|35=W|34=395|49=cServer|50=QUOTE|52=20260109-06:32:26.777|56=demo.pepperstone.5179095|55=10028|268=2|269=0|270=90880.98|269=1|270=90895.98|10=182|
2026-01-09 08:32:27.348 INFO [APP][IN] qual=QUOTE 8=FIX.4.4|9=138|35=W|34=396|49=cServer|50=QUOTE|52=20260109-06:32:27.218|56=demo.pepperstone.5179095|55=10028|268=2|269=0|270=90881.32|269=1|270=90896.32|10=152|
2026-01-09 08:32:27.795 INFO [APP][IN] qual=QUOTE 8=FIX.4.4|9=138|35=W|34=397|49=cServer|50=QUOTE|52=20260109-06:32:27.666|56=demo.pepperstone.5179095|55=10028|268=2|269=0|270=90880.93|269=1|270=90895.93|10=172|
2026-01-09 08:32:28.198 INFO [APP][IN] qual=QUOTE 8=FIX.4.4|9=138|35=W|34=398|49=cServer|50=QUOTE|52=20260109-06:32:28.069|56=demo.pepperstone.5179095|55=10028|268=2|269=0|270=90881.27|269=1|270=90896.27|10=167|
2026-01-09 08:32:28.602 INFO [APP][IN] qual=QUOTE 8=FIX.4.4|9=138|35=W|34=399|49=cServer|50=QUOTE|52=20260109-06:32:28.473|56=demo.pepperstone.5179095|55=10028|268=2|269=0|270=90881.35|269=1|270=90896.35|10=165|
2026-01-09 08:32:29.050 INFO [APP][IN] qual=QUOTE 8=FIX.4.4|9=138|35=W|34=400|49=cServer|50=QUOTE|52=20260109-06:32:28.921|56=demo.pepperstone.5179095|55=10028|268=2|269=0|270=90881.61|269=1|270=90896.61|10=144|
2026-01-09 08:32:29.458 INFO [APP][IN] qual=QUOTE 8=FIX.4.4|9=138|35=W|34=401|49=cServer|50=QUOTE|52=20260109-06:32:29.328|56=demo.pepperstone.5179095|55=10028|268=2|269=0|270=90881.36|269=1|270=90896.36|10=151|
2026-01-09 08:32:29.862 INFO [APP][IN] qual=QUOTE 8=FIX.4.4|9=138|35=W|34=402|49=cServer|50=QUOTE|52=20260109-06:32:29.733|56=demo.pepperstone.5179095|55=10028|268=2|269=0|270=90881.32|269=1|270=90896.32|10=144|
2026-01-09 08:32:30.309 INFO [APP][IN] qual=QUOTE 8=FIX.4.4|9=138|35=W|34=403|49=cServer|50=QUOTE|52=20260109-06:32:30.180|56=demo.pepperstone.5179095|55=10028|268=2|269=0|270=90881.03|269=1|270=90896.03|10=129|
2026-01-09 08:32:30.716 INFO [APP][IN] qual=QUOTE 8=FIX.4.4|9=138|35=W|34=404|49=cServer|50=QUOTE|52=20260109-06:32:30.587|56=demo.pepperstone.5179095|55=10028|268=2|269=0|270=90880.81|269=1|270=90895.81|10=151|
2026-01-09 08:32:31.165 INFO [APP][IN] qual=QUOTE 8=FIX.4.4|9=138|35=W|34=405|49=cServer|50=QUOTE|52=20260109-06:32:31.036|56=demo.pepperstone.5179095|55=10028|268=2|269=0|270=90879.67|269=1|270=90894.67|10=157|
2026-01-09 08:32:31.566 INFO [APP][IN] qual=QUOTE 8=FIX.4.4|9=138|35=W|34=406|49=cServer|50=QUOTE|52=20260109-06:32:31.437|56=demo.pepperstone.5179095|55=10028|268=2|269=0|270=90882.46|269=1|270=90897.46|10=154|
2026-01-09 08:32:31.969 INFO [APP][IN] qual=QUOTE 8=FIX.4.4|9=138|35=W|34=407|49=cServer|50=QUOTE|52=20260109-06:32:31.840|56=demo.pepperstone.5179095|55=10028|268=2|269=0|270=90883.24|269=1|270=90898.24|10=147|
2026-01-09 08:32:32.418 INFO [APP][IN] qual=QUOTE 8=FIX.4.4|9=138|35=W|34=408|49=cServer|50=QUOTE|52=20260109-06:32:32.289|56=demo.pepperstone.5179095|55=10028|268=2|269=0|270=90882.98|269=1|270=90897.98|10=176|
2026-01-09 08:32:32.821 INFO [APP][IN] qual=QUOTE 8=FIX.4.4|9=136|35=W|34=409|49=cServer|50=QUOTE|52=20260109-06:32:32.691|56=demo.pepperstone.5179095|55=10028|268=2|269=0|270=90881.7|269=1|270=90896.7|10=054|
2026-01-09 08:32:33.273 INFO [APP][IN] qual=QUOTE 8=FIX.4.4|9=138|35=W|34=410|49=cServer|50=QUOTE|52=20260109-06:32:33.144|56=demo.pepperstone.5179095|55=10028|268=2|269=0|270=90882.22|269=1|270=90897.22|10=134|
2026-01-09 08:32:33.723 INFO [APP][IN] qual=QUOTE 8=FIX.4.4|9=138|35=W|34=411|49=cServer|50=QUOTE|52=20260109-06:32:33.594|56=demo.pepperstone.5179095|55=10028|268=2|269=0|270=90884.27|269=1|270=90899.27|10=158|
2026-01-09 08:32:34.125 INFO [APP][IN] qual=QUOTE 8=FIX.4.4|9=138|35=W|34=412|49=cServer|50=QUOTE|52=20260109-06:32:33.996|56=demo.pepperstone.5179095|55=10028|268=2|269=0|270=90884.41|269=1|270=90899.41|10=157|
2026-01-09 08:32:34.577 INFO [APP][IN] qual=QUOTE 8=FIX.4.4|9=138|35=W|34=413|49=cServer|50=QUOTE|52=20260109-06:32:34.447|56=demo.pepperstone.5179095|55=10028|268=2|269=0|270=90884.08|269=1|270=90899.08|10=156|
2026-01-09 08:32:35.020 INFO [APP][IN] qual=QUOTE 8=FIX.4.4|9=136|35=W|34=414|49=cServer|50=QUOTE|52=20260109-06:32:34.891|56=demo.pepperstone.5179095|55=10028|268=2|269=0|270=90884.3|269=1|270=90899.3|10=052|
2026-01-09 08:32:35.429 INFO [APP][IN] qual=QUOTE 8=FIX.4.4|9=138|35=W|34=415|49=cServer|50=QUOTE|52=20260109-06:32:35.300|56=demo.pepperstone.5179095|55=10028|268=2|269=0|270=90884.27|269=1|270=90899.27|10=149|
2026-01-09 08:32:35.844 INFO [APP][IN] qual=QUOTE 8=FIX.4.4|9=138|35=W|34=416|49=cServer|50=QUOTE|52=20260109-06:32:35.715|56=demo.pepperstone.5179095|55=10028|268=2|269=0|270=90884.36|269=1|270=90899.36|10=160|
2026-01-09 08:32:36.276 INFO [APP][IN] qual=QUOTE 8=FIX.4.4|9=138|35=W|34=417|49=cServer|50=QUOTE|52=20260109-06:32:36.147|56=demo.pepperstone.5179095|55=10028|268=2|269=0|270=90884.42|269=1|270=90899.42|10=155|
2026-01-09 08:32:36.733 INFO [APP][IN] qual=QUOTE 8=FIX.4.4|9=138|35=W|34=418|49=cServer|50=QUOTE|52=20260109-06:32:36.604|56=demo.pepperstone.5179095|55=10028|268=2|269=0|270=90884.35|269=1|270=90899.35|10=158|
2026-01-09 08:32:37.133 INFO [APP][IN] qual=QUOTE 8=FIX.4.4|9=138|35=W|34=419|49=cServer|50=QUOTE|52=20260109-06:32:37.004|56=demo.pepperstone.5179095|55=10028|268=2|269=0|270=90884.44|269=1|270=90899.44|10=154|
2026-01-09 08:32:37.541 INFO [APP][IN] qual=QUOTE 8=FIX.4.4|9=138|35=W|34=420|49=cServer|50=QUOTE|52=20260109-06:32:37.411|56=demo.pepperstone.5179095|55=10028|268=2|269=0|270=90884.53|269=1|270=90899.53|10=148|
2026-01-09 08:32:37.986 INFO [APP][IN] qual=QUOTE 8=FIX.4.4|9=138|35=W|34=421|49=cServer|50=QUOTE|52=20260109-06:32:37.857|56=demo.pepperstone.5179095|55=10028|268=2|269=0|270=90888.53|269=1|270=90903.53|10=153|
2026-01-09 08:32:38.401 INFO [APP][IN] qual=QUOTE 8=FIX.4.4|9=138|35=W|34=422|49=cServer|50=QUOTE|52=20260109-06:32:38.272|56=demo.pepperstone.5179095|55=10028|268=2|269=0|270=90896.67|269=1|270=90911.67|10=154|
2026-01-09 08:32:38.837 INFO [APP][IN] qual=QUOTE 8=FIX.4.4|9=138|35=W|34=423|49=cServer|50=QUOTE|52=20260109-06:32:38.708|56=demo.pepperstone.5179095|55=10028|268=2|269=0|270=90895.84|269=1|270=90910.84|10=155|
2026-01-09 08:32:39.259 INFO [APP][IN] qual=QUOTE 8=FIX.4.4|9=138|35=W|34=424|49=cServer|50=QUOTE|52=20260109-06:32:39.129|56=demo.pepperstone.5179095|55=10028|268=2|269=0|270=90896.19|269=1|270=90911.19|10=152|
2026-01-09 08:32:39.664 INFO [APP][IN] qual=QUOTE 8=FIX.4.4|9=138|35=W|34=425|49=cServer|50=QUOTE|52=20260109-06:32:39.534|56=demo.pepperstone.5179095|55=10028|268=2|269=0|270=90896.18|269=1|270=90911.18|10=151|
2026-01-09 08:32:40.114 INFO [APP][IN] qual=QUOTE 8=FIX.4.4|9=138|35=W|34=426|49=cServer|50=QUOTE|52=20260109-06:32:39.984|56=demo.pepperstone.5179095|55=10028|268=2|269=0|270=90896.03|269=1|270=90911.03|10=149|
2026-01-09 08:32:40.517 INFO [APP][IN] qual=QUOTE 8=FIX.4.4|9=138|35=W|34=427|49=cServer|50=QUOTE|52=20260109-06:32:40.388|56=demo.pepperstone.5179095|55=10028|268=2|269=0|270=90897.12|269=1|270=90912.12|10=142|
2026-01-09 08:32:40.819 INFO [ADMIN][IN] qual=TRADE 8=FIX.4.4|9=83|35=0|34=8|49=cServer|50=TRADE|52=20260109-06:32:40.690|56=demo.pepperstone.5179095|10=247|
2026-01-09 08:32:40.969 INFO [APP][IN] qual=QUOTE 8=FIX.4.4|9=138|35=W|34=428|49=cServer|50=QUOTE|52=20260109-06:32:40.839|56=demo.pepperstone.5179095|55=10028|268=2|269=0|270=90896.91|269=1|270=90911.91|10=156|
2026-01-09 08:32:41.417 INFO [APP][IN] qual=QUOTE 8=FIX.4.4|9=138|35=W|34=429|49=cServer|50=QUOTE|52=20260109-06:32:41.288|56=demo.pepperstone.5179095|55=10028|268=2|269=0|270=90896.69|269=1|270=90911.69|10=166|
2026-01-09 08:32:41.823 INFO [APP][IN] qual=QUOTE 8=FIX.4.4|9=138|35=W|34=430|49=cServer|50=QUOTE|52=20260109-06:32:41.693|56=demo.pepperstone.5179095|55=10028|268=2|269=0|270=90896.62|269=1|270=90911.62|10=144|
2026-01-09 08:32:42.269 INFO [APP][IN] qual=QUOTE 8=FIX.4.4|9=138|35=W|34=431|49=cServer|50=QUOTE|52=20260109-06:32:42.139|56=demo.pepperstone.5179095|55=10028|268=2|269=0|270=90896.86|269=1|270=90911.86|10=153|
2026-01-09 08:32:42.672 INFO [APP][IN] qual=QUOTE 8=FIX.4.4|9=138|35=W|34=432|49=cServer|50=QUOTE|52=20260109-06:32:42.543|56=demo.pepperstone.5179095|55=10028|268=2|269=0|270=90896.66|269=1|270=90911.66|10=149|
2026-01-09 08:32:43.126 INFO [APP][IN] qual=QUOTE 8=FIX.4.4|9=138|35=W|34=433|49=cServer|50=QUOTE|52=20260109-06:32:42.997|56=demo.pepperstone.5179095|55=10028|268=2|269=0|270=90896.06|269=1|270=90911.06|10=151|
2026-01-09 08:32:43.536 INFO [APP][IN] qual=QUOTE 8=FIX.4.4|9=138|35=W|34=434|49=cServer|50=QUOTE|52=20260109-06:32:43.407|56=demo.pepperstone.5179095|55=10028|268=2|269=0|270=90895.58|269=1|270=90910.58|10=151|
2026-01-09 08:32:43.970 INFO [APP][IN] qual=QUOTE 8=FIX.4.4|9=138|35=W|34=435|49=cServer|50=QUOTE|52=20260109-06:32:43.840|56=demo.pepperstone.5179095|55=10028|268=2|269=0|270=90895.59|269=1|270=90910.59|10=155|
2026-01-09 08:32:44.374 INFO [APP][IN] qual=QUOTE 8=FIX.4.4|9=138|35=W|34=436|49=cServer|50=QUOTE|52=20260109-06:32:44.245|56=demo.pepperstone.5179095|55=10028|268=2|269=0|270=90895.62|269=1|270=90910.62|10=144|
2026-01-09 08:32:44.780 INFO [APP][IN] qual=QUOTE 8=FIX.4.4|9=138|35=W|34=437|49=cServer|50=QUOTE|52=20260109-06:32:44.651|56=demo.pepperstone.5179095|55=10028|268=2|269=0|270=90895.63|269=1|270=90910.63|10=148|
2026-01-09 08:32:45.280 INFO [APP][IN] qual=QUOTE 8=FIX.4.4|9=136|35=W|34=438|49=cServer|50=QUOTE|52=20260109-06:32:45.151|56=demo.pepperstone.5179095|55=10028|268=2|269=0|270=90890.7|269=1|270=90905.7|10=042|
2026-01-09 08:32:45.724 INFO [APP][IN] qual=QUOTE 8=FIX.4.4|9=138|35=W|34=439|49=cServer|50=QUOTE|52=20260109-06:32:45.595|56=demo.pepperstone.5179095|55=10028|268=2|269=0|270=90899.92|269=1|270=90914.92|10=170|
2026-01-09 08:32:46.134 INFO [APP][IN] qual=QUOTE 8=FIX.4.4|9=138|35=W|34=440|49=cServer|50=QUOTE|52=20260109-06:32:46.005|56=demo.pepperstone.5179095|55=10028|268=2|269=0|270=90903.68|269=1|270=90918.68|10=145|
2026-01-09 08:32:46.543 INFO [APP][IN] qual=QUOTE 8=FIX.4.4|9=138|35=W|34=441|49=cServer|50=QUOTE|52=20260109-06:32:46.414|56=demo.pepperstone.5179095|55=10028|268=2|269=0|270=90904.46|269=1|270=90919.46|10=144|
2026-01-09 08:32:46.956 INFO [APP][IN] qual=QUOTE 8=FIX.4.4|9=138|35=W|34=442|49=cServer|50=QUOTE|52=20260109-06:32:46.827|56=demo.pepperstone.5179095|55=10028|268=2|269=0|270=90903.31|269=1|270=90918.31|10=139|
2026-01-09 08:32:47.389 INFO [APP][IN] qual=QUOTE 8=FIX.4.4|9=138|35=W|34=443|49=cServer|50=QUOTE|52=20260109-06:32:47.260|56=demo.pepperstone.5179095|55=10028|268=2|269=0|270=90902.67|269=1|270=90917.67|10=148|
2026-01-09 08:32:47.840 INFO [APP][IN] qual=QUOTE 8=FIX.4.4|9=138|35=W|34=444|49=cServer|50=QUOTE|52=20260109-06:32:47.710|56=demo.pepperstone.5179095|55=10028|268=2|269=0|270=90902.83|269=1|270=90917.83|10=145|
2026-01-09 08:32:48.240 INFO [APP][IN] qual=QUOTE 8=FIX.4.4|9=138|35=W|34=445|49=cServer|50=QUOTE|52=20260109-06:32:48.111|56=demo.pepperstone.5179095|55=10028|268=2|269=0|270=90901.42|269=1|270=90916.42|10=130|
2026-01-09 08:32:48.644 INFO [APP][IN] qual=QUOTE 8=FIX.4.4|9=138|35=W|34=446|49=cServer|50=QUOTE|52=20260109-06:32:48.514|56=demo.pepperstone.5179095|55=10028|268=2|269=0|270=90901.37|269=1|270=90916.37|10=146|
2026-01-09 08:32:49.043 INFO [APP][IN] qual=QUOTE 8=FIX.4.4|9=138|35=W|34=447|49=cServer|50=QUOTE|52=20260109-06:32:48.914|56=demo.pepperstone.5179095|55=10028|268=2|269=0|270=90901.55|269=1|270=90916.55|10=151|
2026-01-09 08:32:49.460 INFO [APP][IN] qual=QUOTE 8=FIX.4.4|9=138|35=W|34=448|49=cServer|50=QUOTE|52=20260109-06:32:49.331|56=demo.pepperstone.5179095|55=10028|268=2|269=0|270=90900.82|269=1|270=90915.82|10=144|
2026-01-09 08:32:49.863 INFO [APP][IN] qual=QUOTE 8=FIX.4.4|9=138|35=W|34=449|49=cServer|50=QUOTE|52=20260109-06:32:49.734|56=demo.pepperstone.5179095|55=10028|268=2|269=0|270=90899.75|269=1|270=90914.75|10=172|
2026-01-09 08:32:50.292 INFO [APP][IN] qual=QUOTE 8=FIX.4.4|9=138|35=W|34=450|49=cServer|50=QUOTE|52=20260109-06:32:50.162|56=demo.pepperstone.5179095|55=10028|268=2|269=0|270=90899.72|269=1|270=90914.72|10=145|
2026-01-09 08:32:50.770 INFO [APP][IN] qual=QUOTE 8=FIX.4.4|9=138|35=W|34=451|49=cServer|50=QUOTE|52=20260109-06:32:50.641|56=demo.pepperstone.5179095|55=10028|268=2|269=0|270=90899.75|269=1|270=90914.75|10=154|
2026-01-09 08:32:51.189 INFO [APP][IN] qual=QUOTE 8=FIX.4.4|9=138|35=W|34=452|49=cServer|50=QUOTE|52=20260109-06:32:51.059|56=demo.pepperstone.5179095|55=10028|268=2|269=0|270=90900.53|269=1|270=90915.53|10=135|
2026-01-09 08:32:51.618 INFO [APP][IN] qual=QUOTE 8=FIX.4.4|9=136|35=W|34=453|49=cServer|50=QUOTE|52=20260109-06:32:51.488|56=demo.pepperstone.5179095|55=10028|268=2|269=0|270=90904.5|269=1|270=90919.5|10=046|
2026-01-09 08:32:52.028 INFO [APP][IN] qual=QUOTE 8=FIX.4.4|9=138|35=W|34=454|49=cServer|50=QUOTE|52=20260109-06:32:51.899|56=demo.pepperstone.5179095|55=10028|268=2|269=0|270=90904.58|269=1|270=90919.58|10=167|
2026-01-09 08:32:52.470 INFO [APP][IN] qual=QUOTE 8=FIX.4.4|9=138|35=W|34=455|49=cServer|50=QUOTE|52=20260109-06:32:52.341|56=demo.pepperstone.5179095|55=10028|268=2|269=0|270=90904.16|269=1|270=90919.16|10=139|
