nohup: ignoring input
2026-01-09 08:34:37.178 INFO Python: 3.12.3 (main, Nov  6 2025, 13:44:16) [GCC 13.3.0]
2026-01-09 08:34:37.178 INFO Executable: /home/renierdejager/Documents/.venv/bin/python3
2026-01-09 08:34:37.178 INFO CWD: /home/renierdejager/Documents/ctrader_trading_bot
2026-01-09 08:34:37.178 INFO PY_LOGDIR: /home/renierdejager/Documents/ctrader_trading_bot/ctrader_py_logs
2026-01-09 08:34:37.178 INFO Logfile: ctrader_py_logs/ctrader_20260109_063437.log
2026-01-09 08:34:37.178 INFO symbol_id=10028 qty=0.1 timeframe=M1
2026-01-09 08:34:37.178 INFO cfg_quote=config/ctrader_quote.cfg
2026-01-09 08:34:37.178 INFO cfg_trade=config/ctrader_trade.cfg
2026-01-09 08:34:37.178 INFO CTRADER_USERNAME=5179095
2026-01-09 08:34:37.203 INFO [CREATE] FIX.4.4:demo.pepperstone.5179095->cServer:QUOTE qual=QUOTE
2026-01-09 08:34:37.225 INFO [CREATE] FIX.4.4:demo.pepperstone.5179095->cServer:TRADE qual=TRADE
2026-01-09 08:34:37.230 INFO [ADMIN][LOGON OUT] qual=QUOTE 8=FIX.4.4|9=127|35=A|34=12|49=demo.pepperstone.5179095|52=20260109-06:34:37.230|56=cServer|57=QUOTE|98=0|108=30|141=Y|553=5179095|554=REDACTEDJ@3ger69|10=096|
2026-01-09 08:34:37.230 INFO [ADMIN][LOGON OUT] qual=TRADE 8=FIX.4.4|9=127|35=A|34=13|49=demo.pepperstone.5179095|52=20260109-06:34:37.229|56=cServer|57=TRADE|98=0|108=30|141=Y|553=5179095|554=REDACTEDJ@3ger69|10=075|
2026-01-09 08:34:37.795 INFO [ADMIN][IN] qual=QUOTE 8=FIX.4.4|9=101|35=A|34=1|49=cServer|50=QUOTE|52=20260109-06:34:37.665|56=demo.pepperstone.5179095|98=0|108=30|141=Y|10=150|
2026-01-09 08:34:37.795 INFO [ADMIN][IN] qual=TRADE 8=FIX.4.4|9=101|35=A|34=1|49=cServer|50=TRADE|52=20260109-06:34:37.665|56=demo.pepperstone.5179095|98=0|108=30|141=Y|10=120|
2026-01-09 08:34:37.795 INFO [LOGON] FIX.4.4:demo.pepperstone.5179095->cServer:QUOTE qual=QUOTE
2026-01-09 08:34:37.795 INFO [LOGON] FIX.4.4:demo.pepperstone.5179095->cServer:TRADE qual=TRADE
2026-01-09 08:34:37.795 INFO [APP][OUT] qual=TRADE 8=FIX.4.4|9=94|35=AN|34=2|49=demo.pepperstone.5179095|52=20260109-06:34:37.795|56=cServer|710=pos_0ae201b0a6|10=134|
2026-01-09 08:34:37.796 INFO [APP][OUT] qual=QUOTE 8=FIX.4.4|9=141|35=V|34=2|49=demo.pepperstone.5179095|52=20260109-06:34:37.795|56=cServer|146=1|55=10028|262=BTCUSD_SPOT|263=1|264=1|265=1|267=2|269=0|269=1|10=123|
2026-01-09 08:34:37.796 INFO [TRADE] Requested positions
2026-01-09 08:34:37.796 INFO [QUOTE] Subscribed spot for symbolId=10028
2026-01-09 08:34:38.056 INFO [APP][IN] qual=QUOTE 8=FIX.4.4|9=136|35=W|34=2|49=cServer|50=QUOTE|52=20260109-06:34:37.926|56=demo.pepperstone.5179095|55=10028|268=2|269=0|270=90994.45|269=1|270=91009.45|10=047|
2026-01-09 08:34:38.456 INFO [APP][IN] qual=QUOTE 8=FIX.4.4|9=136|35=W|34=3|49=cServer|50=QUOTE|52=20260109-06:34:38.326|56=demo.pepperstone.5179095|55=10028|268=2|269=0|270=90993.76|269=1|270=91008.76|10=049|
2026-01-09 08:34:38.866 INFO [APP][IN] qual=QUOTE 8=FIX.4.4|9=136|35=W|34=4|49=cServer|50=QUOTE|52=20260109-06:34:38.736|56=demo.pepperstone.5179095|55=10028|268=2|269=0|270=90988.81|269=1|270=91003.81|10=046|
2026-01-09 08:34:39.313 INFO [APP][IN] qual=QUOTE 8=FIX.4.4|9=136|35=W|34=5|49=cServer|50=QUOTE|52=20260109-06:34:39.184|56=demo.pepperstone.5179095|55=10028|268=2|269=0|270=90988.14|269=1|270=91003.14|10=037|
2026-01-09 08:34:39.765 INFO [APP][IN] qual=QUOTE 8=FIX.4.4|9=136|35=W|34=6|49=cServer|50=QUOTE|52=20260109-06:34:39.636|56=demo.pepperstone.5179095|55=10028|268=2|269=0|270=90990.79|269=1|270=91005.79|10=057|
2026-01-09 08:34:40.188 INFO [APP][IN] qual=QUOTE 8=FIX.4.4|9=136|35=W|34=7|49=cServer|50=QUOTE|52=20260109-06:34:40.059|56=demo.pepperstone.5179095|55=10028|268=2|269=0|270=90989.99|269=1|270=91004.99|10=060|
2026-01-09 08:34:40.601 INFO [APP][IN] qual=QUOTE 8=FIX.4.4|9=136|35=W|34=8|49=cServer|50=QUOTE|52=20260109-06:34:40.472|56=demo.pepperstone.5179095|55=10028|268=2|269=0|270=90990.05|269=1|270=91005.05|10=027|
2026-01-09 08:34:41.015 INFO [APP][IN] qual=QUOTE 8=FIX.4.4|9=136|35=W|34=9|49=cServer|50=QUOTE|52=20260109-06:34:40.886|56=demo.pepperstone.5179095|55=10028|268=2|269=0|270=90989.79|269=1|270=91004.79|10=066|
2026-01-09 08:34:41.416 INFO [APP][IN] qual=QUOTE 8=FIX.4.4|9=137|35=W|34=10|49=cServer|50=QUOTE|52=20260109-06:34:41.287|56=demo.pepperstone.5179095|55=10028|268=2|269=0|270=90989.62|269=1|270=91004.62|10=087|
2026-01-09 08:34:41.821 INFO [APP][IN] qual=QUOTE 8=FIX.4.4|9=135|35=W|34=11|49=cServer|50=QUOTE|52=20260109-06:34:41.692|56=demo.pepperstone.5179095|55=10028|268=2|269=0|270=90983.7|269=1|270=90998.7|10=003|
2026-01-09 08:34:42.268 INFO [APP][IN] qual=QUOTE 8=FIX.4.4|9=137|35=W|34=12|49=cServer|50=QUOTE|52=20260109-06:34:42.138|56=demo.pepperstone.5179095|55=10028|268=2|269=0|270=90983.76|269=1|270=90998.76|10=110|
2026-01-09 08:34:42.672 INFO [APP][IN] qual=QUOTE 8=FIX.4.4|9=137|35=W|34=13|49=cServer|50=QUOTE|52=20260109-06:34:42.542|56=demo.pepperstone.5179095|55=10028|268=2|269=0|270=90982.87|269=1|270=90997.87|10=112|
2026-01-09 08:34:43.084 INFO [APP][IN] qual=QUOTE 8=FIX.4.4|9=137|35=W|34=14|49=cServer|50=QUOTE|52=20260109-06:34:42.955|56=demo.pepperstone.5179095|55=10028|268=2|269=0|270=90983.31|269=1|270=90998.31|10=101|
2026-01-09 08:34:43.521 INFO [APP][IN] qual=QUOTE 8=FIX.4.4|9=135|35=W|34=15|49=cServer|50=QUOTE|52=20260109-06:34:43.391|56=demo.pepperstone.5179095|55=10028|268=2|269=0|270=90983.6|269=1|270=90998.6|10=003|
2026-01-09 08:34:43.922 INFO [APP][IN] qual=QUOTE 8=FIX.4.4|9=137|35=W|34=16|49=cServer|50=QUOTE|52=20260109-06:34:43.792|56=demo.pepperstone.5179095|55=10028|268=2|269=0|270=90983.68|269=1|270=90998.68|10=123|
2026-01-09 08:34:44.323 INFO [APP][IN] qual=QUOTE 8=FIX.4.4|9=135|35=W|34=17|49=cServer|50=QUOTE|52=20260109-06:34:44.193|56=demo.pepperstone.5179095|55=10028|268=2|269=0|270=90983.3|269=1|270=90998.3|10=000|
2026-01-09 08:34:44.729 INFO [APP][IN] qual=QUOTE 8=FIX.4.4|9=137|35=W|34=18|49=cServer|50=QUOTE|52=20260109-06:34:44.599|56=demo.pepperstone.5179095|55=10028|268=2|269=0|270=90982.56|269=1|270=90997.56|10=123|
2026-01-09 08:34:45.169 INFO [APP][IN] qual=QUOTE 8=FIX.4.4|9=137|35=W|34=19|49=cServer|50=QUOTE|52=20260109-06:34:45.040|56=demo.pepperstone.5179095|55=10028|268=2|269=0|270=90973.08|269=1|270=90988.08|10=100|
2026-01-09 08:34:45.581 INFO [APP][IN] qual=QUOTE 8=FIX.4.4|9=137|35=W|34=20|49=cServer|50=QUOTE|52=20260109-06:34:45.452|56=demo.pepperstone.5179095|55=10028|268=2|269=0|270=90973.94|269=1|270=90988.94|10=109|
2026-01-09 08:34:46.008 INFO [APP][IN] qual=QUOTE 8=FIX.4.4|9=137|35=W|34=21|49=cServer|50=QUOTE|52=20260109-06:34:45.878|56=demo.pepperstone.5179095|55=10028|268=2|269=0|270=90980.17|269=1|270=90995.17|10=108|
2026-01-09 08:34:46.417 INFO [APP][IN] qual=QUOTE 8=FIX.4.4|9=137|35=W|34=22|49=cServer|50=QUOTE|52=20260109-06:34:46.288|56=demo.pepperstone.5179095|55=10028|268=2|269=0|270=90980.57|269=1|270=90995.57|10=113|
2026-01-09 08:34:46.831 INFO [APP][IN] qual=QUOTE 8=FIX.4.4|9=137|35=W|34=23|49=cServer|50=QUOTE|52=20260109-06:34:46.702|56=demo.pepperstone.5179095|55=10028|268=2|269=0|270=90980.42|269=1|270=90995.42|10=093|
2026-01-09 08:34:47.236 INFO [APP][IN] qual=QUOTE 8=FIX.4.4|9=137|35=W|34=24|49=cServer|50=QUOTE|52=20260109-06:34:47.107|56=demo.pepperstone.5179095|55=10028|268=2|269=0|270=90980.48|269=1|270=90995.48|10=106|
2026-01-09 08:34:47.648 INFO [APP][IN] qual=QUOTE 8=FIX.4.4|9=137|35=W|34=25|49=cServer|50=QUOTE|52=20260109-06:34:47.518|56=demo.pepperstone.5179095|55=10028|268=2|269=0|270=90981.47|269=1|270=90996.47|10=113|
2026-01-09 08:34:48.051 INFO [APP][IN] qual=QUOTE 8=FIX.4.4|9=137|35=W|34=26|49=cServer|50=QUOTE|52=20260109-06:34:47.921|56=demo.pepperstone.5179095|55=10028|268=2|269=0|270=90978.99|269=1|270=90993.99|10=129|
2026-01-09 08:34:48.487 INFO [APP][IN] qual=QUOTE 8=FIX.4.4|9=137|35=W|34=27|49=cServer|50=QUOTE|52=20260109-06:34:48.358|56=demo.pepperstone.5179095|55=10028|268=2|269=0|270=90979.34|269=1|270=90994.34|10=115|
2026-01-09 08:34:48.895 INFO [APP][IN] qual=QUOTE 8=FIX.4.4|9=137|35=W|34=28|49=cServer|50=QUOTE|52=20260109-06:34:48.766|56=demo.pepperstone.5179095|55=10028|268=2|269=0|270=90980.89|269=1|270=90995.89|10=132|
2026-01-09 08:34:49.307 INFO [APP][IN] qual=QUOTE 8=FIX.4.4|9=137|35=W|34=29|49=cServer|50=QUOTE|52=20260109-06:34:49.177|56=demo.pepperstone.5179095|55=10028|268=2|269=0|270=90980.04|269=1|270=90995.04|10=104|
2026-01-09 08:34:49.712 INFO [APP][IN] qual=QUOTE 8=FIX.4.4|9=137|35=W|34=30|49=cServer|50=QUOTE|52=20260109-06:34:49.583|56=demo.pepperstone.5179095|55=10028|268=2|269=0|270=90980.48|269=1|270=90995.48|10=113|
2026-01-09 08:34:50.112 INFO [APP][IN] qual=QUOTE 8=FIX.4.4|9=137|35=W|34=31|49=cServer|50=QUOTE|52=20260109-06:34:49.983|56=demo.pepperstone.5179095|55=10028|268=2|269=0|270=90979.79|269=1|270=90994.79|10=133|
2026-01-09 08:34:50.524 INFO [APP][IN] qual=QUOTE 8=FIX.4.4|9=137|35=W|34=32|49=cServer|50=QUOTE|52=20260109-06:34:50.394|56=demo.pepperstone.5179095|55=10028|268=2|269=0|270=90979.13|269=1|270=90994.13|10=098|
2026-01-09 08:34:50.966 INFO [APP][IN] qual=QUOTE 8=FIX.4.4|9=137|35=W|34=33|49=cServer|50=QUOTE|52=20260109-06:34:50.836|56=demo.pepperstone.5179095|55=10028|268=2|269=0|270=90979.62|269=1|270=90994.62|10=108|
2026-01-09 08:34:51.370 INFO [APP][IN] qual=QUOTE 8=FIX.4.4|9=137|35=W|34=34|49=cServer|50=QUOTE|52=20260109-06:34:51.241|56=demo.pepperstone.5179095|55=10028|268=2|269=0|270=90974.37|269=1|270=90989.37|10=103|
2026-01-09 08:34:51.779 INFO [APP][IN] qual=QUOTE 8=FIX.4.4|9=137|35=W|34=35|49=cServer|50=QUOTE|52=20260109-06:34:51.648|56=demo.pepperstone.5179095|55=10028|268=2|269=0|270=90976.05|269=1|270=90991.05|10=100|
2026-01-09 08:34:52.220 INFO [APP][IN] qual=QUOTE 8=FIX.4.4|9=137|35=W|34=36|49=cServer|50=QUOTE|52=20260109-06:34:52.090|56=demo.pepperstone.5179095|55=10028|268=2|269=0|270=90975.92|269=1|270=90990.92|10=103|
2026-01-09 08:34:52.623 INFO [APP][IN] qual=QUOTE 8=FIX.4.4|9=137|35=W|34=37|49=cServer|50=QUOTE|52=20260109-06:34:52.493|56=demo.pepperstone.5179095|55=10028|268=2|269=0|270=90975.52|269=1|270=90990.52|10=103|
2026-01-09 08:34:53.075 INFO [APP][IN] qual=QUOTE 8=FIX.4.4|9=137|35=W|34=38|49=cServer|50=QUOTE|52=20260109-06:34:52.943|56=demo.pepperstone.5179095|55=10028|268=2|269=0|270=90975.81|269=1|270=90990.81|10=108|
2026-01-09 08:34:53.525 INFO [APP][IN] qual=QUOTE 8=FIX.4.4|9=137|35=W|34=39|49=cServer|50=QUOTE|52=20260109-06:34:53.394|56=demo.pepperstone.5179095|55=10028|268=2|269=0|270=90975.09|269=1|270=90990.09|10=110|
2026-01-09 08:34:53.925 INFO [APP][IN] qual=QUOTE 8=FIX.4.4|9=137|35=W|34=40|49=cServer|50=QUOTE|52=20260109-06:34:53.795|56=demo.pepperstone.5179095|55=10028|268=2|269=0|270=90975.38|269=1|270=90990.38|10=111|
2026-01-09 08:34:54.327 INFO [APP][IN] qual=QUOTE 8=FIX.4.4|9=137|35=W|34=41|49=cServer|50=QUOTE|52=20260109-06:34:54.197|56=demo.pepperstone.5179095|55=10028|268=2|269=0|270=90975.59|269=1|270=90990.59|10=115|
2026-01-09 08:34:54.777 INFO [APP][IN] qual=QUOTE 8=FIX.4.4|9=137|35=W|34=42|49=cServer|50=QUOTE|52=20260109-06:34:54.648|56=demo.pepperstone.5179095|55=10028|268=2|269=0|270=90975.69|269=1|270=90990.69|10=119|
2026-01-09 08:34:55.178 INFO [APP][IN] qual=QUOTE 8=FIX.4.4|9=137|35=W|34=43|49=cServer|50=QUOTE|52=20260109-06:34:55.048|56=demo.pepperstone.5179095|55=10028|268=2|269=0|270=90974.66|269=1|270=90989.66|10=116|
2026-01-09 08:34:55.579 INFO [APP][IN] qual=QUOTE 8=FIX.4.4|9=137|35=W|34=44|49=cServer|50=QUOTE|52=20260109-06:34:55.449|56=demo.pepperstone.5179095|55=10028|268=2|269=0|270=90975.03|269=1|270=90990.03|10=097|
2026-01-09 08:34:55.980 INFO [APP][IN] qual=QUOTE 8=FIX.4.4|9=137|35=W|34=45|49=cServer|50=QUOTE|52=20260109-06:34:55.850|56=demo.pepperstone.5179095|55=10028|268=2|269=0|270=90974.72|269=1|270=90989.72|10=113|
2026-01-09 08:34:56.384 INFO [APP][IN] qual=QUOTE 8=FIX.4.4|9=137|35=W|34=46|49=cServer|50=QUOTE|52=20260109-06:34:56.254|56=demo.pepperstone.5179095|55=10028|268=2|269=0|270=90974.58|269=1|270=90989.58|10=121|
2026-01-09 08:34:56.784 INFO [APP][IN] qual=QUOTE 8=FIX.4.4|9=137|35=W|34=47|49=cServer|50=QUOTE|52=20260109-06:34:56.654|56=demo.pepperstone.5179095|55=10028|268=2|269=0|270=90975.33|269=1|270=90990.33|10=105|
2026-01-09 08:34:57.234 INFO [APP][IN] qual=QUOTE 8=FIX.4.4|9=137|35=W|34=48|49=cServer|50=QUOTE|52=20260109-06:34:57.104|56=demo.pepperstone.5179095|55=10028|268=2|269=0|270=90974.18|269=1|270=90989.18|10=110|
2026-01-09 08:34:57.639 INFO [APP][IN] qual=QUOTE 8=FIX.4.4|9=137|35=W|34=49|49=cServer|50=QUOTE|52=20260109-06:34:57.510|56=demo.pepperstone.5179095|55=10028|268=2|269=0|270=90974.15|269=1|270=90989.15|10=106|
2026-01-09 08:34:58.042 INFO [APP][IN] qual=QUOTE 8=FIX.4.4|9=137|35=W|34=50|49=cServer|50=QUOTE|52=20260109-06:34:57.912|56=demo.pepperstone.5179095|55=10028|268=2|269=0|270=90974.13|269=1|270=90989.13|10=100|
2026-01-09 08:34:58.451 INFO [APP][IN] qual=QUOTE 8=FIX.4.4|9=137|35=W|34=51|49=cServer|50=QUOTE|52=20260109-06:34:58.321|56=demo.pepperstone.5179095|55=10028|268=2|269=0|270=90974.15|269=1|270=90989.15|10=100|
2026-01-09 08:34:58.853 INFO [APP][IN] qual=QUOTE 8=FIX.4.4|9=137|35=W|34=52|49=cServer|50=QUOTE|52=20260109-06:34:58.723|56=demo.pepperstone.5179095|55=10028|268=2|269=0|270=90974.16|269=1|270=90989.16|10=109|
2026-01-09 08:34:59.261 INFO [APP][IN] qual=QUOTE 8=FIX.4.4|9=137|35=W|34=53|49=cServer|50=QUOTE|52=20260109-06:34:59.131|56=demo.pepperstone.5179095|55=10028|268=2|269=0|270=90974.05|269=1|270=90989.05|10=100|
2026-01-09 08:34:59.661 INFO [APP][IN] qual=QUOTE 8=FIX.4.4|9=137|35=W|34=54|49=cServer|50=QUOTE|52=20260109-06:34:59.531|56=demo.pepperstone.5179095|55=10028|268=2|269=0|270=90974.33|269=1|270=90989.33|10=107|
2026-01-09 08:35:00.064 INFO [APP][IN] qual=QUOTE 8=FIX.4.4|9=137|35=W|34=55|49=cServer|50=QUOTE|52=20260109-06:34:59.935|56=demo.pepperstone.5179095|55=10028|268=2|269=0|270=90973.62|269=1|270=90988.62|10=118|
2026-01-09 08:35:00.065 INFO [BAR M1] 2026-01-09T06:34:00+00:00 O=91001.95 H=91001.95 L=90980.58 C=90981.83 | desired=0 cur=0
2026-01-09 08:35:00.466 INFO [APP][IN] qual=QUOTE 8=FIX.4.4|9=137|35=W|34=56|49=cServer|50=QUOTE|52=20260109-06:35:00.336|56=demo.pepperstone.5179095|55=10028|268=2|269=0|270=90969.71|269=1|270=90984.71|10=102|
2026-01-09 08:35:00.867 INFO [APP][IN] qual=QUOTE 8=FIX.4.4|9=137|35=W|34=57|49=cServer|50=QUOTE|52=20260109-06:35:00.738|56=demo.pepperstone.5179095|55=10028|268=2|269=0|270=90963.44|269=1|270=90978.44|10=106|
2026-01-09 08:35:01.301 INFO [APP][IN] qual=QUOTE 8=FIX.4.4|9=137|35=W|34=58|49=cServer|50=QUOTE|52=20260109-06:35:01.172|56=demo.pepperstone.5179095|55=10028|268=2|269=0|270=90968.23|269=1|270=90983.23|10=095|
2026-01-09 08:35:01.712 INFO [APP][IN] qual=QUOTE 8=FIX.4.4|9=137|35=W|34=59|49=cServer|50=QUOTE|52=20260109-06:35:01.582|56=demo.pepperstone.5179095|55=10028|268=2|269=0|270=90972.39|269=1|270=90987.39|10=114|
2026-01-09 08:35:02.121 INFO [APP][IN] qual=QUOTE 8=FIX.4.4|9=137|35=W|34=60|49=cServer|50=QUOTE|52=20260109-06:35:01.991|56=demo.pepperstone.5179095|55=10028|268=2|269=0|270=90973.52|269=1|270=90988.52|10=102|
2026-01-09 08:35:02.522 INFO [APP][IN] qual=QUOTE 8=FIX.4.4|9=137|35=W|34=61|49=cServer|50=QUOTE|52=20260109-06:35:02.392|56=demo.pepperstone.5179095|55=10028|268=2|269=0|270=90975.49|269=1|270=90990.49|10=106|
2026-01-09 08:35:02.931 INFO [APP][IN] qual=QUOTE 8=FIX.4.4|9=137|35=W|34=62|49=cServer|50=QUOTE|52=20260109-06:35:02.802|56=demo.pepperstone.5179095|55=10028|268=2|269=0|270=90974.86|269=1|270=90989.86|10=112|
2026-01-09 08:35:03.375 INFO [APP][IN] qual=QUOTE 8=FIX.4.4|9=137|35=W|34=63|49=cServer|50=QUOTE|52=20260109-06:35:03.246|56=demo.pepperstone.5179095|55=10028|268=2|269=0|270=90974.92|269=1|270=90989.92|10=110|
2026-01-09 08:35:03.777 INFO [APP][IN] qual=QUOTE 8=FIX.4.4|9=137|35=W|34=64|49=cServer|50=QUOTE|52=20260109-06:35:03.647|56=demo.pepperstone.5179095|55=10028|268=2|269=0|270=90975.16|269=1|270=90990.16|10=101|
2026-01-09 08:35:04.229 INFO [APP][IN] qual=QUOTE 8=FIX.4.4|9=135|35=W|34=65|49=cServer|50=QUOTE|52=20260109-06:35:04.099|56=demo.pepperstone.5179095|55=10028|268=2|269=0|270=90982.4|269=1|270=90997.4|10=005|
2026-01-09 08:35:04.678 INFO [APP][IN] qual=QUOTE 8=FIX.4.4|9=137|35=W|34=66|49=cServer|50=QUOTE|52=20260109-06:35:04.548|56=demo.pepperstone.5179095|55=10028|268=2|269=0|270=90982.08|269=1|270=90997.08|10=111|
2026-01-09 08:35:05.078 INFO [APP][IN] qual=QUOTE 8=FIX.4.4|9=137|35=W|34=67|49=cServer|50=QUOTE|52=20260109-06:35:04.949|56=demo.pepperstone.5179095|55=10028|268=2|269=0|270=90976.84|269=1|270=90991.84|10=122|
2026-01-09 08:35:05.481 INFO [APP][IN] qual=QUOTE 8=FIX.4.4|9=135|35=W|34=68|49=cServer|50=QUOTE|52=20260109-06:35:05.351|56=demo.pepperstone.5179095|55=10028|268=2|269=0|270=90976.8|269=1|270=90991.8|10=005|
2026-01-09 08:35:05.883 INFO [APP][IN] qual=QUOTE 8=FIX.4.4|9=137|35=W|34=69|49=cServer|50=QUOTE|52=20260109-06:35:05.754|56=demo.pepperstone.5179095|55=10028|268=2|269=0|270=90976.87|269=1|270=90991.87|10=125|
2026-01-09 08:35:06.335 INFO [APP][IN] qual=QUOTE 8=FIX.4.4|9=137|35=W|34=70|49=cServer|50=QUOTE|52=20260109-06:35:06.206|56=demo.pepperstone.5179095|55=10028|268=2|269=0|270=90977.15|269=1|270=90992.15|10=094|
2026-01-09 08:35:06.783 INFO [APP][IN] qual=QUOTE 8=FIX.4.4|9=137|35=W|34=71|49=cServer|50=QUOTE|52=20260109-06:35:06.654|56=demo.pepperstone.5179095|55=10028|268=2|269=0|270=90977.19|269=1|270=90992.19|10=110|
2026-01-09 08:35:07.187 INFO [APP][IN] qual=QUOTE 8=FIX.4.4|9=137|35=W|34=72|49=cServer|50=QUOTE|52=20260109-06:35:07.057|56=demo.pepperstone.5179095|55=10028|268=2|269=0|270=90977.23|269=1|270=90992.23|10=099|
2026-01-09 08:35:07.636 INFO [APP][IN] qual=QUOTE 8=FIX.4.4|9=137|35=W|34=73|49=cServer|50=QUOTE|52=20260109-06:35:07.506|56=demo.pepperstone.5179095|55=10028|268=2|269=0|270=90976.94|269=1|270=90991.94|10=113|
2026-01-09 08:35:08.039 INFO [APP][IN] qual=QUOTE 8=FIX.4.4|9=137|35=W|34=74|49=cServer|50=QUOTE|52=20260109-06:35:07.909|56=demo.pepperstone.5179095|55=10028|268=2|269=0|270=90979.07|269=1|270=90994.07|10=115|
2026-01-09 08:35:08.326 INFO [ADMIN][IN] qual=TRADE 8=FIX.4.4|9=83|35=0|34=3|49=cServer|50=TRADE|52=20260109-06:35:08.197|56=demo.pepperstone.5179095|10=251|
2026-01-09 08:35:08.441 INFO [APP][IN] qual=QUOTE 8=FIX.4.4|9=135|35=W|34=75|49=cServer|50=QUOTE|52=20260109-06:35:08.311|56=demo.pepperstone.5179095|55=10028|268=2|269=0|270=90978.8|269=1|270=90993.8|10=006|
2026-01-09 08:35:08.896 INFO [APP][IN] qual=QUOTE 8=FIX.4.4|9=137|35=W|34=76|49=cServer|50=QUOTE|52=20260109-06:35:08.767|56=demo.pepperstone.5179095|55=10028|268=2|269=0|270=90978.96|269=1|270=90993.96|10=134|
2026-01-09 08:35:09.910 INFO [APP][IN] qual=QUOTE 8=FIX.4.4|9=137|35=W|34=77|49=cServer|50=QUOTE|52=20260109-06:35:09.780|56=demo.pepperstone.5179095|55=10028|268=2|269=0|270=90978.94|269=1|270=90993.94|10=127|
2026-01-09 08:35:10.370 INFO [APP][IN] qual=QUOTE 8=FIX.4.4|9=137|35=W|34=78|49=cServer|50=QUOTE|52=20260109-06:35:10.240|56=demo.pepperstone.5179095|55=10028|268=2|269=0|270=90978.85|269=1|270=90993.85|10=111|
2026-01-09 08:35:10.813 INFO [APP][IN] qual=QUOTE 8=FIX.4.4|9=137|35=W|34=79|49=cServer|50=QUOTE|52=20260109-06:35:10.684|56=demo.pepperstone.5179095|55=10028|268=2|269=0|270=90978.68|269=1|270=90993.68|10=126|
2026-01-09 08:35:11.215 INFO [APP][IN] qual=QUOTE 8=FIX.4.4|9=137|35=W|34=80|49=cServer|50=QUOTE|52=20260109-06:35:11.085|56=demo.pepperstone.5179095|55=10028|268=2|269=0|270=90978.65|269=1|270=90993.65|10=108|
2026-01-09 08:35:11.671 INFO [APP][IN] qual=QUOTE 8=FIX.4.4|9=137|35=W|34=81|49=cServer|50=QUOTE|52=20260109-06:35:11.541|56=demo.pepperstone.5179095|55=10028|268=2|269=0|270=90978.55|269=1|270=90993.55|10=104|
2026-01-09 08:35:12.074 INFO [APP][IN] qual=QUOTE 8=FIX.4.4|9=137|35=W|34=82|49=cServer|50=QUOTE|52=20260109-06:35:11.944|56=demo.pepperstone.5179095|55=10028|268=2|269=0|270=90978.59|269=1|270=90993.59|10=120|
2026-01-09 08:35:12.510 INFO [APP][IN] qual=QUOTE 8=FIX.4.4|9=137|35=W|34=83|49=cServer|50=QUOTE|52=20260109-06:35:12.380|56=demo.pepperstone.5179095|55=10028|268=2|269=0|270=90978.15|269=1|270=90993.15|10=100|
2026-01-09 08:35:12.926 INFO [APP][IN] qual=QUOTE 8=FIX.4.4|9=137|35=W|34=84|49=cServer|50=QUOTE|52=20260109-06:35:12.796|56=demo.pepperstone.5179095|55=10028|268=2|269=0|270=90977.38|269=1|270=90992.38|10=120|
2026-01-09 08:35:13.339 INFO [APP][IN] qual=QUOTE 8=FIX.4.4|9=137|35=W|34=85|49=cServer|50=QUOTE|52=20260109-06:35:13.210|56=demo.pepperstone.5179095|55=10028|268=2|269=0|270=90977.73|269=1|270=90992.73|10=101|
2026-01-09 08:35:13.769 INFO [APP][IN] qual=QUOTE 8=FIX.4.4|9=137|35=W|34=86|49=cServer|50=QUOTE|52=20260109-06:35:13.640|56=demo.pepperstone.5179095|55=10028|268=2|269=0|270=90977.77|269=1|270=90992.77|10=117|
2026-01-09 08:35:14.185 INFO [APP][IN] qual=QUOTE 8=FIX.4.4|9=137|35=W|34=87|49=cServer|50=QUOTE|52=20260109-06:35:14.055|56=demo.pepperstone.5179095|55=10028|268=2|269=0|270=90977.44|269=1|270=90992.44|10=107|
2026-01-09 08:35:14.630 INFO [APP][IN] qual=QUOTE 8=FIX.4.4|9=137|35=W|34=88|49=cServer|50=QUOTE|52=20260109-06:35:14.501|56=demo.pepperstone.5179095|55=10028|268=2|269=0|270=90977.61|269=1|270=90992.61|10=102|
2026-01-09 08:35:15.033 INFO [APP][IN] qual=QUOTE 8=FIX.4.4|9=137|35=W|34=89|49=cServer|50=QUOTE|52=20260109-06:35:14.903|56=demo.pepperstone.5179095|55=10028|268=2|269=0|270=90977.38|269=1|270=90992.38|10=117|
2026-01-09 08:35:15.433 INFO [APP][IN] qual=QUOTE 8=FIX.4.4|9=137|35=W|34=90|49=cServer|50=QUOTE|52=20260109-06:35:15.304|56=demo.pepperstone.5179095|55=10028|268=2|269=0|270=90977.47|269=1|270=90992.47|10=105|
2026-01-09 08:35:15.835 INFO [APP][IN] qual=QUOTE 8=FIX.4.4|9=137|35=W|34=91|49=cServer|50=QUOTE|52=20260109-06:35:15.706|56=demo.pepperstone.5179095|55=10028|268=2|269=0|270=90976.87|269=1|270=90991.87|10=118|
2026-01-09 08:35:16.286 INFO [APP][IN] qual=QUOTE 8=FIX.4.4|9=137|35=W|34=92|49=cServer|50=QUOTE|52=20260109-06:35:16.157|56=demo.pepperstone.5179095|55=10028|268=2|269=0|270=90977.22|269=1|270=90992.22|10=100|
2026-01-09 08:35:16.739 INFO [APP][IN] qual=QUOTE 8=FIX.4.4|9=137|35=W|34=93|49=cServer|50=QUOTE|52=20260109-06:35:16.609|56=demo.pepperstone.5179095|55=10028|268=2|269=0|270=90974.29|269=1|270=90989.29|10=120|
2026-01-09 08:35:17.139 INFO [APP][IN] qual=QUOTE 8=FIX.4.4|9=135|35=W|34=94|49=cServer|50=QUOTE|52=20260109-06:35:17.010|56=demo.pepperstone.5179095|55=10028|268=2|269=0|270=90974.3|269=1|270=90989.3|10=250|
2026-01-09 08:35:17.588 INFO [APP][IN] qual=QUOTE 8=FIX.4.4|9=137|35=W|34=95|49=cServer|50=QUOTE|52=20260109-06:35:17.459|56=demo.pepperstone.5179095|55=10028|268=2|269=0|270=90974.16|269=1|270=90989.16|10=118|
2026-01-09 08:35:17.991 INFO [APP][IN] qual=QUOTE 8=FIX.4.4|9=137|35=W|34=96|49=cServer|50=QUOTE|52=20260109-06:35:17.862|56=demo.pepperstone.5179095|55=10028|268=2|269=0|270=90968.37|269=1|270=90983.37|10=120|
2026-01-09 08:35:18.392 INFO [APP][IN] qual=QUOTE 8=FIX.4.4|9=137|35=W|34=97|49=cServer|50=QUOTE|52=20260109-06:35:18.263|56=demo.pepperstone.5179095|55=10028|268=2|269=0|270=90968.68|269=1|270=90983.68|10=125|
2026-01-09 08:35:18.843 INFO [APP][IN] qual=QUOTE 8=FIX.4.4|9=137|35=W|34=98|49=cServer|50=QUOTE|52=20260109-06:35:18.713|56=demo.pepperstone.5179095|55=10028|268=2|269=0|270=90968.52|269=1|270=90983.52|10=112|
2026-01-09 08:35:19.262 INFO [APP][IN] qual=QUOTE 8=FIX.4.4|9=137|35=W|34=99|49=cServer|50=QUOTE|52=20260109-06:35:19.132|56=demo.pepperstone.5179095|55=10028|268=2|269=0|270=90964.47|269=1|270=90979.47|10=118|
2026-01-09 08:35:19.672 INFO [APP][IN] qual=QUOTE 8=FIX.4.4|9=138|35=W|34=100|49=cServer|50=QUOTE|52=20260109-06:35:19.542|56=demo.pepperstone.5179095|55=10028|268=2|269=0|270=90974.04|269=1|270=90989.04|10=143|
2026-01-09 08:35:20.074 INFO [APP][IN] qual=QUOTE 8=FIX.4.4|9=138|35=W|34=101|49=cServer|50=QUOTE|52=20260109-06:35:19.944|56=demo.pepperstone.5179095|55=10028|268=2|269=0|270=90975.81|269=1|270=90990.81|10=153|
2026-01-09 08:35:20.518 INFO [APP][IN] qual=QUOTE 8=FIX.4.4|9=138|35=W|34=102|49=cServer|50=QUOTE|52=20260109-06:35:20.388|56=demo.pepperstone.5179095|55=10028|268=2|269=0|270=90975.76|269=1|270=90990.76|10=156|
2026-01-09 08:35:20.920 INFO [APP][IN] qual=QUOTE 8=FIX.4.4|9=138|35=W|34=103|49=cServer|50=QUOTE|52=20260109-06:35:20.791|56=demo.pepperstone.5179095|55=10028|268=2|269=0|270=90979.26|269=1|270=90994.26|10=153|
2026-01-09 08:35:21.371 INFO [APP][IN] qual=QUOTE 8=FIX.4.4|9=138|35=W|34=104|49=cServer|50=QUOTE|52=20260109-06:35:21.241|56=demo.pepperstone.5179095|55=10028|268=2|269=0|270=90978.67|269=1|270=90993.67|10=153|
2026-01-09 08:35:21.821 INFO [APP][IN] qual=QUOTE 8=FIX.4.4|9=138|35=W|34=105|49=cServer|50=QUOTE|52=20260109-06:35:21.691|56=demo.pepperstone.5179095|55=10028|268=2|269=0|270=90978.77|269=1|270=90993.77|10=165|
2026-01-09 08:35:22.225 INFO [APP][IN] qual=QUOTE 8=FIX.4.4|9=138|35=W|34=106|49=cServer|50=QUOTE|52=20260109-06:35:22.096|56=demo.pepperstone.5179095|55=10028|268=2|269=0|270=90978.42|269=1|270=90993.42|10=150|
2026-01-09 08:35:22.627 INFO [APP][IN] qual=QUOTE 8=FIX.4.4|9=138|35=W|34=107|49=cServer|50=QUOTE|52=20260109-06:35:22.497|56=demo.pepperstone.5179095|55=10028|268=2|269=0|270=90978.16|269=1|270=90993.16|10=158|
2026-01-09 08:35:23.041 INFO [APP][IN] qual=QUOTE 8=FIX.4.4|9=138|35=W|34=108|49=cServer|50=QUOTE|52=20260109-06:35:22.911|56=demo.pepperstone.5179095|55=10028|268=2|269=0|270=90978.12|269=1|270=90993.12|10=142|
2026-01-09 08:35:23.472 INFO [APP][IN] qual=QUOTE 8=FIX.4.4|9=138|35=W|34=109|49=cServer|50=QUOTE|52=20260109-06:35:23.342|56=demo.pepperstone.5179095|55=10028|268=2|269=0|270=90978.55|269=1|270=90993.55|10=156|
2026-01-09 08:35:23.882 INFO [APP][IN] qual=QUOTE 8=FIX.4.4|9=138|35=W|34=110|49=cServer|50=QUOTE|52=20260109-06:35:23.748|56=demo.pepperstone.5179095|55=10028|268=2|269=0|270=90978.59|269=1|270=90993.59|10=166|
2026-01-09 08:35:24.375 INFO [APP][IN] qual=QUOTE 8=FIX.4.4|9=138|35=W|34=111|49=cServer|50=QUOTE|52=20260109-06:35:24.246|56=demo.pepperstone.5179095|55=10028|268=2|269=0|270=90979.06|269=1|270=90994.06|10=147|
2026-01-09 08:35:24.783 INFO [APP][IN] qual=QUOTE 8=FIX.4.4|9=138|35=W|34=112|49=cServer|50=QUOTE|52=20260109-06:35:24.653|56=demo.pepperstone.5179095|55=10028|268=2|269=0|270=90978.21|269=1|270=90993.21|10=142|
2026-01-09 08:35:25.232 INFO [APP][IN] qual=QUOTE 8=FIX.4.4|9=138|35=W|34=113|49=cServer|50=QUOTE|52=20260109-06:35:25.101|56=demo.pepperstone.5179095|55=10028|268=2|269=0|270=90978.53|269=1|270=90993.53|10=142|
2026-01-09 08:35:25.633 INFO [APP][IN] qual=QUOTE 8=FIX.4.4|9=138|35=W|34=114|49=cServer|50=QUOTE|52=20260109-06:35:25.504|56=demo.pepperstone.5179095|55=10028|268=2|269=0|270=90978.44|269=1|270=90993.44|10=150|
2026-01-09 08:35:26.080 INFO [APP][IN] qual=QUOTE 8=FIX.4.4|9=138|35=W|34=115|49=cServer|50=QUOTE|52=20260109-06:35:25.950|56=demo.pepperstone.5179095|55=10028|268=2|269=0|270=90977.84|269=1|270=90992.84|10=162|
2026-01-09 08:35:26.486 INFO [APP][IN] qual=QUOTE 8=FIX.4.4|9=138|35=W|34=116|49=cServer|50=QUOTE|52=20260109-06:35:26.356|56=demo.pepperstone.5179095|55=10028|268=2|269=0|270=90978.41|269=1|270=90993.41|10=152|
2026-01-09 08:35:26.936 INFO [APP][IN] qual=QUOTE 8=FIX.4.4|9=138|35=W|34=117|49=cServer|50=QUOTE|52=20260109-06:35:26.806|56=demo.pepperstone.5179095|55=10028|268=2|269=0|270=90978.47|269=1|270=90993.47|10=165|
2026-01-09 08:35:27.336 INFO [APP][IN] qual=QUOTE 8=FIX.4.4|9=138|35=W|34=118|49=cServer|50=QUOTE|52=20260109-06:35:27.207|56=demo.pepperstone.5179095|55=10028|268=2|269=0|270=90978.38|269=1|270=90993.38|10=162|
2026-01-09 08:35:27.737 INFO [APP][IN] qual=QUOTE 8=FIX.4.4|9=138|35=W|34=119|49=cServer|50=QUOTE|52=20260109-06:35:27.608|56=demo.pepperstone.5179095|55=10028|268=2|269=0|270=90978.15|269=1|270=90993.15|10=158|
2026-01-09 08:35:28.190 INFO [APP][IN] qual=QUOTE 8=FIX.4.4|9=138|35=W|34=120|49=cServer|50=QUOTE|52=20260109-06:35:28.061|56=demo.pepperstone.5179095|55=10028|268=2|269=0|270=90978.13|269=1|270=90993.13|10=140|
2026-01-09 08:35:28.641 INFO [APP][IN] qual=QUOTE 8=FIX.4.4|9=138|35=W|34=121|49=cServer|50=QUOTE|52=20260109-06:35:28.512|56=demo.pepperstone.5179095|55=10028|268=2|269=0|270=90978.98|269=1|270=90993.98|10=168|
2026-01-09 08:35:29.112 INFO [APP][IN] qual=QUOTE 8=FIX.4.4|9=138|35=W|34=122|49=cServer|50=QUOTE|52=20260109-06:35:28.983|56=demo.pepperstone.5179095|55=10028|268=2|269=0|270=90978.85|269=1|270=90993.85|10=173|
2026-01-09 08:35:29.514 INFO [APP][IN] qual=QUOTE 8=FIX.4.4|9=138|35=W|34=123|49=cServer|50=QUOTE|52=20260109-06:35:29.384|56=demo.pepperstone.5179095|55=10028|268=2|269=0|270=90980.53|269=1|270=90995.53|10=155|
2026-01-09 08:35:29.969 INFO [APP][IN] qual=QUOTE 8=FIX.4.4|9=138|35=W|34=124|49=cServer|50=QUOTE|52=20260109-06:35:29.840|56=demo.pepperstone.5179095|55=10028|268=2|269=0|270=90979.99|269=1|270=90994.99|10=180|
2026-01-09 08:35:30.376 INFO [APP][IN] qual=QUOTE 8=FIX.4.4|9=138|35=W|34=125|49=cServer|50=QUOTE|52=20260109-06:35:30.245|56=demo.pepperstone.5179095|55=10028|268=2|269=0|270=90979.85|269=1|270=90994.85|10=162|
2026-01-09 08:35:30.816 INFO [APP][IN] qual=QUOTE 8=FIX.4.4|9=138|35=W|34=126|49=cServer|50=QUOTE|52=20260109-06:35:30.687|56=demo.pepperstone.5179095|55=10028|268=2|269=0|270=90986.52|269=1|270=91001.52|10=139|
2026-01-09 08:35:31.219 INFO [APP][IN] qual=QUOTE 8=FIX.4.4|9=138|35=W|34=127|49=cServer|50=QUOTE|52=20260109-06:35:31.090|56=demo.pepperstone.5179095|55=10028|268=2|269=0|270=90984.67|269=1|270=90999.67|10=164|
2026-01-09 08:35:31.670 INFO [APP][IN] qual=QUOTE 8=FIX.4.4|9=138|35=W|34=128|49=cServer|50=QUOTE|52=20260109-06:35:31.541|56=demo.pepperstone.5179095|55=10028|268=2|269=0|270=90984.63|269=1|270=90999.63|10=158|
2026-01-09 08:35:32.071 INFO [APP][IN] qual=QUOTE 8=FIX.4.4|9=138|35=W|34=129|49=cServer|50=QUOTE|52=20260109-06:35:31.941|56=demo.pepperstone.5179095|55=10028|268=2|269=0|270=90981.22|269=1|270=90996.22|10=147|
2026-01-09 08:35:32.484 INFO [APP][IN] qual=QUOTE 8=FIX.4.4|9=138|35=W|34=130|49=cServer|50=QUOTE|52=20260109-06:35:32.354|56=demo.pepperstone.5179095|55=10028|268=2|269=0|270=90982.21|269=1|270=90997.21|10=138|
2026-01-09 08:35:32.920 INFO [APP][IN] qual=QUOTE 8=FIX.4.4|9=138|35=W|34=131|49=cServer|50=QUOTE|52=20260109-06:35:32.791|56=demo.pepperstone.5179095|55=10028|268=2|269=0|270=90982.19|269=1|270=90997.19|10=158|
2026-01-09 08:35:33.331 INFO [APP][IN] qual=QUOTE 8=FIX.4.4|9=138|35=W|34=132|49=cServer|50=QUOTE|52=20260109-06:35:33.202|56=demo.pepperstone.5179095|55=10028|268=2|269=0|270=90982.94|269=1|270=90997.94|10=153|
2026-01-09 08:35:33.739 INFO [APP][IN] qual=QUOTE 8=FIX.4.4|9=138|35=W|34=133|49=cServer|50=QUOTE|52=20260109-06:35:33.609|56=demo.pepperstone.5179095|55=10028|268=2|269=0|270=90983.18|269=1|270=90998.18|10=159|
2026-01-09 08:35:34.180 INFO [APP][IN] qual=QUOTE 8=FIX.4.4|9=138|35=W|34=134|49=cServer|50=QUOTE|52=20260109-06:35:34.050|56=demo.pepperstone.5179095|55=10028|268=2|269=0|270=90982.91|269=1|270=90997.91|10=151|
2026-01-09 08:35:34.580 INFO [APP][IN] qual=QUOTE 8=FIX.4.4|9=138|35=W|34=135|49=cServer|50=QUOTE|52=20260109-06:35:34.451|56=demo.pepperstone.5179095|55=10028|268=2|269=0|270=90983.43|269=1|270=90998.43|10=153|
2026-01-09 08:35:34.990 INFO [APP][IN] qual=QUOTE 8=FIX.4.4|9=138|35=W|34=136|49=cServer|50=QUOTE|52=20260109-06:35:34.860|56=demo.pepperstone.5179095|55=10028|268=2|269=0|270=90983.01|269=1|270=90998.01|10=146|
2026-01-09 08:35:35.433 INFO [APP][IN] qual=QUOTE 8=FIX.4.4|9=138|35=W|34=137|49=cServer|50=QUOTE|52=20260109-06:35:35.303|56=demo.pepperstone.5179095|55=10028|268=2|269=0|270=90983.43|269=1|270=90998.43|10=152|
2026-01-09 08:35:35.849 INFO [APP][IN] qual=QUOTE 8=FIX.4.4|9=138|35=W|34=138|49=cServer|50=QUOTE|52=20260109-06:35:35.720|56=demo.pepperstone.5179095|55=10028|268=2|269=0|270=90983.35|269=1|270=90998.35|10=158|
2026-01-09 08:35:36.287 INFO [APP][IN] qual=QUOTE 8=FIX.4.4|9=138|35=W|34=139|49=cServer|50=QUOTE|52=20260109-06:35:36.157|56=demo.pepperstone.5179095|55=10028|268=2|269=0|270=90983.08|269=1|270=90998.08|10=164|
2026-01-09 08:35:36.722 INFO [APP][IN] qual=QUOTE 8=FIX.4.4|9=136|35=W|34=140|49=cServer|50=QUOTE|52=20260109-06:35:36.592|56=demo.pepperstone.5179095|55=10028|268=2|269=0|270=90983.5|269=1|270=90998.5|10=055|
2026-01-09 08:35:37.138 INFO [APP][IN] qual=QUOTE 8=FIX.4.4|9=138|35=W|34=141|49=cServer|50=QUOTE|52=20260109-06:35:37.009|56=demo.pepperstone.5179095|55=10028|268=2|269=0|270=90983.08|269=1|270=90998.08|10=154|
2026-01-09 08:35:37.553 INFO [APP][IN] qual=QUOTE 8=FIX.4.4|9=138|35=W|34=142|49=cServer|50=QUOTE|52=20260109-06:35:37.424|56=demo.pepperstone.5179095|55=10028|268=2|269=0|270=90983.67|269=1|270=90998.67|10=166|
2026-01-09 08:35:37.991 INFO [APP][IN] qual=QUOTE 8=FIX.4.4|9=138|35=W|34=143|49=cServer|50=QUOTE|52=20260109-06:35:37.861|56=demo.pepperstone.5179095|55=10028|268=2|269=0|270=90983.15|269=1|270=90998.15|10=158|
2026-01-09 08:35:38.411 INFO [ADMIN][IN] qual=TRADE 8=FIX.4.4|9=83|35=0|34=4|49=cServer|50=TRADE|52=20260109-06:35:38.281|56=demo.pepperstone.5179095|10=249|
2026-01-09 08:35:38.441 INFO [APP][IN] qual=QUOTE 8=FIX.4.4|9=138|35=W|34=144|49=cServer|50=QUOTE|52=20260109-06:35:38.312|56=demo.pepperstone.5179095|55=10028|268=2|269=0|270=90982.72|269=1|270=90997.72|10=155|
2026-01-09 08:35:38.897 INFO [APP][IN] qual=QUOTE 8=FIX.4.4|9=138|35=W|34=145|49=cServer|50=QUOTE|52=20260109-06:35:38.767|56=demo.pepperstone.5179095|55=10028|268=2|269=0|270=90983.12|269=1|270=90998.12|10=160|
2026-01-09 08:35:39.302 INFO [APP][IN] qual=QUOTE 8=FIX.4.4|9=138|35=W|34=146|49=cServer|50=QUOTE|52=20260109-06:35:39.172|56=demo.pepperstone.5179095|55=10028|268=2|269=0|270=90983.27|269=1|270=90998.27|10=164|
2026-01-09 08:35:39.707 INFO [APP][IN] qual=QUOTE 8=FIX.4.4|9=138|35=W|34=147|49=cServer|50=QUOTE|52=20260109-06:35:39.577|56=demo.pepperstone.5179095|55=10028|268=2|269=0|270=90983.25|269=1|270=90998.25|10=170|
2026-01-09 08:35:40.134 INFO [APP][IN] qual=QUOTE 8=FIX.4.4|9=138|35=W|34=148|49=cServer|50=QUOTE|52=20260109-06:35:40.005|56=demo.pepperstone.5179095|55=10028|268=2|269=0|270=90982.58|269=1|270=90997.58|10=159|
2026-01-09 08:35:40.565 INFO [APP][IN] qual=QUOTE 8=FIX.4.4|9=138|35=W|34=149|49=cServer|50=QUOTE|52=20260109-06:35:40.436|56=demo.pepperstone.5179095|55=10028|268=2|269=0|270=90983.37|269=1|270=90998.37|10=164|
2026-01-09 08:35:40.980 INFO [APP][IN] qual=QUOTE 8=FIX.4.4|9=138|35=W|34=150|49=cServer|50=QUOTE|52=20260109-06:35:40.851|56=demo.pepperstone.5179095|55=10028|268=2|269=0|270=90977.54|269=1|270=90992.54|10=152|
2026-01-09 08:35:41.399 INFO [APP][IN] qual=QUOTE 8=FIX.4.4|9=138|35=W|34=151|49=cServer|50=QUOTE|52=20260109-06:35:41.270|56=demo.pepperstone.5179095|55=10028|268=2|269=0|270=90976.76|269=1|270=90991.76|10=155|
2026-01-09 08:35:41.818 INFO [APP][IN] qual=QUOTE 8=FIX.4.4|9=138|35=W|34=152|49=cServer|50=QUOTE|52=20260109-06:35:41.688|56=demo.pepperstone.5179095|55=10028|268=2|269=0|270=90976.82|269=1|270=90991.82|10=163|
2026-01-09 08:35:42.220 INFO [APP][IN] qual=QUOTE 8=FIX.4.4|9=138|35=W|34=153|49=cServer|50=QUOTE|52=20260109-06:35:42.091|56=demo.pepperstone.5179095|55=10028|268=2|269=0|270=90977.13|269=1|270=90992.13|10=143|
2026-01-09 08:35:42.672 INFO [APP][IN] qual=QUOTE 8=FIX.4.4|9=138|35=W|34=154|49=cServer|50=QUOTE|52=20260109-06:35:42.542|56=demo.pepperstone.5179095|55=10028|268=2|269=0|270=90977.23|269=1|270=90992.23|10=147|
2026-01-09 08:35:43.126 INFO [APP][IN] qual=QUOTE 8=FIX.4.4|9=138|35=W|34=155|49=cServer|50=QUOTE|52=20260109-06:35:42.997|56=demo.pepperstone.5179095|55=10028|268=2|269=0|270=90976.76|269=1|270=90991.76|10=176|
2026-01-09 08:35:43.530 INFO [APP][IN] qual=QUOTE 8=FIX.4.4|9=138|35=W|34=156|49=cServer|50=QUOTE|52=20260109-06:35:43.400|56=demo.pepperstone.5179095|55=10028|268=2|269=0|270=90977.07|269=1|270=90992.07|10=147|
2026-01-09 08:35:43.937 INFO [APP][IN] qual=QUOTE 8=FIX.4.4|9=138|35=W|34=157|49=cServer|50=QUOTE|52=20260109-06:35:43.807|56=demo.pepperstone.5179095|55=10028|268=2|269=0|270=90977.18|269=1|270=90992.18|10=163|
2026-01-09 08:35:44.338 INFO [APP][IN] qual=QUOTE 8=FIX.4.4|9=138|35=W|34=158|49=cServer|50=QUOTE|52=20260109-06:35:44.209|56=demo.pepperstone.5179095|55=10028|268=2|269=0|270=90977.23|269=1|270=90992.23|10=153|
2026-01-09 08:35:44.777 INFO [APP][IN] qual=QUOTE 8=FIX.4.4|9=138|35=W|34=159|49=cServer|50=QUOTE|52=20260109-06:35:44.648|56=demo.pepperstone.5179095|55=10028|268=2|269=0|270=90977.26|269=1|270=90992.26|10=167|
2026-01-09 08:35:45.181 INFO [APP][IN] qual=QUOTE 8=FIX.4.4|9=138|35=W|34=160|49=cServer|50=QUOTE|52=20260109-06:35:45.052|56=demo.pepperstone.5179095|55=10028|268=2|269=0|270=90976.71|269=1|270=90991.71|10=147|
2026-01-09 08:35:45.630 INFO [APP][IN] qual=QUOTE 8=FIX.4.4|9=138|35=W|34=161|49=cServer|50=QUOTE|52=20260109-06:35:45.500|56=demo.pepperstone.5179095|55=10028|268=2|269=0|270=90976.47|269=1|270=90991.47|10=152|
2026-01-09 08:35:46.033 INFO [APP][IN] qual=QUOTE 8=FIX.4.4|9=138|35=W|34=162|49=cServer|50=QUOTE|52=20260109-06:35:45.903|56=demo.pepperstone.5179095|55=10028|268=2|269=0|270=90976.41|269=1|270=90991.41|10=148|
2026-01-09 08:35:46.485 INFO [APP][IN] qual=QUOTE 8=FIX.4.4|9=138|35=W|34=163|49=cServer|50=QUOTE|52=20260109-06:35:46.355|56=demo.pepperstone.5179095|55=10028|268=2|269=0|270=90973.93|269=1|270=90988.93|10=168|
2026-01-09 08:35:46.935 INFO [APP][IN] qual=QUOTE 8=FIX.4.4|9=138|35=W|34=164|49=cServer|50=QUOTE|52=20260109-06:35:46.806|56=demo.pepperstone.5179095|55=10028|268=2|269=0|270=90973.08|269=1|270=90988.08|10=162|
2026-01-09 08:35:47.360 INFO [APP][IN] qual=QUOTE 8=FIX.4.4|9=138|35=W|34=165|49=cServer|50=QUOTE|52=20260109-06:35:47.231|56=demo.pepperstone.5179095|55=10028|268=2|269=0|270=90972.49|269=1|270=90987.49|10=164|
2026-01-09 08:35:47.788 INFO [APP][IN] qual=QUOTE 8=FIX.4.4|9=138|35=W|34=166|49=cServer|50=QUOTE|52=20260109-06:35:47.659|56=demo.pepperstone.5179095|55=10028|268=2|269=0|270=90972.21|269=1|270=90987.21|10=159|
2026-01-09 08:35:48.238 INFO [APP][IN] qual=QUOTE 8=FIX.4.4|9=138|35=W|34=167|49=cServer|50=QUOTE|52=20260109-06:35:48.108|56=demo.pepperstone.5179095|55=10028|268=2|269=0|270=90973.75|269=1|270=90988.75|10=170|
2026-01-09 08:35:48.641 INFO [APP][IN] qual=QUOTE 8=FIX.4.4|9=138|35=W|34=168|49=cServer|50=QUOTE|52=20260109-06:35:48.512|56=demo.pepperstone.5179095|55=10028|268=2|269=0|270=90973.43|269=1|270=90988.43|10=160|
2026-01-09 08:35:49.111 INFO [APP][IN] qual=QUOTE 8=FIX.4.4|9=136|35=W|34=169|49=cServer|50=QUOTE|52=20260109-06:35:48.982|56=demo.pepperstone.5179095|55=10028|268=2|269=0|270=90973.5|269=1|270=90988.5|10=070|
2026-01-09 08:35:49.551 INFO [APP][IN] qual=QUOTE 8=FIX.4.4|9=138|35=W|34=170|49=cServer|50=QUOTE|52=20260109-06:35:49.421|56=demo.pepperstone.5179095|55=10028|268=2|269=0|270=90973.72|269=1|270=90988.72|10=157|
2026-01-09 08:35:49.960 INFO [APP][IN] qual=QUOTE 8=FIX.4.4|9=138|35=W|34=171|49=cServer|50=QUOTE|52=20260109-06:35:49.830|56=demo.pepperstone.5179095|55=10028|268=2|269=0|270=90972.44|269=1|270=90987.44|10=158|
2026-01-09 08:35:50.362 INFO [APP][IN] qual=QUOTE 8=FIX.4.4|9=138|35=W|34=172|49=cServer|50=QUOTE|52=20260109-06:35:50.232|56=demo.pepperstone.5179095|55=10028|268=2|269=0|270=90971.66|269=1|270=90986.66|10=153|
2026-01-09 08:35:50.763 INFO [APP][IN] qual=QUOTE 8=FIX.4.4|9=138|35=W|34=173|49=cServer|50=QUOTE|52=20260109-06:35:50.634|56=demo.pepperstone.5179095|55=10028|268=2|269=0|270=90971.93|269=1|270=90986.93|10=160|
2026-01-09 08:35:51.166 INFO [APP][IN] qual=QUOTE 8=FIX.4.4|9=138|35=W|34=174|49=cServer|50=QUOTE|52=20260109-06:35:51.037|56=demo.pepperstone.5179095|55=10028|268=2|269=0|270=90971.69|269=1|270=90986.69|10=165|
2026-01-09 08:35:51.568 INFO [APP][IN] qual=QUOTE 8=FIX.4.4|9=136|35=W|34=175|49=cServer|50=QUOTE|52=20260109-06:35:51.439|56=demo.pepperstone.5179095|55=10028|268=2|269=0|270=90971.9|269=1|270=90986.9|10=062|
2026-01-09 08:35:51.970 INFO [APP][IN] qual=QUOTE 8=FIX.4.4|9=138|35=W|34=176|49=cServer|50=QUOTE|52=20260109-06:35:51.841|56=demo.pepperstone.5179095|55=10028|268=2|269=0|270=90971.69|269=1|270=90986.69|10=170|
2026-01-09 08:35:52.372 INFO [APP][IN] qual=QUOTE 8=FIX.4.4|9=138|35=W|34=177|49=cServer|50=QUOTE|52=20260109-06:35:52.242|56=demo.pepperstone.5179095|55=10028|268=2|269=0|270=90971.83|269=1|270=90986.83|10=159|
2026-01-09 08:35:52.772 INFO [APP][IN] qual=QUOTE 8=FIX.4.4|9=136|35=W|34=178|49=cServer|50=QUOTE|52=20260109-06:35:52.643|56=demo.pepperstone.5179095|55=10028|268=2|269=0|270=90971.9|269=1|270=90986.9|10=063|
2026-01-09 08:35:53.204 INFO [APP][IN] qual=QUOTE 8=FIX.4.4|9=138|35=W|34=179|49=cServer|50=QUOTE|52=20260109-06:35:53.074|56=demo.pepperstone.5179095|55=10028|268=2|269=0|270=90972.38|269=1|270=90987.38|10=167|
2026-01-09 08:35:53.630 INFO [APP][IN] qual=QUOTE 8=FIX.4.4|9=138|35=W|34=180|49=cServer|50=QUOTE|52=20260109-06:35:53.501|56=demo.pepperstone.5179095|55=10028|268=2|269=0|270=90972.49|269=1|270=90987.49|10=158|
2026-01-09 08:35:54.069 INFO [APP][IN] qual=QUOTE 8=FIX.4.4|9=138|35=W|34=181|49=cServer|50=QUOTE|52=20260109-06:35:53.940|56=demo.pepperstone.5179095|55=10028|268=2|269=0|270=90977.75|269=1|270=90992.75|10=165|
2026-01-09 08:35:54.472 INFO [APP][IN] qual=QUOTE 8=FIX.4.4|9=138|35=W|34=182|49=cServer|50=QUOTE|52=20260109-06:35:54.343|56=demo.pepperstone.5179095|55=10028|268=2|269=0|270=90979.56|269=1|270=90994.56|10=166|
2026-01-09 08:35:54.881 INFO [APP][IN] qual=QUOTE 8=FIX.4.4|9=138|35=W|34=183|49=cServer|50=QUOTE|52=20260109-06:35:54.751|56=demo.pepperstone.5179095|55=10028|268=2|269=0|270=90979.66|269=1|270=90994.66|10=172|
2026-01-09 08:35:55.281 INFO [APP][IN] qual=QUOTE 8=FIX.4.4|9=138|35=W|34=184|49=cServer|50=QUOTE|52=20260109-06:35:55.151|56=demo.pepperstone.5179095|55=10028|268=2|269=0|270=90979.63|269=1|270=90994.63|10=162|
2026-01-09 08:35:55.682 INFO [APP][IN] qual=QUOTE 8=FIX.4.4|9=138|35=W|34=185|49=cServer|50=QUOTE|52=20260109-06:35:55.553|56=demo.pepperstone.5179095|55=10028|268=2|269=0|270=90976.97|269=1|270=90991.97|10=177|
2026-01-09 08:35:56.085 INFO [APP][IN] qual=QUOTE 8=FIX.4.4|9=138|35=W|34=186|49=cServer|50=QUOTE|52=20260109-06:35:55.955|56=demo.pepperstone.5179095|55=10028|268=2|269=0|270=90976.99|269=1|270=90991.99|10=188|
2026-01-09 08:35:56.533 INFO [APP][IN] qual=QUOTE 8=FIX.4.4|9=138|35=W|34=187|49=cServer|50=QUOTE|52=20260109-06:35:56.403|56=demo.pepperstone.5179095|55=10028|268=2|269=0|270=90977.08|269=1|270=90992.08|10=160|
2026-01-09 08:35:56.934 INFO [APP][IN] qual=QUOTE 8=FIX.4.4|9=138|35=W|34=188|49=cServer|50=QUOTE|52=20260109-06:35:56.805|56=demo.pepperstone.5179095|55=10028|268=2|269=0|270=90976.76|269=1|270=90991.76|10=175|
2026-01-09 08:35:57.344 INFO [APP][IN] qual=QUOTE 8=FIX.4.4|9=138|35=W|34=189|49=cServer|50=QUOTE|52=20260109-06:35:57.214|56=demo.pepperstone.5179095|55=10028|268=2|269=0|270=90976.83|269=1|270=90991.83|10=167|
2026-01-09 08:35:57.784 INFO [APP][IN] qual=QUOTE 8=FIX.4.4|9=138|35=W|34=190|49=cServer|50=QUOTE|52=20260109-06:35:57.654|56=demo.pepperstone.5179095|55=10028|268=2|269=0|270=90976.68|269=1|270=90991.68|10=173|
2026-01-09 08:35:58.191 INFO [APP][IN] qual=QUOTE 8=FIX.4.4|9=138|35=W|34=191|49=cServer|50=QUOTE|52=20260109-06:35:58.062|56=demo.pepperstone.5179095|55=10028|268=2|269=0|270=90975.06|269=1|270=90990.06|10=150|
2026-01-09 08:35:58.648 INFO [APP][IN] qual=QUOTE 8=FIX.4.4|9=138|35=W|34=192|49=cServer|50=QUOTE|52=20260109-06:35:58.518|56=demo.pepperstone.5179095|55=10028|268=2|269=0|270=90974.12|269=1|270=90989.12|10=158|
2026-01-09 08:35:59.050 INFO [APP][IN] qual=QUOTE 8=FIX.4.4|9=138|35=W|34=193|49=cServer|50=QUOTE|52=20260109-06:35:58.921|56=demo.pepperstone.5179095|55=10028|268=2|269=0|270=90974.49|269=1|270=90989.49|10=177|
2026-01-09 08:35:59.462 INFO [APP][IN] qual=QUOTE 8=FIX.4.4|9=138|35=W|34=194|49=cServer|50=QUOTE|52=20260109-06:35:59.332|56=demo.pepperstone.5179095|55=10028|268=2|269=0|270=90973.66|269=1|270=90988.66|10=171|
2026-01-09 08:35:59.901 INFO [APP][IN] qual=QUOTE 8=FIX.4.4|9=138|35=W|34=195|49=cServer|50=QUOTE|52=20260109-06:35:59.771|56=demo.pepperstone.5179095|55=10028|268=2|269=0|270=90974.03|269=1|270=90989.03|10=163|
2026-01-09 08:36:00.312 INFO [APP][IN] qual=QUOTE 8=FIX.4.4|9=138|35=W|34=196|49=cServer|50=QUOTE|52=20260109-06:36:00.182|56=demo.pepperstone.5179095|55=10028|268=2|269=0|270=90973.68|269=1|270=90988.68|10=167|
2026-01-09 08:36:00.313 INFO [BAR M1] 2026-01-09T06:35:00+00:00 O=90981.12 H=90994.02 L=90970.94 C=90981.53 | desired=0 cur=0
2026-01-09 08:36:00.724 INFO [APP][IN] qual=QUOTE 8=FIX.4.4|9=138|35=W|34=197|49=cServer|50=QUOTE|52=20260109-06:36:00.594|56=demo.pepperstone.5179095|55=10028|268=2|269=0|270=90973.54|269=1|270=90988.54|10=165|
2026-01-09 08:36:01.164 INFO [APP][IN] qual=QUOTE 8=FIX.4.4|9=138|35=W|34=198|49=cServer|50=QUOTE|52=20260109-06:36:01.034|56=demo.pepperstone.5179095|55=10028|268=2|269=0|270=90973.38|269=1|270=90988.38|10=160|
2026-01-09 08:36:01.565 INFO [APP][IN] qual=QUOTE 8=FIX.4.4|9=138|35=W|34=199|49=cServer|50=QUOTE|52=20260109-06:36:01.436|56=demo.pepperstone.5179095|55=10028|268=2|269=0|270=90973.64|269=1|270=90988.64|10=165|
2026-01-09 08:36:01.969 INFO [APP][IN] qual=QUOTE 8=FIX.4.4|9=138|35=W|34=200|49=cServer|50=QUOTE|52=20260109-06:36:01.839|56=demo.pepperstone.5179095|55=10028|268=2|269=0|270=90971.42|269=1|270=90986.42|10=143|
2026-01-09 08:36:02.379 INFO [APP][IN] qual=QUOTE 8=FIX.4.4|9=138|35=W|34=201|49=cServer|50=QUOTE|52=20260109-06:36:02.250|56=demo.pepperstone.5179095|55=10028|268=2|269=0|270=90969.82|269=1|270=90984.82|10=145|
2026-01-09 08:36:02.781 INFO [APP][IN] qual=QUOTE 8=FIX.4.4|9=138|35=W|34=202|49=cServer|50=QUOTE|52=20260109-06:36:02.652|56=demo.pepperstone.5179095|55=10028|268=2|269=0|270=90970.44|269=1|270=90985.44|10=141|
2026-01-09 08:36:03.621 INFO [APP][IN] qual=QUOTE 8=FIX.4.4|9=138|35=W|34=203|49=cServer|50=QUOTE|52=20260109-06:36:03.492|56=demo.pepperstone.5179095|55=10028|268=2|269=0|270=90970.93|269=1|270=90985.93|10=153|
2026-01-09 08:36:04.024 INFO [APP][IN] qual=QUOTE 8=FIX.4.4|9=138|35=W|34=204|49=cServer|50=QUOTE|52=20260109-06:36:03.894|56=demo.pepperstone.5179095|55=10028|268=2|269=0|270=90972.14|269=1|270=90987.14|10=150|
2026-01-09 08:36:04.425 INFO [APP][IN] qual=QUOTE 8=FIX.4.4|9=132|35=W|34=205|49=cServer|50=QUOTE|52=20260109-06:36:04.295|56=demo.pepperstone.5179095|55=10028|268=2|269=0|270=90973|269=1|270=90988|10=105|
2026-01-09 08:36:04.829 INFO [APP][IN] qual=QUOTE 8=FIX.4.4|9=136|35=W|34=206|49=cServer|50=QUOTE|52=20260109-06:36:04.699|56=demo.pepperstone.5179095|55=10028|268=2|269=0|270=90973.4|269=1|270=90988.4|10=058|
2026-01-09 08:36:05.240 INFO [APP][IN] qual=QUOTE 8=FIX.4.4|9=138|35=W|34=207|49=cServer|50=QUOTE|52=20260109-06:36:05.111|56=demo.pepperstone.5179095|55=10028|268=2|269=0|270=90973.05|269=1|270=90988.05|10=139|
2026-01-09 08:36:05.681 INFO [APP][IN] qual=QUOTE 8=FIX.4.4|9=138|35=W|34=208|49=cServer|50=QUOTE|52=20260109-06:36:05.552|56=demo.pepperstone.5179095|55=10028|268=2|269=0|270=90972.96|269=1|270=90987.96|10=167|
2026-01-09 08:36:06.132 INFO [APP][IN] qual=QUOTE 8=FIX.4.4|9=138|35=W|34=209|49=cServer|50=QUOTE|52=20260109-06:36:06.003|56=demo.pepperstone.5179095|55=10028|268=2|269=0|270=90972.61|269=1|270=90987.61|10=144|
2026-01-09 08:36:06.535 INFO [APP][IN] qual=QUOTE 8=FIX.4.4|9=138|35=W|34=210|49=cServer|50=QUOTE|52=20260109-06:36:06.406|56=demo.pepperstone.5179095|55=10028|268=2|269=0|270=90972.36|269=1|270=90987.36|10=147|
2026-01-09 08:36:06.936 INFO [APP][IN] qual=QUOTE 8=FIX.4.4|9=136|35=W|34=211|49=cServer|50=QUOTE|52=20260109-06:36:06.807|56=demo.pepperstone.5179095|55=10028|268=2|269=0|270=90972.6|269=1|270=90987.6|10=049|
2026-01-09 08:36:07.349 INFO [APP][IN] qual=QUOTE 8=FIX.4.4|9=138|35=W|34=212|49=cServer|50=QUOTE|52=20260109-06:36:07.219|56=demo.pepperstone.5179095|55=10028|268=2|269=0|270=90973.19|269=1|270=90988.19|10=156|
2026-01-09 08:36:07.784 INFO [APP][IN] qual=QUOTE 8=FIX.4.4|9=138|35=W|34=213|49=cServer|50=QUOTE|52=20260109-06:36:07.655|56=demo.pepperstone.5179095|55=10028|268=2|269=0|270=90973.26|269=1|270=90988.26|10=157|
2026-01-09 08:36:08.189 INFO [APP][IN] qual=QUOTE 8=FIX.4.4|9=132|35=W|34=214|49=cServer|50=QUOTE|52=20260109-06:36:08.060|56=demo.pepperstone.5179095|55=10028|268=2|269=0|270=90973|269=1|270=90988|10=099|
2026-01-09 08:36:08.600 INFO [APP][IN] qual=QUOTE 8=FIX.4.4|9=138|35=W|34=215|49=cServer|50=QUOTE|52=20260109-06:36:08.471|56=demo.pepperstone.5179095|55=10028|268=2|269=0|270=90973.03|269=1|270=90988.03|10=146|
2026-01-09 08:36:08.603 INFO [ADMIN][IN] qual=TRADE 8=FIX.4.4|9=83|35=0|34=5|49=cServer|50=TRADE|52=20260109-06:36:08.473|56=demo.pepperstone.5179095|10=251|
2026-01-09 08:36:09.001 INFO [APP][IN] qual=QUOTE 8=FIX.4.4|9=138|35=W|34=216|49=cServer|50=QUOTE|52=20260109-06:36:08.871|56=demo.pepperstone.5179095|55=10028|268=2|269=0|270=90973.05|269=1|270=90988.05|10=155|
2026-01-09 08:36:09.410 INFO [APP][IN] qual=QUOTE 8=FIX.4.4|9=138|35=W|34=217|49=cServer|50=QUOTE|52=20260109-06:36:09.280|56=demo.pepperstone.5179095|55=10028|268=2|269=0|270=90987.43|269=1|270=91002.43|10=138|
2026-01-09 08:36:09.815 INFO [APP][IN] qual=QUOTE 8=FIX.4.4|9=138|35=W|34=218|49=cServer|50=QUOTE|52=20260109-06:36:09.686|56=demo.pepperstone.5179095|55=10028|268=2|269=0|270=90986.78|269=1|270=91001.78|10=163|
2026-01-09 08:36:10.220 INFO [APP][IN] qual=QUOTE 8=FIX.4.4|9=138|35=W|34=219|49=cServer|50=QUOTE|52=20260109-06:36:10.090|56=demo.pepperstone.5179095|55=10028|268=2|269=0|270=90984.69|269=1|270=90999.69|10=168|
2026-01-09 08:36:10.665 INFO [APP][IN] qual=QUOTE 8=FIX.4.4|9=138|35=W|34=220|49=cServer|50=QUOTE|52=20260109-06:36:10.536|56=demo.pepperstone.5179095|55=10028|268=2|269=0|270=90983.81|269=1|270=90998.81|10=151|
2026-01-09 08:36:11.067 INFO [APP][IN] qual=QUOTE 8=FIX.4.4|9=138|35=W|34=221|49=cServer|50=QUOTE|52=20260109-06:36:10.937|56=demo.pepperstone.5179095|55=10028|268=2|269=0|270=90983.59|269=1|270=90998.59|10=167|
2026-01-09 08:36:11.468 INFO [APP][IN] qual=QUOTE 8=FIX.4.4|9=138|35=W|34=222|49=cServer|50=QUOTE|52=20260109-06:36:11.339|56=demo.pepperstone.5179095|55=10028|268=2|269=0|270=90984.07|269=1|270=90999.07|10=153|
2026-01-09 08:36:11.871 INFO [APP][IN] qual=QUOTE 8=FIX.4.4|9=138|35=W|34=223|49=cServer|50=QUOTE|52=20260109-06:36:11.741|56=demo.pepperstone.5179095|55=10028|268=2|269=0|270=90983.89|269=1|270=90998.89|10=169|
2026-01-09 08:36:12.273 INFO [APP][IN] qual=QUOTE 8=FIX.4.4|9=138|35=W|34=224|49=cServer|50=QUOTE|52=20260109-06:36:12.143|56=demo.pepperstone.5179095|55=10028|268=2|269=0|270=90983.92|269=1|270=90998.92|10=155|
2026-01-09 08:36:12.724 INFO [APP][IN] qual=QUOTE 8=FIX.4.4|9=138|35=W|34=225|49=cServer|50=QUOTE|52=20260109-06:36:12.594|56=demo.pepperstone.5179095|55=10028|268=2|269=0|270=90983.13|269=1|270=90998.13|10=152|
2026-01-09 08:36:13.126 INFO [APP][IN] qual=QUOTE 8=FIX.4.4|9=138|35=W|34=226|49=cServer|50=QUOTE|52=20260109-06:36:12.997|56=demo.pepperstone.5179095|55=10028|268=2|269=0|270=90982.61|269=1|270=90997.61|10=164|
2026-01-09 08:36:13.578 INFO [APP][IN] qual=QUOTE 8=FIX.4.4|9=138|35=W|34=227|49=cServer|50=QUOTE|52=20260109-06:36:13.448|56=demo.pepperstone.5179095|55=10028|268=2|269=0|270=90982.68|269=1|270=90997.68|10=171|
2026-01-09 08:36:13.979 INFO [APP][IN] qual=QUOTE 8=FIX.4.4|9=138|35=W|34=228|49=cServer|50=QUOTE|52=20260109-06:36:13.850|56=demo.pepperstone.5179095|55=10028|268=2|269=0|270=90982.51|269=1|270=90997.51|10=153|
2026-01-09 08:36:14.382 INFO [APP][IN] qual=QUOTE 8=FIX.4.4|9=138|35=W|34=229|49=cServer|50=QUOTE|52=20260109-06:36:14.252|56=demo.pepperstone.5179095|55=10028|268=2|269=0|270=90982.31|269=1|270=90997.31|10=147|
2026-01-09 08:36:14.822 INFO [APP][IN] qual=QUOTE 8=FIX.4.4|9=138|35=W|34=230|49=cServer|50=QUOTE|52=20260109-06:36:14.692|56=demo.pepperstone.5179095|55=10028|268=2|269=0|270=90982.17|269=1|270=90997.17|10=155|
2026-01-09 08:36:15.229 INFO [APP][IN] qual=QUOTE 8=FIX.4.4|9=138|35=W|34=231|49=cServer|50=QUOTE|52=20260109-06:36:15.099|56=demo.pepperstone.5179095|55=10028|268=2|269=0|270=90982.13|269=1|270=90997.13|10=150|
2026-01-09 08:36:15.636 INFO [APP][IN] qual=QUOTE 8=FIX.4.4|9=138|35=W|34=232|49=cServer|50=QUOTE|52=20260109-06:36:15.507|56=demo.pepperstone.5179095|55=10028|268=2|269=0|270=90982.12|269=1|270=90997.12|10=143|
2026-01-09 08:36:16.086 INFO [APP][IN] qual=QUOTE 8=FIX.4.4|9=138|35=W|34=233|49=cServer|50=QUOTE|52=20260109-06:36:15.957|56=demo.pepperstone.5179095|55=10028|268=2|269=0|270=90982.07|269=1|270=90997.07|10=161|
2026-01-09 08:36:16.537 INFO [APP][IN] qual=QUOTE 8=FIX.4.4|9=138|35=W|34=234|49=cServer|50=QUOTE|52=20260109-06:36:16.408|56=demo.pepperstone.5179095|55=10028|268=2|269=0|270=90981.94|269=1|270=90996.94|10=164|
2026-01-09 08:36:16.987 INFO [APP][IN] qual=QUOTE 8=FIX.4.4|9=138|35=W|34=235|49=cServer|50=QUOTE|52=20260109-06:36:16.858|56=demo.pepperstone.5179095|55=10028|268=2|269=0|270=90981.47|269=1|270=90996.47|10=170|
2026-01-09 08:36:17.388 INFO [APP][IN] qual=QUOTE 8=FIX.4.4|9=138|35=W|34=236|49=cServer|50=QUOTE|52=20260109-06:36:17.258|56=demo.pepperstone.5179095|55=10028|268=2|269=0|270=90981.52|269=1|270=90996.52|10=158|
2026-01-09 08:36:17.791 INFO [APP][IN] qual=QUOTE 8=FIX.4.4|9=138|35=W|34=237|49=cServer|50=QUOTE|52=20260109-06:36:17.661|56=demo.pepperstone.5179095|55=10028|268=2|269=0|270=90981.49|269=1|270=90996.49|10=169|
2026-01-09 08:36:18.193 INFO [APP][IN] qual=QUOTE 8=FIX.4.4|9=132|35=W|34=238|49=cServer|50=QUOTE|52=20260109-06:36:18.063|56=demo.pepperstone.5179095|55=10028|268=2|269=0|270=90979|269=1|270=90994|10=112|
2026-01-09 08:36:18.640 INFO [APP][IN] qual=QUOTE 8=FIX.4.4|9=138|35=W|34=239|49=cServer|50=QUOTE|52=20260109-06:36:18.510|56=demo.pepperstone.5179095|55=10028|268=2|269=0|270=90978.52|269=1|270=90993.52|10=156|
2026-01-09 08:36:19.049 INFO [APP][IN] qual=QUOTE 8=FIX.4.4|9=138|35=W|34=240|49=cServer|50=QUOTE|52=20260109-06:36:18.920|56=demo.pepperstone.5179095|55=10028|268=2|269=0|270=90976.93|269=1|270=90991.93|10=159|
2026-01-09 08:36:19.465 INFO [APP][IN] qual=QUOTE 8=FIX.4.4|9=138|35=W|34=241|49=cServer|50=QUOTE|52=20260109-06:36:19.335|56=demo.pepperstone.5179095|55=10028|268=2|269=0|270=90977.29|269=1|270=90992.29|10=161|
2026-01-09 08:36:19.886 INFO [APP][IN] qual=QUOTE 8=FIX.4.4|9=136|35=W|34=242|49=cServer|50=QUOTE|52=20260109-06:36:19.757|56=demo.pepperstone.5179095|55=10028|268=2|269=0|270=90979.6|269=1|270=90994.6|10=066|
2026-01-09 08:36:20.315 INFO [APP][IN] qual=QUOTE 8=FIX.4.4|9=138|35=W|34=243|49=cServer|50=QUOTE|52=20260109-06:36:20.185|56=demo.pepperstone.5179095|55=10028|268=2|269=0|270=90979.86|269=1|270=90994.86|10=168|
2026-01-09 08:36:20.762 INFO [APP][IN] qual=QUOTE 8=FIX.4.4|9=138|35=W|34=244|49=cServer|50=QUOTE|52=20260109-06:36:20.633|56=demo.pepperstone.5179095|55=10028|268=2|269=0|270=90980.48|269=1|270=90995.48|10=156|
2026-01-09 08:36:21.167 INFO [APP][IN] qual=QUOTE 8=FIX.4.4|9=138|35=W|34=245|49=cServer|50=QUOTE|52=20260109-06:36:21.037|56=demo.pepperstone.5179095|55=10028|268=2|269=0|270=90980.68|269=1|270=90995.68|10=160|
2026-01-09 08:36:21.618 INFO [APP][IN] qual=QUOTE 8=FIX.4.4|9=138|35=W|34=246|49=cServer|50=QUOTE|52=20260109-06:36:21.488|56=demo.pepperstone.5179095|55=10028|268=2|269=0|270=90980.18|269=1|270=90995.18|10=161|
2026-01-09 08:36:22.067 INFO [APP][IN] qual=QUOTE 8=FIX.4.4|9=138|35=W|34=247|49=cServer|50=QUOTE|52=20260109-06:36:21.937|56=demo.pepperstone.5179095|55=10028|268=2|269=0|270=90980.24|269=1|270=90995.24|10=155|
2026-01-09 08:36:22.471 INFO [APP][IN] qual=QUOTE 8=FIX.4.4|9=138|35=W|34=248|49=cServer|50=QUOTE|52=20260109-06:36:22.342|56=demo.pepperstone.5179095|55=10028|268=2|269=0|270=90980.18|269=1|270=90995.18|10=153|
2026-01-09 08:36:22.931 INFO [APP][IN] qual=QUOTE 8=FIX.4.4|9=138|35=W|34=249|49=cServer|50=QUOTE|52=20260109-06:36:22.801|56=demo.pepperstone.5179095|55=10028|268=2|269=0|270=90985.57|269=1|270=91000.57|10=143|
2026-01-09 08:36:23.375 INFO [APP][IN] qual=QUOTE 8=FIX.4.4|9=138|35=W|34=250|49=cServer|50=QUOTE|52=20260109-06:36:23.245|56=demo.pepperstone.5179095|55=10028|268=2|269=0|270=90983.43|269=1|270=90998.43|10=151|
2026-01-09 08:36:23.775 INFO [APP][IN] qual=QUOTE 8=FIX.4.4|9=138|35=W|34=251|49=cServer|50=QUOTE|52=20260109-06:36:23.645|56=demo.pepperstone.5179095|55=10028|268=2|269=0|270=90984.62|269=1|270=90999.62|10=160|
2026-01-09 08:36:24.176 INFO [APP][IN] qual=QUOTE 8=FIX.4.4|9=138|35=W|34=252|49=cServer|50=QUOTE|52=20260109-06:36:24.046|56=demo.pepperstone.5179095|55=10028|268=2|269=0|270=90983.53|269=1|270=90998.53|10=155|
2026-01-09 08:36:24.578 INFO [APP][IN] qual=QUOTE 8=FIX.4.4|9=138|35=W|34=253|49=cServer|50=QUOTE|52=20260109-06:36:24.448|56=demo.pepperstone.5179095|55=10028|268=2|269=0|270=90982.97|269=1|270=90997.97|10=176|
2026-01-09 08:36:25.029 INFO [APP][IN] qual=QUOTE 8=FIX.4.4|9=138|35=W|34=254|49=cServer|50=QUOTE|52=20260109-06:36:24.900|56=demo.pepperstone.5179095|55=10028|268=2|269=0|270=90983.08|269=1|270=90998.08|10=156|
2026-01-09 08:36:25.477 INFO [APP][IN] qual=QUOTE 8=FIX.4.4|9=138|35=W|34=255|49=cServer|50=QUOTE|52=20260109-06:36:25.348|56=demo.pepperstone.5179095|55=10028|268=2|269=0|270=90983.15|269=1|270=90998.15|10=160|
2026-01-09 08:36:25.880 INFO [APP][IN] qual=QUOTE 8=FIX.4.4|9=138|35=W|34=256|49=cServer|50=QUOTE|52=20260109-06:36:25.750|56=demo.pepperstone.5179095|55=10028|268=2|269=0|270=90982.21|269=1|270=90997.21|10=150|
2026-01-09 08:36:26.286 INFO [APP][IN] qual=QUOTE 8=FIX.4.4|9=138|35=W|34=257|49=cServer|50=QUOTE|52=20260109-06:36:26.157|56=demo.pepperstone.5179095|55=10028|268=2|269=0|270=90980.41|269=1|270=90995.41|10=153|
2026-01-09 08:36:26.718 INFO [APP][IN] qual=QUOTE 8=FIX.4.4|9=136|35=W|34=258|49=cServer|50=QUOTE|52=20260109-06:36:26.589|56=demo.pepperstone.5179095|55=10028|268=2|269=0|270=90983.2|269=1|270=90998.2|10=065|
2026-01-09 08:36:27.119 INFO [APP][IN] qual=QUOTE 8=FIX.4.4|9=138|35=W|34=259|49=cServer|50=QUOTE|52=20260109-06:36:26.989|56=demo.pepperstone.5179095|55=10028|268=2|269=0|270=90982.91|269=1|270=90997.91|10=182|
2026-01-09 08:36:27.536 INFO [APP][IN] qual=QUOTE 8=FIX.4.4|9=138|35=W|34=260|49=cServer|50=QUOTE|52=20260109-06:36:27.406|56=demo.pepperstone.5179095|55=10028|268=2|269=0|270=90981.84|269=1|270=90996.84|10=161|
2026-01-09 08:36:27.936 INFO [APP][IN] qual=QUOTE 8=FIX.4.4|9=138|35=W|34=261|49=cServer|50=QUOTE|52=20260109-06:36:27.806|56=demo.pepperstone.5179095|55=10028|268=2|269=0|270=90982.16|269=1|270=90997.16|10=158|
2026-01-09 08:36:28.340 INFO [APP][IN] qual=QUOTE 8=FIX.4.4|9=138|35=W|34=262|49=cServer|50=QUOTE|52=20260109-06:36:28.210|56=demo.pepperstone.5179095|55=10028|268=2|269=0|270=90973.33|269=1|270=90988.33|10=147|
2026-01-09 08:36:28.745 INFO [APP][IN] qual=QUOTE 8=FIX.4.4|9=138|35=W|34=263|49=cServer|50=QUOTE|52=20260109-06:36:28.615|56=demo.pepperstone.5179095|55=10028|268=2|269=0|270=90980.83|269=1|270=90995.83|10=163|
2026-01-09 08:36:29.152 INFO [APP][IN] qual=QUOTE 8=FIX.4.4|9=138|35=W|34=264|49=cServer|50=QUOTE|52=20260109-06:36:29.023|56=demo.pepperstone.5179095|55=10028|268=2|269=0|270=90980.67|269=1|270=90995.67|10=162|
2026-01-09 08:36:29.559 INFO [APP][IN] qual=QUOTE 8=FIX.4.4|9=138|35=W|34=265|49=cServer|50=QUOTE|52=20260109-06:36:29.429|56=demo.pepperstone.5179095|55=10028|268=2|269=0|270=90980.21|269=1|270=90995.21|10=153|
2026-01-09 08:36:29.962 INFO [APP][IN] qual=QUOTE 8=FIX.4.4|9=138|35=W|34=266|49=cServer|50=QUOTE|52=20260109-06:36:29.832|56=demo.pepperstone.5179095|55=10028|268=2|269=0|270=90980.18|269=1|270=90995.18|10=164|
2026-01-09 08:36:30.362 INFO [APP][IN] qual=QUOTE 8=FIX.4.4|9=138|35=W|34=267|49=cServer|50=QUOTE|52=20260109-06:36:30.233|56=demo.pepperstone.5179095|55=10028|268=2|269=0|270=90985.89|269=1|270=91000.89|10=151|
2026-01-09 08:36:30.767 INFO [APP][IN] qual=QUOTE 8=FIX.4.4|9=132|35=W|34=268|49=cServer|50=QUOTE|52=20260109-06:36:30.638|56=demo.pepperstone.5179095|55=10028|268=2|269=0|270=90978|269=1|270=90993|10=115|
2026-01-09 08:36:31.201 INFO [APP][IN] qual=QUOTE 8=FIX.4.4|9=138|35=W|34=269|49=cServer|50=QUOTE|52=20260109-06:36:31.072|56=demo.pepperstone.5179095|55=10028|268=2|269=0|270=90978.78|269=1|270=90993.78|10=173|
2026-01-09 08:36:31.619 INFO [APP][IN] qual=QUOTE 8=FIX.4.4|9=136|35=W|34=270|49=cServer|50=QUOTE|52=20260109-06:36:31.490|56=demo.pepperstone.5179095|55=10028|268=2|269=0|270=90978.7|269=1|270=90993.7|10=055|
2026-01-09 08:36:32.424 INFO [APP][IN] qual=QUOTE 8=FIX.4.4|9=138|35=W|34=271|49=cServer|50=QUOTE|52=20260109-06:36:32.295|56=demo.pepperstone.5179095|55=10028|268=2|269=0|270=90978.57|269=1|270=90993.57|10=168|
2026-01-09 08:36:32.876 INFO [APP][IN] qual=QUOTE 8=FIX.4.4|9=138|35=W|34=272|49=cServer|50=QUOTE|52=20260109-06:36:32.746|56=demo.pepperstone.5179095|55=10028|268=2|269=0|270=90978.53|269=1|270=90993.53|10=162|
2026-01-09 08:36:33.278 INFO [APP][IN] qual=QUOTE 8=FIX.4.4|9=138|35=W|34=273|49=cServer|50=QUOTE|52=20260109-06:36:33.149|56=demo.pepperstone.5179095|55=10028|268=2|269=0|270=90978.87|269=1|270=90993.87|10=175|
2026-01-09 08:36:33.729 INFO [APP][IN] qual=QUOTE 8=FIX.4.4|9=138|35=W|34=274|49=cServer|50=QUOTE|52=20260109-06:36:33.599|56=demo.pepperstone.5179095|55=10028|268=2|269=0|270=90979.07|269=1|270=90994.07|10=171|
2026-01-09 08:36:34.179 INFO [APP][IN] qual=QUOTE 8=FIX.4.4|9=138|35=W|34=275|49=cServer|50=QUOTE|52=20260109-06:36:34.050|56=demo.pepperstone.5179095|55=10028|268=2|269=0|270=90978.75|269=1|270=90993.75|10=163|
2026-01-09 08:36:34.583 INFO [APP][IN] qual=QUOTE 8=FIX.4.4|9=138|35=W|34=276|49=cServer|50=QUOTE|52=20260109-06:36:34.453|56=demo.pepperstone.5179095|55=10028|268=2|269=0|270=90978.67|269=1|270=90993.67|10=173|
2026-01-09 08:36:35.029 INFO [APP][IN] qual=QUOTE 8=FIX.4.4|9=138|35=W|34=277|49=cServer|50=QUOTE|52=20260109-06:36:34.900|56=demo.pepperstone.5179095|55=10028|268=2|269=0|270=90978.71|269=1|270=90993.71|10=161|
2026-01-09 08:36:35.435 INFO [APP][IN] qual=QUOTE 8=FIX.4.4|9=138|35=W|34=278|49=cServer|50=QUOTE|52=20260109-06:36:35.306|56=demo.pepperstone.5179095|55=10028|268=2|269=0|270=90978.73|269=1|270=90993.73|10=167|
2026-01-09 08:36:35.836 INFO [APP][IN] qual=QUOTE 8=FIX.4.4|9=138|35=W|34=279|49=cServer|50=QUOTE|52=20260109-06:36:35.707|56=demo.pepperstone.5179095|55=10028|268=2|269=0|270=90978.91|269=1|270=90993.91|10=173|
2026-01-09 08:36:36.284 INFO [APP][IN] qual=QUOTE 8=FIX.4.4|9=138|35=W|34=280|49=cServer|50=QUOTE|52=20260109-06:36:36.154|56=demo.pepperstone.5179095|55=10028|268=2|269=0|270=90978.84|269=1|270=90993.84|10=166|
2026-01-09 08:36:36.691 INFO [APP][IN] qual=QUOTE 8=FIX.4.4|9=138|35=W|34=281|49=cServer|50=QUOTE|52=20260109-06:36:36.562|56=demo.pepperstone.5179095|55=10028|268=2|269=0|270=90978.82|269=1|270=90993.82|10=166|
2026-01-09 08:36:37.141 INFO [APP][IN] qual=QUOTE 8=FIX.4.4|9=136|35=W|34=282|49=cServer|50=QUOTE|52=20260109-06:36:37.011|56=demo.pepperstone.5179095|55=10028|268=2|269=0|270=90978.5|269=1|270=90993.5|10=049|
2026-01-09 08:36:37.542 INFO [APP][IN] qual=QUOTE 8=FIX.4.4|9=138|35=W|34=283|49=cServer|50=QUOTE|52=20260109-06:36:37.412|56=demo.pepperstone.5179095|55=10028|268=2|269=0|270=90979.11|269=1|270=90994.11|10=149|
2026-01-09 08:36:37.943 INFO [APP][IN] qual=QUOTE 8=FIX.4.4|9=138|35=W|34=284|49=cServer|50=QUOTE|52=20260109-06:36:37.814|56=demo.pepperstone.5179095|55=10028|268=2|269=0|270=90978.91|269=1|270=90993.91|10=170|
2026-01-09 08:36:38.389 INFO [APP][IN] qual=QUOTE 8=FIX.4.4|9=138|35=W|34=285|49=cServer|50=QUOTE|52=20260109-06:36:38.259|56=demo.pepperstone.5179095|55=10028|268=2|269=0|270=90978.69|269=1|270=90993.69|10=185|
2026-01-09 08:36:38.603 INFO [ADMIN][IN] qual=TRADE 8=FIX.4.4|9=83|35=0|34=6|49=cServer|50=TRADE|52=20260109-06:36:38.473|56=demo.pepperstone.5179095|10=255|
2026-01-09 08:36:38.794 INFO [APP][IN] qual=QUOTE 8=FIX.4.4|9=138|35=W|34=286|49=cServer|50=QUOTE|52=20260109-06:36:38.665|56=demo.pepperstone.5179095|55=10028|268=2|269=0|270=90978.61|269=1|270=90993.61|10=171|
2026-01-09 08:36:39.211 INFO [APP][IN] qual=QUOTE 8=FIX.4.4|9=138|35=W|34=287|49=cServer|50=QUOTE|52=20260109-06:36:39.081|56=demo.pepperstone.5179095|55=10028|268=2|269=0|270=90977.92|269=1|270=90992.92|10=171|
2026-01-09 08:36:39.616 INFO [APP][IN] qual=QUOTE 8=FIX.4.4|9=136|35=W|34=288|49=cServer|50=QUOTE|52=20260109-06:36:39.485|56=demo.pepperstone.5179095|55=10028|268=2|269=0|270=90978.5|269=1|270=90993.5|10=072|
2026-01-09 08:36:40.220 INFO [APP][IN] qual=QUOTE 8=FIX.4.4|9=138|35=W|34=289|49=cServer|50=QUOTE|52=20260109-06:36:40.090|56=demo.pepperstone.5179095|55=10028|268=2|269=0|270=90978.46|269=1|270=90993.46|10=165|
2026-01-09 08:36:40.672 INFO [APP][IN] qual=QUOTE 8=FIX.4.4|9=138|35=W|34=290|49=cServer|50=QUOTE|52=20260109-06:36:40.542|56=demo.pepperstone.5179095|55=10028|268=2|269=0|270=90978.69|269=1|270=90993.69|10=169|
2026-01-09 08:36:41.123 INFO [APP][IN] qual=QUOTE 8=FIX.4.4|9=138|35=W|34=291|49=cServer|50=QUOTE|52=20260109-06:36:40.993|56=demo.pepperstone.5179095|55=10028|268=2|269=0|270=90978.44|269=1|270=90993.44|10=166|
2026-01-09 08:36:41.578 INFO [APP][IN] qual=QUOTE 8=FIX.4.4|9=138|35=W|34=292|49=cServer|50=QUOTE|52=20260109-06:36:41.448|56=demo.pepperstone.5179095|55=10028|268=2|269=0|270=90977.41|269=1|270=90992.41|10=155|
2026-01-09 08:36:41.979 INFO [APP][IN] qual=QUOTE 8=FIX.4.4|9=138|35=W|34=293|49=cServer|50=QUOTE|52=20260109-06:36:41.849|56=demo.pepperstone.5179095|55=10028|268=2|269=0|270=90977.63|269=1|270=90992.63|10=169|
2026-01-09 08:36:42.425 INFO [APP][IN] qual=QUOTE 8=FIX.4.4|9=138|35=W|34=294|49=cServer|50=QUOTE|52=20260109-06:36:42.296|56=demo.pepperstone.5179095|55=10028|268=2|269=0|270=90978.02|269=1|270=90993.02|10=155|
2026-01-09 08:36:42.863 INFO [APP][IN] qual=QUOTE 8=FIX.4.4|9=138|35=W|34=295|49=cServer|50=QUOTE|52=20260109-06:36:42.734|56=demo.pepperstone.5179095|55=10028|268=2|269=0|270=90978.01|269=1|270=90993.01|10=151|
2026-01-09 08:36:43.271 INFO [APP][IN] qual=QUOTE 8=FIX.4.4|9=138|35=W|34=296|49=cServer|50=QUOTE|52=20260109-06:36:43.142|56=demo.pepperstone.5179095|55=10028|268=2|269=0|270=90977.95|269=1|270=90992.95|10=170|
2026-01-09 08:36:43.674 INFO [APP][IN] qual=QUOTE 8=FIX.4.4|9=138|35=W|34=297|49=cServer|50=QUOTE|52=20260109-06:36:43.544|56=demo.pepperstone.5179095|55=10028|268=2|269=0|270=90977.86|269=1|270=90992.86|10=177|
2026-01-09 08:36:44.076 INFO [APP][IN] qual=QUOTE 8=FIX.4.4|9=138|35=W|34=298|49=cServer|50=QUOTE|52=20260109-06:36:43.947|56=demo.pepperstone.5179095|55=10028|268=2|269=0|270=90977.78|269=1|270=90992.78|10=187|
2026-01-09 08:36:44.481 INFO [APP][IN] qual=QUOTE 8=FIX.4.4|9=138|35=W|34=299|49=cServer|50=QUOTE|52=20260109-06:36:44.352|56=demo.pepperstone.5179095|55=10028|268=2|269=0|270=90977.75|269=1|270=90992.75|10=173|
2026-01-09 08:36:44.905 INFO [APP][IN] qual=QUOTE 8=FIX.4.4|9=138|35=W|34=300|49=cServer|50=QUOTE|52=20260109-06:36:44.775|56=demo.pepperstone.5179095|55=10028|268=2|269=0|270=90977.78|269=1|270=90992.78|10=171|
2026-01-09 08:36:45.327 INFO [APP][IN] qual=QUOTE 8=FIX.4.4|9=138|35=W|34=301|49=cServer|50=QUOTE|52=20260109-06:36:45.197|56=demo.pepperstone.5179095|55=10028|268=2|269=0|270=90977.72|269=1|270=90992.72|10=159|
2026-01-09 08:36:45.737 INFO [APP][IN] qual=QUOTE 8=FIX.4.4|9=138|35=W|34=302|49=cServer|50=QUOTE|52=20260109-06:36:45.608|56=demo.pepperstone.5179095|55=10028|268=2|269=0|270=90977.49|269=1|270=90992.49|10=165|
2026-01-09 08:36:46.188 INFO [APP][IN] qual=QUOTE 8=FIX.4.4|9=138|35=W|34=303|49=cServer|50=QUOTE|52=20260109-06:36:46.058|56=demo.pepperstone.5179095|55=10028|268=2|269=0|270=90977.24|269=1|270=90992.24|10=152|
2026-01-09 08:36:46.610 INFO [APP][IN] qual=QUOTE 8=FIX.4.4|9=138|35=W|34=304|49=cServer|50=QUOTE|52=20260109-06:36:46.480|56=demo.pepperstone.5179095|55=10028|268=2|269=0|270=90977.11|269=1|270=90992.11|10=144|
2026-01-09 08:36:47.037 INFO [APP][IN] qual=QUOTE 8=FIX.4.4|9=138|35=W|34=305|49=cServer|50=QUOTE|52=20260109-06:36:46.908|56=demo.pepperstone.5179095|55=10028|268=2|269=0|270=90977.06|269=1|270=90992.06|10=158|
2026-01-09 08:36:47.442 INFO [APP][IN] qual=QUOTE 8=FIX.4.4|9=138|35=W|34=306|49=cServer|50=QUOTE|52=20260109-06:36:47.313|56=demo.pepperstone.5179095|55=10028|268=2|269=0|270=90977.32|269=1|270=90992.32|10=148|
2026-01-09 08:36:47.893 INFO [APP][IN] qual=QUOTE 8=FIX.4.4|9=138|35=W|34=307|49=cServer|50=QUOTE|52=20260109-06:36:47.764|56=demo.pepperstone.5179095|55=10028|268=2|269=0|270=90977.13|269=1|270=90992.13|10=157|
2026-01-09 08:36:48.346 INFO [APP][IN] qual=QUOTE 8=FIX.4.4|9=138|35=W|34=308|49=cServer|50=QUOTE|52=20260109-06:36:48.216|56=demo.pepperstone.5179095|55=10028|268=2|269=0|270=90976.99|269=1|270=90991.99|10=177|
2026-01-09 08:36:49.216 INFO [APP][IN] qual=QUOTE 8=FIX.4.4|9=138|35=W|34=309|49=cServer|50=QUOTE|52=20260109-06:36:49.086|56=demo.pepperstone.5179095|55=10028|268=2|269=0|270=90976.94|269=1|270=90991.94|10=174|
2026-01-09 08:36:49.619 INFO [APP][IN] qual=QUOTE 8=FIX.4.4|9=138|35=W|34=310|49=cServer|50=QUOTE|52=20260109-06:36:49.489|56=demo.pepperstone.5179095|55=10028|268=2|269=0|270=90977.59|269=1|270=90992.59|10=177|
2026-01-09 08:36:50.023 INFO [APP][IN] qual=QUOTE 8=FIX.4.4|9=136|35=W|34=311|49=cServer|50=QUOTE|52=20260109-06:36:49.893|56=demo.pepperstone.5179095|55=10028|268=2|269=0|270=90977.8|269=1|270=90992.8|10=067|
2026-01-09 08:36:50.423 INFO [APP][IN] qual=QUOTE 8=FIX.4.4|9=138|35=W|34=312|49=cServer|50=QUOTE|52=20260109-06:36:50.293|56=demo.pepperstone.5179095|55=10028|268=2|269=0|270=90977.66|269=1|270=90992.66|10=160|
2026-01-09 08:36:50.826 INFO [APP][IN] qual=QUOTE 8=FIX.4.4|9=138|35=W|34=313|49=cServer|50=QUOTE|52=20260109-06:36:50.696|56=demo.pepperstone.5179095|55=10028|268=2|269=0|270=90977.65|269=1|270=90992.65|10=166|
2026-01-09 08:36:51.278 INFO [APP][IN] qual=QUOTE 8=FIX.4.4|9=138|35=W|34=314|49=cServer|50=QUOTE|52=20260109-06:36:51.148|56=demo.pepperstone.5179095|55=10028|268=2|269=0|270=90977.61|269=1|270=90992.61|10=152|
2026-01-09 08:36:51.777 INFO [APP][IN] qual=QUOTE 8=FIX.4.4|9=138|35=W|34=315|49=cServer|50=QUOTE|52=20260109-06:36:51.647|56=demo.pepperstone.5179095|55=10028|268=2|269=0|270=90977.65|269=1|270=90992.65|10=165|
2026-01-09 08:36:52.179 INFO [APP][IN] qual=QUOTE 8=FIX.4.4|9=138|35=W|34=316|49=cServer|50=QUOTE|52=20260109-06:36:52.049|56=demo.pepperstone.5179095|55=10028|268=2|269=0|270=90977.56|269=1|270=90992.56|10=163|
2026-01-09 08:36:52.582 INFO [APP][IN] qual=QUOTE 8=FIX.4.4|9=138|35=W|34=317|49=cServer|50=QUOTE|52=20260109-06:36:52.453|56=demo.pepperstone.5179095|55=10028|268=2|269=0|270=90977.49|269=1|270=90992.49|10=167|
2026-01-09 08:36:53.010 INFO [APP][IN] qual=QUOTE 8=FIX.4.4|9=138|35=W|34=318|49=cServer|50=QUOTE|52=20260109-06:36:52.881|56=demo.pepperstone.5179095|55=10028|268=2|269=0|270=90975.26|269=1|270=90990.26|10=159|
2026-01-09 08:36:53.433 INFO [APP][IN] qual=QUOTE 8=FIX.4.4|9=138|35=W|34=319|49=cServer|50=QUOTE|52=20260109-06:36:53.303|56=demo.pepperstone.5179095|55=10028|268=2|269=0|270=90975.61|269=1|270=90990.61|10=148|
2026-01-09 08:36:53.834 INFO [APP][IN] qual=QUOTE 8=FIX.4.4|9=138|35=W|34=320|49=cServer|50=QUOTE|52=20260109-06:36:53.704|56=demo.pepperstone.5179095|55=10028|268=2|269=0|270=90972.31|269=1|270=90987.31|10=142|
2026-01-09 08:36:54.234 INFO [APP][IN] qual=QUOTE 8=FIX.4.4|9=138|35=W|34=321|49=cServer|50=QUOTE|52=20260109-06:36:54.105|56=demo.pepperstone.5179095|55=10028|268=2|269=0|270=90973.46|269=1|270=90988.46|10=153|
2026-01-09 08:36:54.640 INFO [APP][IN] qual=QUOTE 8=FIX.4.4|9=138|35=W|34=322|49=cServer|50=QUOTE|52=20260109-06:36:54.510|56=demo.pepperstone.5179095|55=10028|268=2|269=0|270=90973.73|269=1|270=90988.73|10=154|
2026-01-09 08:36:55.041 INFO [APP][IN] qual=QUOTE 8=FIX.4.4|9=138|35=W|34=323|49=cServer|50=QUOTE|52=20260109-06:36:54.911|56=demo.pepperstone.5179095|55=10028|268=2|269=0|270=90973.91|269=1|270=90988.91|10=160|
2026-01-09 08:36:55.449 INFO [APP][IN] qual=QUOTE 8=FIX.4.4|9=138|35=W|34=324|49=cServer|50=QUOTE|52=20260109-06:36:55.319|56=demo.pepperstone.5179095|55=10028|268=2|269=0|270=90973.61|269=1|270=90988.61|10=158|
2026-01-09 08:36:55.891 INFO [APP][IN] qual=QUOTE 8=FIX.4.4|9=138|35=W|34=325|49=cServer|50=QUOTE|52=20260109-06:36:55.762|56=demo.pepperstone.5179095|55=10028|268=2|269=0|270=90973.31|269=1|270=90988.31|10=155|
2026-01-09 08:36:56.307 INFO [APP][IN] qual=QUOTE 8=FIX.4.4|9=138|35=W|34=326|49=cServer|50=QUOTE|52=20260109-06:36:56.177|56=demo.pepperstone.5179095|55=10028|268=2|269=0|270=90972.89|269=1|270=90987.89|10=181|
2026-01-09 08:36:56.743 INFO [APP][IN] qual=QUOTE 8=FIX.4.4|9=138|35=W|34=327|49=cServer|50=QUOTE|52=20260109-06:36:56.614|56=demo.pepperstone.5179095|55=10028|268=2|269=0|270=90972.59|269=1|270=90987.59|10=172|
2026-01-09 08:36:57.196 INFO [APP][IN] qual=QUOTE 8=FIX.4.4|9=138|35=W|34=328|49=cServer|50=QUOTE|52=20260109-06:36:57.066|56=demo.pepperstone.5179095|55=10028|268=2|269=0|270=90972.56|269=1|270=90987.56|10=169|
2026-01-09 08:36:57.644 INFO [APP][IN] qual=QUOTE 8=FIX.4.4|9=138|35=W|34=329|49=cServer|50=QUOTE|52=20260109-06:36:57.515|56=demo.pepperstone.5179095|55=10028|268=2|269=0|270=90972.39|269=1|270=90987.39|10=171|
2026-01-09 08:36:58.048 INFO [APP][IN] qual=QUOTE 8=FIX.4.4|9=138|35=W|34=330|49=cServer|50=QUOTE|52=20260109-06:36:57.918|56=demo.pepperstone.5179095|55=10028|268=2|269=0|270=90974.41|269=1|270=90989.41|10=160|
2026-01-09 08:36:58.497 INFO [APP][IN] qual=QUOTE 8=FIX.4.4|9=138|35=W|34=331|49=cServer|50=QUOTE|52=20260109-06:36:58.368|56=demo.pepperstone.5179095|55=10028|268=2|269=0|270=90967.61|269=1|270=90982.61|10=160|
2026-01-09 08:36:58.902 INFO [APP][IN] qual=QUOTE 8=FIX.4.4|9=138|35=W|34=332|49=cServer|50=QUOTE|52=20260109-06:36:58.772|56=demo.pepperstone.5179095|55=10028|268=2|269=0|270=90967.41|269=1|270=90982.41|10=156|
2026-01-09 08:36:59.358 INFO [APP][IN] qual=QUOTE 8=FIX.4.4|9=138|35=W|34=333|49=cServer|50=QUOTE|52=20260109-06:36:59.229|56=demo.pepperstone.5179095|55=10028|268=2|269=0|270=90968.57|269=1|270=90983.57|10=171|
2026-01-09 08:36:59.763 INFO [APP][IN] qual=QUOTE 8=FIX.4.4|9=138|35=W|34=334|49=cServer|50=QUOTE|52=20260109-06:36:59.634|56=demo.pepperstone.5179095|55=10028|268=2|269=0|270=90966.57|269=1|270=90981.57|10=168|
2026-01-09 08:37:00.211 INFO [APP][IN] qual=QUOTE 8=FIX.4.4|9=138|35=W|34=335|49=cServer|50=QUOTE|52=20260109-06:37:00.081|56=demo.pepperstone.5179095|55=10028|268=2|269=0|270=90966.68|269=1|270=90981.68|10=156|
2026-01-09 08:37:00.212 INFO [BAR M1] 2026-01-09T06:36:00+00:00 O=90981.18 H=90994.93 L=90974.07 C=90974.07 | desired=0 cur=0
2026-01-09 08:37:00.616 INFO [APP][IN] qual=QUOTE 8=FIX.4.4|9=138|35=W|34=336|49=cServer|50=QUOTE|52=20260109-06:37:00.486|56=demo.pepperstone.5179095|55=10028|268=2|269=0|270=90967.64|269=1|270=90982.64|10=160|
2026-01-09 08:37:01.068 INFO [APP][IN] qual=QUOTE 8=FIX.4.4|9=138|35=W|34=337|49=cServer|50=QUOTE|52=20260109-06:37:00.939|56=demo.pepperstone.5179095|55=10028|268=2|269=0|270=90966.56|269=1|270=90981.56|10=164|
2026-01-09 08:37:01.469 INFO [APP][IN] qual=QUOTE 8=FIX.4.4|9=138|35=W|34=338|49=cServer|50=QUOTE|52=20260109-06:37:01.339|56=demo.pepperstone.5179095|55=10028|268=2|269=0|270=90963.52|269=1|270=90978.52|10=155|
2026-01-09 08:37:01.870 INFO [APP][IN] qual=QUOTE 8=FIX.4.4|9=138|35=W|34=339|49=cServer|50=QUOTE|52=20260109-06:37:01.741|56=demo.pepperstone.5179095|55=10028|268=2|269=0|270=90963.62|269=1|270=90978.62|10=155|
2026-01-09 08:37:02.271 INFO [APP][IN] qual=QUOTE 8=FIX.4.4|9=138|35=W|34=340|49=cServer|50=QUOTE|52=20260109-06:37:02.142|56=demo.pepperstone.5179095|55=10028|268=2|269=0|270=90957.59|269=1|270=90972.59|10=152|
2026-01-09 08:37:02.724 INFO [APP][IN] qual=QUOTE 8=FIX.4.4|9=138|35=W|34=341|49=cServer|50=QUOTE|52=20260109-06:37:02.594|56=demo.pepperstone.5179095|55=10028|268=2|269=0|270=90959.17|269=1|270=90974.17|10=156|
2026-01-09 08:37:03.174 INFO [APP][IN] qual=QUOTE 8=FIX.4.4|9=138|35=W|34=342|49=cServer|50=QUOTE|52=20260109-06:37:03.045|56=demo.pepperstone.5179095|55=10028|268=2|269=0|270=90959.39|269=1|270=90974.39|10=157|
2026-01-09 08:37:03.576 INFO [APP][IN] qual=QUOTE 8=FIX.4.4|9=138|35=W|34=343|49=cServer|50=QUOTE|52=20260109-06:37:03.446|56=demo.pepperstone.5179095|55=10028|268=2|269=0|270=90958.76|269=1|270=90973.76|10=163|
2026-01-09 08:37:04.027 INFO [APP][IN] qual=QUOTE 8=FIX.4.4|9=138|35=W|34=344|49=cServer|50=QUOTE|52=20260109-06:37:03.897|56=demo.pepperstone.5179095|55=10028|268=2|269=0|270=90958.17|269=1|270=90973.17|10=164|
2026-01-09 08:37:04.478 INFO [APP][IN] qual=QUOTE 8=FIX.4.4|9=138|35=W|34=345|49=cServer|50=QUOTE|52=20260109-06:37:04.348|56=demo.pepperstone.5179095|55=10028|268=2|269=0|270=90966.49|269=1|270=90981.49|10=165|
2026-01-09 08:37:04.935 INFO [APP][IN] qual=QUOTE 8=FIX.4.4|9=138|35=W|34=346|49=cServer|50=QUOTE|52=20260109-06:37:04.805|56=demo.pepperstone.5179095|55=10028|268=2|269=0|270=90965.94|269=1|270=90980.94|10=162|
2026-01-09 08:37:05.381 INFO [APP][IN] qual=QUOTE 8=FIX.4.4|9=138|35=W|34=347|49=cServer|50=QUOTE|52=20260109-06:37:05.251|56=demo.pepperstone.5179095|55=10028|268=2|269=0|270=90965.66|269=1|270=90980.66|10=157|
2026-01-09 08:37:05.832 INFO [APP][IN] qual=QUOTE 8=FIX.4.4|9=138|35=W|34=348|49=cServer|50=QUOTE|52=20260109-06:37:05.703|56=demo.pepperstone.5179095|55=10028|268=2|269=0|270=90965.79|269=1|270=90980.79|10=168|
2026-01-09 08:37:06.283 INFO [APP][IN] qual=QUOTE 8=FIX.4.4|9=138|35=W|34=349|49=cServer|50=QUOTE|52=20260109-06:37:06.153|56=demo.pepperstone.5179095|55=10028|268=2|269=0|270=90965.81|269=1|270=90980.81|10=155|
2026-01-09 08:37:06.734 INFO [APP][IN] qual=QUOTE 8=FIX.4.4|9=138|35=W|34=350|49=cServer|50=QUOTE|52=20260109-06:37:06.605|56=demo.pepperstone.5179095|55=10028|268=2|269=0|270=90965.78|269=1|270=90980.78|10=161|
2026-01-09 08:37:07.184 INFO [APP][IN] qual=QUOTE 8=FIX.4.4|9=138|35=W|34=351|49=cServer|50=QUOTE|52=20260109-06:37:07.055|56=demo.pepperstone.5179095|55=10028|268=2|269=0|270=90965.73|269=1|270=90980.73|10=152|
2026-01-09 08:37:07.587 INFO [APP][IN] qual=QUOTE 8=FIX.4.4|9=138|35=W|34=352|49=cServer|50=QUOTE|52=20260109-06:37:07.458|56=demo.pepperstone.5179095|55=10028|268=2|269=0|270=90965.59|269=1|270=90980.59|10=168|
2026-01-09 08:37:07.991 INFO [APP][IN] qual=QUOTE 8=FIX.4.4|9=138|35=W|34=353|49=cServer|50=QUOTE|52=20260109-06:37:07.861|56=demo.pepperstone.5179095|55=10028|268=2|269=0|270=90965.78|269=1|270=90980.78|10=169|
2026-01-09 08:37:08.439 INFO [APP][IN] qual=QUOTE 8=FIX.4.4|9=138|35=W|34=354|49=cServer|50=QUOTE|52=20260109-06:37:08.310|56=demo.pepperstone.5179095|55=10028|268=2|269=0|270=90966.31|269=1|270=90981.31|10=140|
2026-01-09 08:37:08.603 INFO [ADMIN][IN] qual=TRADE 8=FIX.4.4|9=83|35=0|34=7|49=cServer|50=TRADE|52=20260109-06:37:08.473|56=demo.pepperstone.5179095|10=254|
2026-01-09 08:37:08.840 INFO [APP][IN] qual=QUOTE 8=FIX.4.4|9=138|35=W|34=355|49=cServer|50=QUOTE|52=20260109-06:37:08.710|56=demo.pepperstone.5179095|55=10028|268=2|269=0|270=90965.52|269=1|270=90980.52|10=149|
2026-01-09 08:37:09.261 INFO [APP][IN] qual=QUOTE 8=FIX.4.4|9=138|35=W|34=356|49=cServer|50=QUOTE|52=20260109-06:37:09.131|56=demo.pepperstone.5179095|55=10028|268=2|269=0|270=90964.43|269=1|270=90979.43|10=155|
2026-01-09 08:37:09.661 INFO [APP][IN] qual=QUOTE 8=FIX.4.4|9=138|35=W|34=357|49=cServer|50=QUOTE|52=20260109-06:37:09.532|56=demo.pepperstone.5179095|55=10028|268=2|269=0|270=90964.88|269=1|270=90979.88|10=179|
2026-01-09 08:37:10.063 INFO [APP][IN] qual=QUOTE 8=FIX.4.4|9=138|35=W|34=358|49=cServer|50=QUOTE|52=20260109-06:37:09.933|56=demo.pepperstone.5179095|55=10028|268=2|269=0|270=90962.43|269=1|270=90977.43|10=163|
2026-01-09 08:37:10.464 INFO [APP][IN] qual=QUOTE 8=FIX.4.4|9=138|35=W|34=359|49=cServer|50=QUOTE|52=20260109-06:37:10.335|56=demo.pepperstone.5179095|55=10028|268=2|269=0|270=90963.07|269=1|270=90978.07|10=154|
2026-01-09 08:37:10.867 INFO [APP][IN] qual=QUOTE 8=FIX.4.4|9=138|35=W|34=360|49=cServer|50=QUOTE|52=20260109-06:37:10.738|56=demo.pepperstone.5179095|55=10028|268=2|269=0|270=90961.57|269=1|270=90976.57|10=159|
2026-01-09 08:37:11.313 INFO [APP][IN] qual=QUOTE 8=FIX.4.4|9=138|35=W|34=361|49=cServer|50=QUOTE|52=20260109-06:37:11.184|56=demo.pepperstone.5179095|55=10028|268=2|269=0|270=90961.59|269=1|270=90976.59|10=160|
2026-01-09 08:37:11.719 INFO [APP][IN] qual=QUOTE 8=FIX.4.4|9=138|35=W|34=362|49=cServer|50=QUOTE|52=20260109-06:37:11.589|56=demo.pepperstone.5179095|55=10028|268=2|269=0|270=90961.96|269=1|270=90976.96|10=172|
2026-01-09 08:37:12.120 INFO [APP][IN] qual=QUOTE 8=FIX.4.4|9=138|35=W|34=363|49=cServer|50=QUOTE|52=20260109-06:37:11.990|56=demo.pepperstone.5179095|55=10028|268=2|269=0|270=90962.24|269=1|270=90977.24|10=153|
2026-01-09 08:37:12.520 INFO [APP][IN] qual=QUOTE 8=FIX.4.4|9=136|35=W|34=364|49=cServer|50=QUOTE|52=20260109-06:37:12.391|56=demo.pepperstone.5179095|55=10028|268=2|269=0|270=90962.1|269=1|270=90977.1|10=042|
2026-01-09 08:37:12.932 INFO [APP][IN] qual=QUOTE 8=FIX.4.4|9=138|35=W|34=365|49=cServer|50=QUOTE|52=20260109-06:37:12.802|56=demo.pepperstone.5179095|55=10028|268=2|269=0|270=90962.08|269=1|270=90977.08|10=152|
2026-01-09 08:37:13.376 INFO [APP][IN] qual=QUOTE 8=FIX.4.4|9=138|35=W|34=366|49=cServer|50=QUOTE|52=20260109-06:37:13.247|56=demo.pepperstone.5179095|55=10028|268=2|269=0|270=90962.38|269=1|270=90977.38|10=163|
2026-01-09 08:37:13.780 INFO [APP][IN] qual=QUOTE 8=FIX.4.4|9=138|35=W|34=367|49=cServer|50=QUOTE|52=20260109-06:37:13.649|56=demo.pepperstone.5179095|55=10028|268=2|269=0|270=90962.27|269=1|270=90977.27|10=166|
2026-01-09 08:37:14.180 INFO [APP][IN] qual=QUOTE 8=FIX.4.4|9=138|35=W|34=368|49=cServer|50=QUOTE|52=20260109-06:37:14.050|56=demo.pepperstone.5179095|55=10028|268=2|269=0|270=90962.72|269=1|270=90977.72|10=154|
2026-01-09 08:37:14.581 INFO [APP][IN] qual=QUOTE 8=FIX.4.4|9=138|35=W|34=369|49=cServer|50=QUOTE|52=20260109-06:37:14.451|56=demo.pepperstone.5179095|55=10028|268=2|269=0|270=90962.65|269=1|270=90977.65|10=164|
2026-01-09 08:37:15.032 INFO [APP][IN] qual=QUOTE 8=FIX.4.4|9=138|35=W|34=370|49=cServer|50=QUOTE|52=20260109-06:37:14.903|56=demo.pepperstone.5179095|55=10028|268=2|269=0|270=90962.85|269=1|270=90977.85|10=162|
2026-01-09 08:37:15.484 INFO [APP][IN] qual=QUOTE 8=FIX.4.4|9=138|35=W|34=371|49=cServer|50=QUOTE|52=20260109-06:37:15.355|56=demo.pepperstone.5179095|55=10028|268=2|269=0|270=90962.97|269=1|270=90977.97|10=171|
2026-01-09 08:37:15.888 INFO [APP][IN] qual=QUOTE 8=FIX.4.4|9=138|35=W|34=372|49=cServer|50=QUOTE|52=20260109-06:37:15.758|56=demo.pepperstone.5179095|55=10028|268=2|269=0|270=90969.65|269=1|270=90984.65|10=174|
2026-01-09 08:37:16.292 INFO [APP][IN] qual=QUOTE 8=FIX.4.4|9=138|35=W|34=373|49=cServer|50=QUOTE|52=20260109-06:37:16.162|56=demo.pepperstone.5179095|55=10028|268=2|269=0|270=90970.03|269=1|270=90985.03|10=142|
2026-01-09 08:37:16.721 INFO [APP][IN] qual=QUOTE 8=FIX.4.4|9=136|35=W|34=374|49=cServer|50=QUOTE|52=20260109-06:37:16.592|56=demo.pepperstone.5179095|55=10028|268=2|269=0|270=90967.3|269=1|270=90982.3|10=055|
2026-01-09 08:37:17.134 INFO [APP][IN] qual=QUOTE 8=FIX.4.4|9=138|35=W|34=375|49=cServer|50=QUOTE|52=20260109-06:37:17.005|56=demo.pepperstone.5179095|55=10028|268=2|269=0|270=90967.52|269=1|270=90982.52|10=152|
2026-01-09 08:37:17.540 INFO [APP][IN] qual=QUOTE 8=FIX.4.4|9=138|35=W|34=376|49=cServer|50=QUOTE|52=20260109-06:37:17.411|56=demo.pepperstone.5179095|55=10028|268=2|269=0|270=90967.41|269=1|270=90982.41|10=150|
2026-01-09 08:37:17.992 INFO [APP][IN] qual=QUOTE 8=FIX.4.4|9=138|35=W|34=377|49=cServer|50=QUOTE|52=20260109-06:37:17.862|56=demo.pepperstone.5179095|55=10028|268=2|269=0|270=90967.56|269=1|270=90982.56|10=173|
2026-01-09 08:37:18.441 INFO [APP][IN] qual=QUOTE 8=FIX.4.4|9=138|35=W|34=378|49=cServer|50=QUOTE|52=20260109-06:37:18.312|56=demo.pepperstone.5179095|55=10028|268=2|269=0|270=90966.81|269=1|270=90981.81|10=159|
2026-01-09 08:37:18.892 INFO [APP][IN] qual=QUOTE 8=FIX.4.4|9=138|35=W|34=379|49=cServer|50=QUOTE|52=20260109-06:37:18.762|56=demo.pepperstone.5179095|55=10028|268=2|269=0|270=90967.46|269=1|270=90982.46|10=173|
2026-01-09 08:37:19.312 INFO [APP][IN] qual=QUOTE 8=FIX.4.4|9=138|35=W|34=380|49=cServer|50=QUOTE|52=20260109-06:37:19.183|56=demo.pepperstone.5179095|55=10028|268=2|269=0|270=90969.57|269=1|270=90984.57|10=171|
2026-01-09 08:37:19.715 INFO [APP][IN] qual=QUOTE 8=FIX.4.4|9=138|35=W|34=381|49=cServer|50=QUOTE|52=20260109-06:37:19.585|56=demo.pepperstone.5179095|55=10028|268=2|269=0|270=90968.95|269=1|270=90983.95|10=180|
2026-01-09 08:37:20.164 INFO [APP][IN] qual=QUOTE 8=FIX.4.4|9=138|35=W|34=382|49=cServer|50=QUOTE|52=20260109-06:37:20.034|56=demo.pepperstone.5179095|55=10028|268=2|269=0|270=90966.96|269=1|270=90981.96|10=160|
2026-01-09 08:37:20.567 INFO [APP][IN] qual=QUOTE 8=FIX.4.4|9=138|35=W|34=383|49=cServer|50=QUOTE|52=20260109-06:37:20.437|56=demo.pepperstone.5179095|55=10028|268=2|269=0|270=90965.89|269=1|270=90980.89|10=170|
2026-01-09 08:37:20.990 INFO [APP][IN] qual=QUOTE 8=FIX.4.4|9=138|35=W|34=384|49=cServer|50=QUOTE|52=20260109-06:37:20.860|56=demo.pepperstone.5179095|55=10028|268=2|269=0|270=90965.79|269=1|270=90980.79|10=169|
2026-01-09 08:37:21.417 INFO [APP][IN] qual=QUOTE 8=FIX.4.4|9=138|35=W|34=385|49=cServer|50=QUOTE|52=20260109-06:37:21.288|56=demo.pepperstone.5179095|55=10028|268=2|269=0|270=90965.69|269=1|270=90980.69|10=173|
2026-01-09 08:37:21.820 INFO [APP][IN] qual=QUOTE 8=FIX.4.4|9=138|35=W|34=386|49=cServer|50=QUOTE|52=20260109-06:37:21.691|56=demo.pepperstone.5179095|55=10028|268=2|269=0|270=90965.73|269=1|270=90980.73|10=162|
2026-01-09 08:37:22.221 INFO [APP][IN] qual=QUOTE 8=FIX.4.4|9=138|35=W|34=387|49=cServer|50=QUOTE|52=20260109-06:37:22.092|56=demo.pepperstone.5179095|55=10028|268=2|269=0|270=90965.46|269=1|270=90980.46|10=159|
2026-01-09 08:37:22.622 INFO [APP][IN] qual=QUOTE 8=FIX.4.4|9=136|35=W|34=388|49=cServer|50=QUOTE|52=20260109-06:37:22.493|56=demo.pepperstone.5179095|55=10028|268=2|269=0|270=90965.2|269=1|270=90980.2|10=051|
2026-01-09 08:37:23.026 INFO [APP][IN] qual=QUOTE 8=FIX.4.4|9=138|35=W|34=389|49=cServer|50=QUOTE|52=20260109-06:37:22.897|56=demo.pepperstone.5179095|55=10028|268=2|269=0|270=90965.18|269=1|270=90980.18|10=172|
2026-01-09 08:37:23.426 INFO [APP][IN] qual=QUOTE 8=FIX.4.4|9=138|35=W|34=390|49=cServer|50=QUOTE|52=20260109-06:37:23.296|56=demo.pepperstone.5179095|55=10028|268=2|269=0|270=90965.33|269=1|270=90980.33|10=152|
2026-01-09 08:37:23.879 INFO [APP][IN] qual=QUOTE 8=FIX.4.4|9=138|35=W|34=391|49=cServer|50=QUOTE|52=20260109-06:37:23.749|56=demo.pepperstone.5179095|55=10028|268=2|269=0|270=90965.58|269=1|270=90980.58|10=170|
2026-01-09 08:37:24.280 INFO [APP][IN] qual=QUOTE 8=FIX.4.4|9=138|35=W|34=392|49=cServer|50=QUOTE|52=20260109-06:37:24.151|56=demo.pepperstone.5179095|55=10028|268=2|269=0|270=90976.38|269=1|270=90991.38|10=159|
2026-01-09 08:37:24.681 INFO [APP][IN] qual=QUOTE 8=FIX.4.4|9=138|35=W|34=393|49=cServer|50=QUOTE|52=20260109-06:37:24.551|56=demo.pepperstone.5179095|55=10028|268=2|269=0|270=90976.75|269=1|270=90991.75|10=166|
2026-01-09 08:37:25.083 INFO [APP][IN] qual=QUOTE 8=FIX.4.4|9=138|35=W|34=394|49=cServer|50=QUOTE|52=20260109-06:37:24.953|56=demo.pepperstone.5179095|55=10028|268=2|269=0|270=90977.21|269=1|270=90992.21|10=157|
2026-01-09 08:37:25.484 INFO [APP][IN] qual=QUOTE 8=FIX.4.4|9=138|35=W|34=395|49=cServer|50=QUOTE|52=20260109-06:37:25.355|56=demo.pepperstone.5179095|55=10028|268=2|269=0|270=90976.42|269=1|270=90991.42|10=159|
2026-01-09 08:37:25.887 INFO [APP][IN] qual=QUOTE 8=FIX.4.4|9=138|35=W|34=396|49=cServer|50=QUOTE|52=20260109-06:37:25.757|56=demo.pepperstone.5179095|55=10028|268=2|269=0|270=90975.46|269=1|270=90990.46|10=172|
2026-01-09 08:37:26.338 INFO [APP][IN] qual=QUOTE 8=FIX.4.4|9=138|35=W|34=397|49=cServer|50=QUOTE|52=20260109-06:37:26.208|56=demo.pepperstone.5179095|55=10028|268=2|269=0|270=90969.59|269=1|270=90984.59|10=179|
2026-01-09 08:37:26.782 INFO [APP][IN] qual=QUOTE 8=FIX.4.4|9=138|35=W|34=398|49=cServer|50=QUOTE|52=20260109-06:37:26.653|56=demo.pepperstone.5179095|55=10028|268=2|269=0|270=90969.66|269=1|270=90984.66|10=180|
2026-01-09 08:37:27.185 INFO [APP][IN] qual=QUOTE 8=FIX.4.4|9=138|35=W|34=399|49=cServer|50=QUOTE|52=20260109-06:37:27.056|56=demo.pepperstone.5179095|55=10028|268=2|269=0|270=90968.01|269=1|270=90983.01|10=155|
2026-01-09 08:37:27.591 INFO [APP][IN] qual=QUOTE 8=FIX.4.4|9=138|35=W|34=400|49=cServer|50=QUOTE|52=20260109-06:37:27.462|56=demo.pepperstone.5179095|55=10028|268=2|269=0|270=90969.78|269=1|270=90984.78|10=169|
2026-01-09 08:37:28.042 INFO [APP][IN] qual=QUOTE 8=FIX.4.4|9=136|35=W|34=401|49=cServer|50=QUOTE|52=20260109-06:37:27.913|56=demo.pepperstone.5179095|55=10028|268=2|269=0|270=90969.4|269=1|270=90984.4|10=051|
2026-01-09 08:37:28.444 INFO [APP][IN] qual=QUOTE 8=FIX.4.4|9=138|35=W|34=402|49=cServer|50=QUOTE|52=20260109-06:37:28.314|56=demo.pepperstone.5179095|55=10028|268=2|269=0|270=90969.22|269=1|270=90984.22|10=146|
2026-01-09 08:37:28.898 INFO [APP][IN] qual=QUOTE 8=FIX.4.4|9=138|35=W|34=403|49=cServer|50=QUOTE|52=20260109-06:37:28.768|56=demo.pepperstone.5179095|55=10028|268=2|269=0|270=90974.62|269=1|270=90989.62|10=169|
2026-01-09 08:37:29.301 INFO [APP][IN] qual=QUOTE 8=FIX.4.4|9=138|35=W|34=404|49=cServer|50=QUOTE|52=20260109-06:37:29.171|56=demo.pepperstone.5179095|55=10028|268=2|269=0|270=90971.17|269=1|270=90986.17|10=153|
2026-01-09 08:37:29.713 INFO [APP][IN] qual=QUOTE 8=FIX.4.4|9=138|35=W|34=405|49=cServer|50=QUOTE|52=20260109-06:37:29.583|56=demo.pepperstone.5179095|55=10028|268=2|269=0|270=90971.41|269=1|270=90986.41|10=155|
2026-01-09 08:37:30.157 INFO [APP][IN] qual=QUOTE 8=FIX.4.4|9=138|35=W|34=406|49=cServer|50=QUOTE|52=20260109-06:37:30.028|56=demo.pepperstone.5179095|55=10028|268=2|269=0|270=90971.45|269=1|270=90986.45|10=150|
2026-01-09 08:37:30.560 INFO [APP][IN] qual=QUOTE 8=FIX.4.4|9=136|35=W|34=407|49=cServer|50=QUOTE|52=20260109-06:37:30.431|56=demo.pepperstone.5179095|55=10028|268=2|269=0|270=90971.3|269=1|270=90986.3|10=039|
2026-01-09 08:37:30.967 INFO [APP][IN] qual=QUOTE 8=FIX.4.4|9=138|35=W|34=408|49=cServer|50=QUOTE|52=20260109-06:37:30.838|56=demo.pepperstone.5179095|55=10028|268=2|269=0|270=90971.29|269=1|270=90986.29|10=165|
2026-01-09 08:37:31.368 INFO [APP][IN] qual=QUOTE 8=FIX.4.4|9=138|35=W|34=409|49=cServer|50=QUOTE|52=20260109-06:37:31.238|56=demo.pepperstone.5179095|55=10028|268=2|269=0|270=90971.23|269=1|270=90986.23|10=149|
2026-01-09 08:37:31.770 INFO [APP][IN] qual=QUOTE 8=FIX.4.4|9=138|35=W|34=410|49=cServer|50=QUOTE|52=20260109-06:37:31.640|56=demo.pepperstone.5179095|55=10028|268=2|269=0|270=90970.39|269=1|270=90985.39|10=150|
2026-01-09 08:37:32.219 INFO [APP][IN] qual=QUOTE 8=FIX.4.4|9=138|35=W|34=411|49=cServer|50=QUOTE|52=20260109-06:37:32.089|56=demo.pepperstone.5179095|55=10028|268=2|269=0|270=90969.74|269=1|270=90984.74|10=164|
2026-01-09 08:37:32.620 INFO [APP][IN] qual=QUOTE 8=FIX.4.4|9=138|35=W|34=412|49=cServer|50=QUOTE|52=20260109-06:37:32.491|56=demo.pepperstone.5179095|55=10028|268=2|269=0|270=90969.85|269=1|270=90984.85|10=166|
2026-01-09 08:37:33.025 INFO [APP][IN] qual=QUOTE 8=FIX.4.4|9=138|35=W|34=413|49=cServer|50=QUOTE|52=20260109-06:37:32.895|56=demo.pepperstone.5179095|55=10028|268=2|269=0|270=90969.78|269=1|270=90984.78|10=179|
2026-01-09 08:37:33.474 INFO [APP][IN] qual=QUOTE 8=FIX.4.4|9=138|35=W|34=414|49=cServer|50=QUOTE|52=20260109-06:37:33.344|56=demo.pepperstone.5179095|55=10028|268=2|269=0|270=90969.68|269=1|270=90984.68|10=168|
2026-01-09 08:37:33.877 INFO [APP][IN] qual=QUOTE 8=FIX.4.4|9=138|35=W|34=415|49=cServer|50=QUOTE|52=20260109-06:37:33.747|56=demo.pepperstone.5179095|55=10028|268=2|269=0|270=90970.37|269=1|270=90985.37|10=161|
2026-01-09 08:37:34.328 INFO [APP][IN] qual=QUOTE 8=FIX.4.4|9=138|35=W|34=416|49=cServer|50=QUOTE|52=20260109-06:37:34.198|56=demo.pepperstone.5179095|55=10028|268=2|269=0|270=90970.29|269=1|270=90985.29|10=165|
2026-01-09 08:37:34.779 INFO [APP][IN] qual=QUOTE 8=FIX.4.4|9=138|35=W|34=417|49=cServer|50=QUOTE|52=20260109-06:37:34.650|56=demo.pepperstone.5179095|55=10028|268=2|269=0|270=90970.21|269=1|270=90985.21|10=143|
2026-01-09 08:37:35.181 INFO [APP][IN] qual=QUOTE 8=FIX.4.4|9=138|35=W|34=418|49=cServer|50=QUOTE|52=20260109-06:37:35.051|56=demo.pepperstone.5179095|55=10028|268=2|269=0|270=90970.15|269=1|270=90985.15|10=146|
2026-01-09 08:37:35.581 INFO [APP][IN] qual=QUOTE 8=FIX.4.4|9=138|35=W|34=419|49=cServer|50=QUOTE|52=20260109-06:37:35.452|56=demo.pepperstone.5179095|55=10028|268=2|269=0|270=90969.88|269=1|270=90984.88|10=179|
2026-01-09 08:37:36.080 INFO [APP][IN] qual=QUOTE 8=FIX.4.4|9=138|35=W|34=420|49=cServer|50=QUOTE|52=20260109-06:37:35.950|56=demo.pepperstone.5179095|55=10028|268=2|269=0|270=90970.27|269=1|270=90985.27|10=153|
2026-01-09 08:37:36.483 INFO [APP][IN] qual=QUOTE 8=FIX.4.4|9=138|35=W|34=421|49=cServer|50=QUOTE|52=20260109-06:37:36.354|56=demo.pepperstone.5179095|55=10028|268=2|269=0|270=90970.02|269=1|270=90985.02|10=139|
2026-01-09 08:37:36.926 INFO [APP][IN] qual=QUOTE 8=FIX.4.4|9=138|35=W|34=422|49=cServer|50=QUOTE|52=20260109-06:37:36.797|56=demo.pepperstone.5179095|55=10028|268=2|269=0|270=90969.98|269=1|270=90984.98|10=188|
2026-01-09 08:37:37.333 INFO [APP][IN] qual=QUOTE 8=FIX.4.4|9=138|35=W|34=423|49=cServer|50=QUOTE|52=20260109-06:37:37.204|56=demo.pepperstone.5179095|55=10028|268=2|269=0|270=90970.55|269=1|270=90985.55|10=152|
2026-01-09 08:37:37.738 INFO [APP][IN] qual=QUOTE 8=FIX.4.4|9=136|35=W|34=424|49=cServer|50=QUOTE|52=20260109-06:37:37.609|56=demo.pepperstone.5179095|55=10028|268=2|269=0|270=90970.3|269=1|270=90985.3|10=050|
2026-01-09 08:37:38.185 INFO [APP][IN] qual=QUOTE 8=FIX.4.4|9=138|35=W|34=425|49=cServer|50=QUOTE|52=20260109-06:37:38.055|56=demo.pepperstone.5179095|55=10028|268=2|269=0|270=90970.41|269=1|270=90985.41|10=149|
2026-01-09 08:37:38.589 INFO [APP][IN] qual=QUOTE 8=FIX.4.4|9=138|35=W|34=426|49=cServer|50=QUOTE|52=20260109-06:37:38.460|56=demo.pepperstone.5179095|55=10028|268=2|269=0|270=90970.29|269=1|270=90985.29|10=162|
2026-01-09 08:37:38.603 INFO [ADMIN][IN] qual=TRADE 8=FIX.4.4|9=83|35=0|34=8|49=cServer|50=TRADE|52=20260109-06:37:38.473|56=demo.pepperstone.5179095|10=002|
2026-01-09 08:37:39.027 INFO [APP][IN] qual=QUOTE 8=FIX.4.4|9=138|35=W|34=427|49=cServer|50=QUOTE|52=20260109-06:37:38.898|56=demo.pepperstone.5179095|55=10028|268=2|269=0|270=90969.43|269=1|270=90984.43|10=177|
2026-01-09 08:37:39.461 INFO [APP][IN] qual=QUOTE 8=FIX.4.4|9=138|35=W|34=428|49=cServer|50=QUOTE|52=20260109-06:37:39.332|56=demo.pepperstone.5179095|55=10028|268=2|269=0|270=90967.91|269=1|270=90982.91|10=164|
2026-01-09 08:37:39.863 INFO [APP][IN] qual=QUOTE 8=FIX.4.4|9=138|35=W|34=429|49=cServer|50=QUOTE|52=20260109-06:37:39.733|56=demo.pepperstone.5179095|55=10028|268=2|269=0|270=90967.62|269=1|270=90982.62|10=166|
2026-01-09 08:37:40.266 INFO [APP][IN] qual=QUOTE 8=FIX.4.4|9=138|35=W|34=430|49=cServer|50=QUOTE|52=20260109-06:37:40.136|56=demo.pepperstone.5179095|55=10028|268=2|269=0|270=90967.65|269=1|270=90982.65|10=153|
2026-01-09 08:37:40.718 INFO [APP][IN] qual=QUOTE 8=FIX.4.4|9=138|35=W|34=431|49=cServer|50=QUOTE|52=20260109-06:37:40.589|56=demo.pepperstone.5179095|55=10028|268=2|269=0|270=90967.44|269=1|270=90982.44|10=160|
2026-01-09 08:37:41.170 INFO [APP][IN] qual=QUOTE 8=FIX.4.4|9=138|35=W|34=432|49=cServer|50=QUOTE|52=20260109-06:37:41.040|56=demo.pepperstone.5179095|55=10028|268=2|269=0|270=90966.71|269=1|270=90981.71|10=142|
2026-01-09 08:37:41.571 INFO [APP][IN] qual=QUOTE 8=FIX.4.4|9=138|35=W|34=433|49=cServer|50=QUOTE|52=20260109-06:37:41.441|56=demo.pepperstone.5179095|55=10028|268=2|269=0|270=90967.19|269=1|270=90982.19|10=154|
2026-01-09 08:37:42.017 INFO [APP][IN] qual=QUOTE 8=FIX.4.4|9=138|35=W|34=434|49=cServer|50=QUOTE|52=20260109-06:37:41.887|56=demo.pepperstone.5179095|55=10028|268=2|269=0|270=90966.85|269=1|270=90981.85|10=173|
2026-01-09 08:37:42.422 INFO [APP][IN] qual=QUOTE 8=FIX.4.4|9=138|35=W|34=435|49=cServer|50=QUOTE|52=20260109-06:37:42.292|56=demo.pepperstone.5179095|55=10028|268=2|269=0|270=90967.66|269=1|270=90982.66|10=165|
2026-01-09 08:37:42.860 INFO [APP][IN] qual=QUOTE 8=FIX.4.4|9=138|35=W|34=436|49=cServer|50=QUOTE|52=20260109-06:37:42.730|56=demo.pepperstone.5179095|55=10028|268=2|269=0|270=90967.38|269=1|270=90982.38|10=161|
2026-01-09 08:37:43.272 INFO [APP][IN] qual=QUOTE 8=FIX.4.4|9=138|35=W|34=437|49=cServer|50=QUOTE|52=20260109-06:37:43.143|56=demo.pepperstone.5179095|55=10028|268=2|269=0|270=90967.65|269=1|270=90982.65|10=161|
2026-01-09 08:37:43.673 INFO [APP][IN] qual=QUOTE 8=FIX.4.4|9=136|35=W|34=438|49=cServer|50=QUOTE|52=20260109-06:37:43.544|56=demo.pepperstone.5179095|55=10028|268=2|269=0|270=90967.7|269=1|270=90982.7|10=061|
2026-01-09 08:37:44.077 INFO [APP][IN] qual=QUOTE 8=FIX.4.4|9=138|35=W|34=439|49=cServer|50=QUOTE|52=20260109-06:37:43.946|56=demo.pepperstone.5179095|55=10028|268=2|269=0|270=90967.23|269=1|270=90982.23|10=162|
2026-01-09 08:37:44.479 INFO [APP][IN] qual=QUOTE 8=FIX.4.4|9=138|35=W|34=440|49=cServer|50=QUOTE|52=20260109-06:37:44.350|56=demo.pepperstone.5179095|55=10028|268=2|269=0|270=90966.03|269=1|270=90981.03|10=138|
2026-01-09 08:37:44.881 INFO [APP][IN] qual=QUOTE 8=FIX.4.4|9=138|35=W|34=441|49=cServer|50=QUOTE|52=20260109-06:37:44.752|56=demo.pepperstone.5179095|55=10028|268=2|269=0|270=90966.13|269=1|270=90981.13|10=147|
2026-01-09 08:37:45.319 INFO [APP][IN] qual=QUOTE 8=FIX.4.4|9=138|35=W|34=442|49=cServer|50=QUOTE|52=20260109-06:37:45.190|56=demo.pepperstone.5179095|55=10028|268=2|269=0|270=90966.17|269=1|270=90981.17|10=153|
2026-01-09 08:37:45.728 INFO [APP][IN] qual=QUOTE 8=FIX.4.4|9=138|35=W|34=443|49=cServer|50=QUOTE|52=20260109-06:37:45.599|56=demo.pepperstone.5179095|55=10028|268=2|269=0|270=90965.89|269=1|270=90980.89|10=183|
2026-01-09 08:37:46.130 INFO [APP][IN] qual=QUOTE 8=FIX.4.4|9=138|35=W|34=444|49=cServer|50=QUOTE|52=20260109-06:37:46.001|56=demo.pepperstone.5179095|55=10028|268=2|269=0|270=90966.24|269=1|270=90981.24|10=143|
2026-01-09 08:37:46.535 INFO [APP][IN] qual=QUOTE 8=FIX.4.4|9=138|35=W|34=445|49=cServer|50=QUOTE|52=20260109-06:37:46.406|56=demo.pepperstone.5179095|55=10028|268=2|269=0|270=90965.72|269=1|270=90980.72|10=157|
2026-01-09 08:37:46.948 INFO [APP][IN] qual=QUOTE 8=FIX.4.4|9=138|35=W|34=446|49=cServer|50=QUOTE|52=20260109-06:37:46.818|56=demo.pepperstone.5179095|55=10028|268=2|269=0|270=90968.33|269=1|270=90983.33|10=165|
2026-01-09 08:37:47.389 INFO [APP][IN] qual=QUOTE 8=FIX.4.4|9=138|35=W|34=447|49=cServer|50=QUOTE|52=20260109-06:37:47.259|56=demo.pepperstone.5179095|55=10028|268=2|269=0|270=90969.36|269=1|270=90984.36|10=174|
2026-01-09 08:37:47.839 INFO [APP][IN] qual=QUOTE 8=FIX.4.4|9=138|35=W|34=448|49=cServer|50=QUOTE|52=20260109-06:37:47.709|56=demo.pepperstone.5179095|55=10028|268=2|269=0|270=90968.87|269=1|270=90983.87|10=185|
2026-01-09 08:37:48.239 INFO [APP][IN] qual=QUOTE 8=FIX.4.4|9=138|35=W|34=449|49=cServer|50=QUOTE|52=20260109-06:37:48.110|56=demo.pepperstone.5179095|55=10028|268=2|269=0|270=90968.77|269=1|270=90983.77|10=171|
2026-01-09 08:37:48.694 INFO [APP][IN] qual=QUOTE 8=FIX.4.4|9=138|35=W|34=450|49=cServer|50=QUOTE|52=20260109-06:37:48.565|56=demo.pepperstone.5179095|55=10028|268=2|269=0|270=90968.84|269=1|270=90983.84|10=173|
2026-01-09 08:37:49.095 INFO [APP][IN] qual=QUOTE 8=FIX.4.4|9=138|35=W|34=451|49=cServer|50=QUOTE|52=20260109-06:37:48.965|56=demo.pepperstone.5179095|55=10028|268=2|269=0|270=90969.42|269=1|270=90984.42|10=168|
2026-01-09 08:37:49.556 INFO [APP][IN] qual=QUOTE 8=FIX.4.4|9=138|35=W|34=452|49=cServer|50=QUOTE|52=20260109-06:37:49.427|56=demo.pepperstone.5179095|55=10028|268=2|269=0|270=90969.46|269=1|270=90984.46|10=171|
2026-01-09 08:37:49.963 INFO [APP][IN] qual=QUOTE 8=FIX.4.4|9=138|35=W|34=453|49=cServer|50=QUOTE|52=20260109-06:37:49.833|56=demo.pepperstone.5179095|55=10028|268=2|269=0|270=90970.22|269=1|270=90985.22|10=154|
2026-01-09 08:37:50.411 INFO [APP][IN] qual=QUOTE 8=FIX.4.4|9=138|35=W|34=454|49=cServer|50=QUOTE|52=20260109-06:37:50.281|56=demo.pepperstone.5179095|55=10028|268=2|269=0|270=90970.07|269=1|270=90985.07|10=150|
2026-01-09 08:37:50.813 INFO [APP][IN] qual=QUOTE 8=FIX.4.4|9=138|35=W|34=455|49=cServer|50=QUOTE|52=20260109-06:37:50.683|56=demo.pepperstone.5179095|55=10028|268=2|269=0|270=90970.34|269=1|270=90985.34|10=157|
