nohup: ignoring input
2026-01-09 08:21:34.311 INFO Python: 3.12.3 (main, Nov  6 2025, 13:44:16) [GCC 13.3.0]
2026-01-09 08:21:34.311 INFO Executable: /home/renierdejager/Documents/.venv/bin/python3
2026-01-09 08:21:34.311 INFO CWD: /home/renierdejager/Documents/ctrader_trading_bot
2026-01-09 08:21:34.311 INFO PY_LOGDIR: /home/renierdejager/Documents/ctrader_trading_bot/ctrader_py_logs
2026-01-09 08:21:34.311 INFO Logfile: ctrader_py_logs/ctrader_20260109_062134.log
2026-01-09 08:21:34.311 INFO symbol_id=10028 qty=0.1 timeframe=M1
2026-01-09 08:21:34.311 INFO cfg_quote=config/ctrader_quote.cfg
2026-01-09 08:21:34.311 INFO cfg_trade=config/ctrader_trade.cfg
2026-01-09 08:21:34.311 INFO CTRADER_USERNAME=5179095
2026-01-09 08:21:34.332 INFO [CREATE] FIX.4.4:demo.pepperstone.5179095->cServer:QUOTE qual=QUOTE
2026-01-09 08:21:34.353 INFO [CREATE] FIX.4.4:demo.pepperstone.5179095->cServer:TRADE qual=TRADE
2026-01-09 08:21:34.538 INFO [ADMIN][LOGON OUT] qual=TRADE 8=FIX.4.4|9=127|35=A|34=22|49=demo.pepperstone.5179095|52=20260109-06:21:34.537|56=cServer|57=TRADE|98=0|108=30|141=Y|553=5179095|554=REDACTEDJ@3ger69|10=070|
2026-01-09 08:21:34.538 INFO [ADMIN][LOGON OUT] qual=QUOTE 8=FIX.4.4|9=127|35=A|34=21|49=demo.pepperstone.5179095|52=20260109-06:21:34.537|56=cServer|57=QUOTE|98=0|108=30|141=Y|553=5179095|554=REDACTEDJ@3ger69|10=099|
2026-01-09 08:21:35.101 INFO [ADMIN][IN] qual=QUOTE 8=FIX.4.4|9=101|35=A|34=1|49=cServer|50=QUOTE|52=20260109-06:21:34.971|56=demo.pepperstone.5179095|98=0|108=30|141=Y|10=143|
2026-01-09 08:21:35.101 INFO [ADMIN][IN] qual=TRADE 8=FIX.4.4|9=101|35=A|34=1|49=cServer|50=TRADE|52=20260109-06:21:34.972|56=demo.pepperstone.5179095|98=0|108=30|141=Y|10=114|
2026-01-09 08:21:35.101 INFO [LOGON] FIX.4.4:demo.pepperstone.5179095->cServer:QUOTE qual=QUOTE
2026-01-09 08:21:35.102 INFO [LOGON] FIX.4.4:demo.pepperstone.5179095->cServer:TRADE qual=TRADE
2026-01-09 08:21:35.102 INFO [APP][OUT] qual=TRADE 8=FIX.4.4|9=94|35=AN|34=2|49=demo.pepperstone.5179095|52=20260109-06:21:35.102|56=cServer|710=pos_b738e99120|10=042|
2026-01-09 08:21:35.102 INFO [TRADE] Requested positions
2026-01-09 08:21:35.102 INFO [APP][OUT] qual=QUOTE 8=FIX.4.4|9=141|35=V|34=2|49=demo.pepperstone.5179095|52=20260109-06:21:35.102|56=cServer|146=1|55=10028|262=BTCUSD_SPOT|263=1|264=1|265=1|267=2|269=0|269=1|10=099|
2026-01-09 08:21:35.102 INFO [QUOTE] Subscribed spot for symbolId=10028
2026-01-09 08:21:35.362 INFO [APP][IN] qual=QUOTE 8=FIX.4.4|9=134|35=W|34=2|49=cServer|50=QUOTE|52=20260109-06:21:35.232|56=demo.pepperstone.5179095|55=10028|268=2|269=0|270=90915.2|269=1|270=90930.2|10=170|
2026-01-09 08:21:35.684 INFO [APP][IN] qual=QUOTE 8=FIX.4.4|9=136|35=W|34=3|49=cServer|50=QUOTE|52=20260109-06:21:35.554|56=demo.pepperstone.5179095|55=10028|268=2|269=0|270=90915.15|269=1|270=90930.15|10=028|
2026-01-09 08:21:36.132 INFO [APP][IN] qual=QUOTE 8=FIX.4.4|9=136|35=W|34=4|49=cServer|50=QUOTE|52=20260109-06:21:36.003|56=demo.pepperstone.5179095|55=10028|268=2|269=0|270=90915.04|269=1|270=90930.04|10=015|
2026-01-09 08:21:36.547 INFO [APP][IN] qual=QUOTE 8=FIX.4.4|9=136|35=W|34=5|49=cServer|50=QUOTE|52=20260109-06:21:36.417|56=demo.pepperstone.5179095|55=10028|268=2|269=0|270=90914.97|269=1|270=90929.97|10=056|
2026-01-09 08:21:36.986 INFO [APP][IN] qual=QUOTE 8=FIX.4.4|9=136|35=W|34=6|49=cServer|50=QUOTE|52=20260109-06:21:36.856|56=demo.pepperstone.5179095|55=10028|268=2|269=0|270=90914.78|269=1|270=90929.78|10=062|
2026-01-09 08:21:37.390 INFO [APP][IN] qual=QUOTE 8=FIX.4.4|9=136|35=W|34=7|49=cServer|50=QUOTE|52=20260109-06:21:37.260|56=demo.pepperstone.5179095|55=10028|268=2|269=0|270=90914.76|269=1|270=90929.76|10=049|
2026-01-09 08:21:37.808 INFO [APP][IN] qual=QUOTE 8=FIX.4.4|9=136|35=W|34=8|49=cServer|50=QUOTE|52=20260109-06:21:37.679|56=demo.pepperstone.5179095|55=10028|268=2|269=0|270=90915.04|269=1|270=90930.04|10=039|
2026-01-09 08:21:38.236 INFO [APP][IN] qual=QUOTE 8=FIX.4.4|9=136|35=W|34=9|49=cServer|50=QUOTE|52=20260109-06:21:38.107|56=demo.pepperstone.5179095|55=10028|268=2|269=0|270=90914.48|269=1|270=90929.48|10=050|
2026-01-09 08:21:39.048 INFO [APP][IN] qual=QUOTE 8=FIX.4.4|9=137|35=W|34=10|49=cServer|50=QUOTE|52=20260109-06:21:38.919|56=demo.pepperstone.5179095|55=10028|268=2|269=0|270=90914.57|269=1|270=90929.57|10=102|
2026-01-09 08:21:39.477 INFO [APP][IN] qual=QUOTE 8=FIX.4.4|9=137|35=W|34=11|49=cServer|50=QUOTE|52=20260109-06:21:39.347|56=demo.pepperstone.5179095|55=10028|268=2|269=0|270=90913.85|269=1|270=90928.85|10=099|
2026-01-09 08:21:39.905 INFO [APP][IN] qual=QUOTE 8=FIX.4.4|9=135|35=W|34=12|49=cServer|50=QUOTE|52=20260109-06:21:39.776|56=demo.pepperstone.5179095|55=10028|268=2|269=0|270=90914.7|269=1|270=90929.7|10=254|
2026-01-09 08:21:40.313 INFO [APP][IN] qual=QUOTE 8=FIX.4.4|9=137|35=W|34=13|49=cServer|50=QUOTE|52=20260109-06:21:40.184|56=demo.pepperstone.5179095|55=10028|268=2|269=0|270=90914.69|269=1|270=90929.69|10=098|
2026-01-09 08:21:40.764 INFO [APP][IN] qual=QUOTE 8=FIX.4.4|9=137|35=W|34=14|49=cServer|50=QUOTE|52=20260109-06:21:40.635|56=demo.pepperstone.5179095|55=10028|268=2|269=0|270=90914.34|269=1|270=90929.34|10=084|
2026-01-09 08:21:41.168 INFO [APP][IN] qual=QUOTE 8=FIX.4.4|9=137|35=W|34=15|49=cServer|50=QUOTE|52=20260109-06:21:41.038|56=demo.pepperstone.5179095|55=10028|268=2|269=0|270=90905.82|269=1|270=90920.82|10=080|
2026-01-09 08:21:41.580 INFO [APP][IN] qual=QUOTE 8=FIX.4.4|9=137|35=W|34=16|49=cServer|50=QUOTE|52=20260109-06:21:41.449|56=demo.pepperstone.5179095|55=10028|268=2|269=0|270=90913.95|269=1|270=90928.95|10=102|
2026-01-09 08:21:42.019 INFO [APP][IN] qual=QUOTE 8=FIX.4.4|9=135|35=W|34=17|49=cServer|50=QUOTE|52=20260109-06:21:41.889|56=demo.pepperstone.5179095|55=10028|268=2|269=0|270=90912.9|269=1|270=90927.9|10=001|
2026-01-09 08:21:42.470 INFO [APP][IN] qual=QUOTE 8=FIX.4.4|9=137|35=W|34=18|49=cServer|50=QUOTE|52=20260109-06:21:42.340|56=demo.pepperstone.5179095|55=10028|268=2|269=0|270=90906.56|269=1|270=90921.56|10=084|
2026-01-09 08:21:42.871 INFO [APP][IN] qual=QUOTE 8=FIX.4.4|9=137|35=W|34=19|49=cServer|50=QUOTE|52=20260109-06:21:42.742|56=demo.pepperstone.5179095|55=10028|268=2|269=0|270=90912.78|269=1|270=90927.78|10=102|
2026-01-09 08:21:43.271 INFO [APP][IN] qual=QUOTE 8=FIX.4.4|9=137|35=W|34=20|49=cServer|50=QUOTE|52=20260109-06:21:43.141|56=demo.pepperstone.5179095|55=10028|268=2|269=0|270=90912.48|269=1|270=90927.48|10=082|
2026-01-09 08:21:43.675 INFO [APP][IN] qual=QUOTE 8=FIX.4.4|9=135|35=W|34=21|49=cServer|50=QUOTE|52=20260109-06:21:43.545|56=demo.pepperstone.5179095|55=10028|268=2|269=0|270=90912.5|269=1|270=90927.5|10=235|
2026-01-09 08:21:44.124 INFO [APP][IN] qual=QUOTE 8=FIX.4.4|9=137|35=W|34=22|49=cServer|50=QUOTE|52=20260109-06:21:43.995|56=demo.pepperstone.5179095|55=10028|268=2|269=0|270=90911.93|269=1|270=90926.93|10=099|
2026-01-09 08:21:44.532 INFO [APP][IN] qual=QUOTE 8=FIX.4.4|9=137|35=W|34=23|49=cServer|50=QUOTE|52=20260109-06:21:44.403|56=demo.pepperstone.5179095|55=10028|268=2|269=0|270=90911.99|269=1|270=90926.99|10=097|
2026-01-09 08:21:44.978 INFO [APP][IN] qual=QUOTE 8=FIX.4.4|9=137|35=W|34=24|49=cServer|50=QUOTE|52=20260109-06:21:44.849|56=demo.pepperstone.5179095|55=10028|268=2|269=0|270=90913.59|269=1|270=90928.59|10=108|
2026-01-09 08:21:45.386 INFO [APP][IN] qual=QUOTE 8=FIX.4.4|9=135|35=W|34=25|49=cServer|50=QUOTE|52=20260109-06:21:45.256|56=demo.pepperstone.5179095|55=10028|268=2|269=0|270=90914.2|269=1|270=90929.2|10=238|
2026-01-09 08:21:45.824 INFO [APP][IN] qual=QUOTE 8=FIX.4.4|9=137|35=W|34=26|49=cServer|50=QUOTE|52=20260109-06:21:45.695|56=demo.pepperstone.5179095|55=10028|268=2|269=0|270=90911.38|269=1|270=90926.38|10=100|
2026-01-09 08:21:46.225 INFO [APP][IN] qual=QUOTE 8=FIX.4.4|9=137|35=W|34=27|49=cServer|50=QUOTE|52=20260109-06:21:46.095|56=demo.pepperstone.5179095|55=10028|268=2|269=0|270=90904.77|269=1|270=90919.77|10=106|
2026-01-09 08:21:46.626 INFO [APP][IN] qual=QUOTE 8=FIX.4.4|9=137|35=W|34=28|49=cServer|50=QUOTE|52=20260109-06:21:46.496|56=demo.pepperstone.5179095|55=10028|268=2|269=0|270=90912.33|269=1|270=90927.33|10=094|
2026-01-09 08:21:47.035 INFO [APP][IN] qual=QUOTE 8=FIX.4.4|9=137|35=W|34=29|49=cServer|50=QUOTE|52=20260109-06:21:46.905|56=demo.pepperstone.5179095|55=10028|268=2|269=0|270=90911.12|269=1|270=90926.12|10=082|
2026-01-09 08:21:47.477 INFO [APP][IN] qual=QUOTE 8=FIX.4.4|9=137|35=W|34=30|49=cServer|50=QUOTE|52=20260109-06:21:47.347|56=demo.pepperstone.5179095|55=10028|268=2|269=0|270=90904.76|269=1|270=90919.76|10=099|
2026-01-09 08:21:47.889 INFO [APP][IN] qual=QUOTE 8=FIX.4.4|9=137|35=W|34=31|49=cServer|50=QUOTE|52=20260109-06:21:47.759|56=demo.pepperstone.5179095|55=10028|268=2|269=0|270=90908.72|269=1|270=90923.72|10=098|
2026-01-09 08:21:48.339 INFO [APP][IN] qual=QUOTE 8=FIX.4.4|9=137|35=W|34=32|49=cServer|50=QUOTE|52=20260109-06:21:48.210|56=demo.pepperstone.5179095|55=10028|268=2|269=0|270=90908.45|269=1|270=90923.45|10=082|
2026-01-09 08:21:48.751 INFO [APP][IN] qual=QUOTE 8=FIX.4.4|9=137|35=W|34=33|49=cServer|50=QUOTE|52=20260109-06:21:48.622|56=demo.pepperstone.5179095|55=10028|268=2|269=0|270=90908.24|269=1|270=90923.24|10=084|
2026-01-09 08:21:49.163 INFO [APP][IN] qual=QUOTE 8=FIX.4.4|9=137|35=W|34=34|49=cServer|50=QUOTE|52=20260109-06:21:49.033|56=demo.pepperstone.5179095|55=10028|268=2|269=0|270=90908.59|269=1|270=90923.59|10=098|
2026-01-09 08:21:49.611 INFO [APP][IN] qual=QUOTE 8=FIX.4.4|9=137|35=W|34=35|49=cServer|50=QUOTE|52=20260109-06:21:49.481|56=demo.pepperstone.5179095|55=10028|268=2|269=0|270=90907.63|269=1|270=90922.63|10=094|
2026-01-09 08:21:50.016 INFO [APP][IN] qual=QUOTE 8=FIX.4.4|9=137|35=W|34=36|49=cServer|50=QUOTE|52=20260109-06:21:49.886|56=demo.pepperstone.5179095|55=10028|268=2|269=0|270=90907.02|269=1|270=90922.02|10=090|
2026-01-09 08:21:50.466 INFO [APP][IN] qual=QUOTE 8=FIX.4.4|9=137|35=W|34=37|49=cServer|50=QUOTE|52=20260109-06:21:50.336|56=demo.pepperstone.5179095|55=10028|268=2|269=0|270=90907.46|269=1|270=90922.46|10=089|
2026-01-09 08:21:50.868 INFO [APP][IN] qual=QUOTE 8=FIX.4.4|9=137|35=W|34=38|49=cServer|50=QUOTE|52=20260109-06:21:50.739|56=demo.pepperstone.5179095|55=10028|268=2|269=0|270=90909.64|269=1|270=90924.64|10=101|
2026-01-09 08:21:51.270 INFO [APP][IN] qual=QUOTE 8=FIX.4.4|9=137|35=W|34=39|49=cServer|50=QUOTE|52=20260109-06:21:51.140|56=demo.pepperstone.5179095|55=10028|268=2|269=0|270=90908.22|269=1|270=90923.22|10=075|
2026-01-09 08:21:51.671 INFO [APP][IN] qual=QUOTE 8=FIX.4.4|9=137|35=W|34=40|49=cServer|50=QUOTE|52=20260109-06:21:51.542|56=demo.pepperstone.5179095|55=10028|268=2|269=0|270=90908.07|269=1|270=90923.07|10=079|
2026-01-09 08:21:52.172 INFO [APP][IN] qual=QUOTE 8=FIX.4.4|9=137|35=W|34=41|49=cServer|50=QUOTE|52=20260109-06:21:52.043|56=demo.pepperstone.5179095|55=10028|268=2|269=0|270=90907.79|269=1|270=90922.79|10=093|
2026-01-09 08:21:52.626 INFO [APP][IN] qual=QUOTE 8=FIX.4.4|9=137|35=W|34=42|49=cServer|50=QUOTE|52=20260109-06:21:52.496|56=demo.pepperstone.5179095|55=10028|268=2|269=0|270=90907.08|269=1|270=90922.08|10=090|
2026-01-09 08:21:53.124 INFO [APP][IN] qual=QUOTE 8=FIX.4.4|9=135|35=W|34=43|49=cServer|50=QUOTE|52=20260109-06:21:52.995|56=demo.pepperstone.5179095|55=10028|268=2|269=0|270=90909.2|269=1|270=90924.2|10=245|
2026-01-09 08:21:53.525 INFO [APP][IN] qual=QUOTE 8=FIX.4.4|9=137|35=W|34=44|49=cServer|50=QUOTE|52=20260109-06:21:53.395|56=demo.pepperstone.5179095|55=10028|268=2|269=0|270=90910.64|269=1|270=90925.64|10=092|
2026-01-09 08:21:53.926 INFO [APP][IN] qual=QUOTE 8=FIX.4.4|9=137|35=W|34=45|49=cServer|50=QUOTE|52=20260109-06:21:53.796|56=demo.pepperstone.5179095|55=10028|268=2|269=0|270=90910.54|269=1|270=90925.54|10=096|
2026-01-09 08:21:54.328 INFO [APP][IN] qual=QUOTE 8=FIX.4.4|9=137|35=W|34=46|49=cServer|50=QUOTE|52=20260109-06:21:54.198|56=demo.pepperstone.5179095|55=10028|268=2|269=0|270=90910.72|269=1|270=90925.72|10=094|
2026-01-09 08:21:54.730 INFO [APP][IN] qual=QUOTE 8=FIX.4.4|9=137|35=W|34=47|49=cServer|50=QUOTE|52=20260109-06:21:54.600|56=demo.pepperstone.5179095|55=10028|268=2|269=0|270=90914.54|269=1|270=90929.54|10=091|
2026-01-09 08:21:55.130 INFO [APP][IN] qual=QUOTE 8=FIX.4.4|9=137|35=W|34=48|49=cServer|50=QUOTE|52=20260109-06:21:55.000|56=demo.pepperstone.5179095|55=10028|268=2|269=0|270=90915.12|269=1|270=90930.12|10=068|
2026-01-09 08:21:55.533 INFO [APP][IN] qual=QUOTE 8=FIX.4.4|9=137|35=W|34=49|49=cServer|50=QUOTE|52=20260109-06:21:55.404|56=demo.pepperstone.5179095|55=10028|268=2|269=0|270=90915.23|269=1|270=90930.23|10=081|
2026-01-09 08:21:55.983 INFO [APP][IN] qual=QUOTE 8=FIX.4.4|9=137|35=W|34=50|49=cServer|50=QUOTE|52=20260109-06:21:55.853|56=demo.pepperstone.5179095|55=10028|268=2|269=0|270=90915.64|269=1|270=90930.64|10=091|
2026-01-09 08:21:56.386 INFO [APP][IN] qual=QUOTE 8=FIX.4.4|9=137|35=W|34=51|49=cServer|50=QUOTE|52=20260109-06:21:56.256|56=demo.pepperstone.5179095|55=10028|268=2|269=0|270=90915.92|269=1|270=90930.92|10=092|
2026-01-09 08:21:56.786 INFO [APP][IN] qual=QUOTE 8=FIX.4.4|9=137|35=W|34=52|49=cServer|50=QUOTE|52=20260109-06:21:56.657|56=demo.pepperstone.5179095|55=10028|268=2|269=0|270=90916.46|269=1|270=90931.46|10=098|
2026-01-09 08:21:57.187 INFO [APP][IN] qual=QUOTE 8=FIX.4.4|9=137|35=W|34=53|49=cServer|50=QUOTE|52=20260109-06:21:57.057|56=demo.pepperstone.5179095|55=10028|268=2|269=0|270=90916.69|269=1|270=90931.69|10=104|
2026-01-09 08:21:57.592 INFO [APP][IN] qual=QUOTE 8=FIX.4.4|9=137|35=W|34=54|49=cServer|50=QUOTE|52=20260109-06:21:57.462|56=demo.pepperstone.5179095|55=10028|268=2|269=0|270=90917.81|269=1|270=90932.81|10=095|
2026-01-09 08:21:58.040 INFO [APP][IN] qual=QUOTE 8=FIX.4.4|9=135|35=W|34=55|49=cServer|50=QUOTE|52=20260109-06:21:57.911|56=demo.pepperstone.5179095|55=10028|268=2|269=0|270=90922.8|269=1|270=90937.8|10=252|
2026-01-09 08:21:58.443 INFO [APP][IN] qual=QUOTE 8=FIX.4.4|9=137|35=W|34=56|49=cServer|50=QUOTE|52=20260109-06:21:58.313|56=demo.pepperstone.5179095|55=10028|268=2|269=0|270=90929.26|269=1|270=90944.26|10=097|
2026-01-09 08:21:58.842 INFO [APP][IN] qual=QUOTE 8=FIX.4.4|9=137|35=W|34=57|49=cServer|50=QUOTE|52=20260109-06:21:58.713|56=demo.pepperstone.5179095|55=10028|268=2|269=0|270=90925.63|269=1|270=90940.63|10=096|
2026-01-09 08:21:59.254 INFO [APP][IN] qual=QUOTE 8=FIX.4.4|9=135|35=W|34=58|49=cServer|50=QUOTE|52=20260109-06:21:59.125|56=demo.pepperstone.5179095|55=10028|268=2|269=0|270=90926.1|269=1|270=90941.1|10=239|
2026-01-09 08:21:59.658 INFO [APP][IN] qual=QUOTE 8=FIX.4.4|9=137|35=W|34=59|49=cServer|50=QUOTE|52=20260109-06:21:59.528|56=demo.pepperstone.5179095|55=10028|268=2|269=0|270=90929.33|269=1|270=90944.33|10=105|
2026-01-09 08:22:00.061 INFO [APP][IN] qual=QUOTE 8=FIX.4.4|9=137|35=W|34=60|49=cServer|50=QUOTE|52=20260109-06:21:59.931|56=demo.pepperstone.5179095|55=10028|268=2|269=0|270=90927.74|269=1|270=90942.74|10=101|
2026-01-09 08:22:00.061 INFO [BAR M1] 2026-01-09T06:21:00+00:00 O=90922.70 H=90936.83 L=90912.26 C=90936.83 | desired=0 cur=0
2026-01-09 08:22:00.515 INFO [APP][IN] qual=QUOTE 8=FIX.4.4|9=137|35=W|34=61|49=cServer|50=QUOTE|52=20260109-06:22:00.385|56=demo.pepperstone.5179095|55=10028|268=2|269=0|270=90928.97|269=1|270=90943.97|10=104|
2026-01-09 08:22:00.916 INFO [APP][IN] qual=QUOTE 8=FIX.4.4|9=137|35=W|34=62|49=cServer|50=QUOTE|52=20260109-06:22:00.786|56=demo.pepperstone.5179095|55=10028|268=2|269=0|270=90928.51|269=1|270=90943.51|10=090|
2026-01-09 08:22:01.318 INFO [APP][IN] qual=QUOTE 8=FIX.4.4|9=137|35=W|34=63|49=cServer|50=QUOTE|52=20260109-06:22:01.188|56=demo.pepperstone.5179095|55=10028|268=2|269=0|270=90928.84|269=1|270=90943.84|10=100|
2026-01-09 08:22:01.721 INFO [APP][IN] qual=QUOTE 8=FIX.4.4|9=137|35=W|34=64|49=cServer|50=QUOTE|52=20260109-06:22:01.591|56=demo.pepperstone.5179095|55=10028|268=2|269=0|270=90926.87|269=1|270=90941.87|10=101|
2026-01-09 08:22:02.121 INFO [APP][IN] qual=QUOTE 8=FIX.4.4|9=137|35=W|34=65|49=cServer|50=QUOTE|52=20260109-06:22:01.992|56=demo.pepperstone.5179095|55=10028|268=2|269=0|270=90927.44|269=1|270=90942.44|10=095|
2026-01-09 08:22:02.572 INFO [APP][IN] qual=QUOTE 8=FIX.4.4|9=137|35=W|34=66|49=cServer|50=QUOTE|52=20260109-06:22:02.443|56=demo.pepperstone.5179095|55=10028|268=2|269=0|270=90927.56|269=1|270=90942.56|10=094|
2026-01-09 08:22:03.025 INFO [APP][IN] qual=QUOTE 8=FIX.4.4|9=137|35=W|34=67|49=cServer|50=QUOTE|52=20260109-06:22:02.896|56=demo.pepperstone.5179095|55=10028|268=2|269=0|270=90913.92|269=1|270=90928.92|10=106|
2026-01-09 08:22:03.430 INFO [APP][IN] qual=QUOTE 8=FIX.4.4|9=137|35=W|34=68|49=cServer|50=QUOTE|52=20260109-06:22:03.300|56=demo.pepperstone.5179095|55=10028|268=2|269=0|270=90913.65|269=1|270=90928.65|10=088|
2026-01-09 08:22:03.875 INFO [APP][IN] qual=QUOTE 8=FIX.4.4|9=137|35=W|34=69|49=cServer|50=QUOTE|52=20260109-06:22:03.745|56=demo.pepperstone.5179095|55=10028|268=2|269=0|270=90913.11|269=1|270=90928.11|10=084|
2026-01-09 08:22:04.275 INFO [APP][IN] qual=QUOTE 8=FIX.4.4|9=137|35=W|34=70|49=cServer|50=QUOTE|52=20260109-06:22:04.146|56=demo.pepperstone.5179095|55=10028|268=2|269=0|270=90918.59|269=1|270=90933.59|10=097|
2026-01-09 08:22:04.678 INFO [APP][IN] qual=QUOTE 8=FIX.4.4|9=137|35=W|34=71|49=cServer|50=QUOTE|52=20260109-06:22:04.548|56=demo.pepperstone.5179095|55=10028|268=2|269=0|270=90920.13|269=1|270=90935.13|10=079|
2026-01-09 08:22:05.118 INFO [APP][IN] qual=QUOTE 8=FIX.4.4|9=137|35=W|34=72|49=cServer|50=QUOTE|52=20260109-06:22:04.988|56=demo.pepperstone.5179095|55=10028|268=2|269=0|270=90925.83|269=1|270=90940.83|10=103|
2026-01-09 08:22:05.531 INFO [APP][IN] qual=QUOTE 8=FIX.4.4|9=137|35=W|34=73|49=cServer|50=QUOTE|52=20260109-06:22:05.402|56=demo.pepperstone.5179095|55=10028|268=2|269=0|270=90926.27|269=1|270=90941.27|10=084|
2026-01-09 08:22:05.627 INFO [ADMIN][IN] qual=TRADE 8=FIX.4.4|9=83|35=0|34=3|49=cServer|50=TRADE|52=20260109-06:22:05.498|56=demo.pepperstone.5179095|10=248|
2026-01-09 08:22:05.981 INFO [APP][IN] qual=QUOTE 8=FIX.4.4|9=137|35=W|34=74|49=cServer|50=QUOTE|52=20260109-06:22:05.852|56=demo.pepperstone.5179095|55=10028|268=2|269=0|270=90919.65|269=1|270=90934.65|10=102|
2026-01-09 08:22:06.383 INFO [APP][IN] qual=QUOTE 8=FIX.4.4|9=137|35=W|34=75|49=cServer|50=QUOTE|52=20260109-06:22:06.253|56=demo.pepperstone.5179095|55=10028|268=2|269=0|270=90925.01|269=1|270=90940.01|10=073|
2026-01-09 08:22:06.839 INFO [APP][IN] qual=QUOTE 8=FIX.4.4|9=135|35=W|34=76|49=cServer|50=QUOTE|52=20260109-06:22:06.709|56=demo.pepperstone.5179095|55=10028|268=2|269=0|270=90924.6|269=1|270=90939.6|10=255|
2026-01-09 08:22:07.285 INFO [APP][IN] qual=QUOTE 8=FIX.4.4|9=137|35=W|34=77|49=cServer|50=QUOTE|52=20260109-06:22:07.156|56=demo.pepperstone.5179095|55=10028|268=2|269=0|270=90925.49|269=1|270=90940.49|10=102|
2026-01-09 08:22:07.688 INFO [APP][IN] qual=QUOTE 8=FIX.4.4|9=137|35=W|34=78|49=cServer|50=QUOTE|52=20260109-06:22:07.558|56=demo.pepperstone.5179095|55=10028|268=2|269=0|270=90921.54|269=1|270=90936.54|10=102|
2026-01-09 08:22:08.088 INFO [APP][IN] qual=QUOTE 8=FIX.4.4|9=137|35=W|34=79|49=cServer|50=QUOTE|52=20260109-06:22:07.959|56=demo.pepperstone.5179095|55=10028|268=2|269=0|270=90921.68|269=1|270=90936.68|10=118|
2026-01-09 08:22:08.490 INFO [APP][IN] qual=QUOTE 8=FIX.4.4|9=137|35=W|34=80|49=cServer|50=QUOTE|52=20260109-06:22:08.360|56=demo.pepperstone.5179095|55=10028|268=2|269=0|270=90920.85|269=1|270=90935.85|10=093|
2026-01-09 08:22:08.890 INFO [APP][IN] qual=QUOTE 8=FIX.4.4|9=137|35=W|34=81|49=cServer|50=QUOTE|52=20260109-06:22:08.761|56=demo.pepperstone.5179095|55=10028|268=2|269=0|270=90921.63|269=1|270=90936.63|10=093|
2026-01-09 08:22:09.313 INFO [APP][IN] qual=QUOTE 8=FIX.4.4|9=137|35=W|34=82|49=cServer|50=QUOTE|52=20260109-06:22:09.184|56=demo.pepperstone.5179095|55=10028|268=2|269=0|270=90922.16|269=1|270=90937.16|10=092|
2026-01-09 08:22:09.764 INFO [APP][IN] qual=QUOTE 8=FIX.4.4|9=137|35=W|34=83|49=cServer|50=QUOTE|52=20260109-06:22:09.634|56=demo.pepperstone.5179095|55=10028|268=2|269=0|270=90922.26|269=1|270=90937.26|10=095|
2026-01-09 08:22:10.167 INFO [APP][IN] qual=QUOTE 8=FIX.4.4|9=137|35=W|34=84|49=cServer|50=QUOTE|52=20260109-06:22:10.037|56=demo.pepperstone.5179095|55=10028|268=2|269=0|270=90922.09|269=1|270=90937.09|10=087|
2026-01-09 08:22:10.619 INFO [APP][IN] qual=QUOTE 8=FIX.4.4|9=137|35=W|34=85|49=cServer|50=QUOTE|52=20260109-06:22:10.489|56=demo.pepperstone.5179095|55=10028|268=2|269=0|270=90922.06|269=1|270=90937.06|10=093|
2026-01-09 08:22:11.064 INFO [APP][IN] qual=QUOTE 8=FIX.4.4|9=137|35=W|34=86|49=cServer|50=QUOTE|52=20260109-06:22:10.934|56=demo.pepperstone.5179095|55=10028|268=2|269=0|270=90922.27|269=1|270=90937.27|10=095|
2026-01-09 08:22:11.521 INFO [APP][IN] qual=QUOTE 8=FIX.4.4|9=137|35=W|34=87|49=cServer|50=QUOTE|52=20260109-06:22:11.391|56=demo.pepperstone.5179095|55=10028|268=2|269=0|270=90922.12|269=1|270=90937.12|10=082|
2026-01-09 08:22:11.922 INFO [APP][IN] qual=QUOTE 8=FIX.4.4|9=137|35=W|34=88|49=cServer|50=QUOTE|52=20260109-06:22:11.793|56=demo.pepperstone.5179095|55=10028|268=2|269=0|270=90917.72|269=1|270=90932.72|10=100|
2026-01-09 08:22:12.328 INFO [APP][IN] qual=QUOTE 8=FIX.4.4|9=137|35=W|34=89|49=cServer|50=QUOTE|52=20260109-06:22:12.198|56=demo.pepperstone.5179095|55=10028|268=2|269=0|270=90918.52|269=1|270=90933.52|10=099|
2026-01-09 08:22:12.777 INFO [APP][IN] qual=QUOTE 8=FIX.4.4|9=137|35=W|34=90|49=cServer|50=QUOTE|52=20260109-06:22:12.647|56=demo.pepperstone.5179095|55=10028|268=2|269=0|270=90918.46|269=1|270=90933.46|10=096|
2026-01-09 08:22:13.229 INFO [APP][IN] qual=QUOTE 8=FIX.4.4|9=135|35=W|34=91|49=cServer|50=QUOTE|52=20260109-06:22:13.100|56=demo.pepperstone.5179095|55=10028|268=2|269=0|270=90918.6|269=1|270=90933.6|10=232|
2026-01-09 08:22:13.681 INFO [APP][IN] qual=QUOTE 8=FIX.4.4|9=137|35=W|34=92|49=cServer|50=QUOTE|52=20260109-06:22:13.551|56=demo.pepperstone.5179095|55=10028|268=2|269=0|270=90917.13|269=1|270=90932.13|10=079|
2026-01-09 08:22:14.117 INFO [APP][IN] qual=QUOTE 8=FIX.4.4|9=137|35=W|34=93|49=cServer|50=QUOTE|52=20260109-06:22:13.988|56=demo.pepperstone.5179095|55=10028|268=2|269=0|270=90917.83|269=1|270=90932.83|10=108|
2026-01-09 08:22:14.527 INFO [APP][IN] qual=QUOTE 8=FIX.4.4|9=137|35=W|34=94|49=cServer|50=QUOTE|52=20260109-06:22:14.397|56=demo.pepperstone.5179095|55=10028|268=2|269=0|270=90917.92|269=1|270=90932.92|10=104|
2026-01-09 08:22:14.942 INFO [APP][IN] qual=QUOTE 8=FIX.4.4|9=137|35=W|34=95|49=cServer|50=QUOTE|52=20260109-06:22:14.812|56=demo.pepperstone.5179095|55=10028|268=2|269=0|270=90916.21|269=1|270=90931.21|10=079|
2026-01-09 08:22:15.378 INFO [APP][IN] qual=QUOTE 8=FIX.4.4|9=137|35=W|34=96|49=cServer|50=QUOTE|52=20260109-06:22:15.249|56=demo.pepperstone.5179095|55=10028|268=2|269=0|270=90917.15|269=1|270=90932.15|10=093|
2026-01-09 08:22:15.796 INFO [APP][IN] qual=QUOTE 8=FIX.4.4|9=137|35=W|34=97|49=cServer|50=QUOTE|52=20260109-06:22:15.666|56=demo.pepperstone.5179095|55=10028|268=2|269=0|270=90917.28|269=1|270=90932.28|10=105|
2026-01-09 08:22:16.237 INFO [APP][IN] qual=QUOTE 8=FIX.4.4|9=137|35=W|34=98|49=cServer|50=QUOTE|52=20260109-06:22:16.108|56=demo.pepperstone.5179095|55=10028|268=2|269=0|270=90917.55|269=1|270=90932.55|10=098|
2026-01-09 08:22:16.640 INFO [APP][IN] qual=QUOTE 8=FIX.4.4|9=137|35=W|34=99|49=cServer|50=QUOTE|52=20260109-06:22:16.511|56=demo.pepperstone.5179095|55=10028|268=2|269=0|270=90917.82|269=1|270=90932.82|10=097|
2026-01-09 08:22:17.090 INFO [APP][IN] qual=QUOTE 8=FIX.4.4|9=138|35=W|34=100|49=cServer|50=QUOTE|52=20260109-06:22:16.961|56=demo.pepperstone.5179095|55=10028|268=2|269=0|270=90917.77|269=1|270=90932.77|10=146|
2026-01-09 08:22:17.493 INFO [APP][IN] qual=QUOTE 8=FIX.4.4|9=138|35=W|34=101|49=cServer|50=QUOTE|52=20260109-06:22:17.363|56=demo.pepperstone.5179095|55=10028|268=2|269=0|270=90918.26|269=1|270=90933.26|10=134|
2026-01-09 08:22:17.893 INFO [APP][IN] qual=QUOTE 8=FIX.4.4|9=138|35=W|34=102|49=cServer|50=QUOTE|52=20260109-06:22:17.763|56=demo.pepperstone.5179095|55=10028|268=2|269=0|270=90918.14|269=1|270=90933.14|10=133|
2026-01-09 08:22:18.295 INFO [APP][IN] qual=QUOTE 8=FIX.4.4|9=136|35=W|34=103|49=cServer|50=QUOTE|52=20260109-06:22:18.165|56=demo.pepperstone.5179095|55=10028|268=2|269=0|270=90918.5|269=1|270=90933.5|10=033|
2026-01-09 08:22:18.744 INFO [APP][IN] qual=QUOTE 8=FIX.4.4|9=138|35=W|34=104|49=cServer|50=QUOTE|52=20260109-06:22:18.615|56=demo.pepperstone.5179095|55=10028|268=2|269=0|270=90919.18|269=1|270=90934.18|10=142|
2026-01-09 08:22:19.158 INFO [APP][IN] qual=QUOTE 8=FIX.4.4|9=138|35=W|34=105|49=cServer|50=QUOTE|52=20260109-06:22:19.029|56=demo.pepperstone.5179095|55=10028|268=2|269=0|270=90918.33|269=1|270=90933.33|10=135|
2026-01-09 08:22:19.560 INFO [APP][IN] qual=QUOTE 8=FIX.4.4|9=138|35=W|34=106|49=cServer|50=QUOTE|52=20260109-06:22:19.431|56=demo.pepperstone.5179095|55=10028|268=2|269=0|270=90919.43|269=1|270=90934.43|10=137|
2026-01-09 08:22:19.963 INFO [APP][IN] qual=QUOTE 8=FIX.4.4|9=138|35=W|34=107|49=cServer|50=QUOTE|52=20260109-06:22:19.833|56=demo.pepperstone.5179095|55=10028|268=2|269=0|270=90919.26|269=1|270=90934.26|10=146|
2026-01-09 08:22:20.412 INFO [APP][IN] qual=QUOTE 8=FIX.4.4|9=138|35=W|34=108|49=cServer|50=QUOTE|52=20260109-06:22:20.283|56=demo.pepperstone.5179095|55=10028|268=2|269=0|270=90919.45|269=1|270=90934.45|10=140|
2026-01-09 08:22:20.814 INFO [APP][IN] qual=QUOTE 8=FIX.4.4|9=138|35=W|34=109|49=cServer|50=QUOTE|52=20260109-06:22:20.685|56=demo.pepperstone.5179095|55=10028|268=2|269=0|270=90920.03|269=1|270=90935.03|10=128|
2026-01-09 08:22:21.267 INFO [APP][IN] qual=QUOTE 8=FIX.4.4|9=136|35=W|34=110|49=cServer|50=QUOTE|52=20260109-06:22:21.137|56=demo.pepperstone.5179095|55=10028|268=2|269=0|270=90919.8|269=1|270=90934.8|10=032|
2026-01-09 08:22:21.669 INFO [APP][IN] qual=QUOTE 8=FIX.4.4|9=138|35=W|34=111|49=cServer|50=QUOTE|52=20260109-06:22:21.540|56=demo.pepperstone.5179095|55=10028|268=2|269=0|270=90919.04|269=1|270=90934.04|10=121|
2026-01-09 08:22:22.118 INFO [APP][IN] qual=QUOTE 8=FIX.4.4|9=138|35=W|34=112|49=cServer|50=QUOTE|52=20260109-06:22:21.989|56=demo.pepperstone.5179095|55=10028|268=2|269=0|270=90919.47|269=1|270=90934.47|10=153|
2026-01-09 08:22:22.521 INFO [APP][IN] qual=QUOTE 8=FIX.4.4|9=138|35=W|34=113|49=cServer|50=QUOTE|52=20260109-06:22:22.391|56=demo.pepperstone.5179095|55=10028|268=2|269=0|270=90919.18|269=1|270=90934.18|10=138|
2026-01-09 08:22:22.922 INFO [APP][IN] qual=QUOTE 8=FIX.4.4|9=136|35=W|34=114|49=cServer|50=QUOTE|52=20260109-06:22:22.792|56=demo.pepperstone.5179095|55=10028|268=2|269=0|270=90919.5|269=1|270=90934.5|10=038|
2026-01-09 08:22:23.374 INFO [APP][IN] qual=QUOTE 8=FIX.4.4|9=138|35=W|34=115|49=cServer|50=QUOTE|52=20260109-06:22:23.245|56=demo.pepperstone.5179095|55=10028|268=2|269=0|270=90919.54|269=1|270=90934.54|10=139|
2026-01-09 08:22:23.776 INFO [APP][IN] qual=QUOTE 8=FIX.4.4|9=138|35=W|34=116|49=cServer|50=QUOTE|52=20260109-06:22:23.647|56=demo.pepperstone.5179095|55=10028|268=2|269=0|270=90920.31|269=1|270=90935.31|10=129|
2026-01-09 08:22:24.176 INFO [APP][IN] qual=QUOTE 8=FIX.4.4|9=138|35=W|34=117|49=cServer|50=QUOTE|52=20260109-06:22:24.047|56=demo.pepperstone.5179095|55=10028|268=2|269=0|270=90919.07|269=1|270=90934.07|10=138|
2026-01-09 08:22:24.580 INFO [APP][IN] qual=QUOTE 8=FIX.4.4|9=138|35=W|34=118|49=cServer|50=QUOTE|52=20260109-06:22:24.450|56=demo.pepperstone.5179095|55=10028|268=2|269=0|270=90918.94|269=1|270=90933.94|10=147|
2026-01-09 08:22:25.027 INFO [APP][IN] qual=QUOTE 8=FIX.4.4|9=138|35=W|34=119|49=cServer|50=QUOTE|52=20260109-06:22:24.897|56=demo.pepperstone.5179095|55=10028|268=2|269=0|270=90924.81|269=1|270=90939.81|10=158|
2026-01-09 08:22:25.429 INFO [APP][IN] qual=QUOTE 8=FIX.4.4|9=138|35=W|34=120|49=cServer|50=QUOTE|52=20260109-06:22:25.299|56=demo.pepperstone.5179095|55=10028|268=2|269=0|270=90920.21|269=1|270=90935.21|10=127|
2026-01-09 08:22:25.830 INFO [APP][IN] qual=QUOTE 8=FIX.4.4|9=138|35=W|34=121|49=cServer|50=QUOTE|52=20260109-06:22:25.700|56=demo.pepperstone.5179095|55=10028|268=2|269=0|270=90920.02|269=1|270=90935.02|10=113|
2026-01-09 08:22:26.230 INFO [APP][IN] qual=QUOTE 8=FIX.4.4|9=136|35=W|34=122|49=cServer|50=QUOTE|52=20260109-06:22:26.101|56=demo.pepperstone.5179095|55=10028|268=2|269=0|270=90919.7|269=1|270=90934.7|10=029|
2026-01-09 08:22:26.632 INFO [APP][IN] qual=QUOTE 8=FIX.4.4|9=138|35=W|34=123|49=cServer|50=QUOTE|52=20260109-06:22:26.503|56=demo.pepperstone.5179095|55=10028|268=2|269=0|270=90920.14|269=1|270=90935.14|10=123|
2026-01-09 08:22:27.035 INFO [APP][IN] qual=QUOTE 8=FIX.4.4|9=138|35=W|34=124|49=cServer|50=QUOTE|52=20260109-06:22:26.905|56=demo.pepperstone.5179095|55=10028|268=2|269=0|270=90919.49|269=1|270=90934.49|10=153|
2026-01-09 08:22:27.486 INFO [APP][IN] qual=QUOTE 8=FIX.4.4|9=138|35=W|34=125|49=cServer|50=QUOTE|52=20260109-06:22:27.356|56=demo.pepperstone.5179095|55=10028|268=2|269=0|270=90919.63|269=1|270=90934.63|10=147|
2026-01-09 08:22:27.886 INFO [APP][IN] qual=QUOTE 8=FIX.4.4|9=138|35=W|34=126|49=cServer|50=QUOTE|52=20260109-06:22:27.757|56=demo.pepperstone.5179095|55=10028|268=2|269=0|270=90919.54|269=1|270=90934.54|10=153|
2026-01-09 08:22:28.287 INFO [APP][IN] qual=QUOTE 8=FIX.4.4|9=138|35=W|34=127|49=cServer|50=QUOTE|52=20260109-06:22:28.157|56=demo.pepperstone.5179095|55=10028|268=2|269=0|270=90919.76|269=1|270=90934.76|10=157|
2026-01-09 08:22:28.688 INFO [APP][IN] qual=QUOTE 8=FIX.4.4|9=138|35=W|34=128|49=cServer|50=QUOTE|52=20260109-06:22:28.559|56=demo.pepperstone.5179095|55=10028|268=2|269=0|270=90919.61|269=1|270=90934.61|10=152|
2026-01-09 08:22:29.112 INFO [APP][IN] qual=QUOTE 8=FIX.4.4|9=136|35=W|34=129|49=cServer|50=QUOTE|52=20260109-06:22:28.983|56=demo.pepperstone.5179095|55=10028|268=2|269=0|270=90919.6|269=1|270=90934.6|10=054|
2026-01-09 08:22:29.514 INFO [APP][IN] qual=QUOTE 8=FIX.4.4|9=138|35=W|34=130|49=cServer|50=QUOTE|52=20260109-06:22:29.385|56=demo.pepperstone.5179095|55=10028|268=2|269=0|270=90919.78|269=1|270=90934.78|10=159|
2026-01-09 08:22:29.964 INFO [APP][IN] qual=QUOTE 8=FIX.4.4|9=138|35=W|34=131|49=cServer|50=QUOTE|52=20260109-06:22:29.834|56=demo.pepperstone.5179095|55=10028|268=2|269=0|270=90919.56|269=1|270=90934.56|10=151|
2026-01-09 08:22:30.365 INFO [APP][IN] qual=QUOTE 8=FIX.4.4|9=138|35=W|34=132|49=cServer|50=QUOTE|52=20260109-06:22:30.235|56=demo.pepperstone.5179095|55=10028|268=2|269=0|270=90919.48|269=1|270=90934.48|10=141|
2026-01-09 08:22:30.771 INFO [APP][IN] qual=QUOTE 8=FIX.4.4|9=138|35=W|34=133|49=cServer|50=QUOTE|52=20260109-06:22:30.641|56=demo.pepperstone.5179095|55=10028|268=2|269=0|270=90925.62|269=1|270=90940.62|10=129|
2026-01-09 08:22:31.265 INFO [APP][IN] qual=QUOTE 8=FIX.4.4|9=138|35=W|34=134|49=cServer|50=QUOTE|52=20260109-06:22:31.136|56=demo.pepperstone.5179095|55=10028|268=2|269=0|270=90931.66|269=1|270=90946.66|10=141|
2026-01-09 08:22:31.671 INFO [APP][IN] qual=QUOTE 8=FIX.4.4|9=138|35=W|34=135|49=cServer|50=QUOTE|52=20260109-06:22:31.541|56=demo.pepperstone.5179095|55=10028|268=2|269=0|270=90930.98|269=1|270=90945.98|10=150|
2026-01-09 08:22:32.123 INFO [APP][IN] qual=QUOTE 8=FIX.4.4|9=138|35=W|34=136|49=cServer|50=QUOTE|52=20260109-06:22:31.994|56=demo.pepperstone.5179095|55=10028|268=2|269=0|270=90929.78|269=1|270=90944.78|10=166|
2026-01-09 08:22:32.575 INFO [APP][IN] qual=QUOTE 8=FIX.4.4|9=138|35=W|34=137|49=cServer|50=QUOTE|52=20260109-06:22:32.445|56=demo.pepperstone.5179095|55=10028|268=2|269=0|270=90929.73|269=1|270=90944.73|10=149|
2026-01-09 08:22:32.976 INFO [APP][IN] qual=QUOTE 8=FIX.4.4|9=138|35=W|34=138|49=cServer|50=QUOTE|52=20260109-06:22:32.846|56=demo.pepperstone.5179095|55=10028|268=2|269=0|270=90929.58|269=1|270=90944.58|10=161|
2026-01-09 08:22:33.406 INFO [APP][IN] qual=QUOTE 8=FIX.4.4|9=138|35=W|34=139|49=cServer|50=QUOTE|52=20260109-06:22:33.277|56=demo.pepperstone.5179095|55=10028|268=2|269=0|270=90929.77|269=1|270=90944.77|10=163|
2026-01-09 08:22:33.829 INFO [APP][IN] qual=QUOTE 8=FIX.4.4|9=138|35=W|34=140|49=cServer|50=QUOTE|52=20260109-06:22:33.699|56=demo.pepperstone.5179095|55=10028|268=2|269=0|270=90930.15|269=1|270=90945.15|10=140|
2026-01-09 08:22:34.280 INFO [APP][IN] qual=QUOTE 8=FIX.4.4|9=138|35=W|34=141|49=cServer|50=QUOTE|52=20260109-06:22:34.150|56=demo.pepperstone.5179095|55=10028|268=2|269=0|270=90929.77|269=1|270=90944.77|10=147|
2026-01-09 08:22:34.681 INFO [APP][IN] qual=QUOTE 8=FIX.4.4|9=138|35=W|34=142|49=cServer|50=QUOTE|52=20260109-06:22:34.552|56=demo.pepperstone.5179095|55=10028|268=2|269=0|270=90929.89|269=1|270=90944.89|10=160|
2026-01-09 08:22:35.133 INFO [APP][IN] qual=QUOTE 8=FIX.4.4|9=138|35=W|34=143|49=cServer|50=QUOTE|52=20260109-06:22:35.004|56=demo.pepperstone.5179095|55=10028|268=2|269=0|270=90930.01|269=1|270=90945.01|10=115|
2026-01-09 08:22:35.578 INFO [APP][IN] qual=QUOTE 8=FIX.4.4|9=138|35=W|34=144|49=cServer|50=QUOTE|52=20260109-06:22:35.448|56=demo.pepperstone.5179095|55=10028|268=2|269=0|270=90929.94|269=1|270=90944.94|10=159|
2026-01-09 08:22:35.819 INFO [ADMIN][IN] qual=TRADE 8=FIX.4.4|9=83|35=0|34=4|49=cServer|50=TRADE|52=20260109-06:22:35.690|56=demo.pepperstone.5179095|10=246|
2026-01-09 08:22:35.985 INFO [APP][IN] qual=QUOTE 8=FIX.4.4|9=138|35=W|34=145|49=cServer|50=QUOTE|52=20260109-06:22:35.856|56=demo.pepperstone.5179095|55=10028|268=2|269=0|270=90929.93|269=1|270=90944.93|10=161|
2026-01-09 08:22:36.434 INFO [APP][IN] qual=QUOTE 8=FIX.4.4|9=136|35=W|34=146|49=cServer|50=QUOTE|52=20260109-06:22:36.305|56=demo.pepperstone.5179095|55=10028|268=2|269=0|270=90929.9|269=1|270=90944.9|10=048|
2026-01-09 08:22:36.838 INFO [APP][IN] qual=QUOTE 8=FIX.4.4|9=138|35=W|34=147|49=cServer|50=QUOTE|52=20260109-06:22:36.709|56=demo.pepperstone.5179095|55=10028|268=2|269=0|270=90930.15|269=1|270=90945.15|10=142|
2026-01-09 08:22:37.286 INFO [APP][IN] qual=QUOTE 8=FIX.4.4|9=138|35=W|34=148|49=cServer|50=QUOTE|52=20260109-06:22:37.157|56=demo.pepperstone.5179095|55=10028|268=2|269=0|270=90929.77|269=1|270=90944.77|10=164|
2026-01-09 08:22:37.691 INFO [APP][IN] qual=QUOTE 8=FIX.4.4|9=138|35=W|34=149|49=cServer|50=QUOTE|52=20260109-06:22:37.562|56=demo.pepperstone.5179095|55=10028|268=2|269=0|270=90929.59|269=1|270=90944.59|10=165|
2026-01-09 08:22:38.140 INFO [APP][IN] qual=QUOTE 8=FIX.4.4|9=138|35=W|34=150|49=cServer|50=QUOTE|52=20260109-06:22:38.011|56=demo.pepperstone.5179095|55=10028|268=2|269=0|270=90924.39|269=1|270=90939.39|10=142|
2026-01-09 08:22:38.550 INFO [APP][IN] qual=QUOTE 8=FIX.4.4|9=138|35=W|34=151|49=cServer|50=QUOTE|52=20260109-06:22:38.421|56=demo.pepperstone.5179095|55=10028|268=2|269=0|270=90921.64|269=1|270=90936.64|10=138|
2026-01-09 08:22:38.998 INFO [APP][IN] qual=QUOTE 8=FIX.4.4|9=138|35=W|34=152|49=cServer|50=QUOTE|52=20260109-06:22:38.869|56=demo.pepperstone.5179095|55=10028|268=2|269=0|270=90920.02|269=1|270=90935.02|10=137|
2026-01-09 08:22:39.411 INFO [APP][IN] qual=QUOTE 8=FIX.4.4|9=138|35=W|34=153|49=cServer|50=QUOTE|52=20260109-06:22:39.282|56=demo.pepperstone.5179095|55=10028|268=2|269=0|270=90920.36|269=1|270=90935.36|10=142|
2026-01-09 08:22:39.865 INFO [APP][IN] qual=QUOTE 8=FIX.4.4|9=138|35=W|34=154|49=cServer|50=QUOTE|52=20260109-06:22:39.736|56=demo.pepperstone.5179095|55=10028|268=2|269=0|270=90921.05|269=1|270=90936.05|10=141|
2026-01-09 08:22:40.268 INFO [APP][IN] qual=QUOTE 8=FIX.4.4|9=138|35=W|34=155|49=cServer|50=QUOTE|52=20260109-06:22:40.138|56=demo.pepperstone.5179095|55=10028|268=2|269=0|270=90921.17|269=1|270=90936.17|10=136|
2026-01-09 08:22:40.711 INFO [APP][IN] qual=QUOTE 8=FIX.4.4|9=138|35=W|34=156|49=cServer|50=QUOTE|52=20260109-06:22:40.581|56=demo.pepperstone.5179095|55=10028|268=2|269=0|270=90921.03|269=1|270=90936.03|10=129|
2026-01-09 08:22:41.115 INFO [APP][IN] qual=QUOTE 8=FIX.4.4|9=138|35=W|34=157|49=cServer|50=QUOTE|52=20260109-06:22:40.986|56=demo.pepperstone.5179095|55=10028|268=2|269=0|270=90921.14|269=1|270=90936.14|10=143|
2026-01-09 08:22:41.567 INFO [APP][IN] qual=QUOTE 8=FIX.4.4|9=138|35=W|34=158|49=cServer|50=QUOTE|52=20260109-06:22:41.438|56=demo.pepperstone.5179095|55=10028|268=2|269=0|270=90926.61|269=1|270=90941.61|10=142|
2026-01-09 08:22:42.018 INFO [APP][IN] qual=QUOTE 8=FIX.4.4|9=138|35=W|34=159|49=cServer|50=QUOTE|52=20260109-06:22:41.889|56=demo.pepperstone.5179095|55=10028|268=2|269=0|270=90922.13|269=1|270=90937.13|10=148|
2026-01-09 08:22:42.421 INFO [APP][IN] qual=QUOTE 8=FIX.4.4|9=136|35=W|34=160|49=cServer|50=QUOTE|52=20260109-06:22:42.291|56=demo.pepperstone.5179095|55=10028|268=2|269=0|270=90927.1|269=1|270=90942.1|10=025|
2026-01-09 08:22:42.821 INFO [APP][IN] qual=QUOTE 8=FIX.4.4|9=138|35=W|34=161|49=cServer|50=QUOTE|52=20260109-06:22:42.692|56=demo.pepperstone.5179095|55=10028|268=2|269=0|270=90927.64|269=1|270=90942.64|10=147|
2026-01-09 08:22:43.222 INFO [APP][IN] qual=QUOTE 8=FIX.4.4|9=138|35=W|34=162|49=cServer|50=QUOTE|52=20260109-06:22:43.092|56=demo.pepperstone.5179095|55=10028|268=2|269=0|270=90927.11|269=1|270=90942.11|10=127|
2026-01-09 08:22:43.625 INFO [APP][IN] qual=QUOTE 8=FIX.4.4|9=138|35=W|34=163|49=cServer|50=QUOTE|52=20260109-06:22:43.496|56=demo.pepperstone.5179095|55=10028|268=2|269=0|270=90928.34|269=1|270=90943.34|10=148|
2026-01-09 08:22:44.033 INFO [APP][IN] qual=QUOTE 8=FIX.4.4|9=138|35=W|34=164|49=cServer|50=QUOTE|52=20260109-06:22:43.904|56=demo.pepperstone.5179095|55=10028|268=2|269=0|270=90928.97|269=1|270=90943.97|10=161|
2026-01-09 08:22:44.478 INFO [APP][IN] qual=QUOTE 8=FIX.4.4|9=138|35=W|34=165|49=cServer|50=QUOTE|52=20260109-06:22:44.349|56=demo.pepperstone.5179095|55=10028|268=2|269=0|270=90928.96|269=1|270=90943.96|10=164|
2026-01-09 08:22:44.929 INFO [APP][IN] qual=QUOTE 8=FIX.4.4|9=138|35=W|34=166|49=cServer|50=QUOTE|52=20260109-06:22:44.800|56=demo.pepperstone.5179095|55=10028|268=2|269=0|270=90929.88|269=1|270=90944.88|10=161|
2026-01-09 08:22:45.337 INFO [APP][IN] qual=QUOTE 8=FIX.4.4|9=138|35=W|34=167|49=cServer|50=QUOTE|52=20260109-06:22:45.208|56=demo.pepperstone.5179095|55=10028|268=2|269=0|270=90929.77|269=1|270=90944.77|10=161|
2026-01-09 08:22:45.771 INFO [APP][IN] qual=QUOTE 8=FIX.4.4|9=138|35=W|34=168|49=cServer|50=QUOTE|52=20260109-06:22:45.641|56=demo.pepperstone.5179095|55=10028|268=2|269=0|270=90929.25|269=1|270=90944.25|10=149|
2026-01-09 08:22:46.189 INFO [APP][IN] qual=QUOTE 8=FIX.4.4|9=138|35=W|34=169|49=cServer|50=QUOTE|52=20260109-06:22:46.059|56=demo.pepperstone.5179095|55=10028|268=2|269=0|270=90929.48|269=1|270=90944.48|10=164|
2026-01-09 08:22:46.591 INFO [APP][IN] qual=QUOTE 8=FIX.4.4|9=138|35=W|34=170|49=cServer|50=QUOTE|52=20260109-06:22:46.462|56=demo.pepperstone.5179095|55=10028|268=2|269=0|270=90928.95|269=1|270=90943.95|10=156|
2026-01-09 08:22:47.033 INFO [APP][IN] qual=QUOTE 8=FIX.4.4|9=138|35=W|34=171|49=cServer|50=QUOTE|52=20260109-06:22:46.904|56=demo.pepperstone.5179095|55=10028|268=2|269=0|270=90929.31|269=1|270=90944.31|10=140|
2026-01-09 08:22:47.437 INFO [APP][IN] qual=QUOTE 8=FIX.4.4|9=138|35=W|34=172|49=cServer|50=QUOTE|52=20260109-06:22:47.308|56=demo.pepperstone.5179095|55=10028|268=2|269=0|270=90930.23|269=1|270=90945.23|10=135|
2026-01-09 08:22:47.838 INFO [APP][IN] qual=QUOTE 8=FIX.4.4|9=138|35=W|34=173|49=cServer|50=QUOTE|52=20260109-06:22:47.709|56=demo.pepperstone.5179095|55=10028|268=2|269=0|270=90929.63|269=1|270=90944.63|10=156|
2026-01-09 08:22:48.289 INFO [APP][IN] qual=QUOTE 8=FIX.4.4|9=138|35=W|34=174|49=cServer|50=QUOTE|52=20260109-06:22:48.159|56=demo.pepperstone.5179095|55=10028|268=2|269=0|270=90934.32|269=1|270=90949.32|10=150|
2026-01-09 08:22:48.689 INFO [APP][IN] qual=QUOTE 8=FIX.4.4|9=138|35=W|34=175|49=cServer|50=QUOTE|52=20260109-06:22:48.560|56=demo.pepperstone.5179095|55=10028|268=2|269=0|270=90936.78|269=1|270=90951.78|10=162|
2026-01-09 08:22:49.091 INFO [APP][IN] qual=QUOTE 8=FIX.4.4|9=138|35=W|34=176|49=cServer|50=QUOTE|52=20260109-06:22:48.961|56=demo.pepperstone.5179095|55=10028|268=2|269=0|270=90936.57|269=1|270=90951.57|10=162|
2026-01-09 08:22:49.513 INFO [APP][IN] qual=QUOTE 8=FIX.4.4|9=136|35=W|34=177|49=cServer|50=QUOTE|52=20260109-06:22:49.383|56=demo.pepperstone.5179095|55=10028|268=2|269=0|270=90938.1|269=1|270=90953.1|10=046|
2026-01-09 08:22:49.914 INFO [APP][IN] qual=QUOTE 8=FIX.4.4|9=138|35=W|34=178|49=cServer|50=QUOTE|52=20260109-06:22:49.785|56=demo.pepperstone.5179095|55=10028|268=2|269=0|270=90938.69|269=1|270=90953.69|10=179|
2026-01-09 08:22:50.354 INFO [APP][IN] qual=QUOTE 8=FIX.4.4|9=136|35=W|34=179|49=cServer|50=QUOTE|52=20260109-06:22:50.224|56=demo.pepperstone.5179095|55=10028|268=2|269=0|270=90938.4|269=1|270=90953.4|10=040|
2026-01-09 08:22:50.761 INFO [APP][IN] qual=QUOTE 8=FIX.4.4|9=138|35=W|34=180|49=cServer|50=QUOTE|52=20260109-06:22:50.632|56=demo.pepperstone.5179095|55=10028|268=2|269=0|270=90938.23|269=1|270=90953.23|10=135|
2026-01-09 08:22:51.171 INFO [APP][IN] qual=QUOTE 8=FIX.4.4|9=136|35=W|34=181|49=cServer|50=QUOTE|52=20260109-06:22:51.042|56=demo.pepperstone.5179095|55=10028|268=2|269=0|270=90938.8|269=1|270=90953.8|10=040|
2026-01-09 08:22:51.574 INFO [APP][IN] qual=QUOTE 8=FIX.4.4|9=138|35=W|34=182|49=cServer|50=QUOTE|52=20260109-06:22:51.445|56=demo.pepperstone.5179095|55=10028|268=2|269=0|270=90939.26|269=1|270=90954.26|10=148|
2026-01-09 08:22:52.020 INFO [APP][IN] qual=QUOTE 8=FIX.4.4|9=136|35=W|34=183|49=cServer|50=QUOTE|52=20260109-06:22:51.891|56=demo.pepperstone.5179095|55=10028|268=2|269=0|270=90938.9|269=1|270=90953.9|10=056|
2026-01-09 08:22:52.434 INFO [APP][IN] qual=QUOTE 8=FIX.4.4|9=138|35=W|34=184|49=cServer|50=QUOTE|52=20260109-06:22:52.305|56=demo.pepperstone.5179095|55=10028|268=2|269=0|270=90940.04|269=1|270=90955.04|10=131|
2026-01-09 08:22:52.843 INFO [APP][IN] qual=QUOTE 8=FIX.4.4|9=138|35=W|34=185|49=cServer|50=QUOTE|52=20260109-06:22:52.713|56=demo.pepperstone.5179095|55=10028|268=2|269=0|270=90945.73|269=1|270=90960.73|10=148|
2026-01-09 08:22:53.270 INFO [APP][IN] qual=QUOTE 8=FIX.4.4|9=138|35=W|34=186|49=cServer|50=QUOTE|52=20260109-06:22:53.141|56=demo.pepperstone.5179095|55=10028|268=2|269=0|270=90946.08|269=1|270=90961.08|10=143|
2026-01-09 08:22:53.671 INFO [APP][IN] qual=QUOTE 8=FIX.4.4|9=138|35=W|34=187|49=cServer|50=QUOTE|52=20260109-06:22:53.542|56=demo.pepperstone.5179095|55=10028|268=2|269=0|270=90946.49|269=1|270=90961.49|10=159|
2026-01-09 08:22:54.073 INFO [APP][IN] qual=QUOTE 8=FIX.4.4|9=138|35=W|34=188|49=cServer|50=QUOTE|52=20260109-06:22:53.944|56=demo.pepperstone.5179095|55=10028|268=2|269=0|270=90946.21|269=1|270=90961.21|10=146|
2026-01-09 08:22:54.478 INFO [APP][IN] qual=QUOTE 8=FIX.4.4|9=138|35=W|34=189|49=cServer|50=QUOTE|52=20260109-06:22:54.349|56=demo.pepperstone.5179095|55=10028|268=2|269=0|270=90940.02|269=1|270=90955.02|10=142|
2026-01-09 08:22:54.926 INFO [APP][IN] qual=QUOTE 8=FIX.4.4|9=138|35=W|34=190|49=cServer|50=QUOTE|52=20260109-06:22:54.797|56=demo.pepperstone.5179095|55=10028|268=2|269=0|270=90940.28|269=1|270=90955.28|10=157|
2026-01-09 08:22:55.329 INFO [APP][IN] qual=QUOTE 8=FIX.4.4|9=138|35=W|34=191|49=cServer|50=QUOTE|52=20260109-06:22:55.200|56=demo.pepperstone.5179095|55=10028|268=2|269=0|270=90940.36|269=1|270=90955.36|10=136|
2026-01-09 08:22:55.731 INFO [APP][IN] qual=QUOTE 8=FIX.4.4|9=138|35=W|34=192|49=cServer|50=QUOTE|52=20260109-06:22:55.602|56=demo.pepperstone.5179095|55=10028|268=2|269=0|270=90940.78|269=1|270=90955.78|10=155|
2026-01-09 08:22:56.133 INFO [APP][IN] qual=QUOTE 8=FIX.4.4|9=138|35=W|34=193|49=cServer|50=QUOTE|52=20260109-06:22:56.004|56=demo.pepperstone.5179095|55=10028|268=2|269=0|270=90939.51|269=1|270=90954.51|10=142|
2026-01-09 08:22:56.581 INFO [APP][IN] qual=QUOTE 8=FIX.4.4|9=138|35=W|34=194|49=cServer|50=QUOTE|52=20260109-06:22:56.452|56=demo.pepperstone.5179095|55=10028|268=2|269=0|270=90940.73|269=1|270=90955.73|10=151|
2026-01-09 08:22:56.984 INFO [APP][IN] qual=QUOTE 8=FIX.4.4|9=138|35=W|34=195|49=cServer|50=QUOTE|52=20260109-06:22:56.854|56=demo.pepperstone.5179095|55=10028|268=2|269=0|270=90940.89|269=1|270=90955.89|10=172|
2026-01-09 08:22:57.385 INFO [APP][IN] qual=QUOTE 8=FIX.4.4|9=138|35=W|34=196|49=cServer|50=QUOTE|52=20260109-06:22:57.255|56=demo.pepperstone.5179095|55=10028|268=2|269=0|270=90939.73|269=1|270=90954.73|10=162|
2026-01-09 08:22:57.786 INFO [APP][IN] qual=QUOTE 8=FIX.4.4|9=138|35=W|34=197|49=cServer|50=QUOTE|52=20260109-06:22:57.657|56=demo.pepperstone.5179095|55=10028|268=2|269=0|270=90940.09|269=1|270=90955.09|10=160|
2026-01-09 08:22:58.188 INFO [APP][IN] qual=QUOTE 8=FIX.4.4|9=138|35=W|34=198|49=cServer|50=QUOTE|52=20260109-06:22:58.058|56=demo.pepperstone.5179095|55=10028|268=2|269=0|270=90946.75|269=1|270=90961.75|10=166|
2026-01-09 08:22:58.590 INFO [APP][IN] qual=QUOTE 8=FIX.4.4|9=138|35=W|34=199|49=cServer|50=QUOTE|52=20260109-06:22:58.461|56=demo.pepperstone.5179095|55=10028|268=2|269=0|270=90947.04|269=1|270=90962.04|10=151|
2026-01-09 08:22:59.006 INFO [APP][IN] qual=QUOTE 8=FIX.4.4|9=138|35=W|34=200|49=cServer|50=QUOTE|52=20260109-06:22:58.876|56=demo.pepperstone.5179095|55=10028|268=2|269=0|270=90947.23|269=1|270=90962.23|10=146|
2026-01-09 08:22:59.411 INFO [APP][IN] qual=QUOTE 8=FIX.4.4|9=138|35=W|34=201|49=cServer|50=QUOTE|52=20260109-06:22:59.281|56=demo.pepperstone.5179095|55=10028|268=2|269=0|270=90947.35|269=1|270=90962.35|10=144|
2026-01-09 08:22:59.814 INFO [APP][IN] qual=QUOTE 8=FIX.4.4|9=138|35=W|34=202|49=cServer|50=QUOTE|52=20260109-06:22:59.684|56=demo.pepperstone.5179095|55=10028|268=2|269=0|270=90950.43|269=1|270=90965.43|10=147|
2026-01-09 08:23:00.219 INFO [APP][IN] qual=QUOTE 8=FIX.4.4|9=138|35=W|34=203|49=cServer|50=QUOTE|52=20260109-06:23:00.090|56=demo.pepperstone.5179095|55=10028|268=2|269=0|270=90950.01|269=1|270=90965.01|10=114|
2026-01-09 08:23:00.220 INFO [BAR M1] 2026-01-09T06:22:00+00:00 O=90935.24 H=90957.93 L=90920.61 C=90957.93 | desired=0 cur=0
2026-01-09 08:23:00.655 INFO [APP][IN] qual=QUOTE 8=FIX.4.4|9=138|35=W|34=204|49=cServer|50=QUOTE|52=20260109-06:23:00.526|56=demo.pepperstone.5179095|55=10028|268=2|269=0|270=90942.04|269=1|270=90957.04|10=127|
2026-01-09 08:23:01.074 INFO [APP][IN] qual=QUOTE 8=FIX.4.4|9=138|35=W|34=205|49=cServer|50=QUOTE|52=20260109-06:23:00.945|56=demo.pepperstone.5179095|55=10028|268=2|269=0|270=90943.72|269=1|270=90958.72|10=145|
2026-01-09 08:23:01.519 INFO [APP][IN] qual=QUOTE 8=FIX.4.4|9=138|35=W|34=206|49=cServer|50=QUOTE|52=20260109-06:23:01.389|56=demo.pepperstone.5179095|55=10028|268=2|269=0|270=90945.35|269=1|270=90960.35|10=142|
2026-01-09 08:23:01.922 INFO [APP][IN] qual=QUOTE 8=FIX.4.4|9=138|35=W|34=207|49=cServer|50=QUOTE|52=20260109-06:23:01.792|56=demo.pepperstone.5179095|55=10028|268=2|269=0|270=90943.53|269=1|270=90958.53|10=146|
2026-01-09 08:23:02.370 INFO [APP][IN] qual=QUOTE 8=FIX.4.4|9=138|35=W|34=208|49=cServer|50=QUOTE|52=20260109-06:23:02.241|56=demo.pepperstone.5179095|55=10028|268=2|269=0|270=90943.13|269=1|270=90958.13|10=129|
2026-01-09 08:23:02.771 INFO [APP][IN] qual=QUOTE 8=FIX.4.4|9=138|35=W|34=209|49=cServer|50=QUOTE|52=20260109-06:23:02.642|56=demo.pepperstone.5179095|55=10028|268=2|269=0|270=90943.21|269=1|270=90958.21|10=133|
2026-01-09 08:23:03.175 INFO [APP][IN] qual=QUOTE 8=FIX.4.4|9=138|35=W|34=210|49=cServer|50=QUOTE|52=20260109-06:23:03.045|56=demo.pepperstone.5179095|55=10028|268=2|269=0|270=90943.25|269=1|270=90958.25|10=131|
2026-01-09 08:23:03.578 INFO [APP][IN] qual=QUOTE 8=FIX.4.4|9=138|35=W|34=211|49=cServer|50=QUOTE|52=20260109-06:23:03.447|56=demo.pepperstone.5179095|55=10028|268=2|269=0|270=90940.93|269=1|270=90955.93|10=142|
2026-01-09 08:23:03.978 INFO [APP][IN] qual=QUOTE 8=FIX.4.4|9=138|35=W|34=212|49=cServer|50=QUOTE|52=20260109-06:23:03.848|56=demo.pepperstone.5179095|55=10028|268=2|269=0|270=90942.17|269=1|270=90957.17|10=144|
2026-01-09 08:23:04.379 INFO [APP][IN] qual=QUOTE 8=FIX.4.4|9=138|35=W|34=213|49=cServer|50=QUOTE|52=20260109-06:23:04.250|56=demo.pepperstone.5179095|55=10028|268=2|269=0|270=90939.73|269=1|270=90954.73|10=140|
2026-01-09 08:23:04.779 INFO [APP][IN] qual=QUOTE 8=FIX.4.4|9=138|35=W|34=214|49=cServer|50=QUOTE|52=20260109-06:23:04.650|56=demo.pepperstone.5179095|55=10028|268=2|269=0|270=90939.94|269=1|270=90954.94|10=151|
2026-01-09 08:23:05.180 INFO [APP][IN] qual=QUOTE 8=FIX.4.4|9=138|35=W|34=215|49=cServer|50=QUOTE|52=20260109-06:23:05.051|56=demo.pepperstone.5179095|55=10028|268=2|269=0|270=90938.98|269=1|270=90953.98|10=154|
2026-01-09 08:23:05.589 INFO [APP][IN] qual=QUOTE 8=FIX.4.4|9=138|35=W|34=216|49=cServer|50=QUOTE|52=20260109-06:23:05.460|56=demo.pepperstone.5179095|55=10028|268=2|269=0|270=90938.21|269=1|270=90953.21|10=131|
2026-01-09 08:23:05.819 INFO [ADMIN][IN] qual=TRADE 8=FIX.4.4|9=83|35=0|34=5|49=cServer|50=TRADE|52=20260109-06:23:05.690|56=demo.pepperstone.5179095|10=245|
2026-01-09 08:23:05.994 INFO [APP][IN] qual=QUOTE 8=FIX.4.4|9=138|35=W|34=217|49=cServer|50=QUOTE|52=20260109-06:23:05.865|56=demo.pepperstone.5179095|55=10028|268=2|269=0|270=90937.97|269=1|270=90952.97|10=165|
2026-01-09 08:23:06.437 INFO [APP][IN] qual=QUOTE 8=FIX.4.4|9=138|35=W|34=218|49=cServer|50=QUOTE|52=20260109-06:23:06.307|56=demo.pepperstone.5179095|55=10028|268=2|269=0|270=90937.86|269=1|270=90952.86|10=154|
2026-01-09 08:23:06.887 INFO [APP][IN] qual=QUOTE 8=FIX.4.4|9=132|35=W|34=219|49=cServer|50=QUOTE|52=20260109-06:23:06.757|56=demo.pepperstone.5179095|55=10028|268=2|269=0|270=90938|269=1|270=90953|10=104|
2026-01-09 08:23:07.333 INFO [APP][IN] qual=QUOTE 8=FIX.4.4|9=138|35=W|34=220|49=cServer|50=QUOTE|52=20260109-06:23:07.204|56=demo.pepperstone.5179095|55=10028|268=2|269=0|270=90938.51|269=1|270=90953.51|10=130|
2026-01-09 08:23:07.740 INFO [APP][IN] qual=QUOTE 8=FIX.4.4|9=138|35=W|34=221|49=cServer|50=QUOTE|52=20260109-06:23:07.611|56=demo.pepperstone.5179095|55=10028|268=2|269=0|270=90938.37|269=1|270=90953.37|10=141|
2026-01-09 08:23:08.191 INFO [APP][IN] qual=QUOTE 8=FIX.4.4|9=138|35=W|34=222|49=cServer|50=QUOTE|52=20260109-06:23:08.062|56=demo.pepperstone.5179095|55=10028|268=2|269=0|270=90938.48|269=1|270=90953.48|10=147|
2026-01-09 08:23:08.592 INFO [APP][IN] qual=QUOTE 8=FIX.4.4|9=138|35=W|34=223|49=cServer|50=QUOTE|52=20260109-06:23:08.463|56=demo.pepperstone.5179095|55=10028|268=2|269=0|270=90938.51|269=1|270=90953.51|10=141|
2026-01-09 08:23:09.039 INFO [APP][IN] qual=QUOTE 8=FIX.4.4|9=138|35=W|34=224|49=cServer|50=QUOTE|52=20260109-06:23:08.910|56=demo.pepperstone.5179095|55=10028|268=2|269=0|270=90938.52|269=1|270=90953.52|10=141|
2026-01-09 08:23:09.461 INFO [APP][IN] qual=QUOTE 8=FIX.4.4|9=138|35=W|34=225|49=cServer|50=QUOTE|52=20260109-06:23:09.331|56=demo.pepperstone.5179095|55=10028|268=2|269=0|270=90939.14|269=1|270=90954.14|10=138|
2026-01-09 08:23:09.865 INFO [APP][IN] qual=QUOTE 8=FIX.4.4|9=138|35=W|34=226|49=cServer|50=QUOTE|52=20260109-06:23:09.735|56=demo.pepperstone.5179095|55=10028|268=2|269=0|270=90939.42|269=1|270=90954.42|10=149|
2026-01-09 08:23:10.313 INFO [APP][IN] qual=QUOTE 8=FIX.4.4|9=138|35=W|34=227|49=cServer|50=QUOTE|52=20260109-06:23:10.184|56=demo.pepperstone.5179095|55=10028|268=2|269=0|270=90939.44|269=1|270=90954.44|10=144|
2026-01-09 08:23:10.717 INFO [APP][IN] qual=QUOTE 8=FIX.4.4|9=138|35=W|34=228|49=cServer|50=QUOTE|52=20260109-06:23:10.588|56=demo.pepperstone.5179095|55=10028|268=2|269=0|270=90939.08|269=1|270=90954.08|10=153|
2026-01-09 08:23:11.167 INFO [APP][IN] qual=QUOTE 8=FIX.4.4|9=138|35=W|34=229|49=cServer|50=QUOTE|52=20260109-06:23:11.037|56=demo.pepperstone.5179095|55=10028|268=2|269=0|270=90939.42|269=1|270=90954.42|10=140|
2026-01-09 08:23:11.568 INFO [APP][IN] qual=QUOTE 8=FIX.4.4|9=138|35=W|34=230|49=cServer|50=QUOTE|52=20260109-06:23:11.438|56=demo.pepperstone.5179095|55=10028|268=2|269=0|270=90939.37|269=1|270=90954.37|10=145|
2026-01-09 08:23:11.971 INFO [APP][IN] qual=QUOTE 8=FIX.4.4|9=138|35=W|34=231|49=cServer|50=QUOTE|52=20260109-06:23:11.841|56=demo.pepperstone.5179095|55=10028|268=2|269=0|270=90939.36|269=1|270=90954.36|10=142|
2026-01-09 08:23:12.422 INFO [APP][IN] qual=QUOTE 8=FIX.4.4|9=138|35=W|34=232|49=cServer|50=QUOTE|52=20260109-06:23:12.293|56=demo.pepperstone.5179095|55=10028|268=2|269=0|270=90940.01|269=1|270=90955.01|10=122|
2026-01-09 08:23:12.865 INFO [APP][IN] qual=QUOTE 8=FIX.4.4|9=138|35=W|34=233|49=cServer|50=QUOTE|52=20260109-06:23:12.736|56=demo.pepperstone.5179095|55=10028|268=2|269=0|270=90939.35|269=1|270=90954.35|10=146|
2026-01-09 08:23:13.272 INFO [APP][IN] qual=QUOTE 8=FIX.4.4|9=138|35=W|34=234|49=cServer|50=QUOTE|52=20260109-06:23:13.143|56=demo.pepperstone.5179095|55=10028|268=2|269=0|270=90939.49|269=1|270=90954.49|10=150|
2026-01-09 08:23:13.677 INFO [APP][IN] qual=QUOTE 8=FIX.4.4|9=138|35=W|34=235|49=cServer|50=QUOTE|52=20260109-06:23:13.548|56=demo.pepperstone.5179095|55=10028|268=2|269=0|270=90939.63|269=1|270=90954.63|10=152|
2026-01-09 08:23:14.119 INFO [APP][IN] qual=QUOTE 8=FIX.4.4|9=138|35=W|34=236|49=cServer|50=QUOTE|52=20260109-06:23:13.990|56=demo.pepperstone.5179095|55=10028|268=2|269=0|270=90939.56|269=1|270=90954.56|10=158|
2026-01-09 08:23:14.528 INFO [APP][IN] qual=QUOTE 8=FIX.4.4|9=138|35=W|34=237|49=cServer|50=QUOTE|52=20260109-06:23:14.398|56=demo.pepperstone.5179095|55=10028|268=2|269=0|270=90939.42|269=1|270=90954.42|10=152|
2026-01-09 08:23:14.932 INFO [APP][IN] qual=QUOTE 8=FIX.4.4|9=138|35=W|34=238|49=cServer|50=QUOTE|52=20260109-06:23:14.803|56=demo.pepperstone.5179095|55=10028|268=2|269=0|270=90939.39|269=1|270=90954.39|10=156|
2026-01-09 08:23:15.384 INFO [APP][IN] qual=QUOTE 8=FIX.4.4|9=138|35=W|34=239|49=cServer|50=QUOTE|52=20260109-06:23:15.255|56=demo.pepperstone.5179095|55=10028|268=2|269=0|270=90939.55|269=1|270=90954.55|10=155|
2026-01-09 08:23:15.835 INFO [APP][IN] qual=QUOTE 8=FIX.4.4|9=138|35=W|34=240|49=cServer|50=QUOTE|52=20260109-06:23:15.706|56=demo.pepperstone.5179095|55=10028|268=2|269=0|270=90939.35|269=1|270=90954.35|10=144|
2026-01-09 08:23:16.668 INFO [APP][IN] qual=QUOTE 8=FIX.4.4|9=138|35=W|34=241|49=cServer|50=QUOTE|52=20260109-06:23:16.539|56=demo.pepperstone.5179095|55=10028|268=2|269=0|270=90939.47|269=1|270=90954.47|10=156|
2026-01-09 08:23:17.087 INFO [APP][IN] qual=QUOTE 8=FIX.4.4|9=136|35=W|34=242|49=cServer|50=QUOTE|52=20260109-06:23:16.957|56=demo.pepperstone.5179095|55=10028|268=2|269=0|270=90939.6|269=1|270=90954.6|10=053|
2026-01-09 08:23:17.488 INFO [APP][IN] qual=QUOTE 8=FIX.4.4|9=138|35=W|34=243|49=cServer|50=QUOTE|52=20260109-06:23:17.358|56=demo.pepperstone.5179095|55=10028|268=2|269=0|270=90939.64|269=1|270=90954.64|10=156|
2026-01-09 08:23:17.892 INFO [APP][IN] qual=QUOTE 8=FIX.4.4|9=138|35=W|34=244|49=cServer|50=QUOTE|52=20260109-06:23:17.762|56=demo.pepperstone.5179095|55=10028|268=2|269=0|270=90939.48|269=1|270=90954.48|10=160|
2026-01-09 08:23:18.295 INFO [APP][IN] qual=QUOTE 8=FIX.4.4|9=138|35=W|34=245|49=cServer|50=QUOTE|52=20260109-06:23:18.165|56=demo.pepperstone.5179095|55=10028|268=2|269=0|270=90939.43|269=1|270=90954.43|10=149|
2026-01-09 08:23:18.696 INFO [APP][IN] qual=QUOTE 8=FIX.4.4|9=138|35=W|34=246|49=cServer|50=QUOTE|52=20260109-06:23:18.567|56=demo.pepperstone.5179095|55=10028|268=2|269=0|270=90939.45|269=1|270=90954.45|10=160|
2026-01-09 08:23:19.111 INFO [APP][IN] qual=QUOTE 8=FIX.4.4|9=138|35=W|34=247|49=cServer|50=QUOTE|52=20260109-06:23:18.981|56=demo.pepperstone.5179095|55=10028|268=2|269=0|270=90942.12|269=1|270=90957.12|10=146|
2026-01-09 08:23:19.518 INFO [APP][IN] qual=QUOTE 8=FIX.4.4|9=138|35=W|34=248|49=cServer|50=QUOTE|52=20260109-06:23:19.389|56=demo.pepperstone.5179095|55=10028|268=2|269=0|270=90949.08|269=1|270=90964.08|10=165|
2026-01-09 08:23:19.921 INFO [APP][IN] qual=QUOTE 8=FIX.4.4|9=138|35=W|34=249|49=cServer|50=QUOTE|52=20260109-06:23:19.792|56=demo.pepperstone.5179095|55=10028|268=2|269=0|270=90950.53|269=1|270=90965.53|10=157|
2026-01-09 08:23:20.365 INFO [APP][IN] qual=QUOTE 8=FIX.4.4|9=138|35=W|34=250|49=cServer|50=QUOTE|52=20260109-06:23:20.235|56=demo.pepperstone.5179095|55=10028|268=2|269=0|270=90949.51|269=1|270=90964.51|10=136|
2026-01-09 08:23:20.769 INFO [APP][IN] qual=QUOTE 8=FIX.4.4|9=138|35=W|34=251|49=cServer|50=QUOTE|52=20260109-06:23:20.640|56=demo.pepperstone.5179095|55=10028|268=2|269=0|270=90949.21|269=1|270=90964.21|10=131|
2026-01-09 08:23:21.218 INFO [APP][IN] qual=QUOTE 8=FIX.4.4|9=138|35=W|34=252|49=cServer|50=QUOTE|52=20260109-06:23:21.089|56=demo.pepperstone.5179095|55=10028|268=2|269=0|270=90948.81|269=1|270=90963.81|10=150|
2026-01-09 08:23:21.667 INFO [APP][IN] qual=QUOTE 8=FIX.4.4|9=138|35=W|34=253|49=cServer|50=QUOTE|52=20260109-06:23:21.538|56=demo.pepperstone.5179095|55=10028|268=2|269=0|270=90948.03|269=1|270=90963.03|10=138|
2026-01-09 08:23:22.069 INFO [APP][IN] qual=QUOTE 8=FIX.4.4|9=138|35=W|34=254|49=cServer|50=QUOTE|52=20260109-06:23:21.939|56=demo.pepperstone.5179095|55=10028|268=2|269=0|270=90948.46|269=1|270=90963.46|10=158|
2026-01-09 08:23:22.472 INFO [APP][IN] qual=QUOTE 8=FIX.4.4|9=136|35=W|34=255|49=cServer|50=QUOTE|52=20260109-06:23:22.341|56=demo.pepperstone.5179095|55=10028|268=2|269=0|270=90948.1|269=1|270=90963.1|10=031|
2026-01-09 08:23:22.873 INFO [APP][IN] qual=QUOTE 8=FIX.4.4|9=138|35=W|34=256|49=cServer|50=QUOTE|52=20260109-06:23:22.744|56=demo.pepperstone.5179095|55=10028|268=2|269=0|270=90948.66|269=1|270=90963.66|10=159|
2026-01-09 08:23:23.319 INFO [APP][IN] qual=QUOTE 8=FIX.4.4|9=132|35=W|34=257|49=cServer|50=QUOTE|52=20260109-06:23:23.190|56=demo.pepperstone.5179095|55=10028|268=2|269=0|270=90944|269=1|270=90959|10=099|
2026-01-09 08:23:23.727 INFO [APP][IN] qual=QUOTE 8=FIX.4.4|9=138|35=W|34=258|49=cServer|50=QUOTE|52=20260109-06:23:23.598|56=demo.pepperstone.5179095|55=10028|268=2|269=0|270=90944.05|269=1|270=90959.05|10=156|
2026-01-09 08:23:24.161 INFO [APP][IN] qual=QUOTE 8=FIX.4.4|9=138|35=W|34=259|49=cServer|50=QUOTE|52=20260109-06:23:24.031|56=demo.pepperstone.5179095|55=10028|268=2|269=0|270=90943.19|269=1|270=90958.19|10=148|
2026-01-09 08:23:24.579 INFO [APP][IN] qual=QUOTE 8=FIX.4.4|9=138|35=W|34=260|49=cServer|50=QUOTE|52=20260109-06:23:24.450|56=demo.pepperstone.5179095|55=10028|268=2|269=0|270=90944.52|269=1|270=90959.52|10=141|
2026-01-09 08:23:24.981 INFO [APP][IN] qual=QUOTE 8=FIX.4.4|9=136|35=W|34=261|49=cServer|50=QUOTE|52=20260109-06:23:24.852|56=demo.pepperstone.5179095|55=10028|268=2|269=0|270=90944.3|269=1|270=90959.3|10=042|
2026-01-09 08:23:25.431 INFO [APP][IN] qual=QUOTE 8=FIX.4.4|9=138|35=W|34=262|49=cServer|50=QUOTE|52=20260109-06:23:25.302|56=demo.pepperstone.5179095|55=10028|268=2|269=0|270=90944.83|269=1|270=90959.83|10=148|
2026-01-09 08:23:25.832 INFO [APP][IN] qual=QUOTE 8=FIX.4.4|9=138|35=W|34=263|49=cServer|50=QUOTE|52=20260109-06:23:25.703|56=demo.pepperstone.5179095|55=10028|268=2|269=0|270=90944.73|269=1|270=90959.73|10=152|
2026-01-09 08:23:26.234 INFO [APP][IN] qual=QUOTE 8=FIX.4.4|9=138|35=W|34=264|49=cServer|50=QUOTE|52=20260109-06:23:26.105|56=demo.pepperstone.5179095|55=10028|268=2|269=0|270=90944.66|269=1|270=90959.66|10=154|
2026-01-09 08:23:26.685 INFO [APP][IN] qual=QUOTE 8=FIX.4.4|9=138|35=W|34=265|49=cServer|50=QUOTE|52=20260109-06:23:26.555|56=demo.pepperstone.5179095|55=10028|268=2|269=0|270=90944.69|269=1|270=90959.69|10=170|
2026-01-09 08:23:27.085 INFO [APP][IN] qual=QUOTE 8=FIX.4.4|9=138|35=W|34=266|49=cServer|50=QUOTE|52=20260109-06:23:26.955|56=demo.pepperstone.5179095|55=10028|268=2|269=0|270=90945.16|269=1|270=90960.16|10=152|
2026-01-09 08:23:27.488 INFO [APP][IN] qual=QUOTE 8=FIX.4.4|9=138|35=W|34=267|49=cServer|50=QUOTE|52=20260109-06:23:27.358|56=demo.pepperstone.5179095|55=10028|268=2|269=0|270=90945.06|269=1|270=90960.06|10=149|
2026-01-09 08:23:27.889 INFO [APP][IN] qual=QUOTE 8=FIX.4.4|9=138|35=W|34=268|49=cServer|50=QUOTE|52=20260109-06:23:27.760|56=demo.pepperstone.5179095|55=10028|268=2|269=0|270=90944.69|269=1|270=90959.69|10=172|
2026-01-09 08:23:28.289 INFO [APP][IN] qual=QUOTE 8=FIX.4.4|9=138|35=W|34=269|49=cServer|50=QUOTE|52=20260109-06:23:28.160|56=demo.pepperstone.5179095|55=10028|268=2|269=0|270=90939.75|269=1|270=90954.75|10=161|
2026-01-09 08:23:28.691 INFO [APP][IN] qual=QUOTE 8=FIX.4.4|9=138|35=W|34=270|49=cServer|50=QUOTE|52=20260109-06:23:28.562|56=demo.pepperstone.5179095|55=10028|268=2|269=0|270=90939.67|269=1|270=90954.67|10=161|
2026-01-09 08:23:29.104 INFO [APP][IN] qual=QUOTE 8=FIX.4.4|9=138|35=W|34=271|49=cServer|50=QUOTE|52=20260109-06:23:28.975|56=demo.pepperstone.5179095|55=10028|268=2|269=0|270=90937.81|269=1|270=90952.81|10=158|
2026-01-09 08:23:29.509 INFO [APP][IN] qual=QUOTE 8=FIX.4.4|9=138|35=W|34=272|49=cServer|50=QUOTE|52=20260109-06:23:29.380|56=demo.pepperstone.5179095|55=10028|268=2|269=0|270=90938.75|269=1|270=90953.75|10=158|
2026-01-09 08:23:29.960 INFO [APP][IN] qual=QUOTE 8=FIX.4.4|9=138|35=W|34=273|49=cServer|50=QUOTE|52=20260109-06:23:29.831|56=demo.pepperstone.5179095|55=10028|268=2|269=0|270=90938.73|269=1|270=90953.73|10=156|
2026-01-09 08:23:30.362 INFO [APP][IN] qual=QUOTE 8=FIX.4.4|9=136|35=W|34=274|49=cServer|50=QUOTE|52=20260109-06:23:30.232|56=demo.pepperstone.5179095|55=10028|268=2|269=0|270=90938.7|269=1|270=90953.7|10=040|
2026-01-09 08:23:30.766 INFO [APP][IN] qual=QUOTE 8=FIX.4.4|9=138|35=W|34=275|49=cServer|50=QUOTE|52=20260109-06:23:30.636|56=demo.pepperstone.5179095|55=10028|268=2|269=0|270=90938.66|269=1|270=90953.66|10=157|
2026-01-09 08:23:31.215 INFO [APP][IN] qual=QUOTE 8=FIX.4.4|9=138|35=W|34=276|49=cServer|50=QUOTE|52=20260109-06:23:31.086|56=demo.pepperstone.5179095|55=10028|268=2|269=0|270=90938.91|269=1|270=90953.91|10=154|
2026-01-09 08:23:31.617 INFO [APP][IN] qual=QUOTE 8=FIX.4.4|9=138|35=W|34=277|49=cServer|50=QUOTE|52=20260109-06:23:31.488|56=demo.pepperstone.5179095|55=10028|268=2|269=0|270=90936.71|269=1|270=90951.71|10=153|
2026-01-09 08:23:32.019 INFO [APP][IN] qual=QUOTE 8=FIX.4.4|9=138|35=W|34=278|49=cServer|50=QUOTE|52=20260109-06:23:31.890|56=demo.pepperstone.5179095|55=10028|268=2|269=0|270=90936.76|269=1|270=90951.76|10=161|
2026-01-09 08:23:32.420 INFO [APP][IN] qual=QUOTE 8=FIX.4.4|9=136|35=W|34=279|49=cServer|50=QUOTE|52=20260109-06:23:32.291|56=demo.pepperstone.5179095|55=10028|268=2|269=0|270=90936.9|269=1|270=90951.9|10=052|
2026-01-09 08:23:32.823 INFO [APP][IN] qual=QUOTE 8=FIX.4.4|9=138|35=W|34=280|49=cServer|50=QUOTE|52=20260109-06:23:32.694|56=demo.pepperstone.5179095|55=10028|268=2|269=0|270=90938.44|269=1|270=90953.44|10=151|
2026-01-09 08:23:33.274 INFO [APP][IN] qual=QUOTE 8=FIX.4.4|9=138|35=W|34=281|49=cServer|50=QUOTE|52=20260109-06:23:33.144|56=demo.pepperstone.5179095|55=10028|268=2|269=0|270=90938.77|269=1|270=90953.77|10=155|
2026-01-09 08:23:33.723 INFO [APP][IN] qual=QUOTE 8=FIX.4.4|9=138|35=W|34=282|49=cServer|50=QUOTE|52=20260109-06:23:33.594|56=demo.pepperstone.5179095|55=10028|268=2|269=0|270=90938.48|269=1|270=90953.48|10=161|
2026-01-09 08:23:34.126 INFO [APP][IN] qual=QUOTE 8=FIX.4.4|9=138|35=W|34=283|49=cServer|50=QUOTE|52=20260109-06:23:33.997|56=demo.pepperstone.5179095|55=10028|268=2|269=0|270=90938.28|269=1|270=90953.28|10=165|
2026-01-09 08:23:34.528 INFO [APP][IN] qual=QUOTE 8=FIX.4.4|9=138|35=W|34=284|49=cServer|50=QUOTE|52=20260109-06:23:34.399|56=demo.pepperstone.5179095|55=10028|268=2|269=0|270=90938.36|269=1|270=90953.36|10=161|
2026-01-09 08:23:34.929 INFO [APP][IN] qual=QUOTE 8=FIX.4.4|9=138|35=W|34=285|49=cServer|50=QUOTE|52=20260109-06:23:34.800|56=demo.pepperstone.5179095|55=10028|268=2|269=0|270=90938.14|269=1|270=90953.14|10=141|
2026-01-09 08:23:35.381 INFO [APP][IN] qual=QUOTE 8=FIX.4.4|9=138|35=W|34=286|49=cServer|50=QUOTE|52=20260109-06:23:35.251|56=demo.pepperstone.5179095|55=10028|268=2|269=0|270=90938.13|269=1|270=90953.13|10=141|
2026-01-09 08:23:35.819 INFO [ADMIN][IN] qual=TRADE 8=FIX.4.4|9=83|35=0|34=6|49=cServer|50=TRADE|52=20260109-06:23:35.690|56=demo.pepperstone.5179095|10=249|
2026-01-09 08:23:35.830 INFO [APP][IN] qual=QUOTE 8=FIX.4.4|9=138|35=W|34=287|49=cServer|50=QUOTE|52=20260109-06:23:35.701|56=demo.pepperstone.5179095|55=10028|268=2|269=0|270=90938.26|269=1|270=90953.26|10=150|
2026-01-09 08:23:36.231 INFO [APP][IN] qual=QUOTE 8=FIX.4.4|9=138|35=W|34=288|49=cServer|50=QUOTE|52=20260109-06:23:36.102|56=demo.pepperstone.5179095|55=10028|268=2|269=0|270=90938.52|269=1|270=90953.52|10=145|
2026-01-09 08:23:36.633 INFO [APP][IN] qual=QUOTE 8=FIX.4.4|9=138|35=W|34=289|49=cServer|50=QUOTE|52=20260109-06:23:36.504|56=demo.pepperstone.5179095|55=10028|268=2|269=0|270=90939.04|269=1|270=90954.04|10=148|
2026-01-09 08:23:37.085 INFO [APP][IN] qual=QUOTE 8=FIX.4.4|9=138|35=W|34=290|49=cServer|50=QUOTE|52=20260109-06:23:36.956|56=demo.pepperstone.5179095|55=10028|268=2|269=0|270=90939.11|269=1|270=90954.11|10=147|
2026-01-09 08:23:37.536 INFO [APP][IN] qual=QUOTE 8=FIX.4.4|9=138|35=W|34=291|49=cServer|50=QUOTE|52=20260109-06:23:37.407|56=demo.pepperstone.5179095|55=10028|268=2|269=0|270=90939.02|269=1|270=90954.02|10=140|
2026-01-09 08:23:37.987 INFO [APP][IN] qual=QUOTE 8=FIX.4.4|9=138|35=W|34=292|49=cServer|50=QUOTE|52=20260109-06:23:37.858|56=demo.pepperstone.5179095|55=10028|268=2|269=0|270=90938.97|269=1|270=90953.97|10=177|
2026-01-09 08:23:38.438 INFO [APP][IN] qual=QUOTE 8=FIX.4.4|9=136|35=W|34=293|49=cServer|50=QUOTE|52=20260109-06:23:38.308|56=demo.pepperstone.5179095|55=10028|268=2|269=0|270=90939.1|269=1|270=90954.1|10=043|
2026-01-09 08:23:38.891 INFO [APP][IN] qual=QUOTE 8=FIX.4.4|9=138|35=W|34=294|49=cServer|50=QUOTE|52=20260109-06:23:38.761|56=demo.pepperstone.5179095|55=10028|268=2|269=0|270=90939.29|269=1|270=90954.29|10=165|
2026-01-09 08:23:39.310 INFO [APP][IN] qual=QUOTE 8=FIX.4.4|9=138|35=W|34=295|49=cServer|50=QUOTE|52=20260109-06:23:39.180|56=demo.pepperstone.5179095|55=10028|268=2|269=0|270=90939.14|269=1|270=90954.14|10=150|
2026-01-09 08:23:39.710 INFO [APP][IN] qual=QUOTE 8=FIX.4.4|9=138|35=W|34=296|49=cServer|50=QUOTE|52=20260109-06:23:39.581|56=demo.pepperstone.5179095|55=10028|268=2|269=0|270=90939.29|269=1|270=90954.29|10=168|
2026-01-09 08:23:40.114 INFO [APP][IN] qual=QUOTE 8=FIX.4.4|9=138|35=W|34=297|49=cServer|50=QUOTE|52=20260109-06:23:39.985|56=demo.pepperstone.5179095|55=10028|268=2|269=0|270=90939.26|269=1|270=90954.26|10=171|
2026-01-09 08:23:40.567 INFO [APP][IN] qual=QUOTE 8=FIX.4.4|9=138|35=W|34=298|49=cServer|50=QUOTE|52=20260109-06:23:40.437|56=demo.pepperstone.5179095|55=10028|268=2|269=0|270=90939.31|269=1|270=90954.31|10=148|
2026-01-09 08:23:40.969 INFO [APP][IN] qual=QUOTE 8=FIX.4.4|9=138|35=W|34=299|49=cServer|50=QUOTE|52=20260109-06:23:40.839|56=demo.pepperstone.5179095|55=10028|268=2|269=0|270=90938.72|269=1|270=90953.72|10=163|
2026-01-09 08:23:41.416 INFO [APP][IN] qual=QUOTE 8=FIX.4.4|9=138|35=W|34=300|49=cServer|50=QUOTE|52=20260109-06:23:41.287|56=demo.pepperstone.5179095|55=10028|268=2|269=0|270=90937.65|269=1|270=90952.65|10=146|
2026-01-09 08:23:41.820 INFO [APP][IN] qual=QUOTE 8=FIX.4.4|9=138|35=W|34=301|49=cServer|50=QUOTE|52=20260109-06:23:41.690|56=demo.pepperstone.5179095|55=10028|268=2|269=0|270=90936.81|269=1|270=90951.81|10=139|
2026-01-09 08:23:42.259 INFO [APP][IN] qual=QUOTE 8=FIX.4.4|9=138|35=W|34=302|49=cServer|50=QUOTE|52=20260109-06:23:42.130|56=demo.pepperstone.5179095|55=10028|268=2|269=0|270=90937.17|269=1|270=90952.17|10=130|
2026-01-09 08:23:42.670 INFO [APP][IN] qual=QUOTE 8=FIX.4.4|9=138|35=W|34=303|49=cServer|50=QUOTE|52=20260109-06:23:42.540|56=demo.pepperstone.5179095|55=10028|268=2|269=0|270=90936.99|269=1|270=90951.99|10=154|
2026-01-09 08:23:43.122 INFO [APP][IN] qual=QUOTE 8=FIX.4.4|9=138|35=W|34=304|49=cServer|50=QUOTE|52=20260109-06:23:42.993|56=demo.pepperstone.5179095|55=10028|268=2|269=0|270=90936.89|269=1|270=90951.89|10=165|
2026-01-09 08:23:43.525 INFO [APP][IN] qual=QUOTE 8=FIX.4.4|9=136|35=W|34=305|49=cServer|50=QUOTE|52=20260109-06:23:43.396|56=demo.pepperstone.5179095|55=10028|268=2|269=0|270=90936.8|269=1|270=90951.8|10=048|
2026-01-09 08:23:43.926 INFO [APP][IN] qual=QUOTE 8=FIX.4.4|9=138|35=W|34=306|49=cServer|50=QUOTE|52=20260109-06:23:43.797|56=demo.pepperstone.5179095|55=10028|268=2|269=0|270=90936.99|269=1|270=90951.99|10=172|
2026-01-09 08:23:44.326 INFO [APP][IN] qual=QUOTE 8=FIX.4.4|9=138|35=W|34=307|49=cServer|50=QUOTE|52=20260109-06:23:44.197|56=demo.pepperstone.5179095|55=10028|268=2|269=0|270=90936.75|269=1|270=90951.75|10=156|
2026-01-09 08:23:44.729 INFO [APP][IN] qual=QUOTE 8=FIX.4.4|9=138|35=W|34=308|49=cServer|50=QUOTE|52=20260109-06:23:44.600|56=demo.pepperstone.5179095|55=10028|268=2|269=0|270=90937.03|269=1|270=90952.03|10=130|
2026-01-09 08:23:45.130 INFO [APP][IN] qual=QUOTE 8=FIX.4.4|9=138|35=W|34=309|49=cServer|50=QUOTE|52=20260109-06:23:45.001|56=demo.pepperstone.5179095|55=10028|268=2|269=0|270=90936.82|269=1|270=90951.82|10=139|
2026-01-09 08:23:45.531 INFO [APP][IN] qual=QUOTE 8=FIX.4.4|9=138|35=W|34=310|49=cServer|50=QUOTE|52=20260109-06:23:45.402|56=demo.pepperstone.5179095|55=10028|268=2|269=0|270=90936.97|269=1|270=90951.97|10=148|
2026-01-09 08:23:45.982 INFO [APP][IN] qual=QUOTE 8=FIX.4.4|9=138|35=W|34=311|49=cServer|50=QUOTE|52=20260109-06:23:45.852|56=demo.pepperstone.5179095|55=10028|268=2|269=0|270=90938.99|269=1|270=90953.99|10=166|
2026-01-09 08:23:46.383 INFO [APP][IN] qual=QUOTE 8=FIX.4.4|9=138|35=W|34=312|49=cServer|50=QUOTE|52=20260109-06:23:46.253|56=demo.pepperstone.5179095|55=10028|268=2|269=0|270=90950.32|269=1|270=90965.32|10=134|
2026-01-09 08:23:46.786 INFO [APP][IN] qual=QUOTE 8=FIX.4.4|9=138|35=W|34=313|49=cServer|50=QUOTE|52=20260109-06:23:46.656|56=demo.pepperstone.5179095|55=10028|268=2|269=0|270=90947.63|269=1|270=90962.63|10=153|
2026-01-09 08:23:47.235 INFO [APP][IN] qual=QUOTE 8=FIX.4.4|9=138|35=W|34=314|49=cServer|50=QUOTE|52=20260109-06:23:47.105|56=demo.pepperstone.5179095|55=10028|268=2|269=0|270=90947.12|269=1|270=90962.12|10=132|
2026-01-09 08:23:47.686 INFO [APP][IN] qual=QUOTE 8=FIX.4.4|9=138|35=W|34=315|49=cServer|50=QUOTE|52=20260109-06:23:47.556|56=demo.pepperstone.5179095|55=10028|268=2|269=0|270=90947.75|269=1|270=90962.75|10=161|
2026-01-09 08:23:48.089 INFO [APP][IN] qual=QUOTE 8=FIX.4.4|9=138|35=W|34=316|49=cServer|50=QUOTE|52=20260109-06:23:47.960|56=demo.pepperstone.5179095|55=10028|268=2|269=0|270=90941.49|269=1|270=90956.49|10=160|
2026-01-09 08:23:48.492 INFO [APP][IN] qual=QUOTE 8=FIX.4.4|9=138|35=W|34=317|49=cServer|50=QUOTE|52=20260109-06:23:48.363|56=demo.pepperstone.5179095|55=10028|268=2|269=0|270=90941.12|269=1|270=90956.12|10=139|
2026-01-09 08:23:48.942 INFO [APP][IN] qual=QUOTE 8=FIX.4.4|9=138|35=W|34=318|49=cServer|50=QUOTE|52=20260109-06:23:48.813|56=demo.pepperstone.5179095|55=10028|268=2|269=0|270=90940.64|269=1|270=90955.64|10=152|
2026-01-09 08:23:49.373 INFO [APP][IN] qual=QUOTE 8=FIX.4.4|9=138|35=W|34=319|49=cServer|50=QUOTE|52=20260109-06:23:49.243|56=demo.pepperstone.5179095|55=10028|268=2|269=0|270=90939.23|269=1|270=90954.23|10=148|
2026-01-09 08:23:49.813 INFO [APP][IN] qual=QUOTE 8=FIX.4.4|9=138|35=W|34=320|49=cServer|50=QUOTE|52=20260109-06:23:49.684|56=demo.pepperstone.5179095|55=10028|268=2|269=0|270=90945.31|269=1|270=90960.31|10=141|
2026-01-09 08:23:50.266 INFO [APP][IN] qual=QUOTE 8=FIX.4.4|9=138|35=W|34=321|49=cServer|50=QUOTE|52=20260109-06:23:50.136|56=demo.pepperstone.5179095|55=10028|268=2|269=0|270=90944.62|269=1|270=90959.62|10=141|
2026-01-09 08:23:50.717 INFO [APP][IN] qual=QUOTE 8=FIX.4.4|9=136|35=W|34=322|49=cServer|50=QUOTE|52=20260109-06:23:50.588|56=demo.pepperstone.5179095|55=10028|268=2|269=0|270=90949.2|269=1|270=90964.2|10=044|
2026-01-09 08:23:51.152 INFO [APP][IN] qual=QUOTE 8=FIX.4.4|9=138|35=W|34=323|49=cServer|50=QUOTE|52=20260109-06:23:51.023|56=demo.pepperstone.5179095|55=10028|268=2|269=0|270=90949.89|269=1|270=90964.89|10=158|
2026-01-09 08:23:51.562 INFO [APP][IN] qual=QUOTE 8=FIX.4.4|9=138|35=W|34=324|49=cServer|50=QUOTE|52=20260109-06:23:51.432|56=demo.pepperstone.5179095|55=10028|268=2|269=0|270=90948.55|269=1|270=90963.55|10=147|
2026-01-09 08:23:51.970 INFO [APP][IN] qual=QUOTE 8=FIX.4.4|9=138|35=W|34=325|49=cServer|50=QUOTE|52=20260109-06:23:51.841|56=demo.pepperstone.5179095|55=10028|268=2|269=0|270=90949.34|269=1|270=90964.34|10=148|
2026-01-09 08:23:52.370 INFO [APP][IN] qual=QUOTE 8=FIX.4.4|9=138|35=W|34=326|49=cServer|50=QUOTE|52=20260109-06:23:52.241|56=demo.pepperstone.5179095|55=10028|268=2|269=0|270=90948.53|269=1|270=90963.53|10=144|
2026-01-09 08:23:52.780 INFO [APP][IN] qual=QUOTE 8=FIX.4.4|9=138|35=W|34=327|49=cServer|50=QUOTE|52=20260109-06:23:52.651|56=demo.pepperstone.5179095|55=10028|268=2|269=0|270=90949.37|269=1|270=90964.37|10=156|
2026-01-09 08:23:53.264 INFO [APP][IN] qual=QUOTE 8=FIX.4.4|9=138|35=W|34=328|49=cServer|50=QUOTE|52=20260109-06:23:53.134|56=demo.pepperstone.5179095|55=10028|268=2|269=0|270=90949.58|269=1|270=90964.58|10=160|
2026-01-09 08:23:53.675 INFO [APP][IN] qual=QUOTE 8=FIX.4.4|9=138|35=W|34=329|49=cServer|50=QUOTE|52=20260109-06:23:53.546|56=demo.pepperstone.5179095|55=10028|268=2|269=0|270=90948.58|269=1|270=90963.58|10=166|
2026-01-09 08:23:54.126 INFO [APP][IN] qual=QUOTE 8=FIX.4.4|9=138|35=W|34=330|49=cServer|50=QUOTE|52=20260109-06:23:53.996|56=demo.pepperstone.5179095|55=10028|268=2|269=0|270=90948.93|269=1|270=90963.93|10=165|
2026-01-09 08:23:54.527 INFO [APP][IN] qual=QUOTE 8=FIX.4.4|9=138|35=W|34=331|49=cServer|50=QUOTE|52=20260109-06:23:54.398|56=demo.pepperstone.5179095|55=10028|268=2|269=0|270=90948.81|269=1|270=90963.81|10=157|
2026-01-09 08:23:54.974 INFO [APP][IN] qual=QUOTE 8=FIX.4.4|9=138|35=W|34=332|49=cServer|50=QUOTE|52=20260109-06:23:54.845|56=demo.pepperstone.5179095|55=10028|268=2|269=0|270=90945.82|269=1|270=90960.82|10=151|
2026-01-09 08:23:55.381 INFO [APP][IN] qual=QUOTE 8=FIX.4.4|9=136|35=W|34=333|49=cServer|50=QUOTE|52=20260109-06:23:55.252|56=demo.pepperstone.5179095|55=10028|268=2|269=0|270=90946.4|269=1|270=90961.4|10=037|
2026-01-09 08:23:55.829 INFO [APP][IN] qual=QUOTE 8=FIX.4.4|9=138|35=W|34=334|49=cServer|50=QUOTE|52=20260109-06:23:55.700|56=demo.pepperstone.5179095|55=10028|268=2|269=0|270=90946.39|269=1|270=90961.39|10=150|
2026-01-09 08:23:56.233 INFO [APP][IN] qual=QUOTE 8=FIX.4.4|9=138|35=W|34=335|49=cServer|50=QUOTE|52=20260109-06:23:56.104|56=demo.pepperstone.5179095|55=10028|268=2|269=0|270=90946.31|269=1|270=90961.31|10=134|
2026-01-09 08:23:56.676 INFO [APP][IN] qual=QUOTE 8=FIX.4.4|9=138|35=W|34=336|49=cServer|50=QUOTE|52=20260109-06:23:56.547|56=demo.pepperstone.5179095|55=10028|268=2|269=0|270=90945.19|269=1|270=90960.19|10=156|
2026-01-09 08:23:57.084 INFO [APP][IN] qual=QUOTE 8=FIX.4.4|9=138|35=W|34=337|49=cServer|50=QUOTE|52=20260109-06:23:56.954|56=demo.pepperstone.5179095|55=10028|268=2|269=0|270=90944.64|269=1|270=90959.64|10=166|
2026-01-09 08:23:57.486 INFO [APP][IN] qual=QUOTE 8=FIX.4.4|9=138|35=W|34=338|49=cServer|50=QUOTE|52=20260109-06:23:57.357|56=demo.pepperstone.5179095|55=10028|268=2|269=0|270=90934.11|269=1|270=90949.11|10=147|
2026-01-09 08:23:57.889 INFO [APP][IN] qual=QUOTE 8=FIX.4.4|9=136|35=W|34=339|49=cServer|50=QUOTE|52=20260109-06:23:57.760|56=demo.pepperstone.5179095|55=10028|268=2|269=0|270=90933.3|269=1|270=90948.3|10=048|
2026-01-09 08:23:58.289 INFO [APP][IN] qual=QUOTE 8=FIX.4.4|9=138|35=W|34=340|49=cServer|50=QUOTE|52=20260109-06:23:58.160|56=demo.pepperstone.5179095|55=10028|268=2|269=0|270=90931.23|269=1|270=90946.23|10=133|
2026-01-09 08:23:58.692 INFO [APP][IN] qual=QUOTE 8=FIX.4.4|9=138|35=W|34=341|49=cServer|50=QUOTE|52=20260109-06:23:58.563|56=demo.pepperstone.5179095|55=10028|268=2|269=0|270=90930.14|269=1|270=90945.14|10=139|
2026-01-09 08:23:59.111 INFO [APP][IN] qual=QUOTE 8=FIX.4.4|9=138|35=W|34=342|49=cServer|50=QUOTE|52=20260109-06:23:58.982|56=demo.pepperstone.5179095|55=10028|268=2|269=0|270=90929.02|269=1|270=90944.02|10=146|
2026-01-09 08:23:59.512 INFO [APP][IN] qual=QUOTE 8=FIX.4.4|9=132|35=W|34=343|49=cServer|50=QUOTE|52=20260109-06:23:59.382|56=demo.pepperstone.5179095|55=10028|268=2|269=0|270=90940|269=1|270=90955|10=099|
2026-01-09 08:23:59.964 INFO [APP][IN] qual=QUOTE 8=FIX.4.4|9=138|35=W|34=344|49=cServer|50=QUOTE|52=20260109-06:23:59.835|56=demo.pepperstone.5179095|55=10028|268=2|269=0|270=90940.01|269=1|270=90955.01|10=139|
2026-01-09 08:24:00.365 INFO [APP][IN] qual=QUOTE 8=FIX.4.4|9=138|35=W|34=345|49=cServer|50=QUOTE|52=20260109-06:24:00.236|56=demo.pepperstone.5179095|55=10028|268=2|269=0|270=90939.83|269=1|270=90954.83|10=149|
2026-01-09 08:24:00.366 INFO [BAR M1] 2026-01-09T06:23:00+00:00 O=90957.51 H=90958.03 L=90936.52 C=90947.51 | desired=0 cur=0
2026-01-09 08:24:00.770 INFO [APP][IN] qual=QUOTE 8=FIX.4.4|9=138|35=W|34=346|49=cServer|50=QUOTE|52=20260109-06:24:00.640|56=demo.pepperstone.5179095|55=10028|268=2|269=0|270=90939.32|269=1|270=90954.32|10=137|
2026-01-09 08:24:01.218 INFO [APP][IN] qual=QUOTE 8=FIX.4.4|9=138|35=W|34=347|49=cServer|50=QUOTE|52=20260109-06:24:01.088|56=demo.pepperstone.5179095|55=10028|268=2|269=0|270=90937.06|269=1|270=90952.06|10=143|
2026-01-09 08:24:01.620 INFO [APP][IN] qual=QUOTE 8=FIX.4.4|9=138|35=W|34=348|49=cServer|50=QUOTE|52=20260109-06:24:01.491|56=demo.pepperstone.5179095|55=10028|268=2|269=0|270=90929.66|269=1|270=90944.66|10=156|
2026-01-09 08:24:02.022 INFO [APP][IN] qual=QUOTE 8=FIX.4.4|9=138|35=W|34=349|49=cServer|50=QUOTE|52=20260109-06:24:01.893|56=demo.pepperstone.5179095|55=10028|268=2|269=0|270=90928.52|269=1|270=90943.52|10=151|
2026-01-09 08:24:02.448 INFO [APP][IN] qual=QUOTE 8=FIX.4.4|9=138|35=W|34=350|49=cServer|50=QUOTE|52=20260109-06:24:02.319|56=demo.pepperstone.5179095|55=10028|268=2|269=0|270=90929.28|269=1|270=90944.28|10=145|
2026-01-09 08:24:02.849 INFO [APP][IN] qual=QUOTE 8=FIX.4.4|9=138|35=W|34=351|49=cServer|50=QUOTE|52=20260109-06:24:02.719|56=demo.pepperstone.5179095|55=10028|268=2|269=0|270=90925.89|269=1|270=90940.89|10=156|
2026-01-09 08:24:03.259 INFO [APP][IN] qual=QUOTE 8=FIX.4.4|9=138|35=W|34=352|49=cServer|50=QUOTE|52=20260109-06:24:03.130|56=demo.pepperstone.5179095|55=10028|268=2|269=0|270=90927.79|269=1|270=90942.79|10=147|
2026-01-09 08:24:03.677 INFO [APP][IN] qual=QUOTE 8=FIX.4.4|9=132|35=W|34=353|49=cServer|50=QUOTE|52=20260109-06:24:03.547|56=demo.pepperstone.5179095|55=10028|268=2|269=0|270=90928|269=1|270=90943|10=096|
2026-01-09 08:24:04.077 INFO [APP][IN] qual=QUOTE 8=FIX.4.4|9=138|35=W|34=354|49=cServer|50=QUOTE|52=20260109-06:24:03.948|56=demo.pepperstone.5179095|55=10028|268=2|269=0|270=90924.86|269=1|270=90939.86|10=165|
2026-01-09 08:24:04.479 INFO [APP][IN] qual=QUOTE 8=FIX.4.4|9=138|35=W|34=355|49=cServer|50=QUOTE|52=20260109-06:24:04.349|56=demo.pepperstone.5179095|55=10028|268=2|269=0|270=90928.23|269=1|270=90943.23|10=143|
2026-01-09 08:24:04.930 INFO [APP][IN] qual=QUOTE 8=FIX.4.4|9=138|35=W|34=356|49=cServer|50=QUOTE|52=20260109-06:24:04.801|56=demo.pepperstone.5179095|55=10028|268=2|269=0|270=90928.19|269=1|270=90943.19|10=147|
2026-01-09 08:24:05.332 INFO [APP][IN] qual=QUOTE 8=FIX.4.4|9=138|35=W|34=357|49=cServer|50=QUOTE|52=20260109-06:24:05.202|56=demo.pepperstone.5179095|55=10028|268=2|269=0|270=90929.24|269=1|270=90944.24|10=138|
2026-01-09 08:24:05.732 INFO [APP][IN] qual=QUOTE 8=FIX.4.4|9=138|35=W|34=358|49=cServer|50=QUOTE|52=20260109-06:24:05.603|56=demo.pepperstone.5179095|55=10028|268=2|269=0|270=90943.18|269=1|270=90958.18|10=151|
2026-01-09 08:24:05.819 INFO [ADMIN][IN] qual=TRADE 8=FIX.4.4|9=83|35=0|34=7|49=cServer|50=TRADE|52=20260109-06:24:05.690|56=demo.pepperstone.5179095|10=248|
2026-01-09 08:24:06.134 INFO [APP][IN] qual=QUOTE 8=FIX.4.4|9=138|35=W|34=359|49=cServer|50=QUOTE|52=20260109-06:24:06.004|56=demo.pepperstone.5179095|55=10028|268=2|269=0|270=90943.17|269=1|270=90958.17|10=146|
2026-01-09 08:24:06.560 INFO [APP][IN] qual=QUOTE 8=FIX.4.4|9=138|35=W|34=360|49=cServer|50=QUOTE|52=20260109-06:24:06.431|56=demo.pepperstone.5179095|55=10028|268=2|269=0|270=90941.07|269=1|270=90956.07|10=136|
2026-01-09 08:24:06.977 INFO [APP][IN] qual=QUOTE 8=FIX.4.4|9=138|35=W|34=361|49=cServer|50=QUOTE|52=20260109-06:24:06.848|56=demo.pepperstone.5179095|55=10028|268=2|269=0|270=90940.36|269=1|270=90955.36|10=151|
2026-01-09 08:24:07.384 INFO [APP][IN] qual=QUOTE 8=FIX.4.4|9=138|35=W|34=362|49=cServer|50=QUOTE|52=20260109-06:24:07.255|56=demo.pepperstone.5179095|55=10028|268=2|269=0|270=90943.36|269=1|270=90958.36|10=151|
2026-01-09 08:24:07.789 INFO [APP][IN] qual=QUOTE 8=FIX.4.4|9=138|35=W|34=363|49=cServer|50=QUOTE|52=20260109-06:24:07.660|56=demo.pepperstone.5179095|55=10028|268=2|269=0|270=90941.41|269=1|270=90956.41|10=140|
2026-01-09 08:24:08.191 INFO [APP][IN] qual=QUOTE 8=FIX.4.4|9=138|35=W|34=364|49=cServer|50=QUOTE|52=20260109-06:24:08.062|56=demo.pepperstone.5179095|55=10028|268=2|269=0|270=90939.88|269=1|270=90954.88|10=165|
2026-01-09 08:24:08.593 INFO [APP][IN] qual=QUOTE 8=FIX.4.4|9=138|35=W|34=365|49=cServer|50=QUOTE|52=20260109-06:24:08.464|56=demo.pepperstone.5179095|55=10028|268=2|269=0|270=90940.32|269=1|270=90955.32|10=143|
2026-01-09 08:24:08.994 INFO [APP][IN] qual=QUOTE 8=FIX.4.4|9=138|35=W|34=366|49=cServer|50=QUOTE|52=20260109-06:24:08.864|56=demo.pepperstone.5179095|55=10028|268=2|269=0|270=90938.52|269=1|270=90953.52|10=157|
2026-01-09 08:24:09.399 INFO [APP][IN] qual=QUOTE 8=FIX.4.4|9=138|35=W|34=367|49=cServer|50=QUOTE|52=20260109-06:24:09.270|56=demo.pepperstone.5179095|55=10028|268=2|269=0|270=90938.56|269=1|270=90953.56|10=158|
2026-01-09 08:24:09.814 INFO [APP][IN] qual=QUOTE 8=FIX.4.4|9=138|35=W|34=368|49=cServer|50=QUOTE|52=20260109-06:24:09.685|56=demo.pepperstone.5179095|55=10028|268=2|269=0|270=90938.61|269=1|270=90953.61|10=161|
2026-01-09 08:24:10.217 INFO [APP][IN] qual=QUOTE 8=FIX.4.4|9=138|35=W|34=369|49=cServer|50=QUOTE|52=20260109-06:24:10.087|56=demo.pepperstone.5179095|55=10028|268=2|269=0|270=90939.02|269=1|270=90954.02|10=142|
2026-01-09 08:24:10.617 INFO [APP][IN] qual=QUOTE 8=FIX.4.4|9=138|35=W|34=370|49=cServer|50=QUOTE|52=20260109-06:24:10.488|56=demo.pepperstone.5179095|55=10028|268=2|269=0|270=90938.07|269=1|270=90953.07|10=147|
2026-01-09 08:24:11.023 INFO [APP][IN] qual=QUOTE 8=FIX.4.4|9=138|35=W|34=371|49=cServer|50=QUOTE|52=20260109-06:24:10.894|56=demo.pepperstone.5179095|55=10028|268=2|269=0|270=90938.24|269=1|270=90953.24|10=147|
2026-01-09 08:24:11.473 INFO [APP][IN] qual=QUOTE 8=FIX.4.4|9=136|35=W|34=372|49=cServer|50=QUOTE|52=20260109-06:24:11.343|56=demo.pepperstone.5179095|55=10028|268=2|269=0|270=90938.8|269=1|270=90953.8|10=044|
2026-01-09 08:24:11.921 INFO [APP][IN] qual=QUOTE 8=FIX.4.4|9=138|35=W|34=373|49=cServer|50=QUOTE|52=20260109-06:24:11.791|56=demo.pepperstone.5179095|55=10028|268=2|269=0|270=90938.53|269=1|270=90953.53|10=150|
2026-01-09 08:24:12.321 INFO [APP][IN] qual=QUOTE 8=FIX.4.4|9=136|35=W|34=374|49=cServer|50=QUOTE|52=20260109-06:24:12.191|56=demo.pepperstone.5179095|55=10028|268=2|269=0|270=90938.5|269=1|270=90953.5|10=042|
2026-01-09 08:24:12.722 INFO [APP][IN] qual=QUOTE 8=FIX.4.4|9=138|35=W|34=375|49=cServer|50=QUOTE|52=20260109-06:24:12.593|56=demo.pepperstone.5179095|55=10028|268=2|269=0|270=90938.27|269=1|270=90953.27|10=155|
2026-01-09 08:24:13.124 INFO [APP][IN] qual=QUOTE 8=FIX.4.4|9=138|35=W|34=376|49=cServer|50=QUOTE|52=20260109-06:24:12.995|56=demo.pepperstone.5179095|55=10028|268=2|269=0|270=90938.56|269=1|270=90953.56|10=166|
2026-01-09 08:24:13.526 INFO [APP][IN] qual=QUOTE 8=FIX.4.4|9=138|35=W|34=377|49=cServer|50=QUOTE|52=20260109-06:24:13.397|56=demo.pepperstone.5179095|55=10028|268=2|269=0|270=90942.84|269=1|270=90957.84|10=165|
2026-01-09 08:24:13.929 INFO [APP][IN] qual=QUOTE 8=FIX.4.4|9=138|35=W|34=378|49=cServer|50=QUOTE|52=20260109-06:24:13.800|56=demo.pepperstone.5179095|55=10028|268=2|269=0|270=90939.64|269=1|270=90954.64|10=154|
2026-01-09 08:24:14.330 INFO [APP][IN] qual=QUOTE 8=FIX.4.4|9=138|35=W|34=379|49=cServer|50=QUOTE|52=20260109-06:24:14.201|56=demo.pepperstone.5179095|55=10028|268=2|269=0|270=90941.62|269=1|270=90956.62|10=142|
2026-01-09 08:24:14.730 INFO [APP][IN] qual=QUOTE 8=FIX.4.4|9=138|35=W|34=380|49=cServer|50=QUOTE|52=20260109-06:24:14.601|56=demo.pepperstone.5179095|55=10028|268=2|269=0|270=90940.47|269=1|270=90955.47|10=142|
2026-01-09 08:24:15.133 INFO [APP][IN] qual=QUOTE 8=FIX.4.4|9=138|35=W|34=381|49=cServer|50=QUOTE|52=20260109-06:24:15.004|56=demo.pepperstone.5179095|55=10028|268=2|269=0|270=90940.14|269=1|270=90955.14|10=129|
2026-01-09 08:24:15.533 INFO [APP][IN] qual=QUOTE 8=FIX.4.4|9=138|35=W|34=382|49=cServer|50=QUOTE|52=20260109-06:24:15.404|56=demo.pepperstone.5179095|55=10028|268=2|269=0|270=90939.66|269=1|270=90954.66|10=155|
2026-01-09 08:24:15.936 INFO [APP][IN] qual=QUOTE 8=FIX.4.4|9=138|35=W|34=383|49=cServer|50=QUOTE|52=20260109-06:24:15.806|56=demo.pepperstone.5179095|55=10028|268=2|269=0|270=90939.54|269=1|270=90954.54|10=156|
2026-01-09 08:24:16.341 INFO [APP][IN] qual=QUOTE 8=FIX.4.4|9=138|35=W|34=384|49=cServer|50=QUOTE|52=20260109-06:24:16.211|56=demo.pepperstone.5179095|55=10028|268=2|269=0|270=90937.98|269=1|270=90952.98|10=160|
2026-01-09 08:24:16.741 INFO [APP][IN] qual=QUOTE 8=FIX.4.4|9=138|35=W|34=385|49=cServer|50=QUOTE|52=20260109-06:24:16.612|56=demo.pepperstone.5179095|55=10028|268=2|269=0|270=90937.74|269=1|270=90952.74|10=154|
2026-01-09 08:24:17.190 INFO [APP][IN] qual=QUOTE 8=FIX.4.4|9=138|35=W|34=386|49=cServer|50=QUOTE|52=20260109-06:24:17.061|56=demo.pepperstone.5179095|55=10028|268=2|269=0|270=90937.91|269=1|270=90952.91|10=152|
2026-01-09 08:24:17.592 INFO [APP][IN] qual=QUOTE 8=FIX.4.4|9=138|35=W|34=387|49=cServer|50=QUOTE|52=20260109-06:24:17.462|56=demo.pepperstone.5179095|55=10028|268=2|269=0|270=90937.72|269=1|270=90952.72|10=156|
2026-01-09 08:24:18.042 INFO [APP][IN] qual=QUOTE 8=FIX.4.4|9=138|35=W|34=388|49=cServer|50=QUOTE|52=20260109-06:24:17.913|56=demo.pepperstone.5179095|55=10028|268=2|269=0|270=90937.73|269=1|270=90952.73|10=160|
2026-01-09 08:24:18.450 INFO [APP][IN] qual=QUOTE 8=FIX.4.4|9=138|35=W|34=389|49=cServer|50=QUOTE|52=20260109-06:24:18.321|56=demo.pepperstone.5179095|55=10028|268=2|269=0|270=90937.74|269=1|270=90952.74|10=157|
2026-01-09 08:24:18.863 INFO [APP][IN] qual=QUOTE 8=FIX.4.4|9=138|35=W|34=390|49=cServer|50=QUOTE|52=20260109-06:24:18.734|56=demo.pepperstone.5179095|55=10028|268=2|269=0|270=90938.78|269=1|270=90953.78|10=167|
2026-01-09 08:24:19.308 INFO [APP][IN] qual=QUOTE 8=FIX.4.4|9=136|35=W|34=391|49=cServer|50=QUOTE|52=20260109-06:24:19.179|56=demo.pepperstone.5179095|55=10028|268=2|269=0|270=90937.8|269=1|270=90952.8|10=058|
2026-01-09 08:24:19.712 INFO [APP][IN] qual=QUOTE 8=FIX.4.4|9=138|35=W|34=392|49=cServer|50=QUOTE|52=20260109-06:24:19.582|56=demo.pepperstone.5179095|55=10028|268=2|269=0|270=90937.58|269=1|270=90952.58|10=165|
2026-01-09 08:24:20.153 INFO [APP][IN] qual=QUOTE 8=FIX.4.4|9=138|35=W|34=393|49=cServer|50=QUOTE|52=20260109-06:24:20.023|56=demo.pepperstone.5179095|55=10028|268=2|269=0|270=90937.03|269=1|270=90952.03|10=128|
2026-01-09 08:24:20.559 INFO [APP][IN] qual=QUOTE 8=FIX.4.4|9=138|35=W|34=394|49=cServer|50=QUOTE|52=20260109-06:24:20.429|56=demo.pepperstone.5179095|55=10028|268=2|269=0|270=90937.15|269=1|270=90952.15|10=145|
2026-01-09 08:24:20.959 INFO [APP][IN] qual=QUOTE 8=FIX.4.4|9=138|35=W|34=395|49=cServer|50=QUOTE|52=20260109-06:24:20.830|56=demo.pepperstone.5179095|55=10028|268=2|269=0|270=90936.84|269=1|270=90951.84|10=152|
2026-01-09 08:24:21.365 INFO [APP][IN] qual=QUOTE 8=FIX.4.4|9=138|35=W|34=396|49=cServer|50=QUOTE|52=20260109-06:24:21.236|56=demo.pepperstone.5179095|55=10028|268=2|269=0|270=90936.62|269=1|270=90951.62|10=146|
2026-01-09 08:24:21.768 INFO [APP][IN] qual=QUOTE 8=FIX.4.4|9=138|35=W|34=397|49=cServer|50=QUOTE|52=20260109-06:24:21.639|56=demo.pepperstone.5179095|55=10028|268=2|269=0|270=90936.83|269=1|270=90951.83|10=160|
2026-01-09 08:24:22.218 INFO [APP][IN] qual=QUOTE 8=FIX.4.4|9=138|35=W|34=398|49=cServer|50=QUOTE|52=20260109-06:24:22.088|56=demo.pepperstone.5179095|55=10028|268=2|269=0|270=90936.72|269=1|270=90951.72|10=156|
2026-01-09 08:24:22.620 INFO [APP][IN] qual=QUOTE 8=FIX.4.4|9=138|35=W|34=399|49=cServer|50=QUOTE|52=20260109-06:24:22.491|56=demo.pepperstone.5179095|55=10028|268=2|269=0|270=90936.04|269=1|270=90951.04|10=145|
2026-01-09 08:24:23.023 INFO [APP][IN] qual=QUOTE 8=FIX.4.4|9=138|35=W|34=400|49=cServer|50=QUOTE|52=20260109-06:24:22.893|56=demo.pepperstone.5179095|55=10028|268=2|269=0|270=90930.71|269=1|270=90945.71|10=139|
2026-01-09 08:24:23.441 INFO [APP][IN] qual=QUOTE 8=FIX.4.4|9=138|35=W|34=401|49=cServer|50=QUOTE|52=20260109-06:24:23.311|56=demo.pepperstone.5179095|55=10028|268=2|269=0|270=90932.12|269=1|270=90947.12|10=120|
2026-01-09 08:24:23.849 INFO [APP][IN] qual=QUOTE 8=FIX.4.4|9=138|35=W|34=402|49=cServer|50=QUOTE|52=20260109-06:24:23.720|56=demo.pepperstone.5179095|55=10028|268=2|269=0|270=90931.55|269=1|270=90946.55|10=137|
2026-01-09 08:24:24.275 INFO [APP][IN] qual=QUOTE 8=FIX.4.4|9=138|35=W|34=403|49=cServer|50=QUOTE|52=20260109-06:24:24.146|56=demo.pepperstone.5179095|55=10028|268=2|269=0|270=90931.47|269=1|270=90946.47|10=143|
2026-01-09 08:24:24.728 INFO [APP][IN] qual=QUOTE 8=FIX.4.4|9=138|35=W|34=404|49=cServer|50=QUOTE|52=20260109-06:24:24.598|56=demo.pepperstone.5179095|55=10028|268=2|269=0|270=90931.54|269=1|270=90946.54|10=151|
2026-01-09 08:24:25.175 INFO [APP][IN] qual=QUOTE 8=FIX.4.4|9=138|35=W|34=405|49=cServer|50=QUOTE|52=20260109-06:24:25.045|56=demo.pepperstone.5179095|55=10028|268=2|269=0|270=90931.63|269=1|270=90946.63|10=140|
2026-01-09 08:24:25.580 INFO [APP][IN] qual=QUOTE 8=FIX.4.4|9=138|35=W|34=406|49=cServer|50=QUOTE|52=20260109-06:24:25.451|56=demo.pepperstone.5179095|55=10028|268=2|269=0|270=90936.71|269=1|270=90951.71|10=141|
2026-01-09 08:24:26.004 INFO [APP][IN] qual=QUOTE 8=FIX.4.4|9=138|35=W|34=407|49=cServer|50=QUOTE|52=20260109-06:24:25.875|56=demo.pepperstone.5179095|55=10028|268=2|269=0|270=90936.11|269=1|270=90951.11|10=140|
2026-01-09 08:24:26.419 INFO [APP][IN] qual=QUOTE 8=FIX.4.4|9=138|35=W|34=408|49=cServer|50=QUOTE|52=20260109-06:24:26.289|56=demo.pepperstone.5179095|55=10028|268=2|269=0|270=90935.82|269=1|270=90950.82|10=155|
2026-01-09 08:24:26.834 INFO [APP][IN] qual=QUOTE 8=FIX.4.4|9=138|35=W|34=409|49=cServer|50=QUOTE|52=20260109-06:24:26.705|56=demo.pepperstone.5179095|55=10028|268=2|269=0|270=90936.14|269=1|270=90951.14|10=141|
2026-01-09 08:24:27.322 INFO [APP][IN] qual=QUOTE 8=FIX.4.4|9=136|35=W|34=410|49=cServer|50=QUOTE|52=20260109-06:24:27.192|56=demo.pepperstone.5179095|55=10028|268=2|269=0|270=90936.1|269=1|270=90951.1|10=028|
2026-01-09 08:24:27.838 INFO [APP][IN] qual=QUOTE 8=FIX.4.4|9=136|35=W|34=411|49=cServer|50=QUOTE|52=20260109-06:24:27.708|56=demo.pepperstone.5179095|55=10028|268=2|269=0|270=90936.3|269=1|270=90951.3|10=036|
2026-01-09 08:24:28.290 INFO [APP][IN] qual=QUOTE 8=FIX.4.4|9=138|35=W|34=412|49=cServer|50=QUOTE|52=20260109-06:24:28.160|56=demo.pepperstone.5179095|55=10028|268=2|269=0|270=90936.21|269=1|270=90951.21|10=128|
2026-01-09 08:24:28.693 INFO [APP][IN] qual=QUOTE 8=FIX.4.4|9=138|35=W|34=413|49=cServer|50=QUOTE|52=20260109-06:24:28.564|56=demo.pepperstone.5179095|55=10028|268=2|269=0|270=90936.66|269=1|270=90951.66|10=155|
2026-01-09 08:24:29.110 INFO [APP][IN] qual=QUOTE 8=FIX.4.4|9=138|35=W|34=414|49=cServer|50=QUOTE|52=20260109-06:24:28.981|56=demo.pepperstone.5179095|55=10028|268=2|269=0|270=90936.54|269=1|270=90951.54|10=153|
2026-01-09 08:24:29.567 INFO [APP][IN] qual=QUOTE 8=FIX.4.4|9=138|35=W|34=415|49=cServer|50=QUOTE|52=20260109-06:24:29.437|56=demo.pepperstone.5179095|55=10028|268=2|269=0|270=90936.37|269=1|270=90951.37|10=153|
2026-01-09 08:24:29.991 INFO [APP][IN] qual=QUOTE 8=FIX.4.4|9=136|35=W|34=416|49=cServer|50=QUOTE|52=20260109-06:24:29.862|56=demo.pepperstone.5179095|55=10028|268=2|269=0|270=90936.4|269=1|270=90951.4|10=046|
2026-01-09 08:24:30.415 INFO [APP][IN] qual=QUOTE 8=FIX.4.4|9=138|35=W|34=417|49=cServer|50=QUOTE|52=20260109-06:24:30.286|56=demo.pepperstone.5179095|55=10028|268=2|269=0|270=90936.44|269=1|270=90951.44|10=145|
2026-01-09 08:24:30.918 INFO [APP][IN] qual=QUOTE 8=FIX.4.4|9=138|35=W|34=418|49=cServer|50=QUOTE|52=20260109-06:24:30.788|56=demo.pepperstone.5179095|55=10028|268=2|269=0|270=90938.29|269=1|270=90953.29|10=163|
2026-01-09 08:24:31.329 INFO [APP][IN] qual=QUOTE 8=FIX.4.4|9=138|35=W|34=419|49=cServer|50=QUOTE|52=20260109-06:24:31.199|56=demo.pepperstone.5179095|55=10028|268=2|269=0|270=90940.42|269=1|270=90955.42|10=146|
2026-01-09 08:24:31.745 INFO [APP][IN] qual=QUOTE 8=FIX.4.4|9=138|35=W|34=420|49=cServer|50=QUOTE|52=20260109-06:24:31.616|56=demo.pepperstone.5179095|55=10028|268=2|269=0|270=90939.59|269=1|270=90954.59|10=155|
2026-01-09 08:24:32.171 INFO [APP][IN] qual=QUOTE 8=FIX.4.4|9=138|35=W|34=421|49=cServer|50=QUOTE|52=20260109-06:24:32.042|56=demo.pepperstone.5179095|55=10028|268=2|269=0|270=90938.31|269=1|270=90953.31|10=128|
2026-01-09 08:24:32.615 INFO [APP][IN] qual=QUOTE 8=FIX.4.4|9=138|35=W|34=422|49=cServer|50=QUOTE|52=20260109-06:24:32.485|56=demo.pepperstone.5179095|55=10028|268=2|269=0|270=90928.53|269=1|270=90943.53|10=146|
2026-01-09 08:24:33.020 INFO [APP][IN] qual=QUOTE 8=FIX.4.4|9=138|35=W|34=423|49=cServer|50=QUOTE|52=20260109-06:24:32.890|56=demo.pepperstone.5179095|55=10028|268=2|269=0|270=90935.92|269=1|270=90950.92|10=149|
2026-01-09 08:24:33.424 INFO [APP][IN] qual=QUOTE 8=FIX.4.4|9=138|35=W|34=424|49=cServer|50=QUOTE|52=20260109-06:24:33.294|56=demo.pepperstone.5179095|55=10028|268=2|269=0|270=90935.76|269=1|270=90950.76|10=153|
2026-01-09 08:24:33.876 INFO [APP][IN] qual=QUOTE 8=FIX.4.4|9=138|35=W|34=425|49=cServer|50=QUOTE|52=20260109-06:24:33.746|56=demo.pepperstone.5179095|55=10028|268=2|269=0|270=90935.39|269=1|270=90950.39|10=154|
2026-01-09 08:24:34.320 INFO [APP][IN] qual=QUOTE 8=FIX.4.4|9=138|35=W|34=426|49=cServer|50=QUOTE|52=20260109-06:24:34.191|56=demo.pepperstone.5179095|55=10028|268=2|269=0|270=90935.83|269=1|270=90950.83|10=148|
2026-01-09 08:24:34.728 INFO [APP][IN] qual=QUOTE 8=FIX.4.4|9=138|35=W|34=427|49=cServer|50=QUOTE|52=20260109-06:24:34.599|56=demo.pepperstone.5179095|55=10028|268=2|269=0|270=90935.64|269=1|270=90950.64|10=159|
2026-01-09 08:24:35.176 INFO [APP][IN] qual=QUOTE 8=FIX.4.4|9=136|35=W|34=428|49=cServer|50=QUOTE|52=20260109-06:24:35.046|56=demo.pepperstone.5179095|55=10028|268=2|269=0|270=90935.8|269=1|270=90950.8|10=046|
2026-01-09 08:24:35.580 INFO [APP][IN] qual=QUOTE 8=FIX.4.4|9=138|35=W|34=429|49=cServer|50=QUOTE|52=20260109-06:24:35.451|56=demo.pepperstone.5179095|55=10028|268=2|269=0|270=90936.01|269=1|270=90951.01|10=133|
2026-01-09 08:24:35.819 INFO [ADMIN][IN] qual=TRADE 8=FIX.4.4|9=83|35=0|34=8|49=cServer|50=TRADE|52=20260109-06:24:35.690|56=demo.pepperstone.5179095|10=252|
2026-01-09 08:24:35.995 INFO [APP][IN] qual=QUOTE 8=FIX.4.4|9=138|35=W|34=430|49=cServer|50=QUOTE|52=20260109-06:24:35.865|56=demo.pepperstone.5179095|55=10028|268=2|269=0|270=90930.09|269=1|270=90945.09|10=147|
2026-01-09 08:24:36.429 INFO [APP][IN] qual=QUOTE 8=FIX.4.4|9=136|35=W|34=431|49=cServer|50=QUOTE|52=20260109-06:24:36.300|56=demo.pepperstone.5179095|55=10028|268=2|269=0|270=90930.1|269=1|270=90945.1|10=019|
2026-01-09 08:24:36.832 INFO [APP][IN] qual=QUOTE 8=FIX.4.4|9=138|35=W|34=432|49=cServer|50=QUOTE|52=20260109-06:24:36.703|56=demo.pepperstone.5179095|55=10028|268=2|269=0|270=90929.78|269=1|270=90944.78|10=160|
2026-01-09 08:24:37.235 INFO [APP][IN] qual=QUOTE 8=FIX.4.4|9=138|35=W|34=433|49=cServer|50=QUOTE|52=20260109-06:24:37.105|56=demo.pepperstone.5179095|55=10028|268=2|269=0|270=90929.38|269=1|270=90944.38|10=150|
2026-01-09 08:24:37.732 INFO [APP][IN] qual=QUOTE 8=FIX.4.4|9=138|35=W|34=434|49=cServer|50=QUOTE|52=20260109-06:24:37.602|56=demo.pepperstone.5179095|55=10028|268=2|269=0|270=90928.83|269=1|270=90943.83|10=151|
2026-01-09 08:24:38.137 INFO [APP][IN] qual=QUOTE 8=FIX.4.4|9=138|35=W|34=435|49=cServer|50=QUOTE|52=20260109-06:24:38.007|56=demo.pepperstone.5179095|55=10028|268=2|269=0|270=90926.87|269=1|270=90941.87|10=156|
2026-01-09 08:24:38.539 INFO [APP][IN] qual=QUOTE 8=FIX.4.4|9=138|35=W|34=436|49=cServer|50=QUOTE|52=20260109-06:24:38.410|56=demo.pepperstone.5179095|55=10028|268=2|269=0|270=90927.74|269=1|270=90942.74|10=149|
2026-01-09 08:24:38.959 INFO [APP][IN] qual=QUOTE 8=FIX.4.4|9=138|35=W|34=437|49=cServer|50=QUOTE|52=20260109-06:24:38.830|56=demo.pepperstone.5179095|55=10028|268=2|269=0|270=90927.83|269=1|270=90942.83|10=156|
2026-01-09 08:24:39.372 INFO [APP][IN] qual=QUOTE 8=FIX.4.4|9=138|35=W|34=438|49=cServer|50=QUOTE|52=20260109-06:24:39.243|56=demo.pepperstone.5179095|55=10028|268=2|269=0|270=90927.19|269=1|270=90942.19|10=154|
2026-01-09 08:24:39.812 INFO [APP][IN] qual=QUOTE 8=FIX.4.4|9=138|35=W|34=439|49=cServer|50=QUOTE|52=20260109-06:24:39.683|56=demo.pepperstone.5179095|55=10028|268=2|269=0|270=90927.12|269=1|270=90942.12|10=149|
2026-01-09 08:24:40.264 INFO [APP][IN] qual=QUOTE 8=FIX.4.4|9=138|35=W|34=440|49=cServer|50=QUOTE|52=20260109-06:24:40.135|56=demo.pepperstone.5179095|55=10028|268=2|269=0|270=90927.22|269=1|270=90942.22|10=127|
2026-01-09 08:24:40.697 INFO [APP][IN] qual=QUOTE 8=FIX.4.4|9=138|35=W|34=441|49=cServer|50=QUOTE|52=20260109-06:24:40.568|56=demo.pepperstone.5179095|55=10028|268=2|269=0|270=90927.21|269=1|270=90942.21|10=136|
2026-01-09 08:24:41.114 INFO [APP][IN] qual=QUOTE 8=FIX.4.4|9=138|35=W|34=442|49=cServer|50=QUOTE|52=20260109-06:24:40.985|56=demo.pepperstone.5179095|55=10028|268=2|269=0|270=90927.22|269=1|270=90942.22|10=142|
2026-01-09 08:24:41.518 INFO [APP][IN] qual=QUOTE 8=FIX.4.4|9=136|35=W|34=443|49=cServer|50=QUOTE|52=20260109-06:24:41.389|56=demo.pepperstone.5179095|55=10028|268=2|269=0|270=90927.2|269=1|270=90942.2|10=040|
2026-01-09 08:24:42.469 INFO [APP][IN] qual=QUOTE 8=FIX.4.4|9=138|35=W|34=444|49=cServer|50=QUOTE|52=20260109-06:24:42.340|56=demo.pepperstone.5179095|55=10028|268=2|269=0|270=90926.97|269=1|270=90941.97|10=153|
2026-01-09 08:24:42.872 INFO [APP][IN] qual=QUOTE 8=FIX.4.4|9=138|35=W|34=445|49=cServer|50=QUOTE|52=20260109-06:24:42.742|56=demo.pepperstone.5179095|55=10028|268=2|269=0|270=90927.14|269=1|270=90942.14|10=140|
2026-01-09 08:24:43.324 INFO [APP][IN] qual=QUOTE 8=FIX.4.4|9=138|35=W|34=446|49=cServer|50=QUOTE|52=20260109-06:24:43.195|56=demo.pepperstone.5179095|55=10028|268=2|269=0|270=90927.07|269=1|270=90942.07|10=148|
2026-01-09 08:24:43.774 INFO [APP][IN] qual=QUOTE 8=FIX.4.4|9=138|35=W|34=447|49=cServer|50=QUOTE|52=20260109-06:24:43.645|56=demo.pepperstone.5179095|55=10028|268=2|269=0|270=90927.12|269=1|270=90942.12|10=141|
2026-01-09 08:24:44.225 INFO [APP][IN] qual=QUOTE 8=FIX.4.4|9=138|35=W|34=448|49=cServer|50=QUOTE|52=20260109-06:24:44.095|56=demo.pepperstone.5179095|55=10028|268=2|269=0|270=90925.76|269=1|270=90940.76|10=158|
2026-01-09 08:24:44.626 INFO [APP][IN] qual=QUOTE 8=FIX.4.4|9=138|35=W|34=449|49=cServer|50=QUOTE|52=20260109-06:24:44.497|56=demo.pepperstone.5179095|55=10028|268=2|269=0|270=90927.15|269=1|270=90942.15|10=155|
2026-01-09 08:24:45.028 INFO [APP][IN] qual=QUOTE 8=FIX.4.4|9=138|35=W|34=450|49=cServer|50=QUOTE|52=20260109-06:24:44.899|56=demo.pepperstone.5179095|55=10028|268=2|269=0|270=90926.75|269=1|270=90941.75|10=163|
2026-01-09 08:24:45.431 INFO [APP][IN] qual=QUOTE 8=FIX.4.4|9=138|35=W|34=451|49=cServer|50=QUOTE|52=20260109-06:24:45.302|56=demo.pepperstone.5179095|55=10028|268=2|269=0|270=90926.77|269=1|270=90941.77|10=148|
2026-01-09 08:24:45.882 INFO [APP][IN] qual=QUOTE 8=FIX.4.4|9=138|35=W|34=452|49=cServer|50=QUOTE|52=20260109-06:24:45.752|56=demo.pepperstone.5179095|55=10028|268=2|269=0|270=90927.33|269=1|270=90942.33|10=144|
2026-01-09 08:24:46.320 INFO [APP][IN] qual=QUOTE 8=FIX.4.4|9=138|35=W|34=453|49=cServer|50=QUOTE|52=20260109-06:24:46.190|56=demo.pepperstone.5179095|55=10028|268=2|269=0|270=90926.93|269=1|270=90941.93|10=152|
2026-01-09 08:24:46.723 INFO [APP][IN] qual=QUOTE 8=FIX.4.4|9=138|35=W|34=454|49=cServer|50=QUOTE|52=20260109-06:24:46.593|56=demo.pepperstone.5179095|55=10028|268=2|269=0|270=90929.19|269=1|270=90944.19|10=162|
2026-01-09 08:24:47.136 INFO [APP][IN] qual=QUOTE 8=FIX.4.4|9=138|35=W|34=455|49=cServer|50=QUOTE|52=20260109-06:24:47.006|56=demo.pepperstone.5179095|55=10028|268=2|269=0|270=90938.47|269=1|270=90953.47|10=155|
2026-01-09 08:24:47.588 INFO [APP][IN] qual=QUOTE 8=FIX.4.4|9=138|35=W|34=456|49=cServer|50=QUOTE|52=20260109-06:24:47.459|56=demo.pepperstone.5179095|55=10028|268=2|269=0|270=90937.48|269=1|270=90952.48|10=168|
