nohup: ignoring input
2026-01-09 08:12:20.276 INFO Python: 3.12.3 (main, Nov  6 2025, 13:44:16) [GCC 13.3.0]
2026-01-09 08:12:20.276 INFO Executable: /home/renierdejager/Documents/.venv/bin/python3
2026-01-09 08:12:20.276 INFO CWD: /home/renierdejager/Documents/ctrader_trading_bot
2026-01-09 08:12:20.276 INFO PY_LOGDIR: /home/renierdejager/Documents/ctrader_trading_bot/ctrader_py_logs
2026-01-09 08:12:20.276 INFO Logfile: ctrader_py_logs/ctrader_20260109_061220.log
2026-01-09 08:12:20.276 INFO symbol_id=10028 qty=0.1 timeframe=M1
2026-01-09 08:12:20.276 INFO cfg_quote=config/ctrader_quote.cfg
2026-01-09 08:12:20.276 INFO cfg_trade=config/ctrader_trade.cfg
2026-01-09 08:12:20.277 INFO CTRADER_USERNAME=5179095
2026-01-09 08:12:20.297 INFO [CREATE] FIX.4.4:demo.pepperstone.5179095->cServer:QUOTE qual=QUOTE
2026-01-09 08:12:20.316 INFO [CREATE] FIX.4.4:demo.pepperstone.5179095->cServer:TRADE qual=TRADE
2026-01-09 08:12:20.324 INFO [ADMIN][LOGON OUT] qual=QUOTE 8=FIX.4.4|9=127|35=A|34=57|49=demo.pepperstone.5179095|52=20260109-06:12:20.323|56=cServer|57=QUOTE|98=0|108=30|141=Y|553=5179095|554=REDACTEDJ@3ger69|10=096|
2026-01-09 08:12:20.324 INFO [ADMIN][LOGON OUT] qual=TRADE 8=FIX.4.4|9=127|35=A|34=58|49=demo.pepperstone.5179095|52=20260109-06:12:20.323|56=cServer|57=TRADE|98=0|108=30|141=Y|553=5179095|554=REDACTEDJ@3ger69|10=067|
2026-01-09 08:12:20.884 INFO [ADMIN][IN] qual=QUOTE 8=FIX.4.4|9=101|35=A|34=1|49=cServer|50=QUOTE|52=20260109-06:12:20.755|56=demo.pepperstone.5179095|98=0|108=30|141=Y|10=138|
2026-01-09 08:12:20.884 INFO [LOGON] FIX.4.4:demo.pepperstone.5179095->cServer:QUOTE qual=QUOTE
2026-01-09 08:12:20.884 INFO [APP][OUT] qual=QUOTE 8=FIX.4.4|9=141|35=V|34=2|49=demo.pepperstone.5179095|52=20260109-06:12:20.884|56=cServer|146=1|55=10028|262=BTCUSD_SPOT|263=1|264=1|265=1|267=2|269=0|269=1|10=110|
2026-01-09 08:12:20.885 INFO [QUOTE] Subscribed spot for symbolId=10028
2026-01-09 08:12:20.886 INFO [ADMIN][IN] qual=TRADE 8=FIX.4.4|9=101|35=A|34=1|49=cServer|50=TRADE|52=20260109-06:12:20.757|56=demo.pepperstone.5179095|98=0|108=30|141=Y|10=110|
2026-01-09 08:12:20.886 INFO [LOGON] FIX.4.4:demo.pepperstone.5179095->cServer:TRADE qual=TRADE
2026-01-09 08:12:20.886 INFO [APP][OUT] qual=TRADE 8=FIX.4.4|9=94|35=AN|34=2|49=demo.pepperstone.5179095|52=20260109-06:12:20.886|56=cServer|710=pos_adcf8023a8|10=189|
2026-01-09 08:12:20.887 INFO [TRADE] Requested positions
2026-01-09 08:12:21.142 INFO [APP][IN] qual=QUOTE 8=FIX.4.4|9=136|35=W|34=2|49=cServer|50=QUOTE|52=20260109-06:12:21.013|56=demo.pepperstone.5179095|55=10028|268=2|269=0|270=90945.58|269=1|270=90960.58|10=032|
2026-01-09 08:12:21.318 INFO [APP][IN] qual=QUOTE 8=FIX.4.4|9=136|35=W|34=3|49=cServer|50=QUOTE|52=20260109-06:12:21.189|56=demo.pepperstone.5179095|55=10028|268=2|269=0|270=90946.21|269=1|270=90961.21|10=029|
2026-01-09 08:12:21.767 INFO [APP][IN] qual=QUOTE 8=FIX.4.4|9=136|35=W|34=4|49=cServer|50=QUOTE|52=20260109-06:12:21.639|56=demo.pepperstone.5179095|55=10028|268=2|269=0|270=90946.75|269=1|270=90961.75|10=048|
2026-01-09 08:12:22.169 INFO [APP][IN] qual=QUOTE 8=FIX.4.4|9=136|35=W|34=5|49=cServer|50=QUOTE|52=20260109-06:12:22.040|56=demo.pepperstone.5179095|55=10028|268=2|269=0|270=90946.97|269=1|270=90961.97|10=044|
2026-01-09 08:12:22.574 INFO [APP][IN] qual=QUOTE 8=FIX.4.4|9=136|35=W|34=6|49=cServer|50=QUOTE|52=20260109-06:12:22.446|56=demo.pepperstone.5179095|55=10028|268=2|269=0|270=90946.96|269=1|270=90961.96|10=053|
2026-01-09 08:12:23.022 INFO [APP][IN] qual=QUOTE 8=FIX.4.4|9=134|35=W|34=7|49=cServer|50=QUOTE|52=20260109-06:12:22.893|56=demo.pepperstone.5179095|55=10028|268=2|269=0|270=90950.2|269=1|270=90965.2|10=191|
2026-01-09 08:12:23.422 INFO [APP][IN] qual=QUOTE 8=FIX.4.4|9=136|35=W|34=8|49=cServer|50=QUOTE|52=20260109-06:12:23.293|56=demo.pepperstone.5179095|55=10028|268=2|269=0|270=90950.54|269=1|270=90965.54|10=043|
2026-01-09 08:12:23.822 INFO [APP][IN] qual=QUOTE 8=FIX.4.4|9=136|35=W|34=9|49=cServer|50=QUOTE|52=20260109-06:12:23.693|56=demo.pepperstone.5179095|55=10028|268=2|269=0|270=90950.28|269=1|270=90965.28|10=050|
2026-01-09 08:12:24.228 INFO [APP][IN] qual=QUOTE 8=FIX.4.4|9=137|35=W|34=10|49=cServer|50=QUOTE|52=20260109-06:12:24.099|56=demo.pepperstone.5179095|55=10028|268=2|269=0|270=90950.67|269=1|270=90965.67|10=098|
2026-01-09 08:12:24.675 INFO [APP][IN] qual=QUOTE 8=FIX.4.4|9=137|35=W|34=11|49=cServer|50=QUOTE|52=20260109-06:12:24.546|56=demo.pepperstone.5179095|55=10028|268=2|269=0|270=90950.57|269=1|270=90965.57|10=094|
2026-01-09 08:12:25.083 INFO [APP][IN] qual=QUOTE 8=FIX.4.4|9=137|35=W|34=12|49=cServer|50=QUOTE|52=20260109-06:12:24.954|56=demo.pepperstone.5179095|55=10028|268=2|269=0|270=90950.83|269=1|270=90965.83|10=096|
2026-01-09 08:12:25.530 INFO [APP][IN] qual=QUOTE 8=FIX.4.4|9=137|35=W|34=13|49=cServer|50=QUOTE|52=20260109-06:12:25.401|56=demo.pepperstone.5179095|55=10028|268=2|269=0|270=90958.62|269=1|270=90973.62|10=086|
2026-01-09 08:12:25.933 INFO [APP][IN] qual=QUOTE 8=FIX.4.4|9=137|35=W|34=14|49=cServer|50=QUOTE|52=20260109-06:12:25.804|56=demo.pepperstone.5179095|55=10028|268=2|269=0|270=90958.39|269=1|270=90973.39|10=102|
2026-01-09 08:12:26.337 INFO [APP][IN] qual=QUOTE 8=FIX.4.4|9=135|35=W|34=15|49=cServer|50=QUOTE|52=20260109-06:12:26.208|56=demo.pepperstone.5179095|55=10028|268=2|269=0|270=90959.1|269=1|270=90974.1|10=240|
2026-01-09 08:12:26.742 INFO [APP][IN] qual=QUOTE 8=FIX.4.4|9=135|35=W|34=16|49=cServer|50=QUOTE|52=20260109-06:12:26.613|56=demo.pepperstone.5179095|55=10028|268=2|269=0|270=90958.7|269=1|270=90973.7|10=251|
2026-01-09 08:12:27.188 INFO [APP][IN] qual=QUOTE 8=FIX.4.4|9=137|35=W|34=17|49=cServer|50=QUOTE|52=20260109-06:12:27.059|56=demo.pepperstone.5179095|55=10028|268=2|269=0|270=90958.45|269=1|270=90973.45|10=103|
2026-01-09 08:12:27.596 INFO [APP][IN] qual=QUOTE 8=FIX.4.4|9=135|35=W|34=18|49=cServer|50=QUOTE|52=20260109-06:12:27.467|56=demo.pepperstone.5179095|55=10028|268=2|269=0|270=90958.5|269=1|270=90973.5|10=001|
2026-01-09 08:12:28.040 INFO [APP][IN] qual=QUOTE 8=FIX.4.4|9=137|35=W|34=19|49=cServer|50=QUOTE|52=20260109-06:12:27.911|56=demo.pepperstone.5179095|55=10028|268=2|269=0|270=90958.31|269=1|270=90973.31|10=092|
2026-01-09 08:12:28.443 INFO [APP][IN] qual=QUOTE 8=FIX.4.4|9=137|35=W|34=20|49=cServer|50=QUOTE|52=20260109-06:12:28.314|56=demo.pepperstone.5179095|55=10028|268=2|269=0|270=90960.23|269=1|270=90975.23|10=079|
2026-01-09 08:12:28.898 INFO [APP][IN] qual=QUOTE 8=FIX.4.4|9=137|35=W|34=21|49=cServer|50=QUOTE|52=20260109-06:12:28.769|56=demo.pepperstone.5179095|55=10028|268=2|269=0|270=90960.89|269=1|270=90975.89|10=118|
2026-01-09 08:12:29.311 INFO [APP][IN] qual=QUOTE 8=FIX.4.4|9=135|35=W|34=22|49=cServer|50=QUOTE|52=20260109-06:12:29.182|56=demo.pepperstone.5179095|55=10028|268=2|269=0|270=90960.9|269=1|270=90975.9|10=251|
2026-01-09 08:12:29.714 INFO [APP][IN] qual=QUOTE 8=FIX.4.4|9=137|35=W|34=23|49=cServer|50=QUOTE|52=20260109-06:12:29.585|56=demo.pepperstone.5179095|55=10028|268=2|269=0|270=90959.51|269=1|270=90974.51|10=102|
2026-01-09 08:12:30.126 INFO [APP][IN] qual=QUOTE 8=FIX.4.4|9=137|35=W|34=24|49=cServer|50=QUOTE|52=20260109-06:12:29.997|56=demo.pepperstone.5179095|55=10028|268=2|269=0|270=90960.38|269=1|270=90975.38|10=113|
2026-01-09 08:12:30.564 INFO [APP][IN] qual=QUOTE 8=FIX.4.4|9=137|35=W|34=25|49=cServer|50=QUOTE|52=20260109-06:12:30.435|56=demo.pepperstone.5179095|55=10028|268=2|269=0|270=90959.43|269=1|270=90974.43|10=092|
2026-01-09 08:12:31.004 INFO [APP][IN] qual=QUOTE 8=FIX.4.4|9=137|35=W|34=26|49=cServer|50=QUOTE|52=20260109-06:12:30.875|56=demo.pepperstone.5179095|55=10028|268=2|269=0|270=90959.62|269=1|270=90974.62|10=103|
2026-01-09 08:12:31.416 INFO [APP][IN] qual=QUOTE 8=FIX.4.4|9=137|35=W|34=27|49=cServer|50=QUOTE|52=20260109-06:12:31.287|56=demo.pepperstone.5179095|55=10028|268=2|269=0|270=90960.43|269=1|270=90975.43|10=093|
2026-01-09 08:12:31.864 INFO [APP][IN] qual=QUOTE 8=FIX.4.4|9=137|35=W|34=28|49=cServer|50=QUOTE|52=20260109-06:12:31.735|56=demo.pepperstone.5179095|55=10028|268=2|269=0|270=90960.13|269=1|270=90975.13|10=086|
2026-01-09 08:12:32.266 INFO [APP][IN] qual=QUOTE 8=FIX.4.4|9=137|35=W|34=29|49=cServer|50=QUOTE|52=20260109-06:12:32.137|56=demo.pepperstone.5179095|55=10028|268=2|269=0|270=90960.14|269=1|270=90975.14|10=086|
2026-01-09 08:12:32.669 INFO [APP][IN] qual=QUOTE 8=FIX.4.4|9=137|35=W|34=30|49=cServer|50=QUOTE|52=20260109-06:12:32.540|56=demo.pepperstone.5179095|55=10028|268=2|269=0|270=90959.81|269=1|270=90974.81|10=091|
2026-01-09 08:12:33.071 INFO [APP][IN] qual=QUOTE 8=FIX.4.4|9=137|35=W|34=31|49=cServer|50=QUOTE|52=20260109-06:12:32.942|56=demo.pepperstone.5179095|55=10028|268=2|269=0|270=90960.22|269=1|270=90975.22|10=081|
2026-01-09 08:12:33.473 INFO [APP][IN] qual=QUOTE 8=FIX.4.4|9=137|35=W|34=32|49=cServer|50=QUOTE|52=20260109-06:12:33.344|56=demo.pepperstone.5179095|55=10028|268=2|269=0|270=90961.86|269=1|270=90976.86|10=101|
2026-01-09 08:12:33.904 INFO [APP][IN] qual=QUOTE 8=FIX.4.4|9=135|35=W|34=33|49=cServer|50=QUOTE|52=20260109-06:12:33.775|56=demo.pepperstone.5179095|55=10028|268=2|269=0|270=90961.9|269=1|270=90976.9|10=002|
2026-01-09 08:12:34.323 INFO [APP][IN] qual=QUOTE 8=FIX.4.4|9=137|35=W|34=34|49=cServer|50=QUOTE|52=20260109-06:12:34.194|56=demo.pepperstone.5179095|55=10028|268=2|269=0|270=90961.62|269=1|270=90976.62|10=095|
2026-01-09 08:12:34.728 INFO [APP][IN] qual=QUOTE 8=FIX.4.4|9=137|35=W|34=35|49=cServer|50=QUOTE|52=20260109-06:12:34.599|56=demo.pepperstone.5179095|55=10028|268=2|269=0|270=90962.44|269=1|270=90977.44|10=107|
2026-01-09 08:12:35.170 INFO [APP][IN] qual=QUOTE 8=FIX.4.4|9=137|35=W|34=36|49=cServer|50=QUOTE|52=20260109-06:12:35.041|56=demo.pepperstone.5179095|55=10028|268=2|269=0|270=90961.33|269=1|270=90976.33|10=085|
2026-01-09 08:12:35.579 INFO [APP][IN] qual=QUOTE 8=FIX.4.4|9=137|35=W|34=37|49=cServer|50=QUOTE|52=20260109-06:12:35.450|56=demo.pepperstone.5179095|55=10028|268=2|269=0|270=90961.22|269=1|270=90976.22|10=086|
2026-01-09 08:12:35.981 INFO [APP][IN] qual=QUOTE 8=FIX.4.4|9=137|35=W|34=38|49=cServer|50=QUOTE|52=20260109-06:12:35.852|56=demo.pepperstone.5179095|55=10028|268=2|269=0|270=90961.85|269=1|270=90976.85|10=111|
2026-01-09 08:12:36.381 INFO [APP][IN] qual=QUOTE 8=FIX.4.4|9=137|35=W|34=39|49=cServer|50=QUOTE|52=20260109-06:12:36.252|56=demo.pepperstone.5179095|55=10028|268=2|269=0|270=90961.34|269=1|270=90976.34|10=095|
2026-01-09 08:12:36.782 INFO [APP][IN] qual=QUOTE 8=FIX.4.4|9=137|35=W|34=40|49=cServer|50=QUOTE|52=20260109-06:12:36.653|56=demo.pepperstone.5179095|55=10028|268=2|269=0|270=90951.52|269=1|270=90966.52|10=090|
2026-01-09 08:12:37.199 INFO [APP][IN] qual=QUOTE 8=FIX.4.4|9=137|35=W|34=41|49=cServer|50=QUOTE|52=20260109-06:12:37.070|56=demo.pepperstone.5179095|55=10028|268=2|269=0|270=90949.66|269=1|270=90964.66|10=100|
2026-01-09 08:12:37.638 INFO [APP][IN] qual=QUOTE 8=FIX.4.4|9=137|35=W|34=42|49=cServer|50=QUOTE|52=20260109-06:12:37.504|56=demo.pepperstone.5179095|55=10028|268=2|269=0|270=90951.17|269=1|270=90966.17|10=090|
2026-01-09 08:12:38.035 INFO [APP][IN] qual=QUOTE 8=FIX.4.4|9=135|35=W|34=43|49=cServer|50=QUOTE|52=20260109-06:12:37.907|56=demo.pepperstone.5179095|55=10028|268=2|269=0|270=90951.4|269=1|270=90966.4|10=248|
2026-01-09 08:12:38.438 INFO [APP][IN] qual=QUOTE 8=FIX.4.4|9=137|35=W|34=44|49=cServer|50=QUOTE|52=20260109-06:12:38.309|56=demo.pepperstone.5179095|55=10028|268=2|269=0|270=90951.43|269=1|270=90966.43|10=094|
2026-01-09 08:12:38.839 INFO [APP][IN] qual=QUOTE 8=FIX.4.4|9=135|35=W|34=45|49=cServer|50=QUOTE|52=20260109-06:12:38.710|56=demo.pepperstone.5179095|55=10028|268=2|269=0|270=90953.2|269=1|270=90968.2|10=243|
2026-01-09 08:12:39.259 INFO [APP][IN] qual=QUOTE 8=FIX.4.4|9=135|35=W|34=46|49=cServer|50=QUOTE|52=20260109-06:12:39.130|56=demo.pepperstone.5179095|55=10028|268=2|269=0|270=90953.9|269=1|270=90968.9|10=255|
2026-01-09 08:12:39.660 INFO [APP][IN] qual=QUOTE 8=FIX.4.4|9=137|35=W|34=47|49=cServer|50=QUOTE|52=20260109-06:12:39.531|56=demo.pepperstone.5179095|55=10028|268=2|269=0|270=90964.14|269=1|270=90979.14|10=099|
2026-01-09 08:12:40.065 INFO [APP][IN] qual=QUOTE 8=FIX.4.4|9=137|35=W|34=48|49=cServer|50=QUOTE|52=20260109-06:12:39.936|56=demo.pepperstone.5179095|55=10028|268=2|269=0|270=90963.36|269=1|270=90978.36|10=115|
2026-01-09 08:12:40.506 INFO [APP][IN] qual=QUOTE 8=FIX.4.4|9=137|35=W|34=49|49=cServer|50=QUOTE|52=20260109-06:12:40.377|56=demo.pepperstone.5179095|55=10028|268=2|269=0|270=90963.33|269=1|270=90978.33|10=101|
2026-01-09 08:12:40.915 INFO [APP][IN] qual=QUOTE 8=FIX.4.4|9=137|35=W|34=50|49=cServer|50=QUOTE|52=20260109-06:12:40.786|56=demo.pepperstone.5179095|55=10028|268=2|269=0|270=90963.43|269=1|270=90978.43|10=099|
2026-01-09 08:12:41.365 INFO [APP][IN] qual=QUOTE 8=FIX.4.4|9=137|35=W|34=51|49=cServer|50=QUOTE|52=20260109-06:12:41.236|56=demo.pepperstone.5179095|55=10028|268=2|269=0|270=90963.66|269=1|270=90978.66|10=101|
2026-01-09 08:12:41.769 INFO [APP][IN] qual=QUOTE 8=FIX.4.4|9=137|35=W|34=52|49=cServer|50=QUOTE|52=20260109-06:12:41.640|56=demo.pepperstone.5179095|55=10028|268=2|269=0|270=90964.09|269=1|270=90979.09|10=097|
2026-01-09 08:12:42.171 INFO [APP][IN] qual=QUOTE 8=FIX.4.4|9=137|35=W|34=53|49=cServer|50=QUOTE|52=20260109-06:12:42.042|56=demo.pepperstone.5179095|55=10028|268=2|269=0|270=90963.94|269=1|270=90978.94|10=101|
2026-01-09 08:12:42.622 INFO [APP][IN] qual=QUOTE 8=FIX.4.4|9=137|35=W|34=54|49=cServer|50=QUOTE|52=20260109-06:12:42.493|56=demo.pepperstone.5179095|55=10028|268=2|269=0|270=90955.62|269=1|270=90970.62|10=095|
2026-01-09 08:12:43.023 INFO [APP][IN] qual=QUOTE 8=FIX.4.4|9=137|35=W|34=55|49=cServer|50=QUOTE|52=20260109-06:12:42.894|56=demo.pepperstone.5179095|55=10028|268=2|269=0|270=90951.14|269=1|270=90966.14|10=096|
2026-01-09 08:12:43.425 INFO [APP][IN] qual=QUOTE 8=FIX.4.4|9=137|35=W|34=56|49=cServer|50=QUOTE|52=20260109-06:12:43.296|56=demo.pepperstone.5179095|55=10028|268=2|269=0|270=90950.74|269=1|270=90965.74|10=104|
2026-01-09 08:12:43.827 INFO [APP][IN] qual=QUOTE 8=FIX.4.4|9=137|35=W|34=57|49=cServer|50=QUOTE|52=20260109-06:12:43.698|56=demo.pepperstone.5179095|55=10028|268=2|269=0|270=90952.25|269=1|270=90967.25|10=107|
2026-01-09 08:12:44.238 INFO [APP][IN] qual=QUOTE 8=FIX.4.4|9=137|35=W|34=58|49=cServer|50=QUOTE|52=20260109-06:12:44.109|56=demo.pepperstone.5179095|55=10028|268=2|269=0|270=90952.38|269=1|270=90967.38|10=104|
2026-01-09 08:12:44.680 INFO [APP][IN] qual=QUOTE 8=FIX.4.4|9=137|35=W|34=59|49=cServer|50=QUOTE|52=20260109-06:12:44.551|56=demo.pepperstone.5179095|55=10028|268=2|269=0|270=90951.85|269=1|270=90966.85|10=108|
2026-01-09 08:12:45.128 INFO [APP][IN] qual=QUOTE 8=FIX.4.4|9=135|35=W|34=60|49=cServer|50=QUOTE|52=20260109-06:12:45.000|56=demo.pepperstone.5179095|55=10028|268=2|269=0|270=90952.8|269=1|270=90967.8|10=240|
2026-01-09 08:12:45.531 INFO [APP][IN] qual=QUOTE 8=FIX.4.4|9=137|35=W|34=61|49=cServer|50=QUOTE|52=20260109-06:12:45.402|56=demo.pepperstone.5179095|55=10028|268=2|269=0|270=90952.27|269=1|270=90967.27|10=091|
2026-01-09 08:12:45.988 INFO [APP][IN] qual=QUOTE 8=FIX.4.4|9=137|35=W|34=62|49=cServer|50=QUOTE|52=20260109-06:12:45.859|56=demo.pepperstone.5179095|55=10028|268=2|269=0|270=90952.36|269=1|270=90967.36|10=108|
2026-01-09 08:12:46.393 INFO [APP][IN] qual=QUOTE 8=FIX.4.4|9=137|35=W|34=63|49=cServer|50=QUOTE|52=20260109-06:12:46.264|56=demo.pepperstone.5179095|55=10028|268=2|269=0|270=90952.59|269=1|270=90967.59|10=110|
2026-01-09 08:12:46.835 INFO [APP][IN] qual=QUOTE 8=FIX.4.4|9=137|35=W|34=64|49=cServer|50=QUOTE|52=20260109-06:12:46.706|56=demo.pepperstone.5179095|55=10028|268=2|269=0|270=90953.57|269=1|270=90968.57|10=110|
2026-01-09 08:12:47.237 INFO [APP][IN] qual=QUOTE 8=FIX.4.4|9=137|35=W|34=65|49=cServer|50=QUOTE|52=20260109-06:12:47.108|56=demo.pepperstone.5179095|55=10028|268=2|269=0|270=90951.64|269=1|270=90966.64|10=100|
2026-01-09 08:12:47.639 INFO [APP][IN] qual=QUOTE 8=FIX.4.4|9=137|35=W|34=66|49=cServer|50=QUOTE|52=20260109-06:12:47.510|56=demo.pepperstone.5179095|55=10028|268=2|269=0|270=90951.26|269=1|270=90966.26|10=094|
2026-01-09 08:12:48.042 INFO [APP][IN] qual=QUOTE 8=FIX.4.4|9=137|35=W|34=67|49=cServer|50=QUOTE|52=20260109-06:12:47.913|56=demo.pepperstone.5179095|55=10028|268=2|269=0|270=90951.53|269=1|270=90966.53|10=102|
2026-01-09 08:12:48.951 INFO [APP][IN] qual=QUOTE 8=FIX.4.4|9=137|35=W|34=68|49=cServer|50=QUOTE|52=20260109-06:12:48.822|56=demo.pepperstone.5179095|55=10028|268=2|269=0|270=90951.77|269=1|270=90966.77|10=115|
2026-01-09 08:12:49.354 INFO [APP][IN] qual=QUOTE 8=FIX.4.4|9=137|35=W|34=69|49=cServer|50=QUOTE|52=20260109-06:12:49.225|56=demo.pepperstone.5179095|55=10028|268=2|269=0|270=90951.48|269=1|270=90966.48|10=110|
2026-01-09 08:12:49.762 INFO [APP][IN] qual=QUOTE 8=FIX.4.4|9=137|35=W|34=70|49=cServer|50=QUOTE|52=20260109-06:12:49.633|56=demo.pepperstone.5179095|55=10028|268=2|269=0|270=90951.88|269=1|270=90966.88|10=113|
2026-01-09 08:12:50.189 INFO [APP][IN] qual=QUOTE 8=FIX.4.4|9=137|35=W|34=71|49=cServer|50=QUOTE|52=20260109-06:12:50.060|56=demo.pepperstone.5179095|55=10028|268=2|269=0|270=90954.13|269=1|270=90969.13|10=082|
2026-01-09 08:12:50.603 INFO [APP][IN] qual=QUOTE 8=FIX.4.4|9=137|35=W|34=72|49=cServer|50=QUOTE|52=20260109-06:12:50.474|56=demo.pepperstone.5179095|55=10028|268=2|269=0|270=90953.84|269=1|270=90968.84|10=106|
2026-01-09 08:12:51.016 INFO [APP][IN] qual=QUOTE 8=FIX.4.4|9=137|35=W|34=73|49=cServer|50=QUOTE|52=20260109-06:12:50.887|56=demo.pepperstone.5179095|55=10028|268=2|269=0|270=90954.06|269=1|270=90969.06|10=105|
2026-01-09 08:12:51.441 INFO [ADMIN][IN] qual=TRADE 8=FIX.4.4|9=83|35=0|34=3|49=cServer|50=TRADE|52=20260109-06:12:51.302|56=demo.pepperstone.5179095|10=232|
2026-01-09 08:12:51.466 INFO [APP][IN] qual=QUOTE 8=FIX.4.4|9=135|35=W|34=74|49=cServer|50=QUOTE|52=20260109-06:12:51.337|56=demo.pepperstone.5179095|55=10028|268=2|269=0|270=90954.1|269=1|270=90969.1|10=245|
2026-01-09 08:12:51.868 INFO [APP][IN] qual=QUOTE 8=FIX.4.4|9=137|35=W|34=75|49=cServer|50=QUOTE|52=20260109-06:12:51.739|56=demo.pepperstone.5179095|55=10028|268=2|269=0|270=90956.48|269=1|270=90971.48|10=111|
2026-01-09 08:12:52.299 INFO [APP][IN] qual=QUOTE 8=FIX.4.4|9=137|35=W|34=76|49=cServer|50=QUOTE|52=20260109-06:12:52.170|56=demo.pepperstone.5179095|55=10028|268=2|269=0|270=90964.01|269=1|270=90979.01|10=087|
2026-01-09 08:12:52.702 INFO [APP][IN] qual=QUOTE 8=FIX.4.4|9=137|35=W|34=77|49=cServer|50=QUOTE|52=20260109-06:12:52.573|56=demo.pepperstone.5179095|55=10028|268=2|269=0|270=90963.98|269=1|270=90978.98|10=125|
2026-01-09 08:12:53.122 INFO [APP][IN] qual=QUOTE 8=FIX.4.4|9=135|35=W|34=78|49=cServer|50=QUOTE|52=20260109-06:12:52.993|56=demo.pepperstone.5179095|55=10028|268=2|269=0|270=90963.3|269=1|270=90978.3|10=006|
2026-01-09 08:12:53.571 INFO [APP][IN] qual=QUOTE 8=FIX.4.4|9=137|35=W|34=79|49=cServer|50=QUOTE|52=20260109-06:12:53.442|56=demo.pepperstone.5179095|55=10028|268=2|269=0|270=90961.55|269=1|270=90976.55|10=105|
2026-01-09 08:12:53.973 INFO [APP][IN] qual=QUOTE 8=FIX.4.4|9=137|35=W|34=80|49=cServer|50=QUOTE|52=20260109-06:12:53.844|56=demo.pepperstone.5179095|55=10028|268=2|269=0|270=90957.39|269=1|270=90972.39|10=108|
2026-01-09 08:12:54.375 INFO [APP][IN] qual=QUOTE 8=FIX.4.4|9=137|35=W|34=81|49=cServer|50=QUOTE|52=20260109-06:12:54.246|56=demo.pepperstone.5179095|55=10028|268=2|269=0|270=90956.74|269=1|270=90971.74|10=102|
2026-01-09 08:12:54.826 INFO [APP][IN] qual=QUOTE 8=FIX.4.4|9=137|35=W|34=82|49=cServer|50=QUOTE|52=20260109-06:12:54.697|56=demo.pepperstone.5179095|55=10028|268=2|269=0|270=90956.69|269=1|270=90971.69|10=121|
2026-01-09 08:12:55.277 INFO [APP][IN] qual=QUOTE 8=FIX.4.4|9=137|35=W|34=83|49=cServer|50=QUOTE|52=20260109-06:12:55.148|56=demo.pepperstone.5179095|55=10028|268=2|269=0|270=90956.74|269=1|270=90971.74|10=106|
2026-01-09 08:12:55.684 INFO [APP][IN] qual=QUOTE 8=FIX.4.4|9=135|35=W|34=84|49=cServer|50=QUOTE|52=20260109-06:12:55.555|56=demo.pepperstone.5179095|55=10028|268=2|269=0|270=90956.8|269=1|270=90971.8|10=005|
2026-01-09 08:12:56.124 INFO [APP][IN] qual=QUOTE 8=FIX.4.4|9=137|35=W|34=85|49=cServer|50=QUOTE|52=20260109-06:12:55.995|56=demo.pepperstone.5179095|55=10028|268=2|269=0|270=90956.72|269=1|270=90971.72|10=114|
2026-01-09 08:12:56.582 INFO [APP][IN] qual=QUOTE 8=FIX.4.4|9=137|35=W|34=86|49=cServer|50=QUOTE|52=20260109-06:12:56.453|56=demo.pepperstone.5179095|55=10028|268=2|269=0|270=90961.71|269=1|270=90976.71|10=104|
2026-01-09 08:12:57.053 INFO [APP][IN] qual=QUOTE 8=FIX.4.4|9=137|35=W|34=87|49=cServer|50=QUOTE|52=20260109-06:12:56.924|56=demo.pepperstone.5179095|55=10028|268=2|269=0|270=90961.94|269=1|270=90976.94|10=118|
2026-01-09 08:12:57.484 INFO [APP][IN] qual=QUOTE 8=FIX.4.4|9=137|35=W|34=88|49=cServer|50=QUOTE|52=20260109-06:12:57.355|56=demo.pepperstone.5179095|55=10028|268=2|269=0|270=90962.43|269=1|270=90977.43|10=108|
2026-01-09 08:12:57.933 INFO [APP][IN] qual=QUOTE 8=FIX.4.4|9=137|35=W|34=89|49=cServer|50=QUOTE|52=20260109-06:12:57.805|56=demo.pepperstone.5179095|55=10028|268=2|269=0|270=90961.69|269=1|270=90976.69|10=123|
2026-01-09 08:12:58.338 INFO [APP][IN] qual=QUOTE 8=FIX.4.4|9=137|35=W|34=90|49=cServer|50=QUOTE|52=20260109-06:12:58.209|56=demo.pepperstone.5179095|55=10028|268=2|269=0|270=90961.61|269=1|270=90976.61|10=098|
2026-01-09 08:12:58.841 INFO [APP][IN] qual=QUOTE 8=FIX.4.4|9=137|35=W|34=91|49=cServer|50=QUOTE|52=20260109-06:12:58.712|56=demo.pepperstone.5179095|55=10028|268=2|269=0|270=90961.84|269=1|270=90976.84|10=108|
2026-01-09 08:12:59.259 INFO [APP][IN] qual=QUOTE 8=FIX.4.4|9=137|35=W|34=92|49=cServer|50=QUOTE|52=20260109-06:12:59.130|56=demo.pepperstone.5179095|55=10028|268=2|269=0|270=90961.93|269=1|270=90976.93|10=104|
2026-01-09 08:12:59.660 INFO [APP][IN] qual=QUOTE 8=FIX.4.4|9=137|35=W|34=93|49=cServer|50=QUOTE|52=20260109-06:12:59.531|56=demo.pepperstone.5179095|55=10028|268=2|269=0|270=90961.86|269=1|270=90976.86|10=114|
2026-01-09 08:13:00.064 INFO [APP][IN] qual=QUOTE 8=FIX.4.4|9=135|35=W|34=94|49=cServer|50=QUOTE|52=20260109-06:12:59.935|56=demo.pepperstone.5179095|55=10028|268=2|269=0|270=90962.8|269=1|270=90977.8|10=015|
2026-01-09 08:13:00.065 INFO [BAR M1] 2026-01-09T06:12:00+00:00 O=90953.08 H=90971.64 L=90953.08 C=90969.36 | desired=0 cur=0
2026-01-09 08:13:00.490 INFO [APP][IN] qual=QUOTE 8=FIX.4.4|9=137|35=W|34=95|49=cServer|50=QUOTE|52=20260109-06:13:00.361|56=demo.pepperstone.5179095|55=10028|268=2|269=0|270=90961.73|269=1|270=90976.73|10=096|
2026-01-09 08:13:00.915 INFO [APP][IN] qual=QUOTE 8=FIX.4.4|9=137|35=W|34=96|49=cServer|50=QUOTE|52=20260109-06:13:00.786|56=demo.pepperstone.5179095|55=10028|268=2|269=0|270=90962.33|269=1|270=90977.33|10=102|
2026-01-09 08:13:01.316 INFO [APP][IN] qual=QUOTE 8=FIX.4.4|9=135|35=W|34=97|49=cServer|50=QUOTE|52=20260109-06:13:01.187|56=demo.pepperstone.5179095|55=10028|268=2|269=0|270=90961.7|269=1|270=90976.7|10=001|
2026-01-09 08:13:01.717 INFO [APP][IN] qual=QUOTE 8=FIX.4.4|9=137|35=W|34=98|49=cServer|50=QUOTE|52=20260109-06:13:01.588|56=demo.pepperstone.5179095|55=10028|268=2|269=0|270=90963.87|269=1|270=90978.87|10=125|
2026-01-09 08:13:02.121 INFO [APP][IN] qual=QUOTE 8=FIX.4.4|9=131|35=W|34=99|49=cServer|50=QUOTE|52=20260109-06:13:01.992|56=demo.pepperstone.5179095|55=10028|268=2|269=0|270=90963|269=1|270=90978|10=061|
2026-01-09 08:13:02.571 INFO [APP][IN] qual=QUOTE 8=FIX.4.4|9=138|35=W|34=100|49=cServer|50=QUOTE|52=20260109-06:13:02.442|56=demo.pepperstone.5179095|55=10028|268=2|269=0|270=90962.02|269=1|270=90977.02|10=120|
2026-01-09 08:13:02.972 INFO [APP][IN] qual=QUOTE 8=FIX.4.4|9=138|35=W|34=101|49=cServer|50=QUOTE|52=20260109-06:13:02.843|56=demo.pepperstone.5179095|55=10028|268=2|269=0|270=90961.55|269=1|270=90976.55|10=140|
2026-01-09 08:13:03.422 INFO [APP][IN] qual=QUOTE 8=FIX.4.4|9=138|35=W|34=102|49=cServer|50=QUOTE|52=20260109-06:13:03.293|56=demo.pepperstone.5179095|55=10028|268=2|269=0|270=90961.38|269=1|270=90976.38|10=143|
2026-01-09 08:13:03.827 INFO [APP][IN] qual=QUOTE 8=FIX.4.4|9=138|35=W|34=103|49=cServer|50=QUOTE|52=20260109-06:13:03.698|56=demo.pepperstone.5179095|55=10028|268=2|269=0|270=90961.44|269=1|270=90976.44|10=147|
2026-01-09 08:13:04.277 INFO [APP][IN] qual=QUOTE 8=FIX.4.4|9=138|35=W|34=104|49=cServer|50=QUOTE|52=20260109-06:13:04.148|56=demo.pepperstone.5179095|55=10028|268=2|269=0|270=90961.55|269=1|270=90976.55|10=143|
2026-01-09 08:13:04.679 INFO [APP][IN] qual=QUOTE 8=FIX.4.4|9=138|35=W|34=105|49=cServer|50=QUOTE|52=20260109-06:13:04.550|56=demo.pepperstone.5179095|55=10028|268=2|269=0|270=90961.28|269=1|270=90976.28|10=141|
2026-01-09 08:13:05.120 INFO [APP][IN] qual=QUOTE 8=FIX.4.4|9=136|35=W|34=106|49=cServer|50=QUOTE|52=20260109-06:13:04.991|56=demo.pepperstone.5179095|55=10028|268=2|269=0|270=90961.2|269=1|270=90976.2|10=037|
2026-01-09 08:13:05.527 INFO [APP][IN] qual=QUOTE 8=FIX.4.4|9=136|35=W|34=107|49=cServer|50=QUOTE|52=20260109-06:13:05.398|56=demo.pepperstone.5179095|55=10028|268=2|269=0|270=90960.9|269=1|270=90975.9|10=052|
2026-01-09 08:13:05.930 INFO [APP][IN] qual=QUOTE 8=FIX.4.4|9=136|35=W|34=108|49=cServer|50=QUOTE|52=20260109-06:13:05.801|56=demo.pepperstone.5179095|55=10028|268=2|269=0|270=90960.8|269=1|270=90975.8|10=040|
2026-01-09 08:13:06.335 INFO [APP][IN] qual=QUOTE 8=FIX.4.4|9=138|35=W|34=109|49=cServer|50=QUOTE|52=20260109-06:13:06.206|56=demo.pepperstone.5179095|55=10028|268=2|269=0|270=90960.84|269=1|270=90975.84|10=147|
2026-01-09 08:13:06.749 INFO [APP][IN] qual=QUOTE 8=FIX.4.4|9=138|35=W|34=110|49=cServer|50=QUOTE|52=20260109-06:13:06.620|56=demo.pepperstone.5179095|55=10028|268=2|269=0|270=90951.29|269=1|270=90966.29|10=137|
2026-01-09 08:13:07.187 INFO [APP][IN] qual=QUOTE 8=FIX.4.4|9=138|35=W|34=111|49=cServer|50=QUOTE|52=20260109-06:13:07.058|56=demo.pepperstone.5179095|55=10028|268=2|269=0|270=90947.28|269=1|270=90962.28|10=143|
2026-01-09 08:13:07.590 INFO [APP][IN] qual=QUOTE 8=FIX.4.4|9=138|35=W|34=112|49=cServer|50=QUOTE|52=20260109-06:13:07.461|56=demo.pepperstone.5179095|55=10028|268=2|269=0|270=90948.07|269=1|270=90963.07|10=138|
2026-01-09 08:13:08.002 INFO [APP][IN] qual=QUOTE 8=FIX.4.4|9=138|35=W|34=113|49=cServer|50=QUOTE|52=20260109-06:13:07.873|56=demo.pepperstone.5179095|55=10028|268=2|269=0|270=90947.77|269=1|270=90962.77|10=158|
2026-01-09 08:13:08.439 INFO [APP][IN] qual=QUOTE 8=FIX.4.4|9=138|35=W|34=114|49=cServer|50=QUOTE|52=20260109-06:13:08.310|56=demo.pepperstone.5179095|55=10028|268=2|269=0|270=90947.76|269=1|270=90962.76|10=144|
2026-01-09 08:13:08.855 INFO [APP][IN] qual=QUOTE 8=FIX.4.4|9=138|35=W|34=115|49=cServer|50=QUOTE|52=20260109-06:13:08.726|56=demo.pepperstone.5179095|55=10028|268=2|269=0|270=90947.67|269=1|270=90962.67|10=156|
2026-01-09 08:13:09.259 INFO [APP][IN] qual=QUOTE 8=FIX.4.4|9=138|35=W|34=116|49=cServer|50=QUOTE|52=20260109-06:13:09.130|56=demo.pepperstone.5179095|55=10028|268=2|269=0|270=90947.43|269=1|270=90962.43|10=135|
2026-01-09 08:13:09.661 INFO [APP][IN] qual=QUOTE 8=FIX.4.4|9=138|35=W|34=117|49=cServer|50=QUOTE|52=20260109-06:13:09.532|56=demo.pepperstone.5179095|55=10028|268=2|269=0|270=90947.41|269=1|270=90962.41|10=138|
2026-01-09 08:13:10.062 INFO [APP][IN] qual=QUOTE 8=FIX.4.4|9=138|35=W|34=118|49=cServer|50=QUOTE|52=20260109-06:13:09.933|56=demo.pepperstone.5179095|55=10028|268=2|269=0|270=90947.35|269=1|270=90962.35|10=150|
2026-01-09 08:13:10.464 INFO [APP][IN] qual=QUOTE 8=FIX.4.4|9=138|35=W|34=119|49=cServer|50=QUOTE|52=20260109-06:13:10.335|56=demo.pepperstone.5179095|55=10028|268=2|269=0|270=90946.94|269=1|270=90961.94|10=147|
2026-01-09 08:13:10.866 INFO [APP][IN] qual=QUOTE 8=FIX.4.4|9=138|35=W|34=120|49=cServer|50=QUOTE|52=20260109-06:13:10.738|56=demo.pepperstone.5179095|55=10028|268=2|269=0|270=90946.88|269=1|270=90961.88|10=152|
2026-01-09 08:13:11.299 INFO [APP][IN] qual=QUOTE 8=FIX.4.4|9=138|35=W|34=121|49=cServer|50=QUOTE|52=20260109-06:13:11.171|56=demo.pepperstone.5179095|55=10028|268=2|269=0|270=90947.03|269=1|270=90962.03|10=121|
2026-01-09 08:13:11.712 INFO [APP][IN] qual=QUOTE 8=FIX.4.4|9=138|35=W|34=122|49=cServer|50=QUOTE|52=20260109-06:13:11.583|56=demo.pepperstone.5179095|55=10028|268=2|269=0|270=90946.48|269=1|270=90961.48|10=145|
2026-01-09 08:13:12.119 INFO [APP][IN] qual=QUOTE 8=FIX.4.4|9=138|35=W|34=123|49=cServer|50=QUOTE|52=20260109-06:13:11.990|56=demo.pepperstone.5179095|55=10028|268=2|269=0|270=90946.43|269=1|270=90961.43|10=138|
2026-01-09 08:13:12.521 INFO [APP][IN] qual=QUOTE 8=FIX.4.4|9=138|35=W|34=124|49=cServer|50=QUOTE|52=20260109-06:13:12.392|56=demo.pepperstone.5179095|55=10028|268=2|269=0|270=90946.45|269=1|270=90961.45|10=140|
2026-01-09 08:13:12.923 INFO [APP][IN] qual=QUOTE 8=FIX.4.4|9=138|35=W|34=125|49=cServer|50=QUOTE|52=20260109-06:13:12.794|56=demo.pepperstone.5179095|55=10028|268=2|269=0|270=90946.33|269=1|270=90961.33|10=141|
2026-01-09 08:13:13.327 INFO [APP][IN] qual=QUOTE 8=FIX.4.4|9=138|35=W|34=126|49=cServer|50=QUOTE|52=20260109-06:13:13.198|56=demo.pepperstone.5179095|55=10028|268=2|269=0|270=90942.04|269=1|270=90957.04|10=138|
2026-01-09 08:13:13.743 INFO [APP][IN] qual=QUOTE 8=FIX.4.4|9=138|35=W|34=127|49=cServer|50=QUOTE|52=20260109-06:13:13.615|56=demo.pepperstone.5179095|55=10028|268=2|269=0|270=90934.73|269=1|270=90949.73|10=147|
2026-01-09 08:13:14.175 INFO [APP][IN] qual=QUOTE 8=FIX.4.4|9=138|35=W|34=128|49=cServer|50=QUOTE|52=20260109-06:13:14.046|56=demo.pepperstone.5179095|55=10028|268=2|269=0|270=90933.56|269=1|270=90948.56|10=147|
2026-01-09 08:13:14.577 INFO [APP][IN] qual=QUOTE 8=FIX.4.4|9=138|35=W|34=129|49=cServer|50=QUOTE|52=20260109-06:13:14.448|56=demo.pepperstone.5179095|55=10028|268=2|269=0|270=90931.22|269=1|270=90946.22|10=136|
2026-01-09 08:13:14.979 INFO [APP][IN] qual=QUOTE 8=FIX.4.4|9=138|35=W|34=130|49=cServer|50=QUOTE|52=20260109-06:13:14.850|56=demo.pepperstone.5179095|55=10028|268=2|269=0|270=90930.03|269=1|270=90945.03|10=121|
2026-01-09 08:13:15.380 INFO [APP][IN] qual=QUOTE 8=FIX.4.4|9=138|35=W|34=131|49=cServer|50=QUOTE|52=20260109-06:13:15.251|56=demo.pepperstone.5179095|55=10028|268=2|269=0|270=90929.47|269=1|270=90944.47|10=141|
2026-01-09 08:13:15.780 INFO [APP][IN] qual=QUOTE 8=FIX.4.4|9=138|35=W|34=132|49=cServer|50=QUOTE|52=20260109-06:13:15.651|56=demo.pepperstone.5179095|55=10028|268=2|269=0|270=90928.72|269=1|270=90943.72|10=140|
2026-01-09 08:13:16.182 INFO [APP][IN] qual=QUOTE 8=FIX.4.4|9=138|35=W|34=133|49=cServer|50=QUOTE|52=20260109-06:13:16.053|56=demo.pepperstone.5179095|55=10028|268=2|269=0|270=90927.85|269=1|270=90942.85|10=144|
2026-01-09 08:13:16.583 INFO [APP][IN] qual=QUOTE 8=FIX.4.4|9=138|35=W|34=134|49=cServer|50=QUOTE|52=20260109-06:13:16.454|56=demo.pepperstone.5179095|55=10028|268=2|269=0|270=90927.77|269=1|270=90942.77|10=152|
2026-01-09 08:13:16.983 INFO [APP][IN] qual=QUOTE 8=FIX.4.4|9=138|35=W|34=135|49=cServer|50=QUOTE|52=20260109-06:13:16.854|56=demo.pepperstone.5179095|55=10028|268=2|269=0|270=90927.66|269=1|270=90942.66|10=153|
2026-01-09 08:13:17.386 INFO [APP][IN] qual=QUOTE 8=FIX.4.4|9=138|35=W|34=136|49=cServer|50=QUOTE|52=20260109-06:13:17.257|56=demo.pepperstone.5179095|55=10028|268=2|269=0|270=90922.79|269=1|270=90937.79|10=159|
2026-01-09 08:13:17.787 INFO [APP][IN] qual=QUOTE 8=FIX.4.4|9=138|35=W|34=137|49=cServer|50=QUOTE|52=20260109-06:13:17.658|56=demo.pepperstone.5179095|55=10028|268=2|269=0|270=90928.34|269=1|270=90943.34|10=150|
2026-01-09 08:13:18.187 INFO [APP][IN] qual=QUOTE 8=FIX.4.4|9=138|35=W|34=138|49=cServer|50=QUOTE|52=20260109-06:13:18.059|56=demo.pepperstone.5179095|55=10028|268=2|269=0|270=90928.37|269=1|270=90943.37|10=153|
2026-01-09 08:13:18.589 INFO [APP][IN] qual=QUOTE 8=FIX.4.4|9=138|35=W|34=139|49=cServer|50=QUOTE|52=20260109-06:13:18.460|56=demo.pepperstone.5179095|55=10028|268=2|269=0|270=90928.59|269=1|270=90943.59|10=158|
2026-01-09 08:13:18.995 INFO [APP][IN] qual=QUOTE 8=FIX.4.4|9=138|35=W|34=140|49=cServer|50=QUOTE|52=20260109-06:13:18.866|56=demo.pepperstone.5179095|55=10028|268=2|269=0|270=90928.37|269=1|270=90943.37|10=152|
2026-01-09 08:13:19.409 INFO [APP][IN] qual=QUOTE 8=FIX.4.4|9=138|35=W|34=141|49=cServer|50=QUOTE|52=20260109-06:13:19.280|56=demo.pepperstone.5179095|55=10028|268=2|269=0|270=90929.91|269=1|270=90944.91|10=146|
2026-01-09 08:13:19.811 INFO [APP][IN] qual=QUOTE 8=FIX.4.4|9=138|35=W|34=142|49=cServer|50=QUOTE|52=20260109-06:13:19.682|56=demo.pepperstone.5179095|55=10028|268=2|269=0|270=90931.01|269=1|270=90946.01|10=130|
2026-01-09 08:13:20.213 INFO [APP][IN] qual=QUOTE 8=FIX.4.4|9=138|35=W|34=143|49=cServer|50=QUOTE|52=20260109-06:13:20.084|56=demo.pepperstone.5179095|55=10028|268=2|269=0|270=90931.59|269=1|270=90946.59|10=145|
2026-01-09 08:13:20.614 INFO [APP][IN] qual=QUOTE 8=FIX.4.4|9=138|35=W|34=144|49=cServer|50=QUOTE|52=20260109-06:13:20.485|56=demo.pepperstone.5179095|55=10028|268=2|269=0|270=90931.56|269=1|270=90946.56|10=145|
2026-01-09 08:13:21.017 INFO [APP][IN] qual=QUOTE 8=FIX.4.4|9=138|35=W|34=145|49=cServer|50=QUOTE|52=20260109-06:13:20.888|56=demo.pepperstone.5179095|55=10028|268=2|269=0|270=90931.29|269=1|270=90946.29|10=153|
2026-01-09 08:13:21.432 INFO [ADMIN][IN] qual=TRADE 8=FIX.4.4|9=83|35=0|34=4|49=cServer|50=TRADE|52=20260109-06:13:21.302|56=demo.pepperstone.5179095|10=231|
2026-01-09 08:13:21.474 INFO [APP][IN] qual=QUOTE 8=FIX.4.4|9=138|35=W|34=146|49=cServer|50=QUOTE|52=20260109-06:13:21.345|56=demo.pepperstone.5179095|55=10028|268=2|269=0|270=90930.97|269=1|270=90945.97|10=151|
2026-01-09 08:13:21.907 INFO [APP][IN] qual=QUOTE 8=FIX.4.4|9=138|35=W|34=147|49=cServer|50=QUOTE|52=20260109-06:13:21.779|56=demo.pepperstone.5179095|55=10028|268=2|269=0|270=90929.64|269=1|270=90944.64|10=158|
2026-01-09 08:13:22.321 INFO [APP][IN] qual=QUOTE 8=FIX.4.4|9=138|35=W|34=148|49=cServer|50=QUOTE|52=20260109-06:13:22.193|56=demo.pepperstone.5179095|55=10028|268=2|269=0|270=90929.06|269=1|270=90944.06|10=142|
2026-01-09 08:13:22.722 INFO [APP][IN] qual=QUOTE 8=FIX.4.4|9=138|35=W|34=149|49=cServer|50=QUOTE|52=20260109-06:13:22.593|56=demo.pepperstone.5179095|55=10028|268=2|269=0|270=90929.16|269=1|270=90944.16|10=149|
2026-01-09 08:13:23.124 INFO [APP][IN] qual=QUOTE 8=FIX.4.4|9=138|35=W|34=150|49=cServer|50=QUOTE|52=20260109-06:13:22.995|56=demo.pepperstone.5179095|55=10028|268=2|269=0|270=90929.57|269=1|270=90944.57|10=157|
2026-01-09 08:13:23.570 INFO [APP][IN] qual=QUOTE 8=FIX.4.4|9=138|35=W|34=151|49=cServer|50=QUOTE|52=20260109-06:13:23.441|56=demo.pepperstone.5179095|55=10028|268=2|269=0|270=90930.19|269=1|270=90945.19|10=134|
2026-01-09 08:13:23.978 INFO [APP][IN] qual=QUOTE 8=FIX.4.4|9=138|35=W|34=152|49=cServer|50=QUOTE|52=20260109-06:13:23.849|56=demo.pepperstone.5179095|55=10028|268=2|269=0|270=90933.43|269=1|270=90948.43|10=147|
2026-01-09 08:13:24.429 INFO [APP][IN] qual=QUOTE 8=FIX.4.4|9=138|35=W|34=153|49=cServer|50=QUOTE|52=20260109-06:13:24.300|56=demo.pepperstone.5179095|55=10028|268=2|269=0|270=90939.09|269=1|270=90954.09|10=138|
2026-01-09 08:13:24.831 INFO [APP][IN] qual=QUOTE 8=FIX.4.4|9=138|35=W|34=154|49=cServer|50=QUOTE|52=20260109-06:13:24.702|56=demo.pepperstone.5179095|55=10028|268=2|269=0|270=90939.23|269=1|270=90954.23|10=137|
2026-01-09 08:13:25.279 INFO [APP][IN] qual=QUOTE 8=FIX.4.4|9=136|35=W|34=155|49=cServer|50=QUOTE|52=20260109-06:13:25.150|56=demo.pepperstone.5179095|55=10028|268=2|269=0|270=90939.1|269=1|270=90954.1|10=030|
2026-01-09 08:13:25.688 INFO [APP][IN] qual=QUOTE 8=FIX.4.4|9=138|35=W|34=156|49=cServer|50=QUOTE|52=20260109-06:13:25.559|56=demo.pepperstone.5179095|55=10028|268=2|269=0|270=90933.94|269=1|270=90948.94|10=163|
2026-01-09 08:13:26.098 INFO [APP][IN] qual=QUOTE 8=FIX.4.4|9=138|35=W|34=157|49=cServer|50=QUOTE|52=20260109-06:13:25.969|56=demo.pepperstone.5179095|55=10028|268=2|269=0|270=90939.34|269=1|270=90954.34|10=160|
2026-01-09 08:13:26.532 INFO [APP][IN] qual=QUOTE 8=FIX.4.4|9=138|35=W|34=158|49=cServer|50=QUOTE|52=20260109-06:13:26.404|56=demo.pepperstone.5179095|55=10028|268=2|269=0|270=90938.97|269=1|270=90953.97|10=162|
2026-01-09 08:13:26.934 INFO [APP][IN] qual=QUOTE 8=FIX.4.4|9=132|35=W|34=159|49=cServer|50=QUOTE|52=20260109-06:13:26.806|56=demo.pepperstone.5179095|55=10028|268=2|269=0|270=90939|269=1|270=90954|10=105|
2026-01-09 08:13:27.340 INFO [APP][IN] qual=QUOTE 8=FIX.4.4|9=138|35=W|34=160|49=cServer|50=QUOTE|52=20260109-06:13:27.211|56=demo.pepperstone.5179095|55=10028|268=2|269=0|270=90937.35|269=1|270=90952.35|10=134|
2026-01-09 08:13:27.787 INFO [APP][IN] qual=QUOTE 8=FIX.4.4|9=136|35=W|34=161|49=cServer|50=QUOTE|52=20260109-06:13:27.659|56=demo.pepperstone.5179095|55=10028|268=2|269=0|270=90938.2|269=1|270=90953.2|10=043|
2026-01-09 08:13:28.189 INFO [APP][IN] qual=QUOTE 8=FIX.4.4|9=138|35=W|34=162|49=cServer|50=QUOTE|52=20260109-06:13:28.060|56=demo.pepperstone.5179095|55=10028|268=2|269=0|270=90937.83|269=1|270=90952.83|10=145|
2026-01-09 08:13:28.594 INFO [APP][IN] qual=QUOTE 8=FIX.4.4|9=136|35=W|34=163|49=cServer|50=QUOTE|52=20260109-06:13:28.465|56=demo.pepperstone.5179095|55=10028|268=2|269=0|270=90938.5|269=1|270=90953.5|10=047|
2026-01-09 08:13:29.000 INFO [APP][IN] qual=QUOTE 8=FIX.4.4|9=138|35=W|34=164|49=cServer|50=QUOTE|52=20260109-06:13:28.871|56=demo.pepperstone.5179095|55=10028|268=2|269=0|270=90937.56|269=1|270=90952.56|10=157|
2026-01-09 08:13:29.402 INFO [APP][IN] qual=QUOTE 8=FIX.4.4|9=138|35=W|34=165|49=cServer|50=QUOTE|52=20260109-06:13:29.273|56=demo.pepperstone.5179095|55=10028|268=2|269=0|270=90938.06|269=1|270=90953.06|10=147|
2026-01-09 08:13:29.815 INFO [APP][IN] qual=QUOTE 8=FIX.4.4|9=136|35=W|34=166|49=cServer|50=QUOTE|52=20260109-06:13:29.686|56=demo.pepperstone.5179095|55=10028|268=2|269=0|270=90938.3|269=1|270=90953.3|10=052|
2026-01-09 08:13:30.263 INFO [APP][IN] qual=QUOTE 8=FIX.4.4|9=138|35=W|34=167|49=cServer|50=QUOTE|52=20260109-06:13:30.135|56=demo.pepperstone.5179095|55=10028|268=2|269=0|270=90937.95|269=1|270=90952.95|10=152|
2026-01-09 08:13:30.669 INFO [APP][IN] qual=QUOTE 8=FIX.4.4|9=138|35=W|34=168|49=cServer|50=QUOTE|52=20260109-06:13:30.540|56=demo.pepperstone.5179095|55=10028|268=2|269=0|270=90937.81|269=1|270=90952.81|10=143|
2026-01-09 08:13:31.117 INFO [APP][IN] qual=QUOTE 8=FIX.4.4|9=138|35=W|34=169|49=cServer|50=QUOTE|52=20260109-06:13:30.988|56=demo.pepperstone.5179095|55=10028|268=2|269=0|270=90938.25|269=1|270=90953.25|10=158|
2026-01-09 08:13:31.520 INFO [APP][IN] qual=QUOTE 8=FIX.4.4|9=138|35=W|34=170|49=cServer|50=QUOTE|52=20260109-06:13:31.391|56=demo.pepperstone.5179095|55=10028|268=2|269=0|270=90939.93|269=1|270=90954.93|10=151|
2026-01-09 08:13:31.972 INFO [APP][IN] qual=QUOTE 8=FIX.4.4|9=138|35=W|34=171|49=cServer|50=QUOTE|52=20260109-06:13:31.843|56=demo.pepperstone.5179095|55=10028|268=2|269=0|270=90937.72|269=1|270=90952.72|10=144|
2026-01-09 08:13:32.824 INFO [APP][IN] qual=QUOTE 8=FIX.4.4|9=138|35=W|34=172|49=cServer|50=QUOTE|52=20260109-06:13:32.696|56=demo.pepperstone.5179095|55=10028|268=2|269=0|270=90937.52|269=1|270=90952.52|10=148|
2026-01-09 08:13:33.225 INFO [APP][IN] qual=QUOTE 8=FIX.4.4|9=136|35=W|34=173|49=cServer|50=QUOTE|52=20260109-06:13:33.096|56=demo.pepperstone.5179095|55=10028|268=2|269=0|270=90937.5|269=1|270=90952.5|10=042|
2026-01-09 08:13:33.718 INFO [APP][IN] qual=QUOTE 8=FIX.4.4|9=138|35=W|34=174|49=cServer|50=QUOTE|52=20260109-06:13:33.589|56=demo.pepperstone.5179095|55=10028|268=2|269=0|270=90937.76|269=1|270=90952.76|10=164|
2026-01-09 08:13:34.130 INFO [APP][IN] qual=QUOTE 8=FIX.4.4|9=138|35=W|34=175|49=cServer|50=QUOTE|52=20260109-06:13:34.001|56=demo.pepperstone.5179095|55=10028|268=2|269=0|270=90937.94|269=1|270=90952.94|10=145|
2026-01-09 08:13:34.547 INFO [APP][IN] qual=QUOTE 8=FIX.4.4|9=136|35=W|34=176|49=cServer|50=QUOTE|52=20260109-06:13:34.418|56=demo.pepperstone.5179095|55=10028|268=2|269=0|270=90938.2|269=1|270=90953.2|10=040|
2026-01-09 08:13:34.981 INFO [APP][IN] qual=QUOTE 8=FIX.4.4|9=138|35=W|34=177|49=cServer|50=QUOTE|52=20260109-06:13:34.852|56=demo.pepperstone.5179095|55=10028|268=2|269=0|270=90937.58|269=1|270=90952.58|10=161|
2026-01-09 08:13:35.431 INFO [APP][IN] qual=QUOTE 8=FIX.4.4|9=138|35=W|34=178|49=cServer|50=QUOTE|52=20260109-06:13:35.302|56=demo.pepperstone.5179095|55=10028|268=2|269=0|270=90937.95|269=1|270=90952.95|10=155|
2026-01-09 08:13:35.835 INFO [APP][IN] qual=QUOTE 8=FIX.4.4|9=138|35=W|34=179|49=cServer|50=QUOTE|52=20260109-06:13:35.705|56=demo.pepperstone.5179095|55=10028|268=2|269=0|270=90938.26|269=1|270=90953.26|10=153|
2026-01-09 08:13:36.239 INFO [APP][IN] qual=QUOTE 8=FIX.4.4|9=138|35=W|34=180|49=cServer|50=QUOTE|52=20260109-06:13:36.111|56=demo.pepperstone.5179095|55=10028|268=2|269=0|270=90939.73|269=1|270=90954.73|10=143|
2026-01-09 08:13:36.660 INFO [APP][IN] qual=QUOTE 8=FIX.4.4|9=138|35=W|34=181|49=cServer|50=QUOTE|52=20260109-06:13:36.531|56=demo.pepperstone.5179095|55=10028|268=2|269=0|270=90939.31|269=1|270=90954.31|10=138|
2026-01-09 08:13:37.083 INFO [APP][IN] qual=QUOTE 8=FIX.4.4|9=138|35=W|34=182|49=cServer|50=QUOTE|52=20260109-06:13:36.954|56=demo.pepperstone.5179095|55=10028|268=2|269=0|270=90939.37|269=1|270=90954.37|10=160|
2026-01-09 08:13:37.491 INFO [APP][IN] qual=QUOTE 8=FIX.4.4|9=138|35=W|34=183|49=cServer|50=QUOTE|52=20260109-06:13:37.362|56=demo.pepperstone.5179095|55=10028|268=2|269=0|270=90939.52|269=1|270=90954.52|10=149|
2026-01-09 08:13:38.312 INFO [APP][IN] qual=QUOTE 8=FIX.4.4|9=138|35=W|34=184|49=cServer|50=QUOTE|52=20260109-06:13:38.183|56=demo.pepperstone.5179095|55=10028|268=2|269=0|270=90939.45|269=1|270=90954.45|10=156|
2026-01-09 08:13:38.743 INFO [APP][IN] qual=QUOTE 8=FIX.4.4|9=138|35=W|34=185|49=cServer|50=QUOTE|52=20260109-06:13:38.614|56=demo.pepperstone.5179095|55=10028|268=2|269=0|270=90939.53|269=1|270=90954.53|10=154|
2026-01-09 08:13:39.611 INFO [APP][IN] qual=QUOTE 8=FIX.4.4|9=138|35=W|34=186|49=cServer|50=QUOTE|52=20260109-06:13:39.483|56=demo.pepperstone.5179095|55=10028|268=2|269=0|270=90939.64|269=1|270=90954.64|10=164|
2026-01-09 08:13:40.061 INFO [APP][IN] qual=QUOTE 8=FIX.4.4|9=138|35=W|34=187|49=cServer|50=QUOTE|52=20260109-06:13:39.932|56=demo.pepperstone.5179095|55=10028|268=2|269=0|270=90938.15|269=1|270=90953.15|10=154|
2026-01-09 08:13:40.468 INFO [APP][IN] qual=QUOTE 8=FIX.4.4|9=138|35=W|34=188|49=cServer|50=QUOTE|52=20260109-06:13:40.339|56=demo.pepperstone.5179095|55=10028|268=2|269=0|270=90939.12|269=1|270=90954.12|10=144|
2026-01-09 08:13:40.964 INFO [APP][IN] qual=QUOTE 8=FIX.4.4|9=138|35=W|34=189|49=cServer|50=QUOTE|52=20260109-06:13:40.835|56=demo.pepperstone.5179095|55=10028|268=2|269=0|270=90939.42|269=1|270=90954.42|10=152|
2026-01-09 08:13:41.368 INFO [APP][IN] qual=QUOTE 8=FIX.4.4|9=138|35=W|34=190|49=cServer|50=QUOTE|52=20260109-06:13:41.239|56=demo.pepperstone.5179095|55=10028|268=2|269=0|270=90939.71|269=1|270=90954.71|10=147|
2026-01-09 08:13:41.768 INFO [APP][IN] qual=QUOTE 8=FIX.4.4|9=138|35=W|34=191|49=cServer|50=QUOTE|52=20260109-06:13:41.639|56=demo.pepperstone.5179095|55=10028|268=2|269=0|270=90926.32|269=1|270=90941.32|10=138|
2026-01-09 08:13:42.170 INFO [APP][IN] qual=QUOTE 8=FIX.4.4|9=138|35=W|34=192|49=cServer|50=QUOTE|52=20260109-06:13:42.041|56=demo.pepperstone.5179095|55=10028|268=2|269=0|270=90935.03|269=1|270=90950.03|10=123|
2026-01-09 08:13:42.570 INFO [APP][IN] qual=QUOTE 8=FIX.4.4|9=138|35=W|34=193|49=cServer|50=QUOTE|52=20260109-06:13:42.441|56=demo.pepperstone.5179095|55=10028|268=2|269=0|270=90936.01|269=1|270=90951.01|10=126|
2026-01-09 08:13:42.983 INFO [APP][IN] qual=QUOTE 8=FIX.4.4|9=138|35=W|34=194|49=cServer|50=QUOTE|52=20260109-06:13:42.854|56=demo.pepperstone.5179095|55=10028|268=2|269=0|270=90936.38|269=1|270=90951.38|10=155|
2026-01-09 08:13:43.423 INFO [APP][IN] qual=QUOTE 8=FIX.4.4|9=138|35=W|34=195|49=cServer|50=QUOTE|52=20260109-06:13:43.295|56=demo.pepperstone.5179095|55=10028|268=2|269=0|270=90936.56|269=1|270=90951.56|10=156|
2026-01-09 08:13:43.825 INFO [APP][IN] qual=QUOTE 8=FIX.4.4|9=138|35=W|34=196|49=cServer|50=QUOTE|52=20260109-06:13:43.697|56=demo.pepperstone.5179095|55=10028|268=2|269=0|270=90936.94|269=1|270=90951.94|10=167|
2026-01-09 08:13:44.275 INFO [APP][IN] qual=QUOTE 8=FIX.4.4|9=138|35=W|34=197|49=cServer|50=QUOTE|52=20260109-06:13:44.146|56=demo.pepperstone.5179095|55=10028|268=2|269=0|270=90937.07|269=1|270=90952.07|10=148|
2026-01-09 08:13:44.680 INFO [APP][IN] qual=QUOTE 8=FIX.4.4|9=138|35=W|34=198|49=cServer|50=QUOTE|52=20260109-06:13:44.551|56=demo.pepperstone.5179095|55=10028|268=2|269=0|270=90937.13|269=1|270=90952.13|10=143|
2026-01-09 08:13:45.270 INFO [APP][IN] qual=QUOTE 8=FIX.4.4|9=138|35=W|34=199|49=cServer|50=QUOTE|52=20260109-06:13:45.141|56=demo.pepperstone.5179095|55=10028|268=2|269=0|270=90937.15|269=1|270=90952.15|10=144|
2026-01-09 08:13:45.681 INFO [APP][IN] qual=QUOTE 8=FIX.4.4|9=138|35=W|34=200|49=cServer|50=QUOTE|52=20260109-06:13:45.552|56=demo.pepperstone.5179095|55=10028|268=2|269=0|270=90938.13|269=1|270=90953.13|10=131|
2026-01-09 08:13:46.093 INFO [APP][IN] qual=QUOTE 8=FIX.4.4|9=138|35=W|34=201|49=cServer|50=QUOTE|52=20260109-06:13:45.964|56=demo.pepperstone.5179095|55=10028|268=2|269=0|270=90937.98|269=1|270=90952.98|10=163|
2026-01-09 08:13:46.533 INFO [APP][IN] qual=QUOTE 8=FIX.4.4|9=138|35=W|34=202|49=cServer|50=QUOTE|52=20260109-06:13:46.404|56=demo.pepperstone.5179095|55=10028|268=2|269=0|270=90937.97|269=1|270=90952.97|10=152|
2026-01-09 08:13:46.933 INFO [APP][IN] qual=QUOTE 8=FIX.4.4|9=138|35=W|34=203|49=cServer|50=QUOTE|52=20260109-06:13:46.804|56=demo.pepperstone.5179095|55=10028|268=2|269=0|270=90938.82|269=1|270=90953.82|10=147|
2026-01-09 08:13:47.337 INFO [APP][IN] qual=QUOTE 8=FIX.4.4|9=138|35=W|34=204|49=cServer|50=QUOTE|52=20260109-06:13:47.208|56=demo.pepperstone.5179095|55=10028|268=2|269=0|270=90938.06|269=1|270=90953.06|10=139|
2026-01-09 08:13:47.740 INFO [APP][IN] qual=QUOTE 8=FIX.4.4|9=138|35=W|34=205|49=cServer|50=QUOTE|52=20260109-06:13:47.611|56=demo.pepperstone.5179095|55=10028|268=2|269=0|270=90938.02|269=1|270=90953.02|10=130|
2026-01-09 08:13:48.170 INFO [APP][IN] qual=QUOTE 8=FIX.4.4|9=138|35=W|34=206|49=cServer|50=QUOTE|52=20260109-06:13:48.041|56=demo.pepperstone.5179095|55=10028|268=2|269=0|270=90938.03|269=1|270=90953.03|10=131|
2026-01-09 08:13:48.591 INFO [APP][IN] qual=QUOTE 8=FIX.4.4|9=136|35=W|34=207|49=cServer|50=QUOTE|52=20260109-06:13:48.462|56=demo.pepperstone.5179095|55=10028|268=2|269=0|270=90938.1|269=1|270=90953.1|10=037|
2026-01-09 08:13:48.995 INFO [APP][IN] qual=QUOTE 8=FIX.4.4|9=138|35=W|34=208|49=cServer|50=QUOTE|52=20260109-06:13:48.867|56=demo.pepperstone.5179095|55=10028|268=2|269=0|270=90938.13|269=1|270=90953.13|10=151|
2026-01-09 08:13:49.562 INFO [APP][IN] qual=QUOTE 8=FIX.4.4|9=138|35=W|34=209|49=cServer|50=QUOTE|52=20260109-06:13:49.433|56=demo.pepperstone.5179095|55=10028|268=2|269=0|270=90938.08|269=1|270=90953.08|10=150|
2026-01-09 08:13:49.993 INFO [APP][IN] qual=QUOTE 8=FIX.4.4|9=138|35=W|34=210|49=cServer|50=QUOTE|52=20260109-06:13:49.865|56=demo.pepperstone.5179095|55=10028|268=2|269=0|270=90938.31|269=1|270=90953.31|10=143|
2026-01-09 08:13:50.412 INFO [APP][IN] qual=QUOTE 8=FIX.4.4|9=138|35=W|34=211|49=cServer|50=QUOTE|52=20260109-06:13:50.283|56=demo.pepperstone.5179095|55=10028|268=2|269=0|270=90938.27|269=1|270=90953.27|10=140|
2026-01-09 08:13:50.816 INFO [APP][IN] qual=QUOTE 8=FIX.4.4|9=138|35=W|34=212|49=cServer|50=QUOTE|52=20260109-06:13:50.687|56=demo.pepperstone.5179095|55=10028|268=2|269=0|270=90938.33|269=1|270=90953.33|10=143|
2026-01-09 08:13:51.217 INFO [APP][IN] qual=QUOTE 8=FIX.4.4|9=138|35=W|34=213|49=cServer|50=QUOTE|52=20260109-06:13:51.088|56=demo.pepperstone.5179095|55=10028|268=2|269=0|270=90938.51|269=1|270=90953.51|10=140|
2026-01-09 08:13:51.432 INFO [ADMIN][IN] qual=TRADE 8=FIX.4.4|9=83|35=0|34=5|49=cServer|50=TRADE|52=20260109-06:13:51.302|56=demo.pepperstone.5179095|10=235|
2026-01-09 08:13:51.620 INFO [APP][IN] qual=QUOTE 8=FIX.4.4|9=138|35=W|34=214|49=cServer|50=QUOTE|52=20260109-06:13:51.491|56=demo.pepperstone.5179095|55=10028|268=2|269=0|270=90938.58|269=1|270=90953.58|10=153|
2026-01-09 08:13:52.072 INFO [APP][IN] qual=QUOTE 8=FIX.4.4|9=138|35=W|34=215|49=cServer|50=QUOTE|52=20260109-06:13:51.944|56=demo.pepperstone.5179095|55=10028|268=2|269=0|270=90938.77|269=1|270=90953.77|10=159|
2026-01-09 08:13:52.525 INFO [APP][IN] qual=QUOTE 8=FIX.4.4|9=136|35=W|34=216|49=cServer|50=QUOTE|52=20260109-06:13:52.396|56=demo.pepperstone.5179095|55=10028|268=2|269=0|270=90939.1|269=1|270=90954.1|10=040|
2026-01-09 08:13:52.962 INFO [APP][IN] qual=QUOTE 8=FIX.4.4|9=138|35=W|34=217|49=cServer|50=QUOTE|52=20260109-06:13:52.834|56=demo.pepperstone.5179095|55=10028|268=2|269=0|270=90938.16|269=1|270=90953.16|10=146|
2026-01-09 08:13:53.380 INFO [APP][IN] qual=QUOTE 8=FIX.4.4|9=138|35=W|34=218|49=cServer|50=QUOTE|52=20260109-06:13:53.252|56=demo.pepperstone.5179095|55=10028|268=2|269=0|270=90945.32|269=1|270=90960.32|10=134|
2026-01-09 08:13:53.793 INFO [APP][IN] qual=QUOTE 8=FIX.4.4|9=138|35=W|34=219|49=cServer|50=QUOTE|52=20260109-06:13:53.665|56=demo.pepperstone.5179095|55=10028|268=2|269=0|270=90945.65|269=1|270=90960.65|10=155|
2026-01-09 08:13:54.229 INFO [APP][IN] qual=QUOTE 8=FIX.4.4|9=132|35=W|34=220|49=cServer|50=QUOTE|52=20260109-06:13:54.100|56=demo.pepperstone.5179095|55=10028|268=2|269=0|270=90946|269=1|270=90961|10=078|
2026-01-09 08:13:54.631 INFO [APP][IN] qual=QUOTE 8=FIX.4.4|9=138|35=W|34=221|49=cServer|50=QUOTE|52=20260109-06:13:54.502|56=demo.pepperstone.5179095|55=10028|268=2|269=0|270=90945.04|269=1|270=90960.04|10=125|
2026-01-09 08:13:55.082 INFO [APP][IN] qual=QUOTE 8=FIX.4.4|9=138|35=W|34=222|49=cServer|50=QUOTE|52=20260109-06:13:54.954|56=demo.pepperstone.5179095|55=10028|268=2|269=0|270=90946.07|269=1|270=90961.07|10=145|
2026-01-09 08:13:55.535 INFO [APP][IN] qual=QUOTE 8=FIX.4.4|9=136|35=W|34=223|49=cServer|50=QUOTE|52=20260109-06:13:55.406|56=demo.pepperstone.5179095|55=10028|268=2|269=0|270=90945.8|269=1|270=90960.8|10=041|
2026-01-09 08:13:55.964 INFO [APP][IN] qual=QUOTE 8=FIX.4.4|9=138|35=W|34=224|49=cServer|50=QUOTE|52=20260109-06:13:55.835|56=demo.pepperstone.5179095|55=10028|268=2|269=0|270=90945.69|269=1|270=90960.69|10=160|
2026-01-09 08:13:56.384 INFO [APP][IN] qual=QUOTE 8=FIX.4.4|9=138|35=W|34=225|49=cServer|50=QUOTE|52=20260109-06:13:56.256|56=demo.pepperstone.5179095|55=10028|268=2|269=0|270=90944.14|269=1|270=90959.14|10=146|
2026-01-09 08:13:56.788 INFO [APP][IN] qual=QUOTE 8=FIX.4.4|9=138|35=W|34=226|49=cServer|50=QUOTE|52=20260109-06:13:56.659|56=demo.pepperstone.5179095|55=10028|268=2|269=0|270=90944.43|269=1|270=90959.43|10=158|
2026-01-09 08:13:57.234 INFO [APP][IN] qual=QUOTE 8=FIX.4.4|9=138|35=W|34=227|49=cServer|50=QUOTE|52=20260109-06:13:57.105|56=demo.pepperstone.5179095|55=10028|268=2|269=0|270=90944.38|269=1|270=90959.38|10=154|
2026-01-09 08:13:57.638 INFO [APP][IN] qual=QUOTE 8=FIX.4.4|9=138|35=W|34=228|49=cServer|50=QUOTE|52=20260109-06:13:57.509|56=demo.pepperstone.5179095|55=10028|268=2|269=0|270=90950.38|269=1|270=90965.38|10=157|
2026-01-09 08:13:58.039 INFO [APP][IN] qual=QUOTE 8=FIX.4.4|9=138|35=W|34=229|49=cServer|50=QUOTE|52=20260109-06:13:57.910|56=demo.pepperstone.5179095|55=10028|268=2|269=0|270=90951.06|269=1|270=90966.06|10=146|
2026-01-09 08:13:58.447 INFO [APP][IN] qual=QUOTE 8=FIX.4.4|9=138|35=W|34=230|49=cServer|50=QUOTE|52=20260109-06:13:58.318|56=demo.pepperstone.5179095|55=10028|268=2|269=0|270=90973.42|269=1|270=90988.42|10=149|
2026-01-09 08:13:58.850 INFO [APP][IN] qual=QUOTE 8=FIX.4.4|9=136|35=W|34=231|49=cServer|50=QUOTE|52=20260109-06:13:58.721|56=demo.pepperstone.5179095|55=10028|268=2|269=0|270=90981.9|269=1|270=90996.9|10=054|
2026-01-09 08:13:59.262 INFO [APP][IN] qual=QUOTE 8=FIX.4.4|9=136|35=W|34=232|49=cServer|50=QUOTE|52=20260109-06:13:59.133|56=demo.pepperstone.5179095|55=10028|268=2|269=0|270=90985.3|269=1|270=91000.3|10=022|
2026-01-09 08:13:59.671 INFO [APP][IN] qual=QUOTE 8=FIX.4.4|9=136|35=W|34=233|49=cServer|50=QUOTE|52=20260109-06:13:59.543|56=demo.pepperstone.5179095|55=10028|268=2|269=0|270=90977.3|269=1|270=90992.3|10=048|
2026-01-09 08:14:00.113 INFO [APP][IN] qual=QUOTE 8=FIX.4.4|9=136|35=W|34=234|49=cServer|50=QUOTE|52=20260109-06:13:59.984|56=demo.pepperstone.5179095|55=10028|268=2|269=0|270=90979.3|269=1|270=90994.3|10=062|
2026-01-09 08:14:00.121 INFO [BAR M1] 2026-01-09T06:13:00+00:00 O=90970.30 H=90992.80 L=90930.29 C=90984.80 | desired=0 cur=0
2026-01-09 08:14:00.515 INFO [APP][IN] qual=QUOTE 8=FIX.4.4|9=138|35=W|34=235|49=cServer|50=QUOTE|52=20260109-06:14:00.386|56=demo.pepperstone.5179095|55=10028|268=2|269=0|270=90979.96|269=1|270=90994.96|10=168|
2026-01-09 08:14:00.916 INFO [APP][IN] qual=QUOTE 8=FIX.4.4|9=138|35=W|34=236|49=cServer|50=QUOTE|52=20260109-06:14:00.787|56=demo.pepperstone.5179095|55=10028|268=2|269=0|270=90978.07|269=1|270=90993.07|10=156|
2026-01-09 08:14:01.327 INFO [APP][IN] qual=QUOTE 8=FIX.4.4|9=138|35=W|34=237|49=cServer|50=QUOTE|52=20260109-06:14:01.198|56=demo.pepperstone.5179095|55=10028|268=2|269=0|270=90977.83|269=1|270=90992.83|10=160|
2026-01-09 08:14:01.769 INFO [APP][IN] qual=QUOTE 8=FIX.4.4|9=138|35=W|34=238|49=cServer|50=QUOTE|52=20260109-06:14:01.640|56=demo.pepperstone.5179095|55=10028|268=2|269=0|270=90972.88|269=1|270=90987.88|10=162|
2026-01-09 08:14:02.180 INFO [APP][IN] qual=QUOTE 8=FIX.4.4|9=136|35=W|34=239|49=cServer|50=QUOTE|52=20260109-06:14:02.052|56=demo.pepperstone.5179095|55=10028|268=2|269=0|270=90971.5|269=1|270=90986.5|10=039|
2026-01-09 08:14:02.580 INFO [APP][IN] qual=QUOTE 8=FIX.4.4|9=138|35=W|34=240|49=cServer|50=QUOTE|52=20260109-06:14:02.451|56=demo.pepperstone.5179095|55=10028|268=2|269=0|270=90971.71|269=1|270=90986.71|10=138|
2026-01-09 08:14:03.018 INFO [APP][IN] qual=QUOTE 8=FIX.4.4|9=138|35=W|34=241|49=cServer|50=QUOTE|52=20260109-06:14:02.889|56=demo.pepperstone.5179095|55=10028|268=2|269=0|270=90971.88|269=1|270=90986.88|10=170|
2026-01-09 08:14:03.420 INFO [APP][IN] qual=QUOTE 8=FIX.4.4|9=138|35=W|34=242|49=cServer|50=QUOTE|52=20260109-06:14:03.292|56=demo.pepperstone.5179095|55=10028|268=2|269=0|270=90969.83|269=1|270=90984.83|10=155|
2026-01-09 08:14:03.830 INFO [APP][IN] qual=QUOTE 8=FIX.4.4|9=138|35=W|34=243|49=cServer|50=QUOTE|52=20260109-06:14:03.701|56=demo.pepperstone.5179095|55=10028|268=2|269=0|270=90970.45|269=1|270=90985.45|10=140|
2026-01-09 08:14:04.231 INFO [APP][IN] qual=QUOTE 8=FIX.4.4|9=132|35=W|34=244|49=cServer|50=QUOTE|52=20260109-06:14:04.102|56=demo.pepperstone.5179095|55=10028|268=2|269=0|270=90969|269=1|270=90984|10=092|
2026-01-09 08:14:04.676 INFO [APP][IN] qual=QUOTE 8=FIX.4.4|9=138|35=W|34=245|49=cServer|50=QUOTE|52=20260109-06:14:04.547|56=demo.pepperstone.5179095|55=10028|268=2|269=0|270=90969.95|269=1|270=90984.95|10=168|
2026-01-09 08:14:05.126 INFO [APP][IN] qual=QUOTE 8=FIX.4.4|9=138|35=W|34=246|49=cServer|50=QUOTE|52=20260109-06:14:04.997|56=demo.pepperstone.5179095|55=10028|268=2|269=0|270=90970.74|269=1|270=90985.74|10=165|
2026-01-09 08:14:05.528 INFO [APP][IN] qual=QUOTE 8=FIX.4.4|9=138|35=W|34=247|49=cServer|50=QUOTE|52=20260109-06:14:05.399|56=demo.pepperstone.5179095|55=10028|268=2|269=0|270=90971.93|269=1|270=90986.93|10=167|
2026-01-09 08:14:05.959 INFO [APP][IN] qual=QUOTE 8=FIX.4.4|9=138|35=W|34=248|49=cServer|50=QUOTE|52=20260109-06:14:05.830|56=demo.pepperstone.5179095|55=10028|268=2|269=0|270=90971.12|269=1|270=90986.12|10=140|
2026-01-09 08:14:06.378 INFO [APP][IN] qual=QUOTE 8=FIX.4.4|9=138|35=W|34=249|49=cServer|50=QUOTE|52=20260109-06:14:06.249|56=demo.pepperstone.5179095|55=10028|268=2|269=0|270=90971.56|269=1|270=90986.56|10=162|
2026-01-09 08:14:06.782 INFO [APP][IN] qual=QUOTE 8=FIX.4.4|9=138|35=W|34=250|49=cServer|50=QUOTE|52=20260109-06:14:06.653|56=demo.pepperstone.5179095|55=10028|268=2|269=0|270=90971.58|269=1|270=90986.58|10=157|
2026-01-09 08:14:07.230 INFO [APP][IN] qual=QUOTE 8=FIX.4.4|9=138|35=W|34=251|49=cServer|50=QUOTE|52=20260109-06:14:07.101|56=demo.pepperstone.5179095|55=10028|268=2|269=0|270=90971.16|269=1|270=90986.16|10=135|
2026-01-09 08:14:07.635 INFO [APP][IN] qual=QUOTE 8=FIX.4.4|9=138|35=W|34=252|49=cServer|50=QUOTE|52=20260109-06:14:07.506|56=demo.pepperstone.5179095|55=10028|268=2|269=0|270=90971.44|269=1|270=90986.44|10=147|
2026-01-09 08:14:08.036 INFO [APP][IN] qual=QUOTE 8=FIX.4.4|9=136|35=W|34=253|49=cServer|50=QUOTE|52=20260109-06:14:07.908|56=demo.pepperstone.5179095|55=10028|268=2|269=0|270=90970.5|269=1|270=90985.5|10=048|
2026-01-09 08:14:08.490 INFO [APP][IN] qual=QUOTE 8=FIX.4.4|9=138|35=W|34=254|49=cServer|50=QUOTE|52=20260109-06:14:08.361|56=demo.pepperstone.5179095|55=10028|268=2|269=0|270=90969.17|269=1|270=90984.17|10=154|
2026-01-09 08:14:08.910 INFO [APP][IN] qual=QUOTE 8=FIX.4.4|9=138|35=W|34=255|49=cServer|50=QUOTE|52=20260109-06:14:08.781|56=demo.pepperstone.5179095|55=10028|268=2|269=0|270=90969.16|269=1|270=90984.16|10=159|
2026-01-09 08:14:09.312 INFO [APP][IN] qual=QUOTE 8=FIX.4.4|9=138|35=W|34=256|49=cServer|50=QUOTE|52=20260109-06:14:09.184|56=demo.pepperstone.5179095|55=10028|268=2|269=0|270=90969.32|269=1|270=90984.32|10=154|
2026-01-09 08:14:09.713 INFO [APP][IN] qual=QUOTE 8=FIX.4.4|9=138|35=W|34=257|49=cServer|50=QUOTE|52=20260109-06:14:09.584|56=demo.pepperstone.5179095|55=10028|268=2|269=0|270=90969.28|269=1|270=90984.28|10=169|
2026-01-09 08:14:10.167 INFO [APP][IN] qual=QUOTE 8=FIX.4.4|9=138|35=W|34=258|49=cServer|50=QUOTE|52=20260109-06:14:10.039|56=demo.pepperstone.5179095|55=10028|268=2|269=0|270=90969.39|269=1|270=90984.39|10=161|
2026-01-09 08:14:10.610 INFO [APP][IN] qual=QUOTE 8=FIX.4.4|9=138|35=W|34=259|49=cServer|50=QUOTE|52=20260109-06:14:10.481|56=demo.pepperstone.5179095|55=10028|268=2|269=0|270=90969.18|269=1|270=90984.18|10=157|
2026-01-09 08:14:11.017 INFO [APP][IN] qual=QUOTE 8=FIX.4.4|9=138|35=W|34=260|49=cServer|50=QUOTE|52=20260109-06:14:10.888|56=demo.pepperstone.5179095|55=10028|268=2|269=0|270=90968.69|269=1|270=90983.69|10=170|
2026-01-09 08:14:11.428 INFO [APP][IN] qual=QUOTE 8=FIX.4.4|9=136|35=W|34=261|49=cServer|50=QUOTE|52=20260109-06:14:11.299|56=demo.pepperstone.5179095|55=10028|268=2|269=0|270=90968.7|269=1|270=90983.7|10=054|
2026-01-09 08:14:11.830 INFO [APP][IN] qual=QUOTE 8=FIX.4.4|9=138|35=W|34=262|49=cServer|50=QUOTE|52=20260109-06:14:11.701|56=demo.pepperstone.5179095|55=10028|268=2|269=0|270=90968.74|269=1|270=90983.74|10=149|
2026-01-09 08:14:12.268 INFO [APP][IN] qual=QUOTE 8=FIX.4.4|9=136|35=W|34=263|49=cServer|50=QUOTE|52=20260109-06:14:12.140|56=demo.pepperstone.5179095|55=10028|268=2|269=0|270=90968.9|269=1|270=90983.9|10=046|
2026-01-09 08:14:12.669 INFO [APP][IN] qual=QUOTE 8=FIX.4.4|9=138|35=W|34=264|49=cServer|50=QUOTE|52=20260109-06:14:12.541|56=demo.pepperstone.5179095|55=10028|268=2|269=0|270=90964.58|269=1|270=90979.58|10=159|
2026-01-09 08:14:13.075 INFO [APP][IN] qual=QUOTE 8=FIX.4.4|9=138|35=W|34=265|49=cServer|50=QUOTE|52=20260109-06:14:12.947|56=demo.pepperstone.5179095|55=10028|268=2|269=0|270=90964.42|269=1|270=90979.42|10=156|
2026-01-09 08:14:13.510 INFO [APP][IN] qual=QUOTE 8=FIX.4.4|9=138|35=W|34=266|49=cServer|50=QUOTE|52=20260109-06:14:13.381|56=demo.pepperstone.5179095|55=10028|268=2|269=0|270=90965.83|269=1|270=90980.83|10=153|
2026-01-09 08:14:13.924 INFO [APP][IN] qual=QUOTE 8=FIX.4.4|9=138|35=W|34=267|49=cServer|50=QUOTE|52=20260109-06:14:13.795|56=demo.pepperstone.5179095|55=10028|268=2|269=0|270=90966.04|269=1|270=90981.04|10=151|
2026-01-09 08:14:14.330 INFO [APP][IN] qual=QUOTE 8=FIX.4.4|9=138|35=W|34=268|49=cServer|50=QUOTE|52=20260109-06:14:14.201|56=demo.pepperstone.5179095|55=10028|268=2|269=0|270=90965.98|269=1|270=90980.98|10=159|
2026-01-09 08:14:14.781 INFO [APP][IN] qual=QUOTE 8=FIX.4.4|9=138|35=W|34=269|49=cServer|50=QUOTE|52=20260109-06:14:14.653|56=demo.pepperstone.5179095|55=10028|268=2|269=0|270=90967.54|269=1|270=90982.54|10=159|
2026-01-09 08:14:15.230 INFO [APP][IN] qual=QUOTE 8=FIX.4.4|9=138|35=W|34=270|49=cServer|50=QUOTE|52=20260109-06:14:15.101|56=demo.pepperstone.5179095|55=10028|268=2|269=0|270=90967.27|269=1|270=90982.27|10=140|
2026-01-09 08:14:15.634 INFO [APP][IN] qual=QUOTE 8=FIX.4.4|9=136|35=W|34=271|49=cServer|50=QUOTE|52=20260109-06:14:15.506|56=demo.pepperstone.5179095|55=10028|268=2|269=0|270=90967.4|269=1|270=90982.4|10=042|
2026-01-09 08:14:16.082 INFO [APP][IN] qual=QUOTE 8=FIX.4.4|9=138|35=W|34=272|49=cServer|50=QUOTE|52=20260109-06:14:15.953|56=demo.pepperstone.5179095|55=10028|268=2|269=0|270=90967.57|269=1|270=90982.57|10=163|
2026-01-09 08:14:16.487 INFO [APP][IN] qual=QUOTE 8=FIX.4.4|9=138|35=W|34=273|49=cServer|50=QUOTE|52=20260109-06:14:16.358|56=demo.pepperstone.5179095|55=10028|268=2|269=0|270=90966.79|269=1|270=90981.79|10=170|
2026-01-09 08:14:16.939 INFO [APP][IN] qual=QUOTE 8=FIX.4.4|9=138|35=W|34=274|49=cServer|50=QUOTE|52=20260109-06:14:16.810|56=demo.pepperstone.5179095|55=10028|268=2|269=0|270=90966.63|269=1|270=90981.63|10=150|
2026-01-09 08:14:17.389 INFO [APP][IN] qual=QUOTE 8=FIX.4.4|9=138|35=W|34=275|49=cServer|50=QUOTE|52=20260109-06:14:17.260|56=demo.pepperstone.5179095|55=10028|268=2|269=0|270=90966.59|269=1|270=90981.59|10=161|
2026-01-09 08:14:17.809 INFO [APP][IN] qual=QUOTE 8=FIX.4.4|9=138|35=W|34=276|49=cServer|50=QUOTE|52=20260109-06:14:17.680|56=demo.pepperstone.5179095|55=10028|268=2|269=0|270=90960.82|269=1|270=90975.82|10=157|
2026-01-09 08:14:18.220 INFO [APP][IN] qual=QUOTE 8=FIX.4.4|9=138|35=W|34=277|49=cServer|50=QUOTE|52=20260109-06:14:18.091|56=demo.pepperstone.5179095|55=10028|268=2|269=0|270=90962.69|269=1|270=90977.69|10=169|
2026-01-09 08:14:18.628 INFO [APP][IN] qual=QUOTE 8=FIX.4.4|9=136|35=W|34=278|49=cServer|50=QUOTE|52=20260109-06:14:18.499|56=demo.pepperstone.5179095|55=10028|268=2|269=0|270=90961.8|269=1|270=90976.8|10=068|
2026-01-09 08:14:19.034 INFO [APP][IN] qual=QUOTE 8=FIX.4.4|9=136|35=W|34=279|49=cServer|50=QUOTE|52=20260109-06:14:18.905|56=demo.pepperstone.5179095|55=10028|268=2|269=0|270=90961.2|269=1|270=90976.2|10=049|
2026-01-09 08:14:19.467 INFO [APP][IN] qual=QUOTE 8=FIX.4.4|9=138|35=W|34=280|49=cServer|50=QUOTE|52=20260109-06:14:19.339|56=demo.pepperstone.5179095|55=10028|268=2|269=0|270=90962.87|269=1|270=90977.87|10=169|
2026-01-09 08:14:19.910 INFO [APP][IN] qual=QUOTE 8=FIX.4.4|9=138|35=W|34=281|49=cServer|50=QUOTE|52=20260109-06:14:19.781|56=demo.pepperstone.5179095|55=10028|268=2|269=0|270=90963.64|269=1|270=90978.64|10=163|
2026-01-09 08:14:20.314 INFO [APP][IN] qual=QUOTE 8=FIX.4.4|9=138|35=W|34=282|49=cServer|50=QUOTE|52=20260109-06:14:20.185|56=demo.pepperstone.5179095|55=10028|268=2|269=0|270=90963.61|269=1|270=90978.61|10=148|
2026-01-09 08:14:20.764 INFO [APP][IN] qual=QUOTE 8=FIX.4.4|9=138|35=W|34=283|49=cServer|50=QUOTE|52=20260109-06:14:20.635|56=demo.pepperstone.5179095|55=10028|268=2|269=0|270=90963.26|269=1|270=90978.26|10=151|
2026-01-09 08:14:21.165 INFO [APP][IN] qual=QUOTE 8=FIX.4.4|9=138|35=W|34=284|49=cServer|50=QUOTE|52=20260109-06:14:21.037|56=demo.pepperstone.5179095|55=10028|268=2|269=0|270=90962.46|269=1|270=90977.46|10=151|
2026-01-09 08:14:21.432 INFO [ADMIN][IN] qual=TRADE 8=FIX.4.4|9=83|35=0|34=6|49=cServer|50=TRADE|52=20260109-06:14:21.302|56=demo.pepperstone.5179095|10=234|
2026-01-09 08:14:21.571 INFO [APP][IN] qual=QUOTE 8=FIX.4.4|9=138|35=W|34=285|49=cServer|50=QUOTE|52=20260109-06:14:21.442|56=demo.pepperstone.5179095|55=10028|268=2|269=0|270=90962.73|269=1|270=90977.73|10=152|
2026-01-09 08:14:21.984 INFO [APP][IN] qual=QUOTE 8=FIX.4.4|9=138|35=W|34=286|49=cServer|50=QUOTE|52=20260109-06:14:21.856|56=demo.pepperstone.5179095|55=10028|268=2|269=0|270=90963.12|269=1|270=90978.12|10=150|
2026-01-09 08:14:22.420 INFO [APP][IN] qual=QUOTE 8=FIX.4.4|9=138|35=W|34=287|49=cServer|50=QUOTE|52=20260109-06:14:22.291|56=demo.pepperstone.5179095|55=10028|268=2|269=0|270=90963.53|269=1|270=90978.53|10=155|
2026-01-09 08:14:22.859 INFO [APP][IN] qual=QUOTE 8=FIX.4.4|9=138|35=W|34=288|49=cServer|50=QUOTE|52=20260109-06:14:22.731|56=demo.pepperstone.5179095|55=10028|268=2|269=0|270=90962.69|269=1|270=90977.69|10=167|
2026-01-09 08:14:23.269 INFO [APP][IN] qual=QUOTE 8=FIX.4.4|9=138|35=W|34=289|49=cServer|50=QUOTE|52=20260109-06:14:23.140|56=demo.pepperstone.5179095|55=10028|268=2|269=0|270=90962.48|269=1|270=90977.48|10=157|
2026-01-09 08:14:23.672 INFO [APP][IN] qual=QUOTE 8=FIX.4.4|9=138|35=W|34=290|49=cServer|50=QUOTE|52=20260109-06:14:23.543|56=demo.pepperstone.5179095|55=10028|268=2|269=0|270=90962.45|269=1|270=90977.45|10=150|
2026-01-09 08:14:24.475 INFO [APP][IN] qual=QUOTE 8=FIX.4.4|9=138|35=W|34=291|49=cServer|50=QUOTE|52=20260109-06:14:24.347|56=demo.pepperstone.5179095|55=10028|268=2|269=0|270=90963.11|269=1|270=90978.11|10=142|
2026-01-09 08:14:24.876 INFO [APP][IN] qual=QUOTE 8=FIX.4.4|9=138|35=W|34=292|49=cServer|50=QUOTE|52=20260109-06:14:24.748|56=demo.pepperstone.5179095|55=10028|268=2|269=0|270=90963.29|269=1|270=90978.29|10=166|
2026-01-09 08:14:25.279 INFO [APP][IN] qual=QUOTE 8=FIX.4.4|9=138|35=W|34=293|49=cServer|50=QUOTE|52=20260109-06:14:25.150|56=demo.pepperstone.5179095|55=10028|268=2|269=0|270=90963.32|269=1|270=90978.32|10=143|
2026-01-09 08:14:25.727 INFO [APP][IN] qual=QUOTE 8=FIX.4.4|9=138|35=W|34=294|49=cServer|50=QUOTE|52=20260109-06:14:25.598|56=demo.pepperstone.5179095|55=10028|268=2|269=0|270=90963.33|269=1|270=90978.33|10=162|
2026-01-09 08:14:26.128 INFO [APP][IN] qual=QUOTE 8=FIX.4.4|9=138|35=W|34=295|49=cServer|50=QUOTE|52=20260109-06:14:25.999|56=demo.pepperstone.5179095|55=10028|268=2|269=0|270=90963.32|269=1|270=90978.32|10=166|
2026-01-09 08:14:26.529 INFO [APP][IN] qual=QUOTE 8=FIX.4.4|9=138|35=W|34=296|49=cServer|50=QUOTE|52=20260109-06:14:26.400|56=demo.pepperstone.5179095|55=10028|268=2|269=0|270=90963.42|269=1|270=90978.42|10=147|
2026-01-09 08:14:26.932 INFO [APP][IN] qual=QUOTE 8=FIX.4.4|9=138|35=W|34=297|49=cServer|50=QUOTE|52=20260109-06:14:26.803|56=demo.pepperstone.5179095|55=10028|268=2|269=0|270=90963.23|269=1|270=90978.23|10=153|
2026-01-09 08:14:27.332 INFO [APP][IN] qual=QUOTE 8=FIX.4.4|9=138|35=W|34=298|49=cServer|50=QUOTE|52=20260109-06:14:27.204|56=demo.pepperstone.5179095|55=10028|268=2|269=0|270=90963.11|269=1|270=90978.11|10=144|
2026-01-09 08:14:27.735 INFO [APP][IN] qual=QUOTE 8=FIX.4.4|9=138|35=W|34=299|49=cServer|50=QUOTE|52=20260109-06:14:27.606|56=demo.pepperstone.5179095|55=10028|268=2|269=0|270=90958.09|269=1|270=90973.09|10=164|
2026-01-09 08:14:28.137 INFO [APP][IN] qual=QUOTE 8=FIX.4.4|9=138|35=W|34=300|49=cServer|50=QUOTE|52=20260109-06:14:28.008|56=demo.pepperstone.5179095|55=10028|268=2|269=0|270=90957.65|269=1|270=90972.65|10=146|
2026-01-09 08:14:28.589 INFO [APP][IN] qual=QUOTE 8=FIX.4.4|9=138|35=W|34=301|49=cServer|50=QUOTE|52=20260109-06:14:28.460|56=demo.pepperstone.5179095|55=10028|268=2|269=0|270=90957.32|269=1|270=90972.32|10=137|
2026-01-09 08:14:29.039 INFO [APP][IN] qual=QUOTE 8=FIX.4.4|9=138|35=W|34=302|49=cServer|50=QUOTE|52=20260109-06:14:28.910|56=demo.pepperstone.5179095|55=10028|268=2|269=0|270=90957.37|269=1|270=90972.37|10=148|
2026-01-09 08:14:29.460 INFO [APP][IN] qual=QUOTE 8=FIX.4.4|9=138|35=W|34=303|49=cServer|50=QUOTE|52=20260109-06:14:29.331|56=demo.pepperstone.5179095|55=10028|268=2|269=0|270=90963.92|269=1|270=90978.92|10=152|
2026-01-09 08:14:29.870 INFO [APP][IN] qual=QUOTE 8=FIX.4.4|9=138|35=W|34=304|49=cServer|50=QUOTE|52=20260109-06:14:29.741|56=demo.pepperstone.5179095|55=10028|268=2|269=0|270=90969.11|269=1|270=90984.11|10=143|
2026-01-09 08:14:30.272 INFO [APP][IN] qual=QUOTE 8=FIX.4.4|9=138|35=W|34=305|49=cServer|50=QUOTE|52=20260109-06:14:30.144|56=demo.pepperstone.5179095|55=10028|268=2|269=0|270=90969.01|269=1|270=90984.01|10=131|
2026-01-09 08:14:30.682 INFO [APP][IN] qual=QUOTE 8=FIX.4.4|9=138|35=W|34=306|49=cServer|50=QUOTE|52=20260109-06:14:30.553|56=demo.pepperstone.5179095|55=10028|268=2|269=0|270=90968.69|269=1|270=90983.69|10=162|
2026-01-09 08:14:31.116 INFO [APP][IN] qual=QUOTE 8=FIX.4.4|9=138|35=W|34=307|49=cServer|50=QUOTE|52=20260109-06:14:30.987|56=demo.pepperstone.5179095|55=10028|268=2|269=0|270=90968.55|269=1|270=90983.55|10=164|
2026-01-09 08:14:31.519 INFO [APP][IN] qual=QUOTE 8=FIX.4.4|9=138|35=W|34=308|49=cServer|50=QUOTE|52=20260109-06:14:31.390|56=demo.pepperstone.5179095|55=10028|268=2|269=0|270=90968.47|269=1|270=90983.47|10=156|
2026-01-09 08:14:31.920 INFO [APP][IN] qual=QUOTE 8=FIX.4.4|9=138|35=W|34=309|49=cServer|50=QUOTE|52=20260109-06:14:31.791|56=demo.pepperstone.5179095|55=10028|268=2|269=0|270=90964.73|269=1|270=90979.73|10=161|
2026-01-09 08:14:32.372 INFO [APP][IN] qual=QUOTE 8=FIX.4.4|9=138|35=W|34=310|49=cServer|50=QUOTE|52=20260109-06:14:32.244|56=demo.pepperstone.5179095|55=10028|268=2|269=0|270=90965.31|269=1|270=90980.31|10=128|
2026-01-09 08:14:32.814 INFO [APP][IN] qual=QUOTE 8=FIX.4.4|9=138|35=W|34=311|49=cServer|50=QUOTE|52=20260109-06:14:32.686|56=demo.pepperstone.5179095|55=10028|268=2|269=0|270=90965.45|269=1|270=90980.45|10=149|
2026-01-09 08:14:33.223 INFO [APP][IN] qual=QUOTE 8=FIX.4.4|9=138|35=W|34=312|49=cServer|50=QUOTE|52=20260109-06:14:33.094|56=demo.pepperstone.5179095|55=10028|268=2|269=0|270=90967.68|269=1|270=90982.68|10=158|
2026-01-09 08:14:33.625 INFO [APP][IN] qual=QUOTE 8=FIX.4.4|9=138|35=W|34=313|49=cServer|50=QUOTE|52=20260109-06:14:33.496|56=demo.pepperstone.5179095|55=10028|268=2|269=0|270=90965.69|269=1|270=90980.69|10=163|
2026-01-09 08:14:34.033 INFO [APP][IN] qual=QUOTE 8=FIX.4.4|9=138|35=W|34=314|49=cServer|50=QUOTE|52=20260109-06:14:33.904|56=demo.pepperstone.5179095|55=10028|268=2|269=0|270=90965.67|269=1|270=90980.67|10=154|
2026-01-09 08:14:34.442 INFO [APP][IN] qual=QUOTE 8=FIX.4.4|9=138|35=W|34=315|49=cServer|50=QUOTE|52=20260109-06:14:34.313|56=demo.pepperstone.5179095|55=10028|268=2|269=0|270=90965.27|269=1|270=90980.27|10=142|
2026-01-09 08:14:34.880 INFO [APP][IN] qual=QUOTE 8=FIX.4.4|9=138|35=W|34=316|49=cServer|50=QUOTE|52=20260109-06:14:34.751|56=demo.pepperstone.5179095|55=10028|268=2|269=0|270=90965.49|269=1|270=90980.49|10=157|
2026-01-09 08:14:35.280 INFO [APP][IN] qual=QUOTE 8=FIX.4.4|9=138|35=W|34=317|49=cServer|50=QUOTE|52=20260109-06:14:35.152|56=demo.pepperstone.5179095|55=10028|268=2|269=0|270=90965.29|269=1|270=90980.29|10=150|
2026-01-09 08:14:35.727 INFO [APP][IN] qual=QUOTE 8=FIX.4.4|9=138|35=W|34=318|49=cServer|50=QUOTE|52=20260109-06:14:35.598|56=demo.pepperstone.5179095|55=10028|268=2|269=0|270=90965.04|269=1|270=90980.04|10=151|
2026-01-09 08:14:36.133 INFO [APP][IN] qual=QUOTE 8=FIX.4.4|9=138|35=W|34=319|49=cServer|50=QUOTE|52=20260109-06:14:36.005|56=demo.pepperstone.5179095|55=10028|268=2|269=0|270=90970.56|269=1|270=90985.56|10=151|
2026-01-09 08:14:36.582 INFO [APP][IN] qual=QUOTE 8=FIX.4.4|9=138|35=W|34=320|49=cServer|50=QUOTE|52=20260109-06:14:36.453|56=demo.pepperstone.5179095|55=10028|268=2|269=0|270=90971.06|269=1|270=90986.06|10=142|
2026-01-09 08:14:36.986 INFO [APP][IN] qual=QUOTE 8=FIX.4.4|9=138|35=W|34=321|49=cServer|50=QUOTE|52=20260109-06:14:36.857|56=demo.pepperstone.5179095|55=10028|268=2|269=0|270=90971.38|269=1|270=90986.38|10=161|
2026-01-09 08:14:37.427 INFO [APP][IN] qual=QUOTE 8=FIX.4.4|9=138|35=W|34=322|49=cServer|50=QUOTE|52=20260109-06:14:37.298|56=demo.pepperstone.5179095|55=10028|268=2|269=0|270=90971.65|269=1|270=90986.65|10=162|
2026-01-09 08:14:37.836 INFO [APP][IN] qual=QUOTE 8=FIX.4.4|9=138|35=W|34=323|49=cServer|50=QUOTE|52=20260109-06:14:37.707|56=demo.pepperstone.5179095|55=10028|268=2|269=0|270=90971.48|269=1|270=90986.48|10=160|
2026-01-09 08:14:38.236 INFO [APP][IN] qual=QUOTE 8=FIX.4.4|9=138|35=W|34=324|49=cServer|50=QUOTE|52=20260109-06:14:38.108|56=demo.pepperstone.5179095|55=10028|268=2|269=0|270=90964.74|269=1|270=90979.74|10=159|
2026-01-09 08:14:38.639 INFO [APP][IN] qual=QUOTE 8=FIX.4.4|9=138|35=W|34=325|49=cServer|50=QUOTE|52=20260109-06:14:38.511|56=demo.pepperstone.5179095|55=10028|268=2|269=0|270=90964.87|269=1|270=90979.87|10=166|
2026-01-09 08:14:39.041 INFO [APP][IN] qual=QUOTE 8=FIX.4.4|9=138|35=W|34=326|49=cServer|50=QUOTE|52=20260109-06:14:38.912|56=demo.pepperstone.5179095|55=10028|268=2|269=0|270=90964.61|269=1|270=90979.61|10=156|
2026-01-09 08:14:39.463 INFO [APP][IN] qual=QUOTE 8=FIX.4.4|9=138|35=W|34=327|49=cServer|50=QUOTE|52=20260109-06:14:39.334|56=demo.pepperstone.5179095|55=10028|268=2|269=0|270=90963.79|269=1|270=90978.79|10=172|
2026-01-09 08:14:39.915 INFO [APP][IN] qual=QUOTE 8=FIX.4.4|9=138|35=W|34=328|49=cServer|50=QUOTE|52=20260109-06:14:39.787|56=demo.pepperstone.5179095|55=10028|268=2|269=0|270=90964.15|269=1|270=90979.15|10=167|
2026-01-09 08:14:40.330 INFO [APP][IN] qual=QUOTE 8=FIX.4.4|9=138|35=W|34=329|49=cServer|50=QUOTE|52=20260109-06:14:40.201|56=demo.pepperstone.5179095|55=10028|268=2|269=0|270=90964.14|269=1|270=90979.14|10=139|
2026-01-09 08:14:40.769 INFO [APP][IN] qual=QUOTE 8=FIX.4.4|9=138|35=W|34=330|49=cServer|50=QUOTE|52=20260109-06:14:40.640|56=demo.pepperstone.5179095|55=10028|268=2|269=0|270=90963.99|269=1|270=90978.99|10=162|
2026-01-09 08:14:41.198 INFO [APP][IN] qual=QUOTE 8=FIX.4.4|9=136|35=W|34=331|49=cServer|50=QUOTE|52=20260109-06:14:41.069|56=demo.pepperstone.5179095|55=10028|268=2|269=0|270=90963.6|269=1|270=90978.6|10=047|
2026-01-09 08:14:41.614 INFO [APP][IN] qual=QUOTE 8=FIX.4.4|9=136|35=W|34=332|49=cServer|50=QUOTE|52=20260109-06:14:41.486|56=demo.pepperstone.5179095|55=10028|268=2|269=0|270=90963.5|269=1|270=90978.5|10=049|
2026-01-09 08:14:42.019 INFO [APP][IN] qual=QUOTE 8=FIX.4.4|9=138|35=W|34=333|49=cServer|50=QUOTE|52=20260109-06:14:41.890|56=demo.pepperstone.5179095|55=10028|268=2|269=0|270=90963.32|269=1|270=90978.32|10=147|
2026-01-09 08:14:42.422 INFO [APP][IN] qual=QUOTE 8=FIX.4.4|9=136|35=W|34=334|49=cServer|50=QUOTE|52=20260109-06:14:42.293|56=demo.pepperstone.5179095|55=10028|268=2|269=0|270=90963.6|269=1|270=90978.6|10=050|
2026-01-09 08:14:42.824 INFO [APP][IN] qual=QUOTE 8=FIX.4.4|9=138|35=W|34=335|49=cServer|50=QUOTE|52=20260109-06:14:42.696|56=demo.pepperstone.5179095|55=10028|268=2|269=0|270=90963.49|269=1|270=90978.49|10=170|
2026-01-09 08:14:43.225 INFO [APP][IN] qual=QUOTE 8=FIX.4.4|9=138|35=W|34=336|49=cServer|50=QUOTE|52=20260109-06:14:43.097|56=demo.pepperstone.5179095|55=10028|268=2|269=0|270=90960.89|269=1|270=90975.89|10=169|
2026-01-09 08:14:43.644 INFO [APP][IN] qual=QUOTE 8=FIX.4.4|9=138|35=W|34=337|49=cServer|50=QUOTE|52=20260109-06:14:43.516|56=demo.pepperstone.5179095|55=10028|268=2|269=0|270=90961.42|269=1|270=90976.42|10=146|
2026-01-09 08:14:44.076 INFO [APP][IN] qual=QUOTE 8=FIX.4.4|9=138|35=W|34=338|49=cServer|50=QUOTE|52=20260109-06:14:43.948|56=demo.pepperstone.5179095|55=10028|268=2|269=0|270=90961.19|269=1|270=90976.19|10=164|
2026-01-09 08:14:44.478 INFO [APP][IN] qual=QUOTE 8=FIX.4.4|9=138|35=W|34=339|49=cServer|50=QUOTE|52=20260109-06:14:44.349|56=demo.pepperstone.5179095|55=10028|268=2|269=0|270=90961.48|269=1|270=90976.48|10=165|
2026-01-09 08:14:44.879 INFO [APP][IN] qual=QUOTE 8=FIX.4.4|9=136|35=W|34=340|49=cServer|50=QUOTE|52=20260109-06:14:44.750|56=demo.pepperstone.5179095|55=10028|268=2|269=0|270=90961.7|269=1|270=90976.7|10=045|
2026-01-09 08:14:45.282 INFO [APP][IN] qual=QUOTE 8=FIX.4.4|9=138|35=W|34=341|49=cServer|50=QUOTE|52=20260109-06:14:45.153|56=demo.pepperstone.5179095|55=10028|268=2|269=0|270=90961.43|269=1|270=90976.43|10=142|
2026-01-09 08:14:45.734 INFO [APP][IN] qual=QUOTE 8=FIX.4.4|9=138|35=W|34=342|49=cServer|50=QUOTE|52=20260109-06:14:45.605|56=demo.pepperstone.5179095|55=10028|268=2|269=0|270=90961.52|269=1|270=90976.52|10=145|
2026-01-09 08:14:46.185 INFO [APP][IN] qual=QUOTE 8=FIX.4.4|9=138|35=W|34=343|49=cServer|50=QUOTE|52=20260109-06:14:46.056|56=demo.pepperstone.5179095|55=10028|268=2|269=0|270=90946.14|269=1|270=90961.14|10=140|
2026-01-09 08:14:46.593 INFO [APP][IN] qual=QUOTE 8=FIX.4.4|9=138|35=W|34=344|49=cServer|50=QUOTE|52=20260109-06:14:46.464|56=demo.pepperstone.5179095|55=10028|268=2|269=0|270=90949.51|269=1|270=90964.51|10=152|
2026-01-09 08:14:47.029 INFO [APP][IN] qual=QUOTE 8=FIX.4.4|9=138|35=W|34=345|49=cServer|50=QUOTE|52=20260109-06:14:46.900|56=demo.pepperstone.5179095|55=10028|268=2|269=0|270=90948.06|269=1|270=90963.06|10=146|
2026-01-09 08:14:47.437 INFO [APP][IN] qual=QUOTE 8=FIX.4.4|9=138|35=W|34=346|49=cServer|50=QUOTE|52=20260109-06:14:47.308|56=demo.pepperstone.5179095|55=10028|268=2|269=0|270=90946.44|269=1|270=90961.44|10=150|
2026-01-09 08:14:47.839 INFO [APP][IN] qual=QUOTE 8=FIX.4.4|9=138|35=W|34=347|49=cServer|50=QUOTE|52=20260109-06:14:47.710|56=demo.pepperstone.5179095|55=10028|268=2|269=0|270=90946.67|269=1|270=90961.67|10=158|
2026-01-09 08:14:48.281 INFO [APP][IN] qual=QUOTE 8=FIX.4.4|9=138|35=W|34=348|49=cServer|50=QUOTE|52=20260109-06:14:48.152|56=demo.pepperstone.5179095|55=10028|268=2|269=0|270=90946.74|269=1|270=90961.74|10=156|
2026-01-09 08:14:48.696 INFO [APP][IN] qual=QUOTE 8=FIX.4.4|9=138|35=W|34=349|49=cServer|50=QUOTE|52=20260109-06:14:48.567|56=demo.pepperstone.5179095|55=10028|268=2|269=0|270=90946.79|269=1|270=90961.79|10=177|
2026-01-09 08:14:49.113 INFO [APP][IN] qual=QUOTE 8=FIX.4.4|9=138|35=W|34=350|49=cServer|50=QUOTE|52=20260109-06:14:48.984|56=demo.pepperstone.5179095|55=10028|268=2|269=0|270=90947.84|269=1|270=90962.84|10=166|
2026-01-09 08:14:49.559 INFO [APP][IN] qual=QUOTE 8=FIX.4.4|9=138|35=W|34=351|49=cServer|50=QUOTE|52=20260109-06:14:49.431|56=demo.pepperstone.5179095|55=10028|268=2|269=0|270=90947.73|269=1|270=90962.73|10=151|
2026-01-09 08:14:49.964 INFO [APP][IN] qual=QUOTE 8=FIX.4.4|9=138|35=W|34=352|49=cServer|50=QUOTE|52=20260109-06:14:49.835|56=demo.pepperstone.5179095|55=10028|268=2|269=0|270=90947.47|269=1|270=90962.47|10=162|
2026-01-09 08:14:50.365 INFO [APP][IN] qual=QUOTE 8=FIX.4.4|9=138|35=W|34=353|49=cServer|50=QUOTE|52=20260109-06:14:50.237|56=demo.pepperstone.5179095|55=10028|268=2|269=0|270=90947.56|269=1|270=90962.56|10=151|
2026-01-09 08:14:50.768 INFO [APP][IN] qual=QUOTE 8=FIX.4.4|9=138|35=W|34=354|49=cServer|50=QUOTE|52=20260109-06:14:50.639|56=demo.pepperstone.5179095|55=10028|268=2|269=0|270=90922.44|269=1|270=90937.44|10=147|
2026-01-09 08:14:51.172 INFO [APP][IN] qual=QUOTE 8=FIX.4.4|9=138|35=W|34=355|49=cServer|50=QUOTE|52=20260109-06:14:51.043|56=demo.pepperstone.5179095|55=10028|268=2|269=0|270=90908.56|269=1|270=90928.33|10=143|
2026-01-09 08:14:51.432 INFO [ADMIN][IN] qual=TRADE 8=FIX.4.4|9=83|35=0|34=7|49=cServer|50=TRADE|52=20260109-06:14:51.302|56=demo.pepperstone.5179095|10=238|
2026-01-09 08:14:51.616 INFO [APP][IN] qual=QUOTE 8=FIX.4.4|9=138|35=W|34=356|49=cServer|50=QUOTE|52=20260109-06:14:51.487|56=demo.pepperstone.5179095|55=10028|268=2|269=0|270=90905.68|269=1|270=90928.35|10=158|
2026-01-09 08:14:52.020 INFO [APP][IN] qual=QUOTE 8=FIX.4.4|9=138|35=W|34=357|49=cServer|50=QUOTE|52=20260109-06:14:51.891|56=demo.pepperstone.5179095|55=10028|268=2|269=0|270=90905.27|269=1|270=90926.65|10=154|
2026-01-09 08:14:52.423 INFO [APP][IN] qual=QUOTE 8=FIX.4.4|9=138|35=W|34=358|49=cServer|50=QUOTE|52=20260109-06:14:52.294|56=demo.pepperstone.5179095|55=10028|268=2|269=0|270=90902.64|269=1|270=90924.02|10=140|
2026-01-09 08:14:52.845 INFO [APP][IN] qual=QUOTE 8=FIX.4.4|9=138|35=W|34=359|49=cServer|50=QUOTE|52=20260109-06:14:52.716|56=demo.pepperstone.5179095|55=10028|268=2|269=0|270=90908.77|269=1|270=90923.77|10=161|
2026-01-09 08:14:53.250 INFO [APP][IN] qual=QUOTE 8=FIX.4.4|9=138|35=W|34=360|49=cServer|50=QUOTE|52=20260109-06:14:53.121|56=demo.pepperstone.5179095|55=10028|268=2|269=0|270=90914.95|269=1|270=90929.95|10=147|
2026-01-09 08:14:53.672 INFO [APP][IN] qual=QUOTE 8=FIX.4.4|9=138|35=W|34=361|49=cServer|50=QUOTE|52=20260109-06:14:53.543|56=demo.pepperstone.5179095|55=10028|268=2|269=0|270=90916.43|269=1|270=90931.43|10=137|
2026-01-09 08:14:54.077 INFO [APP][IN] qual=QUOTE 8=FIX.4.4|9=138|35=W|34=362|49=cServer|50=QUOTE|52=20260109-06:14:53.949|56=demo.pepperstone.5179095|55=10028|268=2|269=0|270=90916.45|269=1|270=90931.45|10=152|
2026-01-09 08:14:54.488 INFO [APP][IN] qual=QUOTE 8=FIX.4.4|9=138|35=W|34=363|49=cServer|50=QUOTE|52=20260109-06:14:54.359|56=demo.pepperstone.5179095|55=10028|268=2|269=0|270=90915.87|269=1|270=90930.87|10=159|
2026-01-09 08:14:54.903 INFO [APP][IN] qual=QUOTE 8=FIX.4.4|9=138|35=W|34=364|49=cServer|50=QUOTE|52=20260109-06:14:54.774|56=demo.pepperstone.5179095|55=10028|268=2|269=0|270=90915.81|269=1|270=90930.81|10=149|
2026-01-09 08:14:55.332 INFO [APP][IN] qual=QUOTE 8=FIX.4.4|9=138|35=W|34=365|49=cServer|50=QUOTE|52=20260109-06:14:55.204|56=demo.pepperstone.5179095|55=10028|268=2|269=0|270=90915.86|269=1|270=90930.86|10=149|
2026-01-09 08:14:55.776 INFO [APP][IN] qual=QUOTE 8=FIX.4.4|9=138|35=W|34=366|49=cServer|50=QUOTE|52=20260109-06:14:55.647|56=demo.pepperstone.5179095|55=10028|268=2|269=0|270=90915.73|269=1|270=90930.73|10=153|
2026-01-09 08:14:56.183 INFO [APP][IN] qual=QUOTE 8=FIX.4.4|9=138|35=W|34=367|49=cServer|50=QUOTE|52=20260109-06:14:56.054|56=demo.pepperstone.5179095|55=10028|268=2|269=0|270=90915.46|269=1|270=90930.46|10=147|
2026-01-09 08:14:56.585 INFO [APP][IN] qual=QUOTE 8=FIX.4.4|9=138|35=W|34=368|49=cServer|50=QUOTE|52=20260109-06:14:56.456|56=demo.pepperstone.5179095|55=10028|268=2|269=0|270=90915.87|269=1|270=90930.87|10=164|
2026-01-09 08:14:57.030 INFO [APP][IN] qual=QUOTE 8=FIX.4.4|9=138|35=W|34=369|49=cServer|50=QUOTE|52=20260109-06:14:56.901|56=demo.pepperstone.5179095|55=10028|268=2|269=0|270=90915.82|269=1|270=90930.82|10=150|
2026-01-09 08:14:57.433 INFO [APP][IN] qual=QUOTE 8=FIX.4.4|9=138|35=W|34=370|49=cServer|50=QUOTE|52=20260109-06:14:57.304|56=demo.pepperstone.5179095|55=10028|268=2|269=0|270=90915.73|269=1|270=90930.73|10=140|
2026-01-09 08:14:57.841 INFO [APP][IN] qual=QUOTE 8=FIX.4.4|9=138|35=W|34=371|49=cServer|50=QUOTE|52=20260109-06:14:57.712|56=demo.pepperstone.5179095|55=10028|268=2|269=0|270=90915.43|269=1|270=90930.43|10=138|
2026-01-09 08:14:58.242 INFO [APP][IN] qual=QUOTE 8=FIX.4.4|9=138|35=W|34=372|49=cServer|50=QUOTE|52=20260109-06:14:58.113|56=demo.pepperstone.5179095|55=10028|268=2|269=0|270=90915.63|269=1|270=90930.63|10=139|
2026-01-09 08:14:58.708 INFO [APP][IN] qual=QUOTE 8=FIX.4.4|9=138|35=W|34=373|49=cServer|50=QUOTE|52=20260109-06:14:58.580|56=demo.pepperstone.5179095|55=10028|268=2|269=0|270=90915.58|269=1|270=90930.58|10=156|
2026-01-09 08:14:59.109 INFO [APP][IN] qual=QUOTE 8=FIX.4.4|9=138|35=W|34=374|49=cServer|50=QUOTE|52=20260109-06:14:58.981|56=demo.pepperstone.5179095|55=10028|268=2|269=0|270=90915.55|269=1|270=90930.55|10=156|
2026-01-09 08:14:59.510 INFO [APP][IN] qual=QUOTE 8=FIX.4.4|9=138|35=W|34=375|49=cServer|50=QUOTE|52=20260109-06:14:59.381|56=demo.pepperstone.5179095|55=10028|268=2|269=0|270=90912.81|269=1|270=90927.81|10=153|
2026-01-09 08:14:59.922 INFO [APP][IN] qual=QUOTE 8=FIX.4.4|9=138|35=W|34=376|49=cServer|50=QUOTE|52=20260109-06:14:59.793|56=demo.pepperstone.5179095|55=10028|268=2|269=0|270=90913.22|269=1|270=90928.22|10=153|
2026-01-09 08:15:00.324 INFO [APP][IN] qual=QUOTE 8=FIX.4.4|9=138|35=W|34=377|49=cServer|50=QUOTE|52=20260109-06:15:00.195|56=demo.pepperstone.5179095|55=10028|268=2|269=0|270=90912.66|269=1|270=90927.66|10=151|
2026-01-09 08:15:00.325 INFO [BAR M1] 2026-01-09T06:14:00+00:00 O=90986.80 H=90987.46 L=90913.33 C=90920.72 | desired=0 cur=0
2026-01-09 08:15:00.732 INFO [APP][IN] qual=QUOTE 8=FIX.4.4|9=138|35=W|34=378|49=cServer|50=QUOTE|52=20260109-06:15:00.603|56=demo.pepperstone.5179095|55=10028|268=2|269=0|270=90913.17|269=1|270=90928.17|10=140|
2026-01-09 08:15:01.169 INFO [APP][IN] qual=QUOTE 8=FIX.4.4|9=138|35=W|34=379|49=cServer|50=QUOTE|52=20260109-06:15:01.040|56=demo.pepperstone.5179095|55=10028|268=2|269=0|270=90913.47|269=1|270=90928.47|10=143|
2026-01-09 08:15:01.576 INFO [APP][IN] qual=QUOTE 8=FIX.4.4|9=138|35=W|34=380|49=cServer|50=QUOTE|52=20260109-06:15:01.447|56=demo.pepperstone.5179095|55=10028|268=2|269=0|270=90913.77|269=1|270=90928.77|10=152|
2026-01-09 08:15:01.995 INFO [APP][IN] qual=QUOTE 8=FIX.4.4|9=138|35=W|34=381|49=cServer|50=QUOTE|52=20260109-06:15:01.866|56=demo.pepperstone.5179095|55=10028|268=2|269=0|270=90912.87|269=1|270=90927.87|10=158|
2026-01-09 08:15:02.423 INFO [APP][IN] qual=QUOTE 8=FIX.4.4|9=138|35=W|34=382|49=cServer|50=QUOTE|52=20260109-06:15:02.295|56=demo.pepperstone.5179095|55=10028|268=2|269=0|270=90912.59|269=1|270=90927.59|10=154|
2026-01-09 08:15:02.829 INFO [APP][IN] qual=QUOTE 8=FIX.4.4|9=138|35=W|34=383|49=cServer|50=QUOTE|52=20260109-06:15:02.701|56=demo.pepperstone.5179095|55=10028|268=2|269=0|270=90912.23|269=1|270=90927.23|10=129|
2026-01-09 08:15:03.230 INFO [APP][IN] qual=QUOTE 8=FIX.4.4|9=138|35=W|34=384|49=cServer|50=QUOTE|52=20260109-06:15:03.101|56=demo.pepperstone.5179095|55=10028|268=2|269=0|270=90912.36|269=1|270=90927.36|10=133|
2026-01-09 08:15:03.653 INFO [APP][IN] qual=QUOTE 8=FIX.4.4|9=138|35=W|34=385|49=cServer|50=QUOTE|52=20260109-06:15:03.524|56=demo.pepperstone.5179095|55=10028|268=2|269=0|270=90911.38|269=1|270=90926.38|10=145|
2026-01-09 08:15:04.054 INFO [APP][IN] qual=QUOTE 8=FIX.4.4|9=138|35=W|34=386|49=cServer|50=QUOTE|52=20260109-06:15:03.926|56=demo.pepperstone.5179095|55=10028|268=2|269=0|270=90911.32|269=1|270=90926.32|10=140|
2026-01-09 08:15:04.477 INFO [APP][IN] qual=QUOTE 8=FIX.4.4|9=138|35=W|34=387|49=cServer|50=QUOTE|52=20260109-06:15:04.348|56=demo.pepperstone.5179095|55=10028|268=2|269=0|270=90911.36|269=1|270=90926.36|10=148|
2026-01-09 08:15:04.879 INFO [APP][IN] qual=QUOTE 8=FIX.4.4|9=138|35=W|34=388|49=cServer|50=QUOTE|52=20260109-06:15:04.750|56=demo.pepperstone.5179095|55=10028|268=2|269=0|270=90911.05|269=1|270=90926.05|10=138|
2026-01-09 08:15:05.281 INFO [APP][IN] qual=QUOTE 8=FIX.4.4|9=136|35=W|34=389|49=cServer|50=QUOTE|52=20260109-06:15:05.152|56=demo.pepperstone.5179095|55=10028|268=2|269=0|270=90911.2|269=1|270=90926.2|10=032|
2026-01-09 08:15:05.685 INFO [APP][IN] qual=QUOTE 8=FIX.4.4|9=138|35=W|34=390|49=cServer|50=QUOTE|52=20260109-06:15:05.556|56=demo.pepperstone.5179095|55=10028|268=2|269=0|270=90911.09|269=1|270=90926.09|10=144|
2026-01-09 08:15:06.538 INFO [APP][IN] qual=QUOTE 8=FIX.4.4|9=138|35=W|34=391|49=cServer|50=QUOTE|52=20260109-06:15:06.410|56=demo.pepperstone.5179095|55=10028|268=2|269=0|270=90911.42|269=1|270=90926.42|10=129|
2026-01-09 08:15:06.939 INFO [APP][IN] qual=QUOTE 8=FIX.4.4|9=138|35=W|34=392|49=cServer|50=QUOTE|52=20260109-06:15:06.811|56=demo.pepperstone.5179095|55=10028|268=2|269=0|270=90911.12|269=1|270=90926.12|10=129|
2026-01-09 08:15:07.378 INFO [APP][IN] qual=QUOTE 8=FIX.4.4|9=138|35=W|34=393|49=cServer|50=QUOTE|52=20260109-06:15:07.250|56=demo.pepperstone.5179095|55=10028|268=2|269=0|270=90910.58|269=1|270=90925.58|10=146|
2026-01-09 08:15:07.780 INFO [APP][IN] qual=QUOTE 8=FIX.4.4|9=138|35=W|34=394|49=cServer|50=QUOTE|52=20260109-06:15:07.651|56=demo.pepperstone.5179095|55=10028|268=2|269=0|270=90908.88|269=1|270=90923.88|10=163|
2026-01-09 08:15:08.194 INFO [APP][IN] qual=QUOTE 8=FIX.4.4|9=138|35=W|34=395|49=cServer|50=QUOTE|52=20260109-06:15:08.065|56=demo.pepperstone.5179095|55=10028|268=2|269=0|270=90909.86|269=1|270=90924.86|10=162|
2026-01-09 08:15:08.593 INFO [APP][IN] qual=QUOTE 8=FIX.4.4|9=138|35=W|34=396|49=cServer|50=QUOTE|52=20260109-06:15:08.465|56=demo.pepperstone.5179095|55=10028|268=2|269=0|270=90910.09|269=1|270=90925.09|10=150|
2026-01-09 08:15:09.045 INFO [APP][IN] qual=QUOTE 8=FIX.4.4|9=138|35=W|34=397|49=cServer|50=QUOTE|52=20260109-06:15:08.916|56=demo.pepperstone.5179095|55=10028|268=2|269=0|270=90909.66|269=1|270=90924.66|10=165|
2026-01-09 08:15:09.488 INFO [APP][IN] qual=QUOTE 8=FIX.4.4|9=136|35=W|34=398|49=cServer|50=QUOTE|52=20260109-06:15:09.359|56=demo.pepperstone.5179095|55=10028|268=2|269=0|270=90909.6|269=1|270=90924.6|10=058|
2026-01-09 08:15:09.893 INFO [APP][IN] qual=QUOTE 8=FIX.4.4|9=136|35=W|34=399|49=cServer|50=QUOTE|52=20260109-06:15:09.764|56=demo.pepperstone.5179095|55=10028|268=2|269=0|270=90910.1|269=1|270=90925.1|10=042|
2026-01-09 08:15:10.303 INFO [APP][IN] qual=QUOTE 8=FIX.4.4|9=138|35=W|34=400|49=cServer|50=QUOTE|52=20260109-06:15:10.175|56=demo.pepperstone.5179095|55=10028|268=2|269=0|270=90910.06|269=1|270=90925.06|10=121|
2026-01-09 08:15:10.763 INFO [APP][IN] qual=QUOTE 8=FIX.4.4|9=138|35=W|34=401|49=cServer|50=QUOTE|52=20260109-06:15:10.634|56=demo.pepperstone.5179095|55=10028|268=2|269=0|270=90910.18|269=1|270=90925.18|10=128|
2026-01-09 08:15:11.166 INFO [APP][IN] qual=QUOTE 8=FIX.4.4|9=136|35=W|34=402|49=cServer|50=QUOTE|52=20260109-06:15:11.038|56=demo.pepperstone.5179095|55=10028|268=2|269=0|270=90909.8|269=1|270=90924.8|10=035|
2026-01-09 08:15:11.568 INFO [APP][IN] qual=QUOTE 8=FIX.4.4|9=138|35=W|34=403|49=cServer|50=QUOTE|52=20260109-06:15:11.439|56=demo.pepperstone.5179095|55=10028|268=2|269=0|270=90909.77|269=1|270=90924.77|10=151|
2026-01-09 08:15:12.016 INFO [APP][IN] qual=QUOTE 8=FIX.4.4|9=138|35=W|34=404|49=cServer|50=QUOTE|52=20260109-06:15:11.887|56=demo.pepperstone.5179095|55=10028|268=2|269=0|270=90909.49|269=1|270=90924.49|10=157|
2026-01-09 08:15:12.429 INFO [APP][IN] qual=QUOTE 8=FIX.4.4|9=138|35=W|34=405|49=cServer|50=QUOTE|52=20260109-06:15:12.300|56=demo.pepperstone.5179095|55=10028|268=2|269=0|270=90909.06|269=1|270=90924.06|10=125|
2026-01-09 08:15:12.865 INFO [APP][IN] qual=QUOTE 8=FIX.4.4|9=138|35=W|34=406|49=cServer|50=QUOTE|52=20260109-06:15:12.736|56=demo.pepperstone.5179095|55=10028|268=2|269=0|270=90908.82|269=1|270=90923.82|10=145|
2026-01-09 08:15:13.275 INFO [APP][IN] qual=QUOTE 8=FIX.4.4|9=138|35=W|34=407|49=cServer|50=QUOTE|52=20260109-06:15:13.146|56=demo.pepperstone.5179095|55=10028|268=2|269=0|270=90908.43|269=1|270=90923.43|10=136|
2026-01-09 08:15:13.723 INFO [APP][IN] qual=QUOTE 8=FIX.4.4|9=138|35=W|34=408|49=cServer|50=QUOTE|52=20260109-06:15:13.595|56=demo.pepperstone.5179095|55=10028|268=2|269=0|270=90909.08|269=1|270=90924.08|10=149|
2026-01-09 08:15:14.125 INFO [APP][IN] qual=QUOTE 8=FIX.4.4|9=138|35=W|34=409|49=cServer|50=QUOTE|52=20260109-06:15:13.996|56=demo.pepperstone.5179095|55=10028|268=2|269=0|270=90908.48|269=1|270=90923.48|10=161|
2026-01-09 08:15:14.530 INFO [APP][IN] qual=QUOTE 8=FIX.4.4|9=138|35=W|34=410|49=cServer|50=QUOTE|52=20260109-06:15:14.401|56=demo.pepperstone.5179095|55=10028|268=2|269=0|270=90908.89|269=1|270=90923.89|10=145|
2026-01-09 08:15:14.936 INFO [APP][IN] qual=QUOTE 8=FIX.4.4|9=138|35=W|34=411|49=cServer|50=QUOTE|52=20260109-06:15:14.807|56=demo.pepperstone.5179095|55=10028|268=2|269=0|270=90908.66|269=1|270=90923.66|10=146|
2026-01-09 08:15:15.383 INFO [APP][IN] qual=QUOTE 8=FIX.4.4|9=138|35=W|34=412|49=cServer|50=QUOTE|52=20260109-06:15:15.254|56=demo.pepperstone.5179095|55=10028|268=2|269=0|270=90908.39|269=1|270=90923.39|10=144|
2026-01-09 08:15:15.815 INFO [APP][IN] qual=QUOTE 8=FIX.4.4|9=138|35=W|34=413|49=cServer|50=QUOTE|52=20260109-06:15:15.686|56=demo.pepperstone.5179095|55=10028|268=2|269=0|270=90908.17|269=1|270=90923.17|10=146|
2026-01-09 08:15:16.234 INFO [APP][IN] qual=QUOTE 8=FIX.4.4|9=138|35=W|34=414|49=cServer|50=QUOTE|52=20260109-06:15:16.106|56=demo.pepperstone.5179095|55=10028|268=2|269=0|270=90907.92|269=1|270=90922.92|10=139|
2026-01-09 08:15:16.684 INFO [APP][IN] qual=QUOTE 8=FIX.4.4|9=132|35=W|34=415|49=cServer|50=QUOTE|52=20260109-06:15:16.556|56=demo.pepperstone.5179095|55=10028|268=2|269=0|270=90908|269=1|270=90923|10=095|
2026-01-09 08:15:17.184 INFO [APP][IN] qual=QUOTE 8=FIX.4.4|9=138|35=W|34=416|49=cServer|50=QUOTE|52=20260109-06:15:17.055|56=demo.pepperstone.5179095|55=10028|268=2|269=0|270=90907.94|269=1|270=90922.94|10=149|
2026-01-09 08:15:17.586 INFO [APP][IN] qual=QUOTE 8=FIX.4.4|9=138|35=W|34=417|49=cServer|50=QUOTE|52=20260109-06:15:17.458|56=demo.pepperstone.5179095|55=10028|268=2|269=0|270=90904.58|269=1|270=90919.58|10=160|
2026-01-09 08:15:17.988 INFO [APP][IN] qual=QUOTE 8=FIX.4.4|9=138|35=W|34=418|49=cServer|50=QUOTE|52=20260109-06:15:17.859|56=demo.pepperstone.5179095|55=10028|268=2|269=0|270=90898.47|269=1|270=90913.47|10=168|
2026-01-09 08:15:18.439 INFO [APP][IN] qual=QUOTE 8=FIX.4.4|9=138|35=W|34=419|49=cServer|50=QUOTE|52=20260109-06:15:18.311|56=demo.pepperstone.5179095|55=10028|268=2|269=0|270=90898.55|269=1|270=90913.55|10=151|
2026-01-09 08:15:18.843 INFO [APP][IN] qual=QUOTE 8=FIX.4.4|9=138|35=W|34=420|49=cServer|50=QUOTE|52=20260109-06:15:18.714|56=demo.pepperstone.5179095|55=10028|268=2|269=0|270=90894.23|269=1|270=90909.23|10=141|
2026-01-09 08:15:19.254 INFO [APP][IN] qual=QUOTE 8=FIX.4.4|9=138|35=W|34=421|49=cServer|50=QUOTE|52=20260109-06:15:19.126|56=demo.pepperstone.5179095|55=10028|268=2|269=0|270=90894.55|269=1|270=90909.55|10=150|
2026-01-09 08:15:19.664 INFO [APP][IN] qual=QUOTE 8=FIX.4.4|9=136|35=W|34=422|49=cServer|50=QUOTE|52=20260109-06:15:19.535|56=demo.pepperstone.5179095|55=10028|268=2|269=0|270=90894.2|269=1|270=90909.2|10=041|
2026-01-09 08:15:20.066 INFO [APP][IN] qual=QUOTE 8=FIX.4.4|9=138|35=W|34=423|49=cServer|50=QUOTE|52=20260109-06:15:19.937|56=demo.pepperstone.5179095|55=10028|268=2|269=0|270=90894.97|269=1|270=90909.97|10=174|
2026-01-09 08:15:20.513 INFO [APP][IN] qual=QUOTE 8=FIX.4.4|9=138|35=W|34=424|49=cServer|50=QUOTE|52=20260109-06:15:20.384|56=demo.pepperstone.5179095|55=10028|268=2|269=0|270=90897.61|269=1|270=90912.61|10=142|
2026-01-09 08:15:20.915 INFO [APP][IN] qual=QUOTE 8=FIX.4.4|9=138|35=W|34=425|49=cServer|50=QUOTE|52=20260109-06:15:20.786|56=demo.pepperstone.5179095|55=10028|268=2|269=0|270=90896.76|269=1|270=90911.76|10=159|
2026-01-09 08:15:21.322 INFO [APP][IN] qual=QUOTE 8=FIX.4.4|9=138|35=W|34=426|49=cServer|50=QUOTE|52=20260109-06:15:21.194|56=demo.pepperstone.5179095|55=10028|268=2|269=0|270=90896.29|269=1|270=90911.29|10=150|
2026-01-09 08:15:21.432 INFO [ADMIN][IN] qual=TRADE 8=FIX.4.4|9=83|35=0|34=8|49=cServer|50=TRADE|52=20260109-06:15:21.302|56=demo.pepperstone.5179095|10=237|
2026-01-09 08:15:21.777 INFO [APP][IN] qual=QUOTE 8=FIX.4.4|9=138|35=W|34=427|49=cServer|50=QUOTE|52=20260109-06:15:21.649|56=demo.pepperstone.5179095|55=10028|268=2|269=0|270=90895.98|269=1|270=90910.98|10=166|
2026-01-09 08:15:22.180 INFO [APP][IN] qual=QUOTE 8=FIX.4.4|9=138|35=W|34=428|49=cServer|50=QUOTE|52=20260109-06:15:22.052|56=demo.pepperstone.5179095|55=10028|268=2|269=0|270=90894.08|269=1|270=90909.08|10=145|
2026-01-09 08:15:22.617 INFO [APP][IN] qual=QUOTE 8=FIX.4.4|9=138|35=W|34=429|49=cServer|50=QUOTE|52=20260109-06:15:22.488|56=demo.pepperstone.5179095|55=10028|268=2|269=0|270=90894.27|269=1|270=90909.27|10=161|
2026-01-09 08:15:23.018 INFO [APP][IN] qual=QUOTE 8=FIX.4.4|9=138|35=W|34=430|49=cServer|50=QUOTE|52=20260109-06:15:22.890|56=demo.pepperstone.5179095|55=10028|268=2|269=0|270=90888.85|269=1|270=90903.85|10=155|
2026-01-09 08:15:23.427 INFO [APP][IN] qual=QUOTE 8=FIX.4.4|9=138|35=W|34=431|49=cServer|50=QUOTE|52=20260109-06:15:23.298|56=demo.pepperstone.5179095|55=10028|268=2|269=0|270=90888.42|269=1|270=90903.42|10=145|
2026-01-09 08:15:23.869 INFO [APP][IN] qual=QUOTE 8=FIX.4.4|9=136|35=W|34=432|49=cServer|50=QUOTE|52=20260109-06:15:23.740|56=demo.pepperstone.5179095|55=10028|268=2|269=0|270=90888.6|269=1|270=90903.6|10=040|
2026-01-09 08:15:24.270 INFO [APP][IN] qual=QUOTE 8=FIX.4.4|9=138|35=W|34=433|49=cServer|50=QUOTE|52=20260109-06:15:24.141|56=demo.pepperstone.5179095|55=10028|268=2|269=0|270=90888.58|269=1|270=90903.58|10=149|
2026-01-09 08:15:24.680 INFO [APP][IN] qual=QUOTE 8=FIX.4.4|9=138|35=W|34=434|49=cServer|50=QUOTE|52=20260109-06:15:24.551|56=demo.pepperstone.5179095|55=10028|268=2|269=0|270=90888.29|269=1|270=90903.29|10=151|
2026-01-09 08:15:25.129 INFO [APP][IN] qual=QUOTE 8=FIX.4.4|9=138|35=W|34=435|49=cServer|50=QUOTE|52=20260109-06:15:25.001|56=demo.pepperstone.5179095|55=10028|268=2|269=0|270=90894.09|269=1|270=90909.09|10=142|
2026-01-09 08:15:25.532 INFO [APP][IN] qual=QUOTE 8=FIX.4.4|9=138|35=W|34=436|49=cServer|50=QUOTE|52=20260109-06:15:25.403|56=demo.pepperstone.5179095|55=10028|268=2|269=0|270=90894.35|269=1|270=90909.35|10=147|
2026-01-09 08:15:25.984 INFO [APP][IN] qual=QUOTE 8=FIX.4.4|9=138|35=W|34=437|49=cServer|50=QUOTE|52=20260109-06:15:25.855|56=demo.pepperstone.5179095|55=10028|268=2|269=0|270=90894.95|269=1|270=90909.95|10=171|
2026-01-09 08:15:26.403 INFO [APP][IN] qual=QUOTE 8=FIX.4.4|9=138|35=W|34=438|49=cServer|50=QUOTE|52=20260109-06:15:26.274|56=demo.pepperstone.5179095|55=10028|268=2|269=0|270=90894.65|269=1|270=90909.65|10=162|
2026-01-09 08:15:26.836 INFO [APP][IN] qual=QUOTE 8=FIX.4.4|9=138|35=W|34=439|49=cServer|50=QUOTE|52=20260109-06:15:26.707|56=demo.pepperstone.5179095|55=10028|268=2|269=0|270=90894.66|269=1|270=90909.66|10=166|
2026-01-09 08:15:27.258 INFO [APP][IN] qual=QUOTE 8=FIX.4.4|9=138|35=W|34=440|49=cServer|50=QUOTE|52=20260109-06:15:27.130|56=demo.pepperstone.5179095|55=10028|268=2|269=0|270=90894.64|269=1|270=90909.64|10=145|
2026-01-09 08:15:27.688 INFO [APP][IN] qual=QUOTE 8=FIX.4.4|9=138|35=W|34=441|49=cServer|50=QUOTE|52=20260109-06:15:27.559|56=demo.pepperstone.5179095|55=10028|268=2|269=0|270=90894.71|269=1|270=90909.71|10=157|
2026-01-09 08:15:28.090 INFO [APP][IN] qual=QUOTE 8=FIX.4.4|9=138|35=W|34=442|49=cServer|50=QUOTE|52=20260109-06:15:27.961|56=demo.pepperstone.5179095|55=10028|268=2|269=0|270=90895.36|269=1|270=90910.36|10=150|
2026-01-09 08:15:28.541 INFO [APP][IN] qual=QUOTE 8=FIX.4.4|9=138|35=W|34=443|49=cServer|50=QUOTE|52=20260109-06:15:28.412|56=demo.pepperstone.5179095|55=10028|268=2|269=0|270=90888.46|269=1|270=90903.46|10=149|
2026-01-09 08:15:29.045 INFO [APP][IN] qual=QUOTE 8=FIX.4.4|9=138|35=W|34=444|49=cServer|50=QUOTE|52=20260109-06:15:28.915|56=demo.pepperstone.5179095|55=10028|268=2|269=0|270=90888.37|269=1|270=90903.37|10=158|
2026-01-09 08:15:29.452 INFO [APP][IN] qual=QUOTE 8=FIX.4.4|9=138|35=W|34=445|49=cServer|50=QUOTE|52=20260109-06:15:29.323|56=demo.pepperstone.5179095|55=10028|268=2|269=0|270=90888.58|269=1|270=90903.58|10=159|
2026-01-09 08:15:29.857 INFO [APP][IN] qual=QUOTE 8=FIX.4.4|9=138|35=W|34=446|49=cServer|50=QUOTE|52=20260109-06:15:29.728|56=demo.pepperstone.5179095|55=10028|268=2|269=0|270=90895.57|269=1|270=90910.57|10=163|
2026-01-09 08:15:30.260 INFO [APP][IN] qual=QUOTE 8=FIX.4.4|9=138|35=W|34=447|49=cServer|50=QUOTE|52=20260109-06:15:30.132|56=demo.pepperstone.5179095|55=10028|268=2|269=0|270=90895.79|269=1|270=90910.79|10=153|
2026-01-09 08:15:30.662 INFO [APP][IN] qual=QUOTE 8=FIX.4.4|9=138|35=W|34=448|49=cServer|50=QUOTE|52=20260109-06:15:30.533|56=demo.pepperstone.5179095|55=10028|268=2|269=0|270=90901.82|269=1|270=90916.82|10=141|
2026-01-09 08:15:31.066 INFO [APP][IN] qual=QUOTE 8=FIX.4.4|9=138|35=W|34=449|49=cServer|50=QUOTE|52=20260109-06:15:30.937|56=demo.pepperstone.5179095|55=10028|268=2|269=0|270=90901.95|269=1|270=90916.95|10=158|
2026-01-09 08:15:31.467 INFO [APP][IN] qual=QUOTE 8=FIX.4.4|9=138|35=W|34=450|49=cServer|50=QUOTE|52=20260109-06:15:31.338|56=demo.pepperstone.5179095|55=10028|268=2|269=0|270=90903.15|269=1|270=90918.15|10=134|
2026-01-09 08:15:31.871 INFO [APP][IN] qual=QUOTE 8=FIX.4.4|9=138|35=W|34=451|49=cServer|50=QUOTE|52=20260109-06:15:31.742|56=demo.pepperstone.5179095|55=10028|268=2|269=0|270=90903.54|269=1|270=90918.54|10=140|
2026-01-09 08:15:32.318 INFO [APP][IN] qual=QUOTE 8=FIX.4.4|9=138|35=W|34=452|49=cServer|50=QUOTE|52=20260109-06:15:32.189|56=demo.pepperstone.5179095|55=10028|268=2|269=0|270=90902.26|269=1|270=90917.26|10=143|
2026-01-09 08:15:32.719 INFO [APP][IN] qual=QUOTE 8=FIX.4.4|9=138|35=W|34=453|49=cServer|50=QUOTE|52=20260109-06:15:32.590|56=demo.pepperstone.5179095|55=10028|268=2|269=0|270=90902.51|269=1|270=90917.51|10=136|
2026-01-09 08:15:33.120 INFO [APP][IN] qual=QUOTE 8=FIX.4.4|9=138|35=W|34=454|49=cServer|50=QUOTE|52=20260109-06:15:32.991|56=demo.pepperstone.5179095|55=10028|268=2|269=0|270=90902.32|269=1|270=90917.32|10=140|
2026-01-09 08:15:33.520 INFO [APP][IN] qual=QUOTE 8=FIX.4.4|9=138|35=W|34=455|49=cServer|50=QUOTE|52=20260109-06:15:33.391|56=demo.pepperstone.5179095|55=10028|268=2|269=0|270=90905.19|269=1|270=90920.19|10=143|
2026-01-09 08:15:33.925 INFO [APP][IN] qual=QUOTE 8=FIX.4.4|9=136|35=W|34=456|49=cServer|50=QUOTE|52=20260109-06:15:33.796|56=demo.pepperstone.5179095|55=10028|268=2|269=0|270=90915.9|269=1|270=90930.9|10=055|
